{
  "contractName": "BattleShipGame",
  "abi": [
    {
      "inputs": [],
      "stateMutability": "nonpayable",
      "type": "constructor"
    },
    {
      "inputs": [
        {
          "internalType": "string",
          "name": "myError",
          "type": "string"
        }
      ],
      "name": "OutputError",
      "type": "error"
    },
    {
      "anonymous": false,
      "inputs": [
        {
          "indexed": false,
          "internalType": "address",
          "name": "_sender",
          "type": "address"
        },
        {
          "indexed": false,
          "internalType": "uint256",
          "name": "_amount",
          "type": "uint256"
        },
        {
          "indexed": true,
          "internalType": "uint256",
          "name": "_gameId",
          "type": "uint256"
        }
      ],
      "name": "AmountEthConfirm",
      "type": "event"
    },
    {
      "anonymous": false,
      "inputs": [
        {
          "indexed": false,
          "internalType": "address",
          "name": "_sender",
          "type": "address"
        },
        {
          "indexed": false,
          "internalType": "uint256",
          "name": "_amount",
          "type": "uint256"
        },
        {
          "indexed": true,
          "internalType": "uint256",
          "name": "_gameId",
          "type": "uint256"
        }
      ],
      "name": "AmountEthOffer",
      "type": "event"
    },
    {
      "anonymous": false,
      "inputs": [
        {
          "indexed": true,
          "internalType": "uint256",
          "name": "_gameId",
          "type": "uint256"
        }
      ],
      "name": "GameCreated",
      "type": "event"
    },
    {
      "anonymous": false,
      "inputs": [
        {
          "indexed": true,
          "internalType": "uint256",
          "name": "_gameId",
          "type": "uint256"
        },
        {
          "indexed": false,
          "internalType": "address",
          "name": "_creator",
          "type": "address"
        },
        {
          "indexed": false,
          "internalType": "address",
          "name": "_joiner",
          "type": "address"
        },
        {
          "indexed": false,
          "internalType": "uint256",
          "name": "_boardSize",
          "type": "uint256"
        },
        {
          "indexed": false,
          "internalType": "uint256",
          "name": "_shipNum",
          "type": "uint256"
        },
        {
          "indexed": false,
          "internalType": "uint256",
          "name": "_ethAmount",
          "type": "uint256"
        }
      ],
      "name": "GameJoined",
      "type": "event"
    },
    {
      "inputs": [
        {
          "internalType": "uint256",
          "name": "",
          "type": "uint256"
        }
      ],
      "name": "avaibleGame",
      "outputs": [
        {
          "internalType": "uint256",
          "name": "",
          "type": "uint256"
        }
      ],
      "stateMutability": "view",
      "type": "function",
      "constant": true
    },
    {
      "inputs": [],
      "name": "gameId",
      "outputs": [
        {
          "internalType": "uint256",
          "name": "",
          "type": "uint256"
        }
      ],
      "stateMutability": "view",
      "type": "function",
      "constant": true
    },
    {
      "inputs": [
        {
          "internalType": "uint256",
          "name": "",
          "type": "uint256"
        }
      ],
      "name": "gameList",
      "outputs": [
        {
          "internalType": "address",
          "name": "creator",
          "type": "address"
        },
        {
          "internalType": "address",
          "name": "joiner",
          "type": "address"
        },
        {
          "internalType": "uint256",
          "name": "boardSize",
          "type": "uint256"
        },
        {
          "internalType": "uint256",
          "name": "shipNum",
          "type": "uint256"
        },
        {
          "internalType": "uint256",
          "name": "ethAmount",
          "type": "uint256"
        },
        {
          "internalType": "bool",
          "name": "openGame",
          "type": "bool"
        }
      ],
      "stateMutability": "view",
      "type": "function",
      "constant": true
    },
    {
      "inputs": [],
      "name": "getId",
      "outputs": [
        {
          "internalType": "uint256",
          "name": "toReturn",
          "type": "uint256"
        }
      ],
      "stateMutability": "nonpayable",
      "type": "function"
    },
    {
      "inputs": [],
      "name": "randomGame",
      "outputs": [
        {
          "internalType": "uint256",
          "name": "randGameId",
          "type": "uint256"
        }
      ],
      "stateMutability": "nonpayable",
      "type": "function"
    },
    {
      "inputs": [
        {
          "internalType": "uint256",
          "name": "_boardSize",
          "type": "uint256"
        },
        {
          "internalType": "uint256",
          "name": "_shipNum",
          "type": "uint256"
        }
      ],
      "name": "createGame",
      "outputs": [],
      "stateMutability": "nonpayable",
      "type": "function"
    },
    {
      "inputs": [
        {
          "internalType": "uint256",
          "name": "_gameId",
          "type": "uint256"
        }
      ],
      "name": "joinGame",
      "outputs": [],
      "stateMutability": "nonpayable",
      "type": "function"
    },
    {
      "inputs": [
        {
          "internalType": "uint256",
          "name": "_gameId",
          "type": "uint256"
        },
        {
          "internalType": "uint256",
          "name": "_amount",
          "type": "uint256"
        }
      ],
      "name": "AmountEthCommit",
      "outputs": [],
      "stateMutability": "nonpayable",
      "type": "function"
    },
    {
      "inputs": [
        {
          "internalType": "uint256",
          "name": "_gameId",
          "type": "uint256"
        }
      ],
      "name": "AmountEthAccept",
      "outputs": [],
      "stateMutability": "nonpayable",
      "type": "function"
    }
  ],
  "bytecode": "0x6080604052600160025534801561001557600080fd5b50610a6d806100256000396000f3fe608060405234801561001057600080fd5b50600436106100935760003560e01c8063a4933c8111610066578063a4933c811461010a578063c6cfd08e1461013a578063d7c81b551461016f578063d9ad3ef51461018d578063efaa55a0146101ab57610093565b8063129bd5d5146100985780635d1ca631146100b457806360104cef146100d2578063893e796c146100ee575b600080fd5b6100b260048036038101906100ad9190610744565b6101c7565b005b6100bc610219565b6040516100c99190610780565b60405180910390f35b6100ec60048036038101906100e7919061079b565b610237565b005b6101086004803603810190610103919061079b565b6103dd565b005b610124600480360381019061011f9190610744565b61041b565b6040516101319190610780565b60405180910390f35b610154600480360381019061014f9190610744565b61043f565b60405161016696959493929190610837565b60405180910390f35b6101776104c8565b6040516101849190610780565b60405180910390f35b6101956104ce565b6040516101a29190610780565b60405180910390f35b6101c560048036038101906101c09190610744565b610564565b005b807f5c75b29c09bdc8b11aca31f82f9303ca5e6780b9c273b8dd5110841e5fe733a2336000808581526020019081526020016000206004015460405161020e929190610898565b60405180910390a250565b60006002600081548092919061022e906108f0565b91905055905090565b6000610241610219565b90506040518060c001604052803373ffffffffffffffffffffffffffffffffffffffff168152602001600073ffffffffffffffffffffffffffffffffffffffff168152602001848152602001838152602001600081526020016001151581525060008083815260200190815260200160002060008201518160000160006101000a81548173ffffffffffffffffffffffffffffffffffffffff021916908373ffffffffffffffffffffffffffffffffffffffff16021790555060208201518160010160006101000a81548173ffffffffffffffffffffffffffffffffffffffff021916908373ffffffffffffffffffffffffffffffffffffffff16021790555060408201518160020155606082015181600301556080820151816004015560a08201518160050160006101000a81548160ff0219169083151502179055509050506001819080600181540180825580915050600190039060005260206000200160009091909190915055807fbd19c47e9925eb6f7be8bb1c13a841e0240aaeaf17f217e90022e9c8eb66877f60405160405180910390a2505050565b817fa25cc8f5c820a4017c3336fc73d771690fb894367b47d97cf22511e974c9ed71338360405161040f929190610898565b60405180910390a25050565b6001818154811061042b57600080fd5b906000526020600020016000915090505481565b60006020528060005260406000206000915090508060000160009054906101000a900473ffffffffffffffffffffffffffffffffffffffff16908060010160009054906101000a900473ffffffffffffffffffffffffffffffffffffffff16908060020154908060030154908060040154908060050160009054906101000a900460ff16905086565b60025481565b600080600180549050036104e55760009050610561565b60005b60018054905081101561055b576001818154811061050957610508610938565b5b90600052602060002001549150600082146105485760006001828154811061053457610533610938565b5b906000526020600020018190555050610561565b8080610553906108f0565b9150506104e8565b50600090505b90565b6001808054905010156105ac576040517f9a9be8fa0000000000000000000000000000000000000000000000000000000081526004016105a3906109c4565b60405180910390fd5b60008082036105c4576105bd6104ce565b90506105c8565b8190505b3360008083815260200190815260200160002060010160006101000a81548173ffffffffffffffffffffffffffffffffffffffff021916908373ffffffffffffffffffffffffffffffffffffffff160217905550817f66bacdfb07a49afa060b23ca1e16974d1919771fff2fd57717ab8857b0673b3460008084815260200190815260200160002060000160009054906101000a900473ffffffffffffffffffffffffffffffffffffffff1660008085815260200190815260200160002060010160009054906101000a900473ffffffffffffffffffffffffffffffffffffffff166000808681526020019081526020016000206002015460008087815260200190815260200160002060030154600080888152602001908152602001600020600401546040516106fd9594939291906109e4565b60405180910390a25050565b600080fd5b6000819050919050565b6107218161070e565b811461072c57600080fd5b50565b60008135905061073e81610718565b92915050565b60006020828403121561075a57610759610709565b5b60006107688482850161072f565b91505092915050565b61077a8161070e565b82525050565b60006020820190506107956000830184610771565b92915050565b600080604083850312156107b2576107b1610709565b5b60006107c08582860161072f565b92505060206107d18582860161072f565b9150509250929050565b600073ffffffffffffffffffffffffffffffffffffffff82169050919050565b6000610806826107db565b9050919050565b610816816107fb565b82525050565b60008115159050919050565b6108318161081c565b82525050565b600060c08201905061084c600083018961080d565b610859602083018861080d565b6108666040830187610771565b6108736060830186610771565b6108806080830185610771565b61088d60a0830184610828565b979650505050505050565b60006040820190506108ad600083018561080d565b6108ba6020830184610771565b9392505050565b7f4e487b7100000000000000000000000000000000000000000000000000000000600052601160045260246000fd5b60006108fb8261070e565b91507fffffffffffffffffffffffffffffffffffffffffffffffffffffffffffffffff820361092d5761092c6108c1565b5b600182019050919050565b7f4e487b7100000000000000000000000000000000000000000000000000000000600052603260045260246000fd5b600082825260208201905092915050565b7f4e6f206f70656e2067616d657300000000000000000000000000000000000000600082015250565b60006109ae600d83610967565b91506109b982610978565b602082019050919050565b600060208201905081810360008301526109dd816109a1565b9050919050565b600060a0820190506109f9600083018861080d565b610a06602083018761080d565b610a136040830186610771565b610a206060830185610771565b610a2d6080830184610771565b969550505050505056fea26469706673582212205136d1f30152e4b074b99ddf840967fe27a47ff4eef7a104855b69ffdbfa99d664736f6c63430008130033",
  "immutableReferences": {},
  "source": "// SPDX-License-Identifier: MIT\npragma solidity >=0.4.22 <0.9.0;\n\ncontract BattleShipGame {\n    struct gameInfo {\n        address creator;\n        address joiner;\n        uint256 boardSize;\n        uint256 shipNum;\n        uint256 ethAmount;\n        bool openGame;\n    }\n\n    mapping(uint256 => gameInfo) public gameList; //map of game's ID\n    uint256[] public avaibleGame;\n\n    uint256 public gameId=1;\n\n    error OutputError(string myError);\n\n    event AmountEthOffer(address _sender, uint256 _amount, uint256 indexed _gameId);\n\n    event AmountEthConfirm(address _sender, uint256 _amount, uint256 indexed _gameId);\n\n    event GameCreated(uint256 indexed _gameId);\n\n    event GameJoined(\n        uint256 indexed _gameId,\n        address _creator,\n        address _joiner,\n        uint256 _boardSize,\n        uint256 _shipNum,\n        uint256 _ethAmount\n    );\n\n\n    constructor () {}\n\n    function getId() public returns (uint256 toReturn){\n        toReturn = gameId++;\n        return toReturn;\n    }\n\n    function randomGame() public returns (uint256 randGameId) {\n        if(avaibleGame.length == 0){\n            return 0;\n        }\n\n        for(uint256 i=0; i<avaibleGame.length; i++){\n            randGameId = avaibleGame[i];\n            if(randGameId!=0){\n                avaibleGame[i] = 0;\n                return randGameId;\n            }\n        }\n\n        return 0;\n    }\n\n    function createGame(uint256 _boardSize, uint256 _shipNum) public {\n        uint256 newGameId = getId();\n\n        gameList[newGameId] = gameInfo(\n            msg.sender,\n            address(0),\n            _boardSize,\n            _shipNum,\n            0,\n            true\n        );\n        avaibleGame.push(newGameId);\n        emit GameCreated(newGameId);\n    }\n\n    function joinGame(uint256 _gameId) public {\n        if(avaibleGame.length < 1){\n            revert OutputError({myError: \"No open games\"});\n        }\n        \n        uint256 chosenGameId;\n\n        if(_gameId == 0){ //random game choice\n            chosenGameId = randomGame();\n        }\n        else{ //specific game\n            chosenGameId = _gameId;\n        }\n\n        gameList[chosenGameId].joiner = msg.sender;\n        emit GameJoined(\n            _gameId,\n            gameList[chosenGameId].creator,\n            gameList[chosenGameId].joiner,\n            gameList[chosenGameId].boardSize,\n            gameList[chosenGameId].shipNum,\n            gameList[chosenGameId].ethAmount);\n    }\n\n\n    function AmountEthCommit(uint256 _gameId, uint256 _amount) public {\n        emit AmountEthOffer(\n            msg.sender,\n            _amount,\n            _gameId);\n    }\n\n    function AmountEthAccept(uint256 _gameId) public {\n        emit AmountEthConfirm(\n            msg.sender,\n            gameList[_gameId].ethAmount,\n            _gameId);\n    }\n}\n",
  "sourcePath": "/mnt/storage/Magistrale/P2PB/ProgettoP2P/P2P_Project/contracts/BattleShipGame.sol",
  "compiler": {
    "name": "solc",
    "version": "0.8.19+commit.7dd6d404.Emscripten.clang"
  },
  "schemaVersion": "3.4.13",
  "updatedAt": "2023-06-24T09:29:42.074Z",
  "networkType": "ethereum",
  "devdoc": {
    "kind": "dev",
    "methods": {},
    "version": 1
  },
  "userdoc": {
    "kind": "user",
    "methods": {},
    "version": 1
  }
}