{
  "contractName": "BattleShipGame",
  "abi": [
    {
      "inputs": [],
      "stateMutability": "nonpayable",
      "type": "constructor"
    },
    {
      "inputs": [
        {
          "internalType": "string",
          "name": "myError",
          "type": "string"
        }
      ],
      "name": "OutputError",
      "type": "error"
    },
    {
      "anonymous": false,
      "inputs": [
        {
          "indexed": false,
          "internalType": "address",
          "name": "_sender",
          "type": "address"
        },
        {
          "indexed": false,
          "internalType": "uint256",
          "name": "_amount",
          "type": "uint256"
        },
        {
          "indexed": true,
          "internalType": "uint256",
          "name": "_gameId",
          "type": "uint256"
        },
        {
          "indexed": false,
          "internalType": "bool",
          "name": "response",
          "type": "bool"
        }
      ],
      "name": "AmountEthResponse",
      "type": "event"
    },
    {
      "anonymous": false,
      "inputs": [
        {
          "indexed": true,
          "internalType": "uint256",
          "name": "_gameId",
          "type": "uint256"
        }
      ],
      "name": "GameCreated",
      "type": "event"
    },
    {
      "anonymous": false,
      "inputs": [
        {
          "indexed": true,
          "internalType": "uint256",
          "name": "_gameId",
          "type": "uint256"
        },
        {
          "indexed": false,
          "internalType": "address",
          "name": "_winner",
          "type": "address"
        },
        {
          "indexed": false,
          "internalType": "address",
          "name": "_loser",
          "type": "address"
        },
        {
          "indexed": false,
          "internalType": "uint256",
          "name": "_reason",
          "type": "uint256"
        }
      ],
      "name": "GameEnded",
      "type": "event"
    },
    {
      "anonymous": false,
      "inputs": [
        {
          "indexed": true,
          "internalType": "uint256",
          "name": "_gameId",
          "type": "uint256"
        },
        {
          "indexed": false,
          "internalType": "address",
          "name": "_creator",
          "type": "address"
        },
        {
          "indexed": false,
          "internalType": "address",
          "name": "_joiner",
          "type": "address"
        },
        {
          "indexed": false,
          "internalType": "uint256",
          "name": "_boardSize",
          "type": "uint256"
        },
        {
          "indexed": false,
          "internalType": "uint256",
          "name": "_shipNum",
          "type": "uint256"
        },
        {
          "indexed": false,
          "internalType": "uint256",
          "name": "_ethAmount",
          "type": "uint256"
        }
      ],
      "name": "GameJoined",
      "type": "event"
    },
    {
      "anonymous": false,
      "inputs": [
        {
          "indexed": true,
          "internalType": "uint256",
          "name": "_gameId",
          "type": "uint256"
        },
        {
          "indexed": false,
          "internalType": "address",
          "name": "_address",
          "type": "address"
        },
        {
          "indexed": false,
          "internalType": "uint256",
          "name": "_row",
          "type": "uint256"
        },
        {
          "indexed": false,
          "internalType": "uint256",
          "name": "_col",
          "type": "uint256"
        },
        {
          "indexed": false,
          "internalType": "uint256",
          "name": "_result",
          "type": "uint256"
        },
        {
          "indexed": false,
          "internalType": "uint256",
          "name": "_shipsRemaining",
          "type": "uint256"
        }
      ],
      "name": "ShootResult",
      "type": "event"
    },
    {
      "anonymous": false,
      "inputs": [
        {
          "indexed": true,
          "internalType": "uint256",
          "name": "_gameId",
          "type": "uint256"
        },
        {
          "indexed": false,
          "internalType": "address",
          "name": "_address",
          "type": "address"
        },
        {
          "indexed": false,
          "internalType": "uint256",
          "name": "_row",
          "type": "uint256"
        },
        {
          "indexed": false,
          "internalType": "uint256",
          "name": "_col",
          "type": "uint256"
        }
      ],
      "name": "ShootShip",
      "type": "event"
    },
    {
      "anonymous": false,
      "inputs": [
        {
          "indexed": true,
          "internalType": "uint256",
          "name": "_gameId",
          "type": "uint256"
        },
        {
          "indexed": false,
          "internalType": "bytes32",
          "name": "_merkleRootCreator",
          "type": "bytes32"
        },
        {
          "indexed": false,
          "internalType": "bytes32",
          "name": "_merkleRootJoiner",
          "type": "bytes32"
        }
      ],
      "name": "StartGame",
      "type": "event"
    },
    {
      "inputs": [
        {
          "internalType": "uint256",
          "name": "",
          "type": "uint256"
        }
      ],
      "name": "avaibleGame",
      "outputs": [
        {
          "internalType": "uint256",
          "name": "",
          "type": "uint256"
        }
      ],
      "stateMutability": "view",
      "type": "function",
      "constant": true
    },
    {
      "inputs": [],
      "name": "gameId",
      "outputs": [
        {
          "internalType": "uint256",
          "name": "",
          "type": "uint256"
        }
      ],
      "stateMutability": "view",
      "type": "function",
      "constant": true
    },
    {
      "inputs": [
        {
          "internalType": "uint256",
          "name": "",
          "type": "uint256"
        }
      ],
      "name": "gameList",
      "outputs": [
        {
          "internalType": "address",
          "name": "creator",
          "type": "address"
        },
        {
          "internalType": "address",
          "name": "joiner",
          "type": "address"
        },
        {
          "internalType": "uint256",
          "name": "boardSize",
          "type": "uint256"
        },
        {
          "internalType": "uint256",
          "name": "shipNum",
          "type": "uint256"
        },
        {
          "internalType": "uint256",
          "name": "ethAmount",
          "type": "uint256"
        },
        {
          "internalType": "uint256",
          "name": "creatorEth",
          "type": "uint256"
        },
        {
          "internalType": "uint256",
          "name": "joinerEth",
          "type": "uint256"
        },
        {
          "internalType": "bytes32",
          "name": "creatorMerkleRoot",
          "type": "bytes32"
        },
        {
          "internalType": "bytes32",
          "name": "joinerMerkleRoot",
          "type": "bytes32"
        },
        {
          "internalType": "uint256",
          "name": "creatorNumShips",
          "type": "uint256"
        },
        {
          "internalType": "uint256",
          "name": "joinerNumShips",
          "type": "uint256"
        }
      ],
      "stateMutability": "view",
      "type": "function",
      "constant": true
    },
    {
      "inputs": [],
      "name": "getId",
      "outputs": [
        {
          "internalType": "uint256",
          "name": "toReturn",
          "type": "uint256"
        }
      ],
      "stateMutability": "nonpayable",
      "type": "function"
    },
    {
      "inputs": [
        {
          "internalType": "uint256",
          "name": "_gameId",
          "type": "uint256"
        }
      ],
      "name": "removeFromArray",
      "outputs": [
        {
          "internalType": "bool",
          "name": "",
          "type": "bool"
        }
      ],
      "stateMutability": "nonpayable",
      "type": "function"
    },
    {
      "inputs": [],
      "name": "randomGame",
      "outputs": [
        {
          "internalType": "uint256",
          "name": "randGameId",
          "type": "uint256"
        }
      ],
      "stateMutability": "nonpayable",
      "type": "function"
    },
    {
      "inputs": [
        {
          "internalType": "uint256",
          "name": "_boardSize",
          "type": "uint256"
        },
        {
          "internalType": "uint256",
          "name": "_shipNum",
          "type": "uint256"
        },
        {
          "internalType": "uint256",
          "name": "_ethAmount",
          "type": "uint256"
        }
      ],
      "name": "createGame",
      "outputs": [],
      "stateMutability": "nonpayable",
      "type": "function"
    },
    {
      "inputs": [
        {
          "internalType": "uint256",
          "name": "_gameId",
          "type": "uint256"
        }
      ],
      "name": "joinGame",
      "outputs": [],
      "stateMutability": "nonpayable",
      "type": "function"
    },
    {
      "inputs": [
        {
          "internalType": "uint256",
          "name": "_gameId",
          "type": "uint256"
        },
        {
          "internalType": "bool",
          "name": "_response",
          "type": "bool"
        }
      ],
      "name": "amountEthDecision",
      "outputs": [],
      "stateMutability": "nonpayable",
      "type": "function"
    },
    {
      "inputs": [
        {
          "internalType": "uint256",
          "name": "_gameId",
          "type": "uint256"
        }
      ],
      "name": "sendEth",
      "outputs": [],
      "stateMutability": "payable",
      "type": "function",
      "payable": true
    },
    {
      "inputs": [
        {
          "internalType": "uint256",
          "name": "_gameId",
          "type": "uint256"
        },
        {
          "internalType": "bytes32",
          "name": "_merkleRoot",
          "type": "bytes32"
        }
      ],
      "name": "submitBoard",
      "outputs": [],
      "stateMutability": "nonpayable",
      "type": "function"
    },
    {
      "inputs": [
        {
          "internalType": "uint256",
          "name": "_gameId",
          "type": "uint256"
        },
        {
          "internalType": "uint256",
          "name": "_row",
          "type": "uint256"
        },
        {
          "internalType": "uint256",
          "name": "_col",
          "type": "uint256"
        }
      ],
      "name": "shoot",
      "outputs": [],
      "stateMutability": "nonpayable",
      "type": "function"
    },
    {
      "inputs": [
        {
          "internalType": "uint256",
          "name": "_gameId",
          "type": "uint256"
        },
        {
          "internalType": "uint256",
          "name": "_row",
          "type": "uint256"
        },
        {
          "internalType": "uint256",
          "name": "_col",
          "type": "uint256"
        },
        {
          "internalType": "uint256",
          "name": "_result",
          "type": "uint256"
        },
        {
          "internalType": "bytes32",
          "name": "_hash",
          "type": "bytes32"
        },
        {
          "internalType": "bytes32[]",
          "name": "_merkleProof",
          "type": "bytes32[]"
        }
      ],
      "name": "shootResult",
      "outputs": [],
      "stateMutability": "payable",
      "type": "function",
      "payable": true
    }
  ],
  "bytecode": "0x6080604052600160025534801561001557600080fd5b50612b34806100256000396000f3fe6080604052600436106100c25760003560e01c8063c558b42c1161007f578063d7c81b5511610059578063d7c81b5514610252578063d9ad3ef51461027d578063eb56ea90146102a8578063efaa55a0146102e5576100c2565b8063c558b42c146101c6578063c6cfd08e146101ef578063cfc5484814610236576100c2565b80630328f6fb146100c75780635d1ca631146100f0578063685385f31461011b57806395e1c6fb14610144578063a4933c8114610160578063c27415211461019d575b600080fd5b3480156100d357600080fd5b506100ee60048036038101906100e99190611d84565b61030e565b005b3480156100fc57600080fd5b5061010561076c565b6040516101129190611dd3565b60405180910390f35b34801561012757600080fd5b50610142600480360381019061013d9190611e26565b61078a565b005b61015e60048036038101906101599190611fbf565b6109b8565b005b34801561016c57600080fd5b5061018760048036038101906101829190612068565b611009565b6040516101949190611dd3565b60405180910390f35b3480156101a957600080fd5b506101c460048036038101906101bf9190612095565b61102d565b005b3480156101d257600080fd5b506101ed60048036038101906101e89190612095565b611267565b005b3480156101fb57600080fd5b5061021660048036038101906102119190612068565b6114de565b60405161022d9b9a99989796959493929190612138565b60405180910390f35b610250600480360381019061024b9190612068565b611578565b005b34801561025e57600080fd5b5061026761185d565b6040516102749190611dd3565b60405180910390f35b34801561028957600080fd5b50610292611863565b60405161029f9190611dd3565b60405180910390f35b3480156102b457600080fd5b506102cf60048036038101906102ca9190612068565b6118b6565b6040516102dc91906121f2565b60405180910390f35b3480156102f157600080fd5b5061030c60048036038101906103079190612068565b6119ea565b005b60008211610351576040517f9a9be8fa0000000000000000000000000000000000000000000000000000000081526004016103489061226a565b60405180910390fd5b3373ffffffffffffffffffffffffffffffffffffffff1660008084815260200190815260200160002060000160009054906101000a900473ffffffffffffffffffffffffffffffffffffffff1673ffffffffffffffffffffffffffffffffffffffff161415801561042357503373ffffffffffffffffffffffffffffffffffffffff1660008084815260200190815260200160002060010160009054906101000a900473ffffffffffffffffffffffffffffffffffffffff1673ffffffffffffffffffffffffffffffffffffffff1614155b15610463576040517f9a9be8fa00000000000000000000000000000000000000000000000000000000815260040161045a906122d6565b60405180910390fd5b3373ffffffffffffffffffffffffffffffffffffffff1660008084815260200190815260200160002060000160009054906101000a900473ffffffffffffffffffffffffffffffffffffffff1673ffffffffffffffffffffffffffffffffffffffff161480156104eb57506000801b6000808481526020019081526020016000206007015414155b8061057a57503373ffffffffffffffffffffffffffffffffffffffff1660008084815260200190815260200160002060010160009054906101000a900473ffffffffffffffffffffffffffffffffffffffff1673ffffffffffffffffffffffffffffffffffffffff1614801561057957506000801b6000808481526020019081526020016000206008015414155b5b156105ba576040517f9a9be8fa0000000000000000000000000000000000000000000000000000000081526004016105b190612342565b60405180910390fd5b3373ffffffffffffffffffffffffffffffffffffffff1660008084815260200190815260200160002060000160009054906101000a900473ffffffffffffffffffffffffffffffffffffffff1673ffffffffffffffffffffffffffffffffffffffff1603610641578060008084815260200190815260200160002060070181905550610704565b3373ffffffffffffffffffffffffffffffffffffffff1660008084815260200190815260200160002060010160009054906101000a900473ffffffffffffffffffffffffffffffffffffffff1673ffffffffffffffffffffffffffffffffffffffff16036106c8578060008084815260200190815260200160002060080181905550610703565b6040517f9a9be8fa0000000000000000000000000000000000000000000000000000000081526004016106fa906122d6565b60405180910390fd5b5b817f595b7b6a75388d9a9d82ff3f71da50be33f56f7915148fdb3fd632a0234a39616000808581526020019081526020016000206007015460008086815260200190815260200160002060080154604051610760929190612362565b60405180910390a25050565b600060026000815480929190610781906123ba565b91905055905090565b600082116107cd576040517f9a9be8fa0000000000000000000000000000000000000000000000000000000081526004016107c49061226a565b60405180910390fd5b3373ffffffffffffffffffffffffffffffffffffffff1660008084815260200190815260200160002060000160009054906101000a900473ffffffffffffffffffffffffffffffffffffffff1673ffffffffffffffffffffffffffffffffffffffff161415801561089f57503373ffffffffffffffffffffffffffffffffffffffff1660008084815260200190815260200160002060010160009054906101000a900473ffffffffffffffffffffffffffffffffffffffff1673ffffffffffffffffffffffffffffffffffffffff1614155b156108df576040517f9a9be8fa0000000000000000000000000000000000000000000000000000000081526004016108d6906122d6565b60405180910390fd5b8061096357600080600084815260200190815260200160002060010160006101000a81548173ffffffffffffffffffffffffffffffffffffffff021916908373ffffffffffffffffffffffffffffffffffffffff16021790555060018290806001815401808255809150506001900390600052602060002001600090919091909150555b817f55329a170c309fdb206036da4397784f0560d2264c68e25316be295379a9eae83360008086815260200190815260200160002060040154846040516109ac93929190612402565b60405180910390a25050565b600086116109fb576040517f9a9be8fa0000000000000000000000000000000000000000000000000000000081526004016109f29061226a565b60405180910390fd5b3373ffffffffffffffffffffffffffffffffffffffff1660008088815260200190815260200160002060000160009054906101000a900473ffffffffffffffffffffffffffffffffffffffff1673ffffffffffffffffffffffffffffffffffffffff1614158015610acd57503373ffffffffffffffffffffffffffffffffffffffff1660008088815260200190815260200160002060010160009054906101000a900473ffffffffffffffffffffffffffffffffffffffff1673ffffffffffffffffffffffffffffffffffffffff1614155b15610b0d576040517f9a9be8fa000000000000000000000000000000000000000000000000000000008152600401610b04906122d6565b60405180910390fd5b60008060008089815260200190815260200160002060000160009054906101000a900473ffffffffffffffffffffffffffffffffffffffff1673ffffffffffffffffffffffffffffffffffffffff163373ffffffffffffffffffffffffffffffffffffffff1603610bcd5760008089815260200190815260200160002060010160009054906101000a900473ffffffffffffffffffffffffffffffffffffffff169150600080898152602001908152602001600020600701549050610c1e565b60008089815260200190815260200160002060000160009054906101000a900473ffffffffffffffffffffffffffffffffffffffff1691506000808981526020019081526020016000206008015490505b60008490506000876000808c8152602001908152602001600020600201548a610c479190612439565b610c51919061247b565b905060005b8551811015610d25576000600283610c6e91906124de565b03610cbd5782868281518110610c8757610c8661250f565b5b6020026020010151604051602001610ca092919061255f565b604051602081830303815290604052805190602001209250610d03565b858181518110610cd057610ccf61250f565b5b602002602001015183604051602001610cea92919061255f565b6040516020818303038152906040528051906020012092505b600282610d10919061258b565b91508080610d1d906123ba565b915050610c56565b50600060649050828403610e9e576000808c815260200190815260200160002060000160009054906101000a900473ffffffffffffffffffffffffffffffffffffffff1673ffffffffffffffffffffffffffffffffffffffff163373ffffffffffffffffffffffffffffffffffffffff1603610dfc5760018803610ddf5760016000808d8152602001908152602001600020600a0154610dc591906125bc565b6000808d8152602001908152602001600020600a01819055505b6000808c8152602001908152602001600020600a01549050610e59565b60018803610e405760016000808d815260200190815260200160002060090154610e2691906125bc565b6000808d8152602001908152602001600020600901819055505b6000808c81526020019081526020016000206009015490505b8a7f682729007816d548060438637183b635ada59e9f6892be5bc9bc6043b9a35919868c8c8c86604051610e919594939291906125f0565b60405180910390a2610f4d565b8a7f470cc86631700e08c11a6d20ecd69bb482a129f5071a1057455be0c10be2686686336000604051610ed393929190612688565b60405180910390a28473ffffffffffffffffffffffffffffffffffffffff166108fc60026000808f815260200190815260200160002060040154610f179190612439565b9081150290604051600060405180830381858888f19350505050158015610f42573d6000803e3d6000fd5b505050505050611001565b60008111610ffb578473ffffffffffffffffffffffffffffffffffffffff166108fc60026000808f815260200190815260200160002060040154610f919190612439565b9081150290604051600060405180830381858888f19350505050158015610fbc573d6000803e3d6000fd5b508a7f470cc86631700e08c11a6d20ecd69bb482a129f5071a1057455be0c10be2686686336001604051610ff2939291906126fa565b60405180910390a25b50505050505b505050505050565b6001818154811061101957600080fd5b906000526020600020016000915090505481565b60008311158061103e575060008211155b1561107e576040517f9a9be8fa000000000000000000000000000000000000000000000000000000008152600401611075906127a3565b60405180910390fd5b600061108861076c565b90506040518061016001604052803373ffffffffffffffffffffffffffffffffffffffff168152602001600073ffffffffffffffffffffffffffffffffffffffff16815260200185815260200184815260200183815260200160008152602001600081526020016000801b81526020016000801b81526020018481526020018481525060008083815260200190815260200160002060008201518160000160006101000a81548173ffffffffffffffffffffffffffffffffffffffff021916908373ffffffffffffffffffffffffffffffffffffffff16021790555060208201518160010160006101000a81548173ffffffffffffffffffffffffffffffffffffffff021916908373ffffffffffffffffffffffffffffffffffffffff16021790555060408201518160020155606082015181600301556080820151816004015560a0820151816005015560c0820151816006015560e082015181600701556101008201518160080155610120820151816009015561014082015181600a01559050506001819080600181540180825580915050600190039060005260206000200160009091909190915055807fbd19c47e9925eb6f7be8bb1c13a841e0240aaeaf17f217e90022e9c8eb66877f60405160405180910390a250505050565b600083116112aa576040517f9a9be8fa0000000000000000000000000000000000000000000000000000000081526004016112a19061226a565b60405180910390fd5b3373ffffffffffffffffffffffffffffffffffffffff1660008085815260200190815260200160002060000160009054906101000a900473ffffffffffffffffffffffffffffffffffffffff1673ffffffffffffffffffffffffffffffffffffffff161415801561137c57503373ffffffffffffffffffffffffffffffffffffffff1660008085815260200190815260200160002060010160009054906101000a900473ffffffffffffffffffffffffffffffffffffffff1673ffffffffffffffffffffffffffffffffffffffff1614155b156113bc576040517f9a9be8fa0000000000000000000000000000000000000000000000000000000081526004016113b3906122d6565b60405180910390fd5b600080600085815260200190815260200160002060000160009054906101000a900473ffffffffffffffffffffffffffffffffffffffff1673ffffffffffffffffffffffffffffffffffffffff163373ffffffffffffffffffffffffffffffffffffffff16036114635760008085815260200190815260200160002060010160009054906101000a900473ffffffffffffffffffffffffffffffffffffffff16905061149c565b60008085815260200190815260200160002060000160009054906101000a900473ffffffffffffffffffffffffffffffffffffffff1690505b837fa16c812880cd48fb28e27eb04ace25edead556e67c396ab7d2a93674adf55b438285856040516114d0939291906127c3565b60405180910390a250505050565b60006020528060005260406000206000915090508060000160009054906101000a900473ffffffffffffffffffffffffffffffffffffffff16908060010160009054906101000a900473ffffffffffffffffffffffffffffffffffffffff169080600201549080600301549080600401549080600501549080600601549080600701549080600801549080600901549080600a015490508b565b600081116115bb576040517f9a9be8fa0000000000000000000000000000000000000000000000000000000081526004016115b29061226a565b60405180910390fd5b3373ffffffffffffffffffffffffffffffffffffffff1660008083815260200190815260200160002060000160009054906101000a900473ffffffffffffffffffffffffffffffffffffffff1673ffffffffffffffffffffffffffffffffffffffff161415801561168d57503373ffffffffffffffffffffffffffffffffffffffff1660008083815260200190815260200160002060010160009054906101000a900473ffffffffffffffffffffffffffffffffffffffff1673ffffffffffffffffffffffffffffffffffffffff1614155b156116cd576040517f9a9be8fa0000000000000000000000000000000000000000000000000000000081526004016116c4906122d6565b60405180910390fd5b60003411611710576040517f08c379a000000000000000000000000000000000000000000000000000000000815260040161170790612846565b60405180910390fd5b3373ffffffffffffffffffffffffffffffffffffffff1660008083815260200190815260200160002060000160009054906101000a900473ffffffffffffffffffffffffffffffffffffffff1673ffffffffffffffffffffffffffffffffffffffff160361179757346000808381526020019081526020016000206005018190555061185a565b3373ffffffffffffffffffffffffffffffffffffffff1660008083815260200190815260200160002060010160009054906101000a900473ffffffffffffffffffffffffffffffffffffffff1673ffffffffffffffffffffffffffffffffffffffff160361181e573460008083815260200190815260200160002060060181905550611859565b6040517f9a9be8fa000000000000000000000000000000000000000000000000000000008152600401611850906122d6565b60405180910390fd5b5b50565b60025481565b6000806001805490500361187a57600090506118b3565b600161188a600180549050611cc4565b8154811061189b5761189a61250f565b5b906000526020600020015490506118b1816118b6565b505b90565b6000806000805b60018054905081101561190e5784600182815481106118df576118de61250f565b5b9060005260206000200154036118fb578092506001915061190e565b8080611906906123ba565b9150506118bd565b5080158061192157506001805490508210155b156119305780925050506119e5565b60008290505b6001808054905061194791906125bc565b8110156119ad576001808261195c919061247b565b8154811061196d5761196c61250f565b5b90600052602060002001546001828154811061198c5761198b61250f565b5b906000526020600020018190555080806119a5906123ba565b915050611936565b5060018080805490506119c091906125bc565b815481106119d1576119d061250f565b5b906000526020600020016000905580925050505b919050565b600180805490501015611a32576040517f9a9be8fa000000000000000000000000000000000000000000000000000000008152600401611a29906128b2565b60405180910390fd5b6000808203611a4a57611a43611863565b9050611a9c565b8190506000611a58826118b6565b905080611a9a576040517f9a9be8fa000000000000000000000000000000000000000000000000000000008152600401611a919061291e565b60405180910390fd5b505b60008111611adf576040517f9a9be8fa000000000000000000000000000000000000000000000000000000008152600401611ad69061298a565b60405180910390fd5b600073ffffffffffffffffffffffffffffffffffffffff1660008083815260200190815260200160002060010160009054906101000a900473ffffffffffffffffffffffffffffffffffffffff1673ffffffffffffffffffffffffffffffffffffffff1614611b83576040517f9a9be8fa000000000000000000000000000000000000000000000000000000008152600401611b7a906129f6565b60405180910390fd5b3360008083815260200190815260200160002060010160006101000a81548173ffffffffffffffffffffffffffffffffffffffff021916908373ffffffffffffffffffffffffffffffffffffffff160217905550807f66bacdfb07a49afa060b23ca1e16974d1919771fff2fd57717ab8857b0673b3460008084815260200190815260200160002060000160009054906101000a900473ffffffffffffffffffffffffffffffffffffffff1660008085815260200190815260200160002060010160009054906101000a900473ffffffffffffffffffffffffffffffffffffffff16600080868152602001908152602001600020600201546000808781526020019081526020016000206003015460008088815260200190815260200160002060040154604051611cb8959493929190612a16565b60405180910390a25050565b6000814233604051602001611cda929190612ad2565b6040516020818303038152906040528051906020012060001c611cfd91906124de565b9050919050565b6000604051905090565b600080fd5b600080fd5b6000819050919050565b611d2b81611d18565b8114611d3657600080fd5b50565b600081359050611d4881611d22565b92915050565b6000819050919050565b611d6181611d4e565b8114611d6c57600080fd5b50565b600081359050611d7e81611d58565b92915050565b60008060408385031215611d9b57611d9a611d0e565b5b6000611da985828601611d39565b9250506020611dba85828601611d6f565b9150509250929050565b611dcd81611d18565b82525050565b6000602082019050611de86000830184611dc4565b92915050565b60008115159050919050565b611e0381611dee565b8114611e0e57600080fd5b50565b600081359050611e2081611dfa565b92915050565b60008060408385031215611e3d57611e3c611d0e565b5b6000611e4b85828601611d39565b9250506020611e5c85828601611e11565b9150509250929050565b600080fd5b6000601f19601f8301169050919050565b7f4e487b7100000000000000000000000000000000000000000000000000000000600052604160045260246000fd5b611eb482611e6b565b810181811067ffffffffffffffff82111715611ed357611ed2611e7c565b5b80604052505050565b6000611ee6611d04565b9050611ef28282611eab565b919050565b600067ffffffffffffffff821115611f1257611f11611e7c565b5b602082029050602081019050919050565b600080fd5b6000611f3b611f3684611ef7565b611edc565b90508083825260208201905060208402830185811115611f5e57611f5d611f23565b5b835b81811015611f875780611f738882611d6f565b845260208401935050602081019050611f60565b5050509392505050565b600082601f830112611fa657611fa5611e66565b5b8135611fb6848260208601611f28565b91505092915050565b60008060008060008060c08789031215611fdc57611fdb611d0e565b5b6000611fea89828a01611d39565b9650506020611ffb89828a01611d39565b955050604061200c89828a01611d39565b945050606061201d89828a01611d39565b935050608061202e89828a01611d6f565b92505060a087013567ffffffffffffffff81111561204f5761204e611d13565b5b61205b89828a01611f91565b9150509295509295509295565b60006020828403121561207e5761207d611d0e565b5b600061208c84828501611d39565b91505092915050565b6000806000606084860312156120ae576120ad611d0e565b5b60006120bc86828701611d39565b93505060206120cd86828701611d39565b92505060406120de86828701611d39565b9150509250925092565b600073ffffffffffffffffffffffffffffffffffffffff82169050919050565b6000612113826120e8565b9050919050565b61212381612108565b82525050565b61213281611d4e565b82525050565b60006101608201905061214e600083018e61211a565b61215b602083018d61211a565b612168604083018c611dc4565b612175606083018b611dc4565b612182608083018a611dc4565b61218f60a0830189611dc4565b61219c60c0830188611dc4565b6121a960e0830187612129565b6121b7610100830186612129565b6121c5610120830185611dc4565b6121d3610140830184611dc4565b9c9b505050505050505050505050565b6121ec81611dee565b82525050565b600060208201905061220760008301846121e3565b92915050565b600082825260208201905092915050565b7f47616d65206964206973206e6567617469766521000000000000000000000000600082015250565b600061225460148361220d565b915061225f8261221e565b602082019050919050565b6000602082019050818103600083015261228381612247565b9050919050565b7f506c61796572206e6f7420696e20746861742067616d65210000000000000000600082015250565b60006122c060188361220d565b91506122cb8261228a565b602082019050919050565b600060208201905081810360008301526122ef816122b3565b9050919050565b7f426f61726420616c7265616479207375626d6974746564210000000000000000600082015250565b600061232c60188361220d565b9150612337826122f6565b602082019050919050565b6000602082019050818103600083015261235b8161231f565b9050919050565b60006040820190506123776000830185612129565b6123846020830184612129565b9392505050565b7f4e487b7100000000000000000000000000000000000000000000000000000000600052601160045260246000fd5b60006123c582611d18565b91507fffffffffffffffffffffffffffffffffffffffffffffffffffffffffffffffff82036123f7576123f661238b565b5b600182019050919050565b6000606082019050612417600083018661211a565b6124246020830185611dc4565b61243160408301846121e3565b949350505050565b600061244482611d18565b915061244f83611d18565b925082820261245d81611d18565b915082820484148315176124745761247361238b565b5b5092915050565b600061248682611d18565b915061249183611d18565b92508282019050808211156124a9576124a861238b565b5b92915050565b7f4e487b7100000000000000000000000000000000000000000000000000000000600052601260045260246000fd5b60006124e982611d18565b91506124f483611d18565b925082612504576125036124af565b5b828206905092915050565b7f4e487b7100000000000000000000000000000000000000000000000000000000600052603260045260246000fd5b6000819050919050565b61255961255482611d4e565b61253e565b82525050565b600061256b8285612548565b60208201915061257b8284612548565b6020820191508190509392505050565b600061259682611d18565b91506125a183611d18565b9250826125b1576125b06124af565b5b828204905092915050565b60006125c782611d18565b91506125d283611d18565b92508282039050818111156125ea576125e961238b565b5b92915050565b600060a082019050612605600083018861211a565b6126126020830187611dc4565b61261f6040830186611dc4565b61262c6060830185611dc4565b6126396080830184611dc4565b9695505050505050565b6000819050919050565b6000819050919050565b600061267261266d61266884612643565b61264d565b611d18565b9050919050565b61268281612657565b82525050565b600060608201905061269d600083018661211a565b6126aa602083018561211a565b6126b76040830184612679565b949350505050565b6000819050919050565b60006126e46126df6126da846126bf565b61264d565b611d18565b9050919050565b6126f4816126c9565b82525050565b600060608201905061270f600083018661211a565b61271c602083018561211a565b61272960408301846126eb565b949350505050565b7f496e76616c696420626f6172642073697a65206f722073686970206e756d626560008201527f7221000000000000000000000000000000000000000000000000000000000000602082015250565b600061278d60228361220d565b915061279882612731565b604082019050919050565b600060208201905081810360008301526127bc81612780565b9050919050565b60006060820190506127d8600083018661211a565b6127e56020830185611dc4565b6127f26040830184611dc4565b949350505050565b7f4554482061726520302100000000000000000000000000000000000000000000600082015250565b6000612830600a8361220d565b915061283b826127fa565b602082019050919050565b6000602082019050818103600083015261285f81612823565b9050919050565b7f4e6f206f70656e2067616d657321000000000000000000000000000000000000600082015250565b600061289c600e8361220d565b91506128a782612866565b602082019050919050565b600060208201905081810360008301526128cb8161288f565b9050919050565b7f546869732067616d6520646f6573206e6f742065786973742100000000000000600082015250565b600061290860198361220d565b9150612913826128d2565b602082019050919050565b60006020820190508181036000830152612937816128fb565b9050919050565b7f43686f73656e206964206e656761746976652100000000000000000000000000600082015250565b600061297460138361220d565b915061297f8261293e565b602082019050919050565b600060208201905081810360008301526129a381612967565b9050919050565b7f47616d6520616c72656164792074616b656e2100000000000000000000000000600082015250565b60006129e060138361220d565b91506129eb826129aa565b602082019050919050565b60006020820190508181036000830152612a0f816129d3565b9050919050565b600060a082019050612a2b600083018861211a565b612a38602083018761211a565b612a456040830186611dc4565b612a526060830185611dc4565b612a5f6080830184611dc4565b9695505050505050565b6000819050919050565b612a84612a7f82611d18565b612a69565b82525050565b60008160601b9050919050565b6000612aa282612a8a565b9050919050565b6000612ab482612a97565b9050919050565b612acc612ac782612108565b612aa9565b82525050565b6000612ade8285612a73565b602082019150612aee8284612abb565b601482019150819050939250505056fea2646970667358221220261fd778fd2cd8e51b4580e4b5761d845b5d0ed735ae28d141e79ea4d458814c64736f6c63430008130033",
  "immutableReferences": {},
  "source": "// SPDX-License-Identifier: MIT\npragma solidity >=0.4.22 <0.9.0;\n\ncontract BattleShipGame {\n    struct gameInfo {\n        // struct with all the information about a game\n        address creator;\n        address joiner;\n        uint256 boardSize;\n        uint256 shipNum;\n        uint256 ethAmount;\n        uint256 creatorEth;\n        uint256 joinerEth;\n        bytes32 creatorMerkleRoot;\n        bytes32 joinerMerkleRoot;\n        uint256 creatorNumShips;\n        uint256 joinerNumShips;\n    }\n\n    mapping(uint256 => gameInfo) public gameList; // map of game's ID (gameId => information of that game)\n    uint256[] public avaibleGame; // array with all the gameId of the avaible game\n\n    uint256 public gameId = 1; // value of the next gameId\n\n    // error event:\n    error OutputError(string myError);\n\n    // event:\n    event GameCreated(uint256 indexed _gameId);\n\n    event GameJoined(\n        uint256 indexed _gameId,\n        address _creator,\n        address _joiner,\n        uint256 _boardSize,\n        uint256 _shipNum,\n        uint256 _ethAmount\n    );\n\n    event AmountEthResponse(\n        address _sender,\n        uint256 _amount,\n        uint256 indexed _gameId,\n        bool response\n    );\n\n    event StartGame(\n        uint256 indexed _gameId,\n        bytes32 _merkleRootCreator,\n        bytes32 _merkleRootJoiner\n    );\n\n    event ShootShip(\n        uint256 indexed _gameId,\n        address _address,\n        uint256 _row,\n        uint256 _col\n    );\n\n    event ShootResult(\n        uint256 indexed _gameId,\n        address _address,\n        uint256 _row,\n        uint256 _col,\n        uint256 _result,\n        uint256 _shipsRemaining\n    );\n\n    event GameEnded(\n        uint256 indexed _gameId,\n        address _winner,\n        address _loser,\n        uint256 _reason\n    );\n\n    constructor() {}\n\n    // function to return the gameId\n    function getId() public returns (uint256 toReturn) {\n        toReturn = gameId++;\n        return toReturn;\n    }\n\n    // function to remove an element of the array avaibleGame\n    function removeFromArray(uint256 _gameId) public returns (bool) {\n        uint256 index;\n        bool find = false;\n\n        // loop through the avaible game until find the index of the chosen one\n        for (uint i = 0; i < avaibleGame.length; i++) {\n            if (avaibleGame[i] == _gameId) {\n                index = i;\n                find = true;\n                break;\n            }\n        }\n\n        if (!find || index >= avaibleGame.length) {\n            return find;\n        }\n\n        for (uint i = index; i < avaibleGame.length - 1; i++) {\n            // move manually all the element\n            avaibleGame[i] = avaibleGame[i + 1];\n        }\n        delete avaibleGame[avaibleGame.length - 1]; // remove the last element\n        return find;\n    }\n\n    function getRandomNumber(uint256 bound) private view returns (uint256) {\n        return\n            uint256(keccak256(abi.encodePacked(block.timestamp, msg.sender))) %\n            bound;\n    }\n\n    // function to get the gameId of an avaible game\n    function randomGame() public returns (uint256 randGameId) {\n        if (avaibleGame.length == 0) {\n            return 0;\n        }\n\n        randGameId = avaibleGame[getRandomNumber(avaibleGame.length)];\n        removeFromArray(randGameId);\n        return randGameId;\n    }\n\n    function createGame(\n        // function to create a new game\n        uint256 _boardSize,\n        uint256 _shipNum,\n        uint256 _ethAmount\n    ) public {\n        // create a new game\n\n        // Check if the board size and ship number are valid\n        if (_boardSize <= 0 || _shipNum <= 0) {\n            revert OutputError(\"Invalid board size or ship number!\");\n        }\n\n        uint256 newGameId = getId();\n\n        gameList[newGameId] = gameInfo(\n            msg.sender,\n            address(0),\n            _boardSize,\n            _shipNum,\n            _ethAmount,\n            0,\n            0,\n            0,\n            0,\n            _shipNum,\n            _shipNum\n        );\n        avaibleGame.push(newGameId);\n        emit GameCreated(newGameId);\n    }\n\n    function joinGame(uint256 _gameId) public {\n        // function to join a game\n        // check if there are avaible game\n        if (avaibleGame.length < 1) {\n            revert OutputError(\"No open games!\");\n        }\n\n        uint256 chosenGameId;\n\n        if (_gameId == 0) {\n            //random game choice\n            chosenGameId = randomGame();\n        } else {\n            //specific game\n            chosenGameId = _gameId;\n            bool find = removeFromArray(chosenGameId);\n\n            if (!find) {\n                revert OutputError(\"This game does not exist!\");\n            }\n        }\n\n        if (chosenGameId <= 0) {\n            revert OutputError(\"Chosen id negative!\");\n        }\n\n        if (gameList[chosenGameId].joiner != address(0)) {\n            revert OutputError(\"Game already taken!\");\n        }\n        gameList[chosenGameId].joiner = msg.sender;\n\n        emit GameJoined(\n            chosenGameId,\n            gameList[chosenGameId].creator,\n            gameList[chosenGameId].joiner,\n            gameList[chosenGameId].boardSize,\n            gameList[chosenGameId].shipNum,\n            gameList[chosenGameId].ethAmount\n        );\n    }\n\n    function amountEthDecision(uint256 _gameId, bool _response) public {\n        // function to accept or refuse the eth amount\n\n        // Check if the game ID is valid\n        if (_gameId <= 0) {\n            revert OutputError(\"Game id is negative!\");\n        }\n\n        // Check if the sender is either the creator or the joiner of the game\n        if (gameList[_gameId].creator != msg.sender && gameList[_gameId].joiner != msg.sender) {\n            revert OutputError(\"Player not in that game!\");\n        }\n\n        if (!_response) {\n            // refuse response\n            gameList[_gameId].joiner = address(0);\n            avaibleGame.push(_gameId);\n        }\n\n        emit AmountEthResponse(\n            msg.sender,\n            gameList[_gameId].ethAmount,\n            _gameId,\n            _response\n        );\n    }\n\n    function sendEth(uint256 _gameId) public payable {\n        // function to send the ETH to the contract\n\n        // Check if the game ID is valid\n        if (_gameId <= 0) {\n            revert OutputError(\"Game id is negative!\");\n        }\n\n        // Check if the sender is either the creator or the joiner of the game\n        if (\n            gameList[_gameId].creator != msg.sender &&\n            gameList[_gameId].joiner != msg.sender\n        ) {\n            revert OutputError(\"Player not in that game!\");\n        }\n\n        require(msg.value > 0, \"ETH are 0!\");\n\n        if (gameList[_gameId].creator == msg.sender) {\n            gameList[_gameId].creatorEth = msg.value;\n        } else if (gameList[_gameId].joiner == msg.sender) {\n            gameList[_gameId].joinerEth = msg.value;\n        } else {\n            revert OutputError(\"Player not in that game!\");\n        }\n    }\n\n    function submitBoard(uint256 _gameId, bytes32 _merkleRoot) public {\n        // function to submit the board\n\n        // Check if the game ID is valid\n        if (_gameId <= 0) {\n            revert OutputError(\"Game id is negative!\");\n        }\n\n        // Check if the sender is either the creator or the joiner of the game\n        if (\n            gameList[_gameId].creator != msg.sender &&\n            gameList[_gameId].joiner != msg.sender\n        ) {\n            revert OutputError(\"Player not in that game!\");\n        }\n\n        // Check if the board is not already submitted\n        if (\n            (gameList[_gameId].creator == msg.sender &&\n                gameList[_gameId].creatorMerkleRoot != 0) ||\n            (gameList[_gameId].joiner == msg.sender &&\n                gameList[_gameId].joinerMerkleRoot != 0)\n        ) {\n            revert OutputError(\"Board already submitted!\");\n        }\n\n        if (gameList[_gameId].creator == msg.sender) {\n            gameList[_gameId].creatorMerkleRoot = _merkleRoot;\n        } else if (gameList[_gameId].joiner == msg.sender) {\n            gameList[_gameId].joinerMerkleRoot = _merkleRoot;\n        } else {\n            revert OutputError(\"Player not in that game!\");\n        }\n\n        emit StartGame(\n            _gameId,\n            gameList[_gameId].creatorMerkleRoot,\n            gameList[_gameId].joinerMerkleRoot\n        );\n    }\n\n    function shoot(uint256 _gameId, uint256 _row, uint256 _col) public {\n        // function to communicate the coordinates of the fired cell\n        \n        // Check if the game ID is valid\n        if (_gameId <= 0) {\n            revert OutputError(\"Game id is negative!\");\n        }\n\n        // Check if the sender is either the creator or the joiner of the game\n        if (\n            gameList[_gameId].creator != msg.sender &&\n            gameList[_gameId].joiner != msg.sender\n        ) {\n            revert OutputError(\"Player not in that game!\");\n        }\n\n        // take the opponent address for comunicate who was shot\n        address opponentAddress;\n        if (msg.sender == gameList[_gameId].creator) {\n            opponentAddress = gameList[_gameId].joiner;\n        } else {\n            opponentAddress = gameList[_gameId].creator;\n        }\n\n        emit ShootShip(_gameId, opponentAddress, _row, _col);\n    }\n\n    function shootResult(\n        uint256 _gameId,\n        uint256 _row,\n        uint256 _col,\n        uint256 _result,\n        bytes32 _hash,\n        bytes32[] memory _merkleProof\n    ) public payable {\n        // function to comunicate the result of the shot\n        \n        // Check if the game ID is valid\n        if (_gameId <= 0) {\n            revert OutputError(\"Game id is negative!\");\n        }\n\n        // Check if the sender is either the creator or the joiner of the game\n        if (\n            gameList[_gameId].creator != msg.sender &&\n            gameList[_gameId].joiner != msg.sender\n        ) {\n            revert OutputError(\"Player not in that game!\");\n        }\n\n        // take the opponent address for comunicate who fired the shot\n        address opponentAddress;\n        bytes32 merkleRoot;\n        if (msg.sender == gameList[_gameId].creator) {\n            opponentAddress = gameList[_gameId].joiner;\n            merkleRoot = gameList[_gameId].creatorMerkleRoot;\n        } else {\n            opponentAddress = gameList[_gameId].creator;\n            merkleRoot = gameList[_gameId].joinerMerkleRoot;\n        }\n\n        bytes32 hashValue = _hash;\n\n        uint256 index = _row * gameList[_gameId].boardSize + _col;\n        for (uint i = 0; i < _merkleProof.length; i++) {\n            if (index % 2 == 0) {\n                hashValue = keccak256(\n                    abi.encodePacked(hashValue, _merkleProof[i])\n                );\n            } else {\n                hashValue = keccak256(\n                    abi.encodePacked(_merkleProof[i], hashValue)\n                );\n            }\n\n            index = index / 2;\n        }\n\n        uint256 shipsRemaining = 100;\n        if (merkleRoot == hashValue) {\n            // validated shoot\n            if (msg.sender == gameList[_gameId].creator) {\n                if (_result == 1) {\n                    gameList[_gameId].joinerNumShips =\n                        gameList[_gameId].joinerNumShips -\n                        1;\n                }\n                shipsRemaining = gameList[_gameId].joinerNumShips;\n            } else {\n                if (_result == 1) {\n                    gameList[_gameId].creatorNumShips =\n                        gameList[_gameId].creatorNumShips -\n                        1;\n                }\n                shipsRemaining = gameList[_gameId].creatorNumShips;\n            }\n\n            emit ShootResult(\n                _gameId,\n                opponentAddress,\n                _row,\n                _col,\n                _result,\n                shipsRemaining\n            );\n        } else {\n            // invlidated shoot\n            emit GameEnded(_gameId, opponentAddress, msg.sender, 0);\n            payable(opponentAddress).transfer(gameList[_gameId].ethAmount * 2);\n            return;\n        }\n\n        if (shipsRemaining <= 0) {\n            payable(opponentAddress).transfer(gameList[_gameId].ethAmount * 2);\n\n            emit GameEnded(_gameId, opponentAddress, msg.sender, 1);\n        }\n    }\n}\n",
  "sourcePath": "/mnt/storage/Magistrale/P2PB/ProgettoP2P/P2P_Project/contracts/BattleShipGame.sol",
  "compiler": {
    "name": "solc",
    "version": "0.8.19+commit.7dd6d404.Emscripten.clang"
  },
  "schemaVersion": "3.4.13",
  "updatedAt": "2023-07-18T17:44:58.309Z",
  "networkType": "ethereum",
  "devdoc": {
    "kind": "dev",
    "methods": {},
    "version": 1
  },
  "userdoc": {
    "kind": "user",
    "methods": {},
    "version": 1
  }
}