{
  "contractName": "BattleShipGame",
  "abi": [
    {
      "inputs": [],
      "stateMutability": "nonpayable",
      "type": "constructor"
    },
    {
      "inputs": [
        {
          "internalType": "string",
          "name": "myError",
          "type": "string"
        }
      ],
      "name": "OutputError",
      "type": "error"
    },
    {
      "anonymous": false,
      "inputs": [
        {
          "indexed": false,
          "internalType": "address",
          "name": "_sender",
          "type": "address"
        },
        {
          "indexed": false,
          "internalType": "uint256",
          "name": "_amount",
          "type": "uint256"
        },
        {
          "indexed": true,
          "internalType": "uint256",
          "name": "_gameId",
          "type": "uint256"
        },
        {
          "indexed": false,
          "internalType": "bool",
          "name": "response",
          "type": "bool"
        }
      ],
      "name": "AmountEthResponse",
      "type": "event"
    },
    {
      "anonymous": false,
      "inputs": [
        {
          "indexed": true,
          "internalType": "uint256",
          "name": "_gameId",
          "type": "uint256"
        }
      ],
      "name": "GameCreated",
      "type": "event"
    },
    {
      "anonymous": false,
      "inputs": [
        {
          "indexed": true,
          "internalType": "uint256",
          "name": "_gameId",
          "type": "uint256"
        },
        {
          "indexed": false,
          "internalType": "address",
          "name": "_creator",
          "type": "address"
        },
        {
          "indexed": false,
          "internalType": "address",
          "name": "_joiner",
          "type": "address"
        },
        {
          "indexed": false,
          "internalType": "uint256",
          "name": "_boardSize",
          "type": "uint256"
        },
        {
          "indexed": false,
          "internalType": "uint256",
          "name": "_shipNum",
          "type": "uint256"
        },
        {
          "indexed": false,
          "internalType": "uint256",
          "name": "_ethAmount",
          "type": "uint256"
        }
      ],
      "name": "GameJoined",
      "type": "event"
    },
    {
      "anonymous": false,
      "inputs": [
        {
          "indexed": true,
          "internalType": "uint256",
          "name": "_gameId",
          "type": "uint256"
        },
        {
          "indexed": false,
          "internalType": "uint256",
          "name": "_row",
          "type": "uint256"
        },
        {
          "indexed": false,
          "internalType": "uint256",
          "name": "_col",
          "type": "uint256"
        },
        {
          "indexed": false,
          "internalType": "bool",
          "name": "_result",
          "type": "bool"
        }
      ],
      "name": "ShootResult",
      "type": "event"
    },
    {
      "anonymous": false,
      "inputs": [
        {
          "indexed": true,
          "internalType": "uint256",
          "name": "_gameId",
          "type": "uint256"
        },
        {
          "indexed": false,
          "internalType": "uint256",
          "name": "_row",
          "type": "uint256"
        },
        {
          "indexed": false,
          "internalType": "uint256",
          "name": "_col",
          "type": "uint256"
        }
      ],
      "name": "ShootShip",
      "type": "event"
    },
    {
      "anonymous": false,
      "inputs": [
        {
          "indexed": true,
          "internalType": "uint256",
          "name": "_gameId",
          "type": "uint256"
        }
      ],
      "name": "StartGame",
      "type": "event"
    },
    {
      "inputs": [
        {
          "internalType": "uint256",
          "name": "",
          "type": "uint256"
        }
      ],
      "name": "avaibleGame",
      "outputs": [
        {
          "internalType": "uint256",
          "name": "",
          "type": "uint256"
        }
      ],
      "stateMutability": "view",
      "type": "function",
      "constant": true
    },
    {
      "inputs": [],
      "name": "gameId",
      "outputs": [
        {
          "internalType": "uint256",
          "name": "",
          "type": "uint256"
        }
      ],
      "stateMutability": "view",
      "type": "function",
      "constant": true
    },
    {
      "inputs": [
        {
          "internalType": "uint256",
          "name": "",
          "type": "uint256"
        }
      ],
      "name": "gameList",
      "outputs": [
        {
          "internalType": "address",
          "name": "creator",
          "type": "address"
        },
        {
          "internalType": "address",
          "name": "joiner",
          "type": "address"
        },
        {
          "internalType": "uint256",
          "name": "boardSize",
          "type": "uint256"
        },
        {
          "internalType": "uint256",
          "name": "shipNum",
          "type": "uint256"
        },
        {
          "internalType": "uint256",
          "name": "ethAmount",
          "type": "uint256"
        },
        {
          "internalType": "uint256",
          "name": "merkleRoot",
          "type": "uint256"
        }
      ],
      "stateMutability": "view",
      "type": "function",
      "constant": true
    },
    {
      "inputs": [],
      "name": "getId",
      "outputs": [
        {
          "internalType": "uint256",
          "name": "toReturn",
          "type": "uint256"
        }
      ],
      "stateMutability": "nonpayable",
      "type": "function"
    },
    {
      "inputs": [
        {
          "internalType": "uint256",
          "name": "_gameId",
          "type": "uint256"
        }
      ],
      "name": "removeFromArray",
      "outputs": [],
      "stateMutability": "nonpayable",
      "type": "function"
    },
    {
      "inputs": [],
      "name": "randomGame",
      "outputs": [
        {
          "internalType": "uint256",
          "name": "randGameId",
          "type": "uint256"
        }
      ],
      "stateMutability": "nonpayable",
      "type": "function"
    },
    {
      "inputs": [
        {
          "internalType": "uint256",
          "name": "_boardSize",
          "type": "uint256"
        },
        {
          "internalType": "uint256",
          "name": "_shipNum",
          "type": "uint256"
        },
        {
          "internalType": "uint256",
          "name": "_ethAmount",
          "type": "uint256"
        }
      ],
      "name": "createGame",
      "outputs": [],
      "stateMutability": "nonpayable",
      "type": "function"
    },
    {
      "inputs": [
        {
          "internalType": "uint256",
          "name": "_gameId",
          "type": "uint256"
        }
      ],
      "name": "joinGame",
      "outputs": [],
      "stateMutability": "nonpayable",
      "type": "function"
    },
    {
      "inputs": [
        {
          "internalType": "uint256",
          "name": "_gameId",
          "type": "uint256"
        },
        {
          "internalType": "bool",
          "name": "_response",
          "type": "bool"
        }
      ],
      "name": "amountEthDecision",
      "outputs": [],
      "stateMutability": "nonpayable",
      "type": "function"
    },
    {
      "inputs": [
        {
          "internalType": "uint256",
          "name": "_gameId",
          "type": "uint256"
        },
        {
          "internalType": "uint256",
          "name": "_merkleRoot",
          "type": "uint256"
        }
      ],
      "name": "submitBoard",
      "outputs": [],
      "stateMutability": "nonpayable",
      "type": "function"
    },
    {
      "inputs": [
        {
          "internalType": "uint256",
          "name": "_gameId",
          "type": "uint256"
        },
        {
          "internalType": "uint256",
          "name": "_row",
          "type": "uint256"
        },
        {
          "internalType": "uint256",
          "name": "_col",
          "type": "uint256"
        }
      ],
      "name": "shoot",
      "outputs": [],
      "stateMutability": "nonpayable",
      "type": "function"
    },
    {
      "inputs": [
        {
          "internalType": "uint256",
          "name": "_gameId",
          "type": "uint256"
        },
        {
          "internalType": "uint256",
          "name": "_row",
          "type": "uint256"
        },
        {
          "internalType": "uint256",
          "name": "_col",
          "type": "uint256"
        },
        {
          "internalType": "bool",
          "name": "_result",
          "type": "bool"
        }
      ],
      "name": "shootResult",
      "outputs": [],
      "stateMutability": "nonpayable",
      "type": "function"
    }
  ],
  "bytecode": "0x6080604052600160025534801561001557600080fd5b5061146b806100256000396000f3fe608060405234801561001057600080fd5b50600436106100b45760003560e01c8063c6cfd08e11610071578063c6cfd08e14610177578063d7c81b55146101ac578063d9ad3ef5146101ca578063eb56ea90146101e8578063efaa55a014610204578063f65a445c14610220576100b4565b80635d1ca631146100b9578063685385f3146100d757806372e49ad3146100f3578063a4933c811461010f578063c27415211461013f578063c558b42c1461015b575b600080fd5b6100c161023c565b6040516100ce9190610c7f565b60405180910390f35b6100f160048036038101906100ec9190610d03565b61025a565b005b61010d60048036038101906101089190610d43565b610333565b005b61012960048036038101906101249190610d83565b6104d5565b6040516101369190610c7f565b60405180910390f35b61015960048036038101906101549190610db0565b6104f9565b005b61017560048036038101906101709190610db0565b610687565b005b610191600480360381019061018c9190610d83565b610709565b6040516101a396959493929190610e44565b60405180910390f35b6101b4610785565b6040516101c19190610c7f565b60405180910390f35b6101d261078b565b6040516101df9190610c7f565b60405180910390f35b61020260048036038101906101fd9190610d83565b6107dd565b005b61021e60048036038101906102199190610d83565b61090c565b005b61023a60048036038101906102359190610ea5565b610ba1565b005b60006002600081548092919061025190610f3b565b91905055905090565b806102de57600080600084815260200190815260200160002060010160006101000a81548173ffffffffffffffffffffffffffffffffffffffff021916908373ffffffffffffffffffffffffffffffffffffffff16021790555060018290806001815401808255809150506001900390600052602060002001600090919091909150555b817f55329a170c309fdb206036da4397784f0560d2264c68e25316be295379a9eae833600080868152602001908152602001600020600401548460405161032793929190610f92565b60405180910390a25050565b60008211610376576040517f9a9be8fa00000000000000000000000000000000000000000000000000000000815260040161036d90611026565b60405180910390fd5b3373ffffffffffffffffffffffffffffffffffffffff1660008084815260200190815260200160002060000160009054906101000a900473ffffffffffffffffffffffffffffffffffffffff1673ffffffffffffffffffffffffffffffffffffffff16148061044557503373ffffffffffffffffffffffffffffffffffffffff1660008084815260200190815260200160002060010160009054906101000a900473ffffffffffffffffffffffffffffffffffffffff1673ffffffffffffffffffffffffffffffffffffffff16145b156104695780600080848152602001908152602001600020600501819055506104a4565b6040517f9a9be8fa00000000000000000000000000000000000000000000000000000000815260040161049b90611092565b60405180910390fd5b817f12333b322723ec26360eb708b341801ecca576387b55caa77d6e408107d2c70f60405160405180910390a25050565b600181815481106104e557600080fd5b906000526020600020016000915090505481565b600061050361023c565b90506040518060c001604052803373ffffffffffffffffffffffffffffffffffffffff168152602001600073ffffffffffffffffffffffffffffffffffffffff168152602001858152602001848152602001838152602001600081525060008083815260200190815260200160002060008201518160000160006101000a81548173ffffffffffffffffffffffffffffffffffffffff021916908373ffffffffffffffffffffffffffffffffffffffff16021790555060208201518160010160006101000a81548173ffffffffffffffffffffffffffffffffffffffff021916908373ffffffffffffffffffffffffffffffffffffffff16021790555060408201518160020155606082015181600301556080820151816004015560a082015181600501559050506001819080600181540180825580915050600190039060005260206000200160009091909190915055807fbd19c47e9925eb6f7be8bb1c13a841e0240aaeaf17f217e90022e9c8eb66877f60405160405180910390a250505050565b600083116106ca576040517f9a9be8fa0000000000000000000000000000000000000000000000000000000081526004016106c190611026565b60405180910390fd5b827fc458eba03fb1be348345a6ef952f9d7469064e638a4c1df075e294ab4fb0c7e583836040516106fc9291906110b2565b60405180910390a2505050565b60006020528060005260406000206000915090508060000160009054906101000a900473ffffffffffffffffffffffffffffffffffffffff16908060010160009054906101000a900473ffffffffffffffffffffffffffffffffffffffff16908060020154908060030154908060040154908060050154905086565b60025481565b600080600180549050036107a257600090506107da565b60016107b2600180549050610c26565b815481106107c3576107c26110db565b5b906000526020600020015490506107d9816107dd565b5b90565b6000806000905060005b600180549050811015610838578360018281548110610809576108086110db565b5b9060005260206000200154036108255780925060019150610838565b808061083090610f3b565b9150506107e7565b5080158061084b57506001805490508210155b15610857575050610909565b60008290505b6001808054905061086e919061110a565b8110156108d45760018082610883919061113e565b81548110610894576108936110db565b5b9060005260206000200154600182815481106108b3576108b26110db565b5b906000526020600020018190555080806108cc90610f3b565b91505061085d565b5060018080805490506108e7919061110a565b815481106108f8576108f76110db565b5b906000526020600020016000905550505b50565b600180805490501015610954576040517f9a9be8fa00000000000000000000000000000000000000000000000000000000815260040161094b906111be565b60405180910390fd5b600080820361096c5761096561078b565b9050610979565b819050610978816107dd565b5b600081116109bc576040517f9a9be8fa0000000000000000000000000000000000000000000000000000000081526004016109b39061122a565b60405180910390fd5b600073ffffffffffffffffffffffffffffffffffffffff1660008083815260200190815260200160002060010160009054906101000a900473ffffffffffffffffffffffffffffffffffffffff1673ffffffffffffffffffffffffffffffffffffffff1614610a60576040517f9a9be8fa000000000000000000000000000000000000000000000000000000008152600401610a5790611296565b60405180910390fd5b3360008083815260200190815260200160002060010160006101000a81548173ffffffffffffffffffffffffffffffffffffffff021916908373ffffffffffffffffffffffffffffffffffffffff160217905550807f66bacdfb07a49afa060b23ca1e16974d1919771fff2fd57717ab8857b0673b3460008084815260200190815260200160002060000160009054906101000a900473ffffffffffffffffffffffffffffffffffffffff1660008085815260200190815260200160002060010160009054906101000a900473ffffffffffffffffffffffffffffffffffffffff16600080868152602001908152602001600020600201546000808781526020019081526020016000206003015460008088815260200190815260200160002060040154604051610b959594939291906112b6565b60405180910390a25050565b60008411610be4576040517f9a9be8fa000000000000000000000000000000000000000000000000000000008152600401610bdb90611026565b60405180910390fd5b837fc312bae8fa84a707569795b13909bbf6d3d0e24fba501e8b39e86e3b7f297855848484604051610c1893929190611309565b60405180910390a250505050565b6000814233604051602001610c3c9291906113a9565b6040516020818303038152906040528051906020012060001c610c5f9190611404565b9050919050565b6000819050919050565b610c7981610c66565b82525050565b6000602082019050610c946000830184610c70565b92915050565b600080fd5b610ca881610c66565b8114610cb357600080fd5b50565b600081359050610cc581610c9f565b92915050565b60008115159050919050565b610ce081610ccb565b8114610ceb57600080fd5b50565b600081359050610cfd81610cd7565b92915050565b60008060408385031215610d1a57610d19610c9a565b5b6000610d2885828601610cb6565b9250506020610d3985828601610cee565b9150509250929050565b60008060408385031215610d5a57610d59610c9a565b5b6000610d6885828601610cb6565b9250506020610d7985828601610cb6565b9150509250929050565b600060208284031215610d9957610d98610c9a565b5b6000610da784828501610cb6565b91505092915050565b600080600060608486031215610dc957610dc8610c9a565b5b6000610dd786828701610cb6565b9350506020610de886828701610cb6565b9250506040610df986828701610cb6565b9150509250925092565b600073ffffffffffffffffffffffffffffffffffffffff82169050919050565b6000610e2e82610e03565b9050919050565b610e3e81610e23565b82525050565b600060c082019050610e596000830189610e35565b610e666020830188610e35565b610e736040830187610c70565b610e806060830186610c70565b610e8d6080830185610c70565b610e9a60a0830184610c70565b979650505050505050565b60008060008060808587031215610ebf57610ebe610c9a565b5b6000610ecd87828801610cb6565b9450506020610ede87828801610cb6565b9350506040610eef87828801610cb6565b9250506060610f0087828801610cee565b91505092959194509250565b7f4e487b7100000000000000000000000000000000000000000000000000000000600052601160045260246000fd5b6000610f4682610c66565b91507fffffffffffffffffffffffffffffffffffffffffffffffffffffffffffffffff8203610f7857610f77610f0c565b5b600182019050919050565b610f8c81610ccb565b82525050565b6000606082019050610fa76000830186610e35565b610fb46020830185610c70565b610fc16040830184610f83565b949350505050565b600082825260208201905092915050565b7f47616d65206964206973206e6567617469766521000000000000000000000000600082015250565b6000611010601483610fc9565b915061101b82610fda565b602082019050919050565b6000602082019050818103600083015261103f81611003565b9050919050565b7f506c61796572206e6f7420696e20746861742067616d65210000000000000000600082015250565b600061107c601883610fc9565b915061108782611046565b602082019050919050565b600060208201905081810360008301526110ab8161106f565b9050919050565b60006040820190506110c76000830185610c70565b6110d46020830184610c70565b9392505050565b7f4e487b7100000000000000000000000000000000000000000000000000000000600052603260045260246000fd5b600061111582610c66565b915061112083610c66565b925082820390508181111561113857611137610f0c565b5b92915050565b600061114982610c66565b915061115483610c66565b925082820190508082111561116c5761116b610f0c565b5b92915050565b7f4e6f206f70656e2067616d657321000000000000000000000000000000000000600082015250565b60006111a8600e83610fc9565b91506111b382611172565b602082019050919050565b600060208201905081810360008301526111d78161119b565b9050919050565b7f43686f73656e206964206e656761746976652100000000000000000000000000600082015250565b6000611214601383610fc9565b915061121f826111de565b602082019050919050565b6000602082019050818103600083015261124381611207565b9050919050565b7f47616d6520616c72656164792074616b656e2100000000000000000000000000600082015250565b6000611280601383610fc9565b915061128b8261124a565b602082019050919050565b600060208201905081810360008301526112af81611273565b9050919050565b600060a0820190506112cb6000830188610e35565b6112d86020830187610e35565b6112e56040830186610c70565b6112f26060830185610c70565b6112ff6080830184610c70565b9695505050505050565b600060608201905061131e6000830186610c70565b61132b6020830185610c70565b6113386040830184610f83565b949350505050565b6000819050919050565b61135b61135682610c66565b611340565b82525050565b60008160601b9050919050565b600061137982611361565b9050919050565b600061138b8261136e565b9050919050565b6113a361139e82610e23565b611380565b82525050565b60006113b5828561134a565b6020820191506113c58284611392565b6014820191508190509392505050565b7f4e487b7100000000000000000000000000000000000000000000000000000000600052601260045260246000fd5b600061140f82610c66565b915061141a83610c66565b92508261142a576114296113d5565b5b82820690509291505056fea2646970667358221220f2f2275503a3f39864f3ea2d848794791da262393f539a64f10b101884ea33f964736f6c63430008130033",
  "immutableReferences": {},
  "source": "// SPDX-License-Identifier: MIT\npragma solidity >=0.4.22 <0.9.0;\n\ncontract BattleShipGame {\n    struct gameInfo {\n        // struct with all the information about a game\n        address creator;\n        address joiner;\n        uint256 boardSize;\n        uint256 shipNum;\n        uint256 ethAmount;\n        uint256 merkleRoot;\n    }\n\n    mapping(uint256 => gameInfo) public gameList; // map of game's ID (gameId => information of that game)\n    uint256[] public avaibleGame; // array with all the gameId of the avaible game\n\n    uint256 public gameId = 1; // value of the next gameId\n\n    // error event:\n    error OutputError(string myError);\n\n    // event:\n    event GameCreated(\n        uint256 indexed _gameId\n    );\n\n    event GameJoined(\n        uint256 indexed _gameId,\n        address _creator,\n        address _joiner,\n        uint256 _boardSize,\n        uint256 _shipNum,\n        uint256 _ethAmount\n    );\n\n    event AmountEthResponse(\n        address _sender,\n        uint256 _amount,\n        uint256 indexed _gameId,\n        bool response\n    );\n\n    event StartGame(\n        uint256 indexed _gameId\n    );\n\n    event ShootShip(\n        uint256 indexed _gameId,\n        uint256 _row,\n        uint256 _col\n    );\n\n    event ShootResult(\n        uint256 indexed _gameId,\n        uint256 _row,\n        uint256 _col,\n        bool _result\n    );\n\n    constructor() {}\n\n    // function to return the gameId\n    function getId() public returns (uint256 toReturn) {\n        toReturn = gameId++;\n        return toReturn;\n    }\n\n    // function to remove an element of the array avaibleGame\n    function removeFromArray(uint256 _gameId) public {\n        uint256 index;\n        bool find = false;\n\n        // loop the avaible game until find the index of the chosen one\n        for (uint i = 0; i < avaibleGame.length ; i++){\n            if(avaibleGame[i] == _gameId){\n                index = i;\n                find = true;\n                break;\n            }\n        }\n\n        if (!find || index >= avaibleGame.length){\n            return;\n        }\n\n        for (uint i = index; i<avaibleGame.length-1; i++){ // move manually all the element\n            avaibleGame[i] = avaibleGame[i+1];\n        }\n        delete avaibleGame[avaibleGame.length-1]; // remove the last element\n    }\n\n    function getRandomNumber(uint256 bound) private view returns (uint256) {\n        return uint256(keccak256(abi.encodePacked(block.timestamp, msg.sender))) % bound;\n    }\n\n    // function to get the gameId of an avaible game\n    function randomGame() public returns (uint256 randGameId) {\n        if (avaibleGame.length == 0) {\n            return 0;\n        }\n\n        randGameId = avaibleGame[getRandomNumber(avaibleGame.length)];\n        removeFromArray(randGameId);\n        return randGameId;\n    }\n\n    function createGame( // function to create a new game\n        uint256 _boardSize,\n        uint256 _shipNum,\n        uint256 _ethAmount\n    ) public {\n        // create a new game\n        uint256 newGameId = getId();\n\n        gameList[newGameId] = gameInfo(\n            msg.sender,\n            address(0),\n            _boardSize,\n            _shipNum,\n            _ethAmount,\n            0\n        );\n        avaibleGame.push(newGameId);\n        emit GameCreated(newGameId);\n    }\n\n    function joinGame(uint256 _gameId) public { // function to join a game\n        // check if there are avaible game\n        if (avaibleGame.length < 1) {\n            revert OutputError({myError: \"No open games!\"});\n        }\n\n        uint256 chosenGameId;\n\n        if (_gameId == 0) {\n            //random game choice\n            chosenGameId = randomGame();\n        } else {\n            //specific game\n            chosenGameId = _gameId;\n            removeFromArray(chosenGameId);\n        }\n\n        if(chosenGameId <= 0){\n            revert OutputError({myError: \"Chosen id negative!\"});\n        }\n\n        if (gameList[chosenGameId].joiner != address(0)) {\n            revert OutputError({myError: \"Game already taken!\"});\n        }\n        gameList[chosenGameId].joiner = msg.sender;\n\n        emit GameJoined(\n            chosenGameId,\n            gameList[chosenGameId].creator,\n            gameList[chosenGameId].joiner,\n            gameList[chosenGameId].boardSize,\n            gameList[chosenGameId].shipNum,\n            gameList[chosenGameId].ethAmount\n        );\n    }\n\n    function amountEthDecision(uint256 _gameId, bool _response) public { // function to accept or refuse the eth amount\n        if (!_response) { // refuse response\n            gameList[_gameId].joiner = address(0);\n            avaibleGame.push(_gameId);\n        }\n\n        emit AmountEthResponse(\n            msg.sender,\n            gameList[_gameId].ethAmount,\n            _gameId,\n            _response\n        );\n    }\n\n    function submitBoard(uint256 _gameId, uint256 _merkleRoot) public {\n        //TODO: check\n        if(_gameId <= 0){\n            revert OutputError({myError: \"Game id is negative!\"});\n        }\n\n        if(gameList[_gameId].creator == msg.sender || gameList[_gameId].joiner == msg.sender){\n            gameList[_gameId].merkleRoot = _merkleRoot; \n        }\n        else{\n            revert OutputError({myError: \"Player not in that game!\"});\n        }\n        \n        emit StartGame(\n            _gameId\n        );\n    }\n\n    function shoot(uint256 _gameId, uint256 _row, uint256 _col) public {\n        if(_gameId <= 0){\n            revert OutputError({myError: \"Game id is negative!\"});\n        }\n\n        emit ShootShip(\n            _gameId,\n            _row,\n            _col\n        );\n    }\n\n    function shootResult(uint256 _gameId, uint256 _row, uint256 _col, bool _result) public {\n        if(_gameId <= 0){\n            revert OutputError({myError: \"Game id is negative!\"});\n        }\n        \n        emit ShootResult(\n            _gameId,\n            _row,\n            _col,\n            _result\n        );\n    }\n}\n",
  "sourcePath": "/mnt/storage/Magistrale/P2PB/ProgettoP2P/P2P_Project/contracts/BattleShipGame.sol",
  "compiler": {
    "name": "solc",
    "version": "0.8.19+commit.7dd6d404.Emscripten.clang"
  },
  "schemaVersion": "3.4.13",
  "updatedAt": "2023-07-07T01:56:37.541Z",
  "networkType": "ethereum",
  "devdoc": {
    "kind": "dev",
    "methods": {},
    "version": 1
  },
  "userdoc": {
    "kind": "user",
    "methods": {},
    "version": 1
  }
}