{
  "contractName": "BattleShipGame",
  "abi": [
    {
      "inputs": [],
      "stateMutability": "nonpayable",
      "type": "constructor"
    },
    {
      "inputs": [
        {
          "internalType": "string",
          "name": "myError",
          "type": "string"
        }
      ],
      "name": "OutputError",
      "type": "error"
    },
    {
      "anonymous": false,
      "inputs": [
        {
          "indexed": false,
          "internalType": "address",
          "name": "_sender",
          "type": "address"
        },
        {
          "indexed": false,
          "internalType": "uint256",
          "name": "_amount",
          "type": "uint256"
        },
        {
          "indexed": true,
          "internalType": "uint256",
          "name": "_gameId",
          "type": "uint256"
        },
        {
          "indexed": false,
          "internalType": "bool",
          "name": "response",
          "type": "bool"
        }
      ],
      "name": "AmountEthResponse",
      "type": "event"
    },
    {
      "anonymous": false,
      "inputs": [
        {
          "indexed": true,
          "internalType": "uint256",
          "name": "_gameId",
          "type": "uint256"
        }
      ],
      "name": "GameCreated",
      "type": "event"
    },
    {
      "anonymous": false,
      "inputs": [
        {
          "indexed": true,
          "internalType": "uint256",
          "name": "_gameId",
          "type": "uint256"
        },
        {
          "indexed": false,
          "internalType": "address",
          "name": "_creator",
          "type": "address"
        },
        {
          "indexed": false,
          "internalType": "address",
          "name": "_joiner",
          "type": "address"
        },
        {
          "indexed": false,
          "internalType": "uint256",
          "name": "_boardSize",
          "type": "uint256"
        },
        {
          "indexed": false,
          "internalType": "uint256",
          "name": "_shipNum",
          "type": "uint256"
        },
        {
          "indexed": false,
          "internalType": "uint256",
          "name": "_ethAmount",
          "type": "uint256"
        }
      ],
      "name": "GameJoined",
      "type": "event"
    },
    {
      "anonymous": false,
      "inputs": [
        {
          "indexed": true,
          "internalType": "uint256",
          "name": "_gameId",
          "type": "uint256"
        },
        {
          "indexed": false,
          "internalType": "address",
          "name": "_address",
          "type": "address"
        },
        {
          "indexed": false,
          "internalType": "uint256",
          "name": "_row",
          "type": "uint256"
        },
        {
          "indexed": false,
          "internalType": "uint256",
          "name": "_col",
          "type": "uint256"
        },
        {
          "indexed": false,
          "internalType": "uint256",
          "name": "_merkleCheck",
          "type": "uint256"
        },
        {
          "indexed": false,
          "internalType": "uint256",
          "name": "_result",
          "type": "uint256"
        }
      ],
      "name": "ShootResult",
      "type": "event"
    },
    {
      "anonymous": false,
      "inputs": [
        {
          "indexed": true,
          "internalType": "uint256",
          "name": "_gameId",
          "type": "uint256"
        },
        {
          "indexed": false,
          "internalType": "address",
          "name": "_address",
          "type": "address"
        },
        {
          "indexed": false,
          "internalType": "uint256",
          "name": "_row",
          "type": "uint256"
        },
        {
          "indexed": false,
          "internalType": "uint256",
          "name": "_col",
          "type": "uint256"
        }
      ],
      "name": "ShootShip",
      "type": "event"
    },
    {
      "anonymous": false,
      "inputs": [
        {
          "indexed": true,
          "internalType": "uint256",
          "name": "_gameId",
          "type": "uint256"
        }
      ],
      "name": "StartGame",
      "type": "event"
    },
    {
      "inputs": [
        {
          "internalType": "uint256",
          "name": "",
          "type": "uint256"
        }
      ],
      "name": "avaibleGame",
      "outputs": [
        {
          "internalType": "uint256",
          "name": "",
          "type": "uint256"
        }
      ],
      "stateMutability": "view",
      "type": "function",
      "constant": true
    },
    {
      "inputs": [],
      "name": "gameId",
      "outputs": [
        {
          "internalType": "uint256",
          "name": "",
          "type": "uint256"
        }
      ],
      "stateMutability": "view",
      "type": "function",
      "constant": true
    },
    {
      "inputs": [
        {
          "internalType": "uint256",
          "name": "",
          "type": "uint256"
        }
      ],
      "name": "gameList",
      "outputs": [
        {
          "internalType": "address",
          "name": "creator",
          "type": "address"
        },
        {
          "internalType": "address",
          "name": "joiner",
          "type": "address"
        },
        {
          "internalType": "uint256",
          "name": "boardSize",
          "type": "uint256"
        },
        {
          "internalType": "uint256",
          "name": "shipNum",
          "type": "uint256"
        },
        {
          "internalType": "uint256",
          "name": "ethAmount",
          "type": "uint256"
        },
        {
          "internalType": "uint256",
          "name": "creatorMerkleRoot",
          "type": "uint256"
        },
        {
          "internalType": "uint256",
          "name": "joinerMerkleRoot",
          "type": "uint256"
        }
      ],
      "stateMutability": "view",
      "type": "function",
      "constant": true
    },
    {
      "inputs": [],
      "name": "getId",
      "outputs": [
        {
          "internalType": "uint256",
          "name": "toReturn",
          "type": "uint256"
        }
      ],
      "stateMutability": "nonpayable",
      "type": "function"
    },
    {
      "inputs": [
        {
          "internalType": "uint256",
          "name": "_gameId",
          "type": "uint256"
        }
      ],
      "name": "removeFromArray",
      "outputs": [
        {
          "internalType": "bool",
          "name": "",
          "type": "bool"
        }
      ],
      "stateMutability": "nonpayable",
      "type": "function"
    },
    {
      "inputs": [],
      "name": "randomGame",
      "outputs": [
        {
          "internalType": "uint256",
          "name": "randGameId",
          "type": "uint256"
        }
      ],
      "stateMutability": "nonpayable",
      "type": "function"
    },
    {
      "inputs": [
        {
          "internalType": "uint256",
          "name": "_boardSize",
          "type": "uint256"
        },
        {
          "internalType": "uint256",
          "name": "_shipNum",
          "type": "uint256"
        },
        {
          "internalType": "uint256",
          "name": "_ethAmount",
          "type": "uint256"
        }
      ],
      "name": "createGame",
      "outputs": [],
      "stateMutability": "nonpayable",
      "type": "function"
    },
    {
      "inputs": [
        {
          "internalType": "uint256",
          "name": "_gameId",
          "type": "uint256"
        }
      ],
      "name": "joinGame",
      "outputs": [],
      "stateMutability": "nonpayable",
      "type": "function"
    },
    {
      "inputs": [
        {
          "internalType": "uint256",
          "name": "_gameId",
          "type": "uint256"
        },
        {
          "internalType": "bool",
          "name": "_response",
          "type": "bool"
        }
      ],
      "name": "amountEthDecision",
      "outputs": [],
      "stateMutability": "nonpayable",
      "type": "function"
    },
    {
      "inputs": [
        {
          "internalType": "uint256",
          "name": "_gameId",
          "type": "uint256"
        },
        {
          "internalType": "uint256",
          "name": "_merkleRoot",
          "type": "uint256"
        }
      ],
      "name": "submitBoard",
      "outputs": [],
      "stateMutability": "nonpayable",
      "type": "function"
    },
    {
      "inputs": [
        {
          "internalType": "uint256",
          "name": "_gameId",
          "type": "uint256"
        },
        {
          "internalType": "uint256",
          "name": "_row",
          "type": "uint256"
        },
        {
          "internalType": "uint256",
          "name": "_col",
          "type": "uint256"
        }
      ],
      "name": "shoot",
      "outputs": [],
      "stateMutability": "nonpayable",
      "type": "function"
    },
    {
      "inputs": [
        {
          "internalType": "uint256",
          "name": "_gameId",
          "type": "uint256"
        },
        {
          "internalType": "uint256",
          "name": "_row",
          "type": "uint256"
        },
        {
          "internalType": "uint256",
          "name": "_col",
          "type": "uint256"
        },
        {
          "internalType": "uint256",
          "name": "_result",
          "type": "uint256"
        },
        {
          "internalType": "bytes32",
          "name": "_hash",
          "type": "bytes32"
        },
        {
          "internalType": "bytes32[]",
          "name": "_merkleProof",
          "type": "bytes32[]"
        }
      ],
      "name": "shootResult",
      "outputs": [],
      "stateMutability": "nonpayable",
      "type": "function"
    }
  ],
  "bytecode": "0x6080604052600160025534801561001557600080fd5b50611b7d806100256000396000f3fe608060405234801561001057600080fd5b50600436106100b45760003560e01c8063c558b42c11610071578063c558b42c14610177578063c6cfd08e14610193578063d7c81b55146101c9578063d9ad3ef5146101e7578063eb56ea9014610205578063efaa55a014610235576100b4565b80635d1ca631146100b9578063685385f3146100d757806372e49ad3146100f357806395e1c6fb1461010f578063a4933c811461012b578063c27415211461015b575b600080fd5b6100c1610251565b6040516100ce9190611032565b60405180910390f35b6100f160048036038101906100ec91906110c5565b61026f565b005b61010d60048036038101906101089190611105565b610348565b005b610129600480360381019061012491906112d4565b610506565b005b6101456004803603810190610140919061137d565b6107c8565b6040516101529190611032565b60405180910390f35b610175600480360381019061017091906113aa565b6107ec565b005b610191600480360381019061018c91906113aa565b61098b565b005b6101ad60048036038101906101a8919061137d565b610af0565b6040516101c0979695949392919061143e565b60405180910390f35b6101d1610b72565b6040516101de9190611032565b60405180910390f35b6101ef610b78565b6040516101fc9190611032565b60405180910390f35b61021f600480360381019061021a919061137d565b610bcb565b60405161022c91906114bc565b60405180910390f35b61024f600480360381019061024a919061137d565b610cff565b005b60006002600081548092919061026690611506565b91905055905090565b806102f357600080600084815260200190815260200160002060010160006101000a81548173ffffffffffffffffffffffffffffffffffffffff021916908373ffffffffffffffffffffffffffffffffffffffff16021790555060018290806001815401808255809150506001900390600052602060002001600090919091909150555b817f55329a170c309fdb206036da4397784f0560d2264c68e25316be295379a9eae833600080868152602001908152602001600020600401548460405161033c9392919061154e565b60405180910390a25050565b6000821161038b576040517f9a9be8fa000000000000000000000000000000000000000000000000000000008152600401610382906115e2565b60405180910390fd5b3373ffffffffffffffffffffffffffffffffffffffff1660008084815260200190815260200160002060000160009054906101000a900473ffffffffffffffffffffffffffffffffffffffff1673ffffffffffffffffffffffffffffffffffffffff16036104125780600080848152602001908152602001600020600501819055506104d5565b3373ffffffffffffffffffffffffffffffffffffffff1660008084815260200190815260200160002060010160009054906101000a900473ffffffffffffffffffffffffffffffffffffffff1673ffffffffffffffffffffffffffffffffffffffff16036104995780600080848152602001908152602001600020600601819055506104d4565b6040517f9a9be8fa0000000000000000000000000000000000000000000000000000000081526004016104cb9061164e565b60405180910390fd5b5b817f12333b322723ec26360eb708b341801ecca576387b55caa77d6e408107d2c70f60405160405180910390a25050565b60008611610549576040517f9a9be8fa000000000000000000000000000000000000000000000000000000008152600401610540906115e2565b60405180910390fd5b60008060008089815260200190815260200160002060000160009054906101000a900473ffffffffffffffffffffffffffffffffffffffff1673ffffffffffffffffffffffffffffffffffffffff163373ffffffffffffffffffffffffffffffffffffffff16036106095760008089815260200190815260200160002060010160009054906101000a900473ffffffffffffffffffffffffffffffffffffffff16915060008089815260200190815260200160002060050154905061065a565b60008089815260200190815260200160002060000160009054906101000a900473ffffffffffffffffffffffffffffffffffffffff1691506000808981526020019081526020016000206006015490505b6000808590506000886000808d8152602001908152602001600020600201548b610684919061166e565b61068e91906116b0565b905060005b86518110156107625760006002836106ab9190611713565b036106fa57828782815181106106c4576106c3611744565b5b60200260200101516040516020016106dd929190611794565b604051602081830303815290604052805190602001209250610740565b86818151811061070d5761070c611744565b5b602002602001015183604051602001610727929190611794565b6040516020818303038152906040528051906020012092505b60028261074d91906117c0565b9150808061075a90611506565b915050610693565b508160001c8403610776576001925061077b565b600092505b8a7f682729007816d548060438637183b635ada59e9f6892be5bc9bc6043b9a35919868c8c878d6040516107b39594939291906117f1565b60405180910390a25050505050505050505050565b600181815481106107d857600080fd5b906000526020600020016000915090505481565b60006107f6610251565b90506040518060e001604052803373ffffffffffffffffffffffffffffffffffffffff168152602001600073ffffffffffffffffffffffffffffffffffffffff16815260200185815260200184815260200183815260200160008152602001600081525060008083815260200190815260200160002060008201518160000160006101000a81548173ffffffffffffffffffffffffffffffffffffffff021916908373ffffffffffffffffffffffffffffffffffffffff16021790555060208201518160010160006101000a81548173ffffffffffffffffffffffffffffffffffffffff021916908373ffffffffffffffffffffffffffffffffffffffff16021790555060408201518160020155606082015181600301556080820151816004015560a0820151816005015560c082015181600601559050506001819080600181540180825580915050600190039060005260206000200160009091909190915055807fbd19c47e9925eb6f7be8bb1c13a841e0240aaeaf17f217e90022e9c8eb66877f60405160405180910390a250505050565b600083116109ce576040517f9a9be8fa0000000000000000000000000000000000000000000000000000000081526004016109c5906115e2565b60405180910390fd5b600080600085815260200190815260200160002060000160009054906101000a900473ffffffffffffffffffffffffffffffffffffffff1673ffffffffffffffffffffffffffffffffffffffff163373ffffffffffffffffffffffffffffffffffffffff1603610a755760008085815260200190815260200160002060010160009054906101000a900473ffffffffffffffffffffffffffffffffffffffff169050610aae565b60008085815260200190815260200160002060000160009054906101000a900473ffffffffffffffffffffffffffffffffffffffff1690505b837fa16c812880cd48fb28e27eb04ace25edead556e67c396ab7d2a93674adf55b43828585604051610ae293929190611844565b60405180910390a250505050565b60006020528060005260406000206000915090508060000160009054906101000a900473ffffffffffffffffffffffffffffffffffffffff16908060010160009054906101000a900473ffffffffffffffffffffffffffffffffffffffff16908060020154908060030154908060040154908060050154908060060154905087565b60025481565b60008060018054905003610b8f5760009050610bc8565b6001610b9f600180549050610fd9565b81548110610bb057610baf611744565b5b90600052602060002001549050610bc681610bcb565b505b90565b6000806000805b600180549050811015610c23578460018281548110610bf457610bf3611744565b5b906000526020600020015403610c105780925060019150610c23565b8080610c1b90611506565b915050610bd2565b50801580610c3657506001805490508210155b15610c45578092505050610cfa565b60008290505b60018080549050610c5c919061187b565b811015610cc25760018082610c7191906116b0565b81548110610c8257610c81611744565b5b906000526020600020015460018281548110610ca157610ca0611744565b5b90600052602060002001819055508080610cba90611506565b915050610c4b565b506001808080549050610cd5919061187b565b81548110610ce657610ce5611744565b5b906000526020600020016000905580925050505b919050565b600180805490501015610d47576040517f9a9be8fa000000000000000000000000000000000000000000000000000000008152600401610d3e906118fb565b60405180910390fd5b6000808203610d5f57610d58610b78565b9050610db1565b8190506000610d6d82610bcb565b905080610daf576040517f9a9be8fa000000000000000000000000000000000000000000000000000000008152600401610da690611967565b60405180910390fd5b505b60008111610df4576040517f9a9be8fa000000000000000000000000000000000000000000000000000000008152600401610deb906119d3565b60405180910390fd5b600073ffffffffffffffffffffffffffffffffffffffff1660008083815260200190815260200160002060010160009054906101000a900473ffffffffffffffffffffffffffffffffffffffff1673ffffffffffffffffffffffffffffffffffffffff1614610e98576040517f9a9be8fa000000000000000000000000000000000000000000000000000000008152600401610e8f90611a3f565b60405180910390fd5b3360008083815260200190815260200160002060010160006101000a81548173ffffffffffffffffffffffffffffffffffffffff021916908373ffffffffffffffffffffffffffffffffffffffff160217905550807f66bacdfb07a49afa060b23ca1e16974d1919771fff2fd57717ab8857b0673b3460008084815260200190815260200160002060000160009054906101000a900473ffffffffffffffffffffffffffffffffffffffff1660008085815260200190815260200160002060010160009054906101000a900473ffffffffffffffffffffffffffffffffffffffff16600080868152602001908152602001600020600201546000808781526020019081526020016000206003015460008088815260200190815260200160002060040154604051610fcd959493929190611a5f565b60405180910390a25050565b6000814233604051602001610fef929190611b1b565b6040516020818303038152906040528051906020012060001c6110129190611713565b9050919050565b6000819050919050565b61102c81611019565b82525050565b60006020820190506110476000830184611023565b92915050565b6000604051905090565b600080fd5b600080fd5b61106a81611019565b811461107557600080fd5b50565b60008135905061108781611061565b92915050565b60008115159050919050565b6110a28161108d565b81146110ad57600080fd5b50565b6000813590506110bf81611099565b92915050565b600080604083850312156110dc576110db611057565b5b60006110ea85828601611078565b92505060206110fb858286016110b0565b9150509250929050565b6000806040838503121561111c5761111b611057565b5b600061112a85828601611078565b925050602061113b85828601611078565b9150509250929050565b6000819050919050565b61115881611145565b811461116357600080fd5b50565b6000813590506111758161114f565b92915050565b600080fd5b6000601f19601f8301169050919050565b7f4e487b7100000000000000000000000000000000000000000000000000000000600052604160045260246000fd5b6111c982611180565b810181811067ffffffffffffffff821117156111e8576111e7611191565b5b80604052505050565b60006111fb61104d565b905061120782826111c0565b919050565b600067ffffffffffffffff82111561122757611226611191565b5b602082029050602081019050919050565b600080fd5b600061125061124b8461120c565b6111f1565b9050808382526020820190506020840283018581111561127357611272611238565b5b835b8181101561129c57806112888882611166565b845260208401935050602081019050611275565b5050509392505050565b600082601f8301126112bb576112ba61117b565b5b81356112cb84826020860161123d565b91505092915050565b60008060008060008060c087890312156112f1576112f0611057565b5b60006112ff89828a01611078565b965050602061131089828a01611078565b955050604061132189828a01611078565b945050606061133289828a01611078565b935050608061134389828a01611166565b92505060a087013567ffffffffffffffff8111156113645761136361105c565b5b61137089828a016112a6565b9150509295509295509295565b60006020828403121561139357611392611057565b5b60006113a184828501611078565b91505092915050565b6000806000606084860312156113c3576113c2611057565b5b60006113d186828701611078565b93505060206113e286828701611078565b92505060406113f386828701611078565b9150509250925092565b600073ffffffffffffffffffffffffffffffffffffffff82169050919050565b6000611428826113fd565b9050919050565b6114388161141d565b82525050565b600060e082019050611453600083018a61142f565b611460602083018961142f565b61146d6040830188611023565b61147a6060830187611023565b6114876080830186611023565b61149460a0830185611023565b6114a160c0830184611023565b98975050505050505050565b6114b68161108d565b82525050565b60006020820190506114d160008301846114ad565b92915050565b7f4e487b7100000000000000000000000000000000000000000000000000000000600052601160045260246000fd5b600061151182611019565b91507fffffffffffffffffffffffffffffffffffffffffffffffffffffffffffffffff8203611543576115426114d7565b5b600182019050919050565b6000606082019050611563600083018661142f565b6115706020830185611023565b61157d60408301846114ad565b949350505050565b600082825260208201905092915050565b7f47616d65206964206973206e6567617469766521000000000000000000000000600082015250565b60006115cc601483611585565b91506115d782611596565b602082019050919050565b600060208201905081810360008301526115fb816115bf565b9050919050565b7f506c61796572206e6f7420696e20746861742067616d65210000000000000000600082015250565b6000611638601883611585565b915061164382611602565b602082019050919050565b600060208201905081810360008301526116678161162b565b9050919050565b600061167982611019565b915061168483611019565b925082820261169281611019565b915082820484148315176116a9576116a86114d7565b5b5092915050565b60006116bb82611019565b91506116c683611019565b92508282019050808211156116de576116dd6114d7565b5b92915050565b7f4e487b7100000000000000000000000000000000000000000000000000000000600052601260045260246000fd5b600061171e82611019565b915061172983611019565b925082611739576117386116e4565b5b828206905092915050565b7f4e487b7100000000000000000000000000000000000000000000000000000000600052603260045260246000fd5b6000819050919050565b61178e61178982611145565b611773565b82525050565b60006117a0828561177d565b6020820191506117b0828461177d565b6020820191508190509392505050565b60006117cb82611019565b91506117d683611019565b9250826117e6576117e56116e4565b5b828204905092915050565b600060a082019050611806600083018861142f565b6118136020830187611023565b6118206040830186611023565b61182d6060830185611023565b61183a6080830184611023565b9695505050505050565b6000606082019050611859600083018661142f565b6118666020830185611023565b6118736040830184611023565b949350505050565b600061188682611019565b915061189183611019565b92508282039050818111156118a9576118a86114d7565b5b92915050565b7f4e6f206f70656e2067616d657321000000000000000000000000000000000000600082015250565b60006118e5600e83611585565b91506118f0826118af565b602082019050919050565b60006020820190508181036000830152611914816118d8565b9050919050565b7f546869732067616d6520646f6573206e6f742065786973742100000000000000600082015250565b6000611951601983611585565b915061195c8261191b565b602082019050919050565b6000602082019050818103600083015261198081611944565b9050919050565b7f43686f73656e206964206e656761746976652100000000000000000000000000600082015250565b60006119bd601383611585565b91506119c882611987565b602082019050919050565b600060208201905081810360008301526119ec816119b0565b9050919050565b7f47616d6520616c72656164792074616b656e2100000000000000000000000000600082015250565b6000611a29601383611585565b9150611a34826119f3565b602082019050919050565b60006020820190508181036000830152611a5881611a1c565b9050919050565b600060a082019050611a74600083018861142f565b611a81602083018761142f565b611a8e6040830186611023565b611a9b6060830185611023565b611aa86080830184611023565b9695505050505050565b6000819050919050565b611acd611ac882611019565b611ab2565b82525050565b60008160601b9050919050565b6000611aeb82611ad3565b9050919050565b6000611afd82611ae0565b9050919050565b611b15611b108261141d565b611af2565b82525050565b6000611b278285611abc565b602082019150611b378284611b04565b601482019150819050939250505056fea2646970667358221220951d7c8f93c650ed101d9994a25e2c87fa376fb75823171f0ed327b15b7caff064736f6c63430008130033",
  "immutableReferences": {},
  "source": "// SPDX-License-Identifier: MIT\npragma solidity >=0.4.22 <0.9.0;\n\ncontract BattleShipGame {\n    struct gameInfo {\n        // struct with all the information about a game\n        address creator;\n        address joiner;\n        uint256 boardSize;\n        uint256 shipNum;\n        uint256 ethAmount;\n        uint256 creatorMerkleRoot;\n        uint256 joinerMerkleRoot;\n    }\n\n    mapping(uint256 => gameInfo) public gameList; // map of game's ID (gameId => information of that game)\n    uint256[] public avaibleGame; // array with all the gameId of the avaible game\n\n    uint256 public gameId = 1; // value of the next gameId\n\n    // error event:\n    error OutputError(string myError);\n\n    // event:\n    event GameCreated(uint256 indexed _gameId);\n\n    event GameJoined(\n        uint256 indexed _gameId,\n        address _creator,\n        address _joiner,\n        uint256 _boardSize,\n        uint256 _shipNum,\n        uint256 _ethAmount\n    );\n\n    event AmountEthResponse(\n        address _sender,\n        uint256 _amount,\n        uint256 indexed _gameId,\n        bool response\n    );\n\n    event StartGame(uint256 indexed _gameId);\n\n    event ShootShip(\n        uint256 indexed _gameId,\n        address _address,\n        uint256 _row,\n        uint256 _col\n    );\n\n    event ShootResult(\n        uint256 indexed _gameId,\n        address _address,\n        uint256 _row,\n        uint256 _col,\n        uint256 _merkleCheck,\n        uint256 _result\n    );\n\n    constructor() {}\n\n    // function to return the gameId\n    function getId() public returns (uint256 toReturn) {\n        toReturn = gameId++;\n        return toReturn;\n    }\n\n    // function to remove an element of the array avaibleGame\n    function removeFromArray(uint256 _gameId) public returns (bool) {\n        uint256 index;\n        bool find = false;\n\n        // loop the avaible game until find the index of the chosen one\n        for (uint i = 0; i < avaibleGame.length; i++) {\n            if (avaibleGame[i] == _gameId) {\n                index = i;\n                find = true;\n                break;\n            }\n        }\n\n        if (!find || index >= avaibleGame.length) {\n            return find;\n        }\n\n        for (uint i = index; i < avaibleGame.length - 1; i++) {\n            // move manually all the element\n            avaibleGame[i] = avaibleGame[i + 1];\n        }\n        delete avaibleGame[avaibleGame.length - 1]; // remove the last element\n        return find;\n    }\n\n    function getRandomNumber(uint256 bound) private view returns (uint256) {\n        return\n            uint256(keccak256(abi.encodePacked(block.timestamp, msg.sender))) %\n            bound;\n    }\n\n    // function to get the gameId of an avaible game\n    function randomGame() public returns (uint256 randGameId) {\n        if (avaibleGame.length == 0) {\n            return 0;\n        }\n\n        randGameId = avaibleGame[getRandomNumber(avaibleGame.length)];\n        removeFromArray(randGameId);\n        return randGameId;\n    }\n\n    function createGame(\n        // function to create a new game\n        uint256 _boardSize,\n        uint256 _shipNum,\n        uint256 _ethAmount\n    ) public {\n        // create a new game\n        uint256 newGameId = getId();\n\n        gameList[newGameId] = gameInfo(\n            msg.sender,\n            address(0),\n            _boardSize,\n            _shipNum,\n            _ethAmount,\n            0,\n            0\n        );\n        avaibleGame.push(newGameId);\n        emit GameCreated(newGameId);\n    }\n\n    function joinGame(uint256 _gameId) public {\n        // function to join a game\n        // check if there are avaible game\n        if (avaibleGame.length < 1) {\n            revert OutputError({myError: \"No open games!\"});\n        }\n\n        uint256 chosenGameId;\n\n        if (_gameId == 0) {\n            //random game choice\n            chosenGameId = randomGame();\n        } else {\n            //specific game\n            chosenGameId = _gameId;\n            bool find = removeFromArray(chosenGameId);\n\n            if (!find) {\n                revert OutputError({myError: \"This game does not exist!\"});\n            }\n        }\n\n        if (chosenGameId <= 0) {\n            revert OutputError({myError: \"Chosen id negative!\"});\n        }\n\n        if (gameList[chosenGameId].joiner != address(0)) {\n            revert OutputError({myError: \"Game already taken!\"});\n        }\n        gameList[chosenGameId].joiner = msg.sender;\n\n        emit GameJoined(\n            chosenGameId,\n            gameList[chosenGameId].creator,\n            gameList[chosenGameId].joiner,\n            gameList[chosenGameId].boardSize,\n            gameList[chosenGameId].shipNum,\n            gameList[chosenGameId].ethAmount\n        );\n    }\n\n    function amountEthDecision(uint256 _gameId, bool _response) public {\n        // function to accept or refuse the eth amount\n        if (!_response) {\n            // refuse response\n            gameList[_gameId].joiner = address(0);\n            avaibleGame.push(_gameId);\n        }\n\n        emit AmountEthResponse(\n            msg.sender,\n            gameList[_gameId].ethAmount,\n            _gameId,\n            _response\n        );\n    }\n\n    function submitBoard(uint256 _gameId, uint256 _merkleRoot) public {\n        // function to submit the board\n        //TODO: check\n        if (_gameId <= 0) {\n            revert OutputError({myError: \"Game id is negative!\"});\n        }\n\n        if (gameList[_gameId].creator == msg.sender) {\n            gameList[_gameId].creatorMerkleRoot = _merkleRoot;\n        } else if (gameList[_gameId].joiner == msg.sender) {\n            gameList[_gameId].joinerMerkleRoot = _merkleRoot;\n        } else {\n            revert OutputError({myError: \"Player not in that game!\"});\n        }\n\n        emit StartGame(_gameId);\n    }\n\n    function shoot(uint256 _gameId, uint256 _row, uint256 _col) public {\n        // function to communicate the coordinates of the fired cell\n        if (_gameId <= 0) {\n            revert OutputError({myError: \"Game id is negative!\"});\n        }\n\n        // take the opponent address for comunicate who was shot\n        address opponentAddress;\n        if (msg.sender == gameList[_gameId].creator) {\n            opponentAddress = gameList[_gameId].joiner;\n        } else {\n            opponentAddress = gameList[_gameId].creator;\n        }\n\n        emit ShootShip(_gameId, opponentAddress, _row, _col);\n    }\n\n    function shootResult(\n        uint256 _gameId,\n        uint256 _row,\n        uint256 _col,\n        uint256 _result,\n        bytes32 _hash,\n        bytes32[] memory _merkleProof\n    ) public {\n        // function to comunicate the result of the shot\n        if (_gameId <= 0) {\n            revert OutputError({myError: \"Game id is negative!\"});\n        }\n\n        // take the opponent address for comunicate who fired the shot\n        address opponentAddress;\n        uint256 merkleRoot;\n        if (msg.sender == gameList[_gameId].creator) {\n            opponentAddress = gameList[_gameId].joiner;\n            merkleRoot = gameList[_gameId].creatorMerkleRoot;\n        } else {\n            opponentAddress = gameList[_gameId].creator;\n            merkleRoot = gameList[_gameId].joinerMerkleRoot;\n        }\n\n        uint256 check;\n        bytes32 hashValue = _hash;\n\n        uint256 index = _row * gameList[_gameId].boardSize + _col;\n        for (uint i = 0; i < _merkleProof.length; i++) {\n            if (index % 2 == 0) {\n                hashValue = keccak256(abi.encodePacked(hashValue, _merkleProof[i]));\n            } else {\n                hashValue = keccak256(abi.encodePacked(_merkleProof[i], hashValue));\n            }\n\n            index = index/2;\n        }\n\n        if(merkleRoot == uint256(hashValue)){\n            check = 1;\n        }\n        else{\n            check = 0;\n        }\n\n        emit ShootResult(_gameId, opponentAddress, _row, _col, check, _result);\n    }\n}\n",
  "sourcePath": "/mnt/storage/Magistrale/P2PB/ProgettoP2P/P2P_Project/contracts/BattleShipGame.sol",
  "compiler": {
    "name": "solc",
    "version": "0.8.19+commit.7dd6d404.Emscripten.clang"
  },
  "schemaVersion": "3.4.13",
  "updatedAt": "2023-07-16T14:12:21.839Z",
  "networkType": "ethereum",
  "devdoc": {
    "kind": "dev",
    "methods": {},
    "version": 1
  },
  "userdoc": {
    "kind": "user",
    "methods": {},
    "version": 1
  }
}