{
  "contractName": "BattleShipGame",
  "abi": [
    {
      "inputs": [],
      "stateMutability": "nonpayable",
      "type": "constructor"
    },
    {
      "inputs": [
        {
          "internalType": "string",
          "name": "myError",
          "type": "string"
        }
      ],
      "name": "OutputError",
      "type": "error"
    },
    {
      "anonymous": false,
      "inputs": [
        {
          "indexed": false,
          "internalType": "address",
          "name": "_sender",
          "type": "address"
        },
        {
          "indexed": false,
          "internalType": "uint256",
          "name": "_amount",
          "type": "uint256"
        },
        {
          "indexed": true,
          "internalType": "uint256",
          "name": "_gameId",
          "type": "uint256"
        },
        {
          "indexed": false,
          "internalType": "bool",
          "name": "response",
          "type": "bool"
        }
      ],
      "name": "AmountEthResponse",
      "type": "event"
    },
    {
      "anonymous": false,
      "inputs": [
        {
          "indexed": true,
          "internalType": "uint256",
          "name": "_gameId",
          "type": "uint256"
        }
      ],
      "name": "GameCreated",
      "type": "event"
    },
    {
      "anonymous": false,
      "inputs": [
        {
          "indexed": true,
          "internalType": "uint256",
          "name": "_gameId",
          "type": "uint256"
        },
        {
          "indexed": false,
          "internalType": "address",
          "name": "_creator",
          "type": "address"
        },
        {
          "indexed": false,
          "internalType": "address",
          "name": "_joiner",
          "type": "address"
        },
        {
          "indexed": false,
          "internalType": "uint256",
          "name": "_boardSize",
          "type": "uint256"
        },
        {
          "indexed": false,
          "internalType": "uint256",
          "name": "_shipNum",
          "type": "uint256"
        },
        {
          "indexed": false,
          "internalType": "uint256",
          "name": "_ethAmount",
          "type": "uint256"
        }
      ],
      "name": "GameJoined",
      "type": "event"
    },
    {
      "anonymous": false,
      "inputs": [
        {
          "indexed": true,
          "internalType": "uint256",
          "name": "_gameId",
          "type": "uint256"
        },
        {
          "indexed": false,
          "internalType": "uint256",
          "name": "_merkleRoot",
          "type": "uint256"
        }
      ],
      "name": "SubmitBoard",
      "type": "event"
    },
    {
      "inputs": [
        {
          "internalType": "uint256",
          "name": "",
          "type": "uint256"
        }
      ],
      "name": "avaibleGame",
      "outputs": [
        {
          "internalType": "uint256",
          "name": "",
          "type": "uint256"
        }
      ],
      "stateMutability": "view",
      "type": "function",
      "constant": true
    },
    {
      "inputs": [],
      "name": "gameId",
      "outputs": [
        {
          "internalType": "uint256",
          "name": "",
          "type": "uint256"
        }
      ],
      "stateMutability": "view",
      "type": "function",
      "constant": true
    },
    {
      "inputs": [
        {
          "internalType": "uint256",
          "name": "",
          "type": "uint256"
        }
      ],
      "name": "gameList",
      "outputs": [
        {
          "internalType": "address",
          "name": "creator",
          "type": "address"
        },
        {
          "internalType": "address",
          "name": "joiner",
          "type": "address"
        },
        {
          "internalType": "uint256",
          "name": "boardSize",
          "type": "uint256"
        },
        {
          "internalType": "uint256",
          "name": "shipNum",
          "type": "uint256"
        },
        {
          "internalType": "uint256",
          "name": "ethAmount",
          "type": "uint256"
        }
      ],
      "stateMutability": "view",
      "type": "function",
      "constant": true
    },
    {
      "inputs": [],
      "name": "getId",
      "outputs": [
        {
          "internalType": "uint256",
          "name": "toReturn",
          "type": "uint256"
        }
      ],
      "stateMutability": "nonpayable",
      "type": "function"
    },
    {
      "inputs": [
        {
          "internalType": "uint256",
          "name": "_gameId",
          "type": "uint256"
        }
      ],
      "name": "removeFromArray",
      "outputs": [],
      "stateMutability": "nonpayable",
      "type": "function"
    },
    {
      "inputs": [],
      "name": "randomGame",
      "outputs": [
        {
          "internalType": "uint256",
          "name": "randGameId",
          "type": "uint256"
        }
      ],
      "stateMutability": "nonpayable",
      "type": "function"
    },
    {
      "inputs": [
        {
          "internalType": "uint256",
          "name": "_boardSize",
          "type": "uint256"
        },
        {
          "internalType": "uint256",
          "name": "_shipNum",
          "type": "uint256"
        },
        {
          "internalType": "uint256",
          "name": "_ethAmount",
          "type": "uint256"
        }
      ],
      "name": "createGame",
      "outputs": [],
      "stateMutability": "nonpayable",
      "type": "function"
    },
    {
      "inputs": [
        {
          "internalType": "uint256",
          "name": "_gameId",
          "type": "uint256"
        }
      ],
      "name": "joinGame",
      "outputs": [],
      "stateMutability": "nonpayable",
      "type": "function"
    },
    {
      "inputs": [
        {
          "internalType": "uint256",
          "name": "_gameId",
          "type": "uint256"
        },
        {
          "internalType": "bool",
          "name": "_response",
          "type": "bool"
        }
      ],
      "name": "amountEthDecision",
      "outputs": [],
      "stateMutability": "nonpayable",
      "type": "function"
    },
    {
      "inputs": [
        {
          "internalType": "uint256",
          "name": "_gameId",
          "type": "uint256"
        },
        {
          "internalType": "uint256",
          "name": "_merkleRoot",
          "type": "uint256"
        }
      ],
      "name": "submitBoard",
      "outputs": [],
      "stateMutability": "nonpayable",
      "type": "function"
    }
  ],
  "bytecode": "0x6080604052600160025534801561001557600080fd5b50610f98806100256000396000f3fe608060405234801561001057600080fd5b506004361061009e5760003560e01c8063c6cfd08e11610066578063c6cfd08e14610145578063d7c81b5514610179578063d9ad3ef514610197578063eb56ea90146101b5578063efaa55a0146101d15761009e565b80635d1ca631146100a3578063685385f3146100c157806372e49ad3146100dd578063a4933c81146100f9578063c274152114610129575b600080fd5b6100ab6101ed565b6040516100b891906109ac565b60405180910390f35b6100db60048036038101906100d69190610a30565b61020b565b005b6100f760048036038101906100f29190610a70565b6102e4565b005b610113600480360381019061010e9190610ab0565b610320565b60405161012091906109ac565b60405180910390f35b610143600480360381019061013e9190610add565b610344565b005b61015f600480360381019061015a9190610ab0565b6104c1565b604051610170959493929190610b71565b60405180910390f35b610181610537565b60405161018e91906109ac565b60405180910390f35b61019f61053d565b6040516101ac91906109ac565b60405180910390f35b6101cf60048036038101906101ca9190610ab0565b61058f565b005b6101eb60048036038101906101e69190610ab0565b6106be565b005b60006002600081548092919061020290610bf3565b91905055905090565b8061028f57600080600084815260200190815260200160002060010160006101000a81548173ffffffffffffffffffffffffffffffffffffffff021916908373ffffffffffffffffffffffffffffffffffffffff16021790555060018290806001815401808255809150506001900390600052602060002001600090919091909150555b817f55329a170c309fdb206036da4397784f0560d2264c68e25316be295379a9eae83360008086815260200190815260200160002060040154846040516102d893929190610c4a565b60405180910390a25050565b817fd5bd707e5d7503e3b4f4565cf2790d02708992064e6ad20b563e719901641b3d8260405161031491906109ac565b60405180910390a25050565b6001818154811061033057600080fd5b906000526020600020016000915090505481565b600061034e6101ed565b90506040518060a001604052803373ffffffffffffffffffffffffffffffffffffffff168152602001600073ffffffffffffffffffffffffffffffffffffffff1681526020018581526020018481526020018381525060008083815260200190815260200160002060008201518160000160006101000a81548173ffffffffffffffffffffffffffffffffffffffff021916908373ffffffffffffffffffffffffffffffffffffffff16021790555060208201518160010160006101000a81548173ffffffffffffffffffffffffffffffffffffffff021916908373ffffffffffffffffffffffffffffffffffffffff1602179055506040820151816002015560608201518160030155608082015181600401559050506001819080600181540180825580915050600190039060005260206000200160009091909190915055807fbd19c47e9925eb6f7be8bb1c13a841e0240aaeaf17f217e90022e9c8eb66877f60405160405180910390a250505050565b60006020528060005260406000206000915090508060000160009054906101000a900473ffffffffffffffffffffffffffffffffffffffff16908060010160009054906101000a900473ffffffffffffffffffffffffffffffffffffffff16908060020154908060030154908060040154905085565b60025481565b60008060018054905003610554576000905061058c565b6001610564600180549050610953565b8154811061057557610574610c81565b5b9060005260206000200154905061058b8161058f565b5b90565b6000806000905060005b6001805490508110156105ea5783600182815481106105bb576105ba610c81565b5b9060005260206000200154036105d757809250600191506105ea565b80806105e290610bf3565b915050610599565b508015806105fd57506001805490508210155b156106095750506106bb565b60008290505b600180805490506106209190610cb0565b81101561068657600180826106359190610ce4565b8154811061064657610645610c81565b5b90600052602060002001546001828154811061066557610664610c81565b5b9060005260206000200181905550808061067e90610bf3565b91505061060f565b5060018080805490506106999190610cb0565b815481106106aa576106a9610c81565b5b906000526020600020016000905550505b50565b600180805490501015610706576040517f9a9be8fa0000000000000000000000000000000000000000000000000000000081526004016106fd90610d75565b60405180910390fd5b600080820361071e5761071761053d565b905061072b565b81905061072a8161058f565b5b6000811161076e576040517f9a9be8fa00000000000000000000000000000000000000000000000000000000815260040161076590610de1565b60405180910390fd5b600073ffffffffffffffffffffffffffffffffffffffff1660008083815260200190815260200160002060010160009054906101000a900473ffffffffffffffffffffffffffffffffffffffff1673ffffffffffffffffffffffffffffffffffffffff1614610812576040517f9a9be8fa00000000000000000000000000000000000000000000000000000000815260040161080990610e4d565b60405180910390fd5b3360008083815260200190815260200160002060010160006101000a81548173ffffffffffffffffffffffffffffffffffffffff021916908373ffffffffffffffffffffffffffffffffffffffff160217905550807f66bacdfb07a49afa060b23ca1e16974d1919771fff2fd57717ab8857b0673b3460008084815260200190815260200160002060000160009054906101000a900473ffffffffffffffffffffffffffffffffffffffff1660008085815260200190815260200160002060010160009054906101000a900473ffffffffffffffffffffffffffffffffffffffff16600080868152602001908152602001600020600201546000808781526020019081526020016000206003015460008088815260200190815260200160002060040154604051610947959493929190610b71565b60405180910390a25050565b6000814233604051602001610969929190610ed6565b6040516020818303038152906040528051906020012060001c61098c9190610f31565b9050919050565b6000819050919050565b6109a681610993565b82525050565b60006020820190506109c1600083018461099d565b92915050565b600080fd5b6109d581610993565b81146109e057600080fd5b50565b6000813590506109f2816109cc565b92915050565b60008115159050919050565b610a0d816109f8565b8114610a1857600080fd5b50565b600081359050610a2a81610a04565b92915050565b60008060408385031215610a4757610a466109c7565b5b6000610a55858286016109e3565b9250506020610a6685828601610a1b565b9150509250929050565b60008060408385031215610a8757610a866109c7565b5b6000610a95858286016109e3565b9250506020610aa6858286016109e3565b9150509250929050565b600060208284031215610ac657610ac56109c7565b5b6000610ad4848285016109e3565b91505092915050565b600080600060608486031215610af657610af56109c7565b5b6000610b04868287016109e3565b9350506020610b15868287016109e3565b9250506040610b26868287016109e3565b9150509250925092565b600073ffffffffffffffffffffffffffffffffffffffff82169050919050565b6000610b5b82610b30565b9050919050565b610b6b81610b50565b82525050565b600060a082019050610b866000830188610b62565b610b936020830187610b62565b610ba0604083018661099d565b610bad606083018561099d565b610bba608083018461099d565b9695505050505050565b7f4e487b7100000000000000000000000000000000000000000000000000000000600052601160045260246000fd5b6000610bfe82610993565b91507fffffffffffffffffffffffffffffffffffffffffffffffffffffffffffffffff8203610c3057610c2f610bc4565b5b600182019050919050565b610c44816109f8565b82525050565b6000606082019050610c5f6000830186610b62565b610c6c602083018561099d565b610c796040830184610c3b565b949350505050565b7f4e487b7100000000000000000000000000000000000000000000000000000000600052603260045260246000fd5b6000610cbb82610993565b9150610cc683610993565b9250828203905081811115610cde57610cdd610bc4565b5b92915050565b6000610cef82610993565b9150610cfa83610993565b9250828201905080821115610d1257610d11610bc4565b5b92915050565b600082825260208201905092915050565b7f4e6f206f70656e2067616d657321000000000000000000000000000000000000600082015250565b6000610d5f600e83610d18565b9150610d6a82610d29565b602082019050919050565b60006020820190508181036000830152610d8e81610d52565b9050919050565b7f43686f73656e206964206e656761746976652100000000000000000000000000600082015250565b6000610dcb601383610d18565b9150610dd682610d95565b602082019050919050565b60006020820190508181036000830152610dfa81610dbe565b9050919050565b7f47616d6520616c72656164792074616b656e2100000000000000000000000000600082015250565b6000610e37601383610d18565b9150610e4282610e01565b602082019050919050565b60006020820190508181036000830152610e6681610e2a565b9050919050565b6000819050919050565b610e88610e8382610993565b610e6d565b82525050565b60008160601b9050919050565b6000610ea682610e8e565b9050919050565b6000610eb882610e9b565b9050919050565b610ed0610ecb82610b50565b610ead565b82525050565b6000610ee28285610e77565b602082019150610ef28284610ebf565b6014820191508190509392505050565b7f4e487b7100000000000000000000000000000000000000000000000000000000600052601260045260246000fd5b6000610f3c82610993565b9150610f4783610993565b925082610f5757610f56610f02565b5b82820690509291505056fea2646970667358221220df5f5b710e9604322b7abf4acaaa266b259a776e8210b9340e3b4c43f5b5ba3e64736f6c63430008130033",
  "immutableReferences": {},
  "source": "// SPDX-License-Identifier: MIT\npragma solidity >=0.4.22 <0.9.0;\n\ncontract BattleShipGame {\n    struct gameInfo {\n        // struct with all the information about a game\n        address creator;\n        address joiner;\n        uint256 boardSize;\n        uint256 shipNum;\n        uint256 ethAmount;\n    }\n\n    mapping(uint256 => gameInfo) public gameList; // map of game's ID (gameId => information of that game)\n    uint256[] public avaibleGame; // array with all the gameId of the avaible game\n\n    uint256 public gameId = 1; // value of the next gameId\n\n    // error event:\n    error OutputError(string myError);\n\n    // event:\n    event GameCreated(\n        uint256 indexed _gameId\n    );\n\n    event GameJoined(\n        uint256 indexed _gameId,\n        address _creator,\n        address _joiner,\n        uint256 _boardSize,\n        uint256 _shipNum,\n        uint256 _ethAmount\n    );\n\n    event AmountEthResponse(\n        address _sender,\n        uint256 _amount,\n        uint256 indexed _gameId,\n        bool response\n    );\n\n    event SubmitBoard(\n        uint256 indexed _gameId,\n        uint256 _merkleRoot\n    );\n\n    constructor() {}\n\n    // function to return the gameId\n    function getId() public returns (uint256 toReturn) {\n        toReturn = gameId++;\n        return toReturn;\n    }\n\n    // function to remove an element of the array avaibleGame\n    function removeFromArray(uint256 _gameId) public {\n        uint256 index;\n        bool find = false;\n\n        for (uint i = 0; i < avaibleGame.length ; i++){\n            if(avaibleGame[i] == _gameId){\n                index = i;\n                find = true;\n                break;\n            }\n        }\n\n        if (!find || index >= avaibleGame.length){\n            return;\n        }\n\n        for (uint i = index; i<avaibleGame.length-1; i++){\n            avaibleGame[i] = avaibleGame[i+1];\n        }\n        delete avaibleGame[avaibleGame.length-1];\n    }\n\n    function getRandomNumber(uint256 bound) private view returns (uint256) {\n        return uint256(keccak256(abi.encodePacked(block.timestamp, msg.sender))) % bound;\n    }\n\n    // function to get the gameId of an avaible game\n    function randomGame() public returns (uint256 randGameId) {\n        if (avaibleGame.length == 0) {\n            return 0;\n        }\n\n        randGameId = avaibleGame[getRandomNumber(avaibleGame.length)];\n        removeFromArray(randGameId);\n        return randGameId;\n    }\n\n    function createGame(\n        uint256 _boardSize,\n        uint256 _shipNum,\n        uint256 _ethAmount\n    ) public {\n        // create a new game\n        uint256 newGameId = getId();\n\n        gameList[newGameId] = gameInfo(\n            msg.sender,\n            address(0),\n            _boardSize,\n            _shipNum,\n            _ethAmount\n        );\n        avaibleGame.push(newGameId);\n        emit GameCreated(newGameId);\n    }\n\n    function joinGame(uint256 _gameId) public {\n        // join a new game\n        if (avaibleGame.length < 1) {\n            revert OutputError({myError: \"No open games!\"});\n        }\n\n        uint256 chosenGameId;\n\n        if (_gameId == 0) {\n            //random game choice\n            chosenGameId = randomGame();\n        } else {\n            //specific game\n            chosenGameId = _gameId;\n            removeFromArray(chosenGameId);\n        }\n\n        if(chosenGameId <= 0){\n            revert OutputError({myError: \"Chosen id negative!\"});\n        }\n\n        if (gameList[chosenGameId].joiner != address(0)) {\n            revert OutputError({myError: \"Game already taken!\"});\n        }\n        gameList[chosenGameId].joiner = msg.sender;\n\n        emit GameJoined(\n            chosenGameId,\n            gameList[chosenGameId].creator,\n            gameList[chosenGameId].joiner,\n            gameList[chosenGameId].boardSize,\n            gameList[chosenGameId].shipNum,\n            gameList[chosenGameId].ethAmount\n        );\n    }\n\n    function amountEthDecision(uint256 _gameId, bool _response) public {\n        if (!_response) {\n            gameList[_gameId].joiner = address(0);\n            avaibleGame.push(_gameId);\n        }\n\n        emit AmountEthResponse(\n            msg.sender,\n            gameList[_gameId].ethAmount,\n            _gameId,\n            _response\n        );\n    }\n\n    function submitBoard(uint256 _gameId, uint256 _merkleRoot) public {\n        emit SubmitBoard(\n            _gameId,\n            _merkleRoot\n        );\n    }\n}\n",
  "sourcePath": "/mnt/storage/Magistrale/P2PB/ProgettoP2P/P2P_Project/contracts/BattleShipGame.sol",
  "compiler": {
    "name": "solc",
    "version": "0.8.19+commit.7dd6d404.Emscripten.clang"
  },
  "schemaVersion": "3.4.13",
  "updatedAt": "2023-07-01T22:02:13.452Z",
  "networkType": "ethereum",
  "devdoc": {
    "kind": "dev",
    "methods": {},
    "version": 1
  },
  "userdoc": {
    "kind": "user",
    "methods": {},
    "version": 1
  }
}