{
  "contractName": "BattleShipGame",
  "abi": [
    {
      "inputs": [],
      "stateMutability": "nonpayable",
      "type": "constructor"
    },
    {
      "inputs": [
        {
          "internalType": "string",
          "name": "myError",
          "type": "string"
        }
      ],
      "name": "OutputError",
      "type": "error"
    },
    {
      "anonymous": false,
      "inputs": [
        {
          "indexed": true,
          "internalType": "uint256",
          "name": "_gameId",
          "type": "uint256"
        },
        {
          "indexed": false,
          "internalType": "address",
          "name": "_accused",
          "type": "address"
        },
        {
          "indexed": false,
          "internalType": "address",
          "name": "_accuser",
          "type": "address"
        }
      ],
      "name": "AccusationTrigger",
      "type": "event"
    },
    {
      "anonymous": false,
      "inputs": [
        {
          "indexed": false,
          "internalType": "address",
          "name": "_sender",
          "type": "address"
        },
        {
          "indexed": false,
          "internalType": "uint256",
          "name": "_amount",
          "type": "uint256"
        },
        {
          "indexed": true,
          "internalType": "uint256",
          "name": "_gameId",
          "type": "uint256"
        },
        {
          "indexed": false,
          "internalType": "uint256",
          "name": "_response",
          "type": "uint256"
        }
      ],
      "name": "AmountEthResponse",
      "type": "event"
    },
    {
      "anonymous": false,
      "inputs": [
        {
          "indexed": true,
          "internalType": "uint256",
          "name": "_gameId",
          "type": "uint256"
        }
      ],
      "name": "GameCreated",
      "type": "event"
    },
    {
      "anonymous": false,
      "inputs": [
        {
          "indexed": true,
          "internalType": "uint256",
          "name": "_gameId",
          "type": "uint256"
        },
        {
          "indexed": false,
          "internalType": "address",
          "name": "_winner",
          "type": "address"
        },
        {
          "indexed": false,
          "internalType": "address",
          "name": "_loser",
          "type": "address"
        },
        {
          "indexed": false,
          "internalType": "uint256",
          "name": "_reason",
          "type": "uint256"
        }
      ],
      "name": "GameEnded",
      "type": "event"
    },
    {
      "anonymous": false,
      "inputs": [
        {
          "indexed": true,
          "internalType": "uint256",
          "name": "_gameId",
          "type": "uint256"
        },
        {
          "indexed": false,
          "internalType": "address",
          "name": "_creator",
          "type": "address"
        },
        {
          "indexed": false,
          "internalType": "address",
          "name": "_joiner",
          "type": "address"
        },
        {
          "indexed": false,
          "internalType": "uint256",
          "name": "_boardSize",
          "type": "uint256"
        },
        {
          "indexed": false,
          "internalType": "uint256",
          "name": "_shipNum",
          "type": "uint256"
        },
        {
          "indexed": false,
          "internalType": "uint256",
          "name": "_ethAmount",
          "type": "uint256"
        }
      ],
      "name": "GameJoined",
      "type": "event"
    },
    {
      "anonymous": false,
      "inputs": [
        {
          "indexed": true,
          "internalType": "uint256",
          "name": "_gameId",
          "type": "uint256"
        },
        {
          "indexed": false,
          "internalType": "address",
          "name": "_accuser",
          "type": "address"
        }
      ],
      "name": "ResolveAccuse",
      "type": "event"
    },
    {
      "anonymous": false,
      "inputs": [
        {
          "indexed": true,
          "internalType": "uint256",
          "name": "_gameId",
          "type": "uint256"
        },
        {
          "indexed": false,
          "internalType": "address",
          "name": "_address",
          "type": "address"
        },
        {
          "indexed": false,
          "internalType": "uint256",
          "name": "_row",
          "type": "uint256"
        },
        {
          "indexed": false,
          "internalType": "uint256",
          "name": "_col",
          "type": "uint256"
        },
        {
          "indexed": false,
          "internalType": "uint256",
          "name": "_result",
          "type": "uint256"
        },
        {
          "indexed": false,
          "internalType": "uint256",
          "name": "_shipsRemaining",
          "type": "uint256"
        }
      ],
      "name": "ShotResult",
      "type": "event"
    },
    {
      "anonymous": false,
      "inputs": [
        {
          "indexed": true,
          "internalType": "uint256",
          "name": "_gameId",
          "type": "uint256"
        },
        {
          "indexed": false,
          "internalType": "address",
          "name": "_address",
          "type": "address"
        },
        {
          "indexed": false,
          "internalType": "uint256",
          "name": "_row",
          "type": "uint256"
        },
        {
          "indexed": false,
          "internalType": "uint256",
          "name": "_col",
          "type": "uint256"
        }
      ],
      "name": "ShotShip",
      "type": "event"
    },
    {
      "inputs": [
        {
          "internalType": "uint256",
          "name": "",
          "type": "uint256"
        }
      ],
      "name": "availableGames",
      "outputs": [
        {
          "internalType": "uint256",
          "name": "",
          "type": "uint256"
        }
      ],
      "stateMutability": "view",
      "type": "function",
      "constant": true
    },
    {
      "inputs": [],
      "name": "gameId",
      "outputs": [
        {
          "internalType": "uint256",
          "name": "",
          "type": "uint256"
        }
      ],
      "stateMutability": "view",
      "type": "function",
      "constant": true
    },
    {
      "inputs": [
        {
          "internalType": "uint256",
          "name": "",
          "type": "uint256"
        }
      ],
      "name": "gameList",
      "outputs": [
        {
          "internalType": "address",
          "name": "creator",
          "type": "address"
        },
        {
          "internalType": "address",
          "name": "joiner",
          "type": "address"
        },
        {
          "internalType": "uint256",
          "name": "boardSize",
          "type": "uint256"
        },
        {
          "internalType": "uint256",
          "name": "shipNum",
          "type": "uint256"
        },
        {
          "internalType": "uint256",
          "name": "ethAmount",
          "type": "uint256"
        },
        {
          "internalType": "uint256",
          "name": "ethBetted",
          "type": "uint256"
        },
        {
          "internalType": "bytes32",
          "name": "creatorMerkleRoot",
          "type": "bytes32"
        },
        {
          "internalType": "bytes32",
          "name": "joinerMerkleRoot",
          "type": "bytes32"
        },
        {
          "internalType": "uint256",
          "name": "creatorNumShips",
          "type": "uint256"
        },
        {
          "internalType": "uint256",
          "name": "joinerNumShips",
          "type": "uint256"
        },
        {
          "internalType": "uint256",
          "name": "accusationTime",
          "type": "uint256"
        },
        {
          "internalType": "address",
          "name": "accuser",
          "type": "address"
        }
      ],
      "stateMutability": "view",
      "type": "function",
      "constant": true
    },
    {
      "inputs": [
        {
          "internalType": "uint256",
          "name": "_boardSize",
          "type": "uint256"
        },
        {
          "internalType": "uint256",
          "name": "_shipNum",
          "type": "uint256"
        },
        {
          "internalType": "uint256",
          "name": "_ethAmount",
          "type": "uint256"
        }
      ],
      "name": "createGame",
      "outputs": [],
      "stateMutability": "payable",
      "type": "function",
      "payable": true
    },
    {
      "inputs": [
        {
          "internalType": "uint256",
          "name": "_gameId",
          "type": "uint256"
        }
      ],
      "name": "joinGame",
      "outputs": [],
      "stateMutability": "nonpayable",
      "type": "function"
    },
    {
      "inputs": [
        {
          "internalType": "uint256",
          "name": "_gameId",
          "type": "uint256"
        },
        {
          "internalType": "bool",
          "name": "_response",
          "type": "bool"
        }
      ],
      "name": "amountEthDecision",
      "outputs": [],
      "stateMutability": "payable",
      "type": "function",
      "payable": true
    },
    {
      "inputs": [
        {
          "internalType": "uint256",
          "name": "_gameId",
          "type": "uint256"
        },
        {
          "internalType": "bytes32",
          "name": "_merkleRoot",
          "type": "bytes32"
        }
      ],
      "name": "submitBoard",
      "outputs": [],
      "stateMutability": "nonpayable",
      "type": "function"
    },
    {
      "inputs": [
        {
          "internalType": "uint256",
          "name": "_gameId",
          "type": "uint256"
        },
        {
          "internalType": "uint256",
          "name": "_row",
          "type": "uint256"
        },
        {
          "internalType": "uint256",
          "name": "_col",
          "type": "uint256"
        }
      ],
      "name": "shot",
      "outputs": [],
      "stateMutability": "nonpayable",
      "type": "function"
    },
    {
      "inputs": [
        {
          "internalType": "uint256",
          "name": "_gameId",
          "type": "uint256"
        },
        {
          "internalType": "uint256",
          "name": "_row",
          "type": "uint256"
        },
        {
          "internalType": "uint256",
          "name": "_col",
          "type": "uint256"
        },
        {
          "internalType": "uint256",
          "name": "_result",
          "type": "uint256"
        },
        {
          "internalType": "bytes32",
          "name": "_hash",
          "type": "bytes32"
        },
        {
          "internalType": "bytes32[]",
          "name": "_merkleProof",
          "type": "bytes32[]"
        }
      ],
      "name": "shotResult",
      "outputs": [],
      "stateMutability": "payable",
      "type": "function",
      "payable": true
    },
    {
      "inputs": [
        {
          "internalType": "uint256",
          "name": "_gameId",
          "type": "uint256"
        }
      ],
      "name": "accuseOpponent",
      "outputs": [],
      "stateMutability": "payable",
      "type": "function",
      "payable": true
    },
    {
      "inputs": [
        {
          "internalType": "uint256",
          "name": "_gameId",
          "type": "uint256"
        }
      ],
      "name": "verifyAccuse",
      "outputs": [],
      "stateMutability": "payable",
      "type": "function",
      "payable": true
    }
  ],
  "bytecode": "0x6080604052600160025534801561001557600080fd5b506134f5806100256000396000f3fe60806040526004361061009c5760003560e01c80639377b400116100645780639377b4001461013a5780639966cc8314610163578063c2741521146101a0578063c6cfd08e146101bc578063d7c81b5514610204578063efaa55a01461022f5761009c565b80630153f922146100a15780630328f6fb146100bd57806320ed1057146100e65780634f7f73f314610102578063685385f31461011e575b600080fd5b6100bb60048036038101906100b691906125a5565b610258565b005b3480156100c957600080fd5b506100e460048036038101906100df9190612608565b610650565b005b61010060048036038101906100fb91906125a5565b610a4a565b005b61011c600480360381019061011791906127a1565b610f0f565b005b61013860048036038101906101339190612882565b611544565b005b34801561014657600080fd5b50610161600480360381019061015c91906128c2565b61184d565b005b34801561016f57600080fd5b5061018a600480360381019061018591906125a5565b611c0b565b6040516101979190612924565b60405180910390f35b6101ba60048036038101906101b591906128c2565b611c2f565b005b3480156101c857600080fd5b506101e360048036038101906101de91906125a5565b611f3c565b6040516101fb9c9b9a9998979695949392919061298f565b60405180910390f35b34801561021057600080fd5b50610219611ffc565b6040516102269190612924565b60405180910390f35b34801561023b57600080fd5b50610256600480360381019061025191906125a5565b612002565b005b60008082815260200190815260200160002060000160009054906101000a900473ffffffffffffffffffffffffffffffffffffffff1673ffffffffffffffffffffffffffffffffffffffff16600080838152602001908152602001600020600b0160009054906101000a900473ffffffffffffffffffffffffffffffffffffffff1673ffffffffffffffffffffffffffffffffffffffff160361044f5743600080838152602001908152602001600020600a01541161044a57600080828152602001908152602001600020600b0160009054906101000a900473ffffffffffffffffffffffffffffffffffffffff1673ffffffffffffffffffffffffffffffffffffffff166108fc600080848152602001908152602001600020600501549081150290604051600060405180830381858888f193505050501580156103a1573d6000803e3d6000fd5b50807f470cc86631700e08c11a6d20ecd69bb482a129f5071a1057455be0c10be26866600080848152602001908152602001600020600b0160009054906101000a900473ffffffffffffffffffffffffffffffffffffffff1660008085815260200190815260200160002060010160009054906101000a900473ffffffffffffffffffffffffffffffffffffffff16600260405161044193929190612a8e565b60405180910390a25b61064c565b60008082815260200190815260200160002060010160009054906101000a900473ffffffffffffffffffffffffffffffffffffffff1673ffffffffffffffffffffffffffffffffffffffff16600080838152602001908152602001600020600b0160009054906101000a900473ffffffffffffffffffffffffffffffffffffffff1673ffffffffffffffffffffffffffffffffffffffff16036106465743600080838152602001908152602001600020600a01541161064157600080828152602001908152602001600020600b0160009054906101000a900473ffffffffffffffffffffffffffffffffffffffff1673ffffffffffffffffffffffffffffffffffffffff166108fc600080848152602001908152602001600020600501549081150290604051600060405180830381858888f19350505050158015610598573d6000803e3d6000fd5b50807f470cc86631700e08c11a6d20ecd69bb482a129f5071a1057455be0c10be26866600080848152602001908152602001600020600b0160009054906101000a900473ffffffffffffffffffffffffffffffffffffffff1660008085815260200190815260200160002060000160009054906101000a900473ffffffffffffffffffffffffffffffffffffffff16600260405161063893929190612a8e565b60405180910390a25b61064b565b61064d565b5b5b50565b60008211610693576040517f9a9be8fa00000000000000000000000000000000000000000000000000000000815260040161068a90612b22565b60405180910390fd5b3373ffffffffffffffffffffffffffffffffffffffff1660008084815260200190815260200160002060000160009054906101000a900473ffffffffffffffffffffffffffffffffffffffff1673ffffffffffffffffffffffffffffffffffffffff161415801561076557503373ffffffffffffffffffffffffffffffffffffffff1660008084815260200190815260200160002060010160009054906101000a900473ffffffffffffffffffffffffffffffffffffffff1673ffffffffffffffffffffffffffffffffffffffff1614155b156107a5576040517f9a9be8fa00000000000000000000000000000000000000000000000000000000815260040161079c90612b8e565b60405180910390fd5b3373ffffffffffffffffffffffffffffffffffffffff1660008084815260200190815260200160002060000160009054906101000a900473ffffffffffffffffffffffffffffffffffffffff1673ffffffffffffffffffffffffffffffffffffffff1614801561082d57506000801b6000808481526020019081526020016000206006015414155b806108bc57503373ffffffffffffffffffffffffffffffffffffffff1660008084815260200190815260200160002060010160009054906101000a900473ffffffffffffffffffffffffffffffffffffffff1673ffffffffffffffffffffffffffffffffffffffff161480156108bb57506000801b6000808481526020019081526020016000206007015414155b5b156108fc576040517f9a9be8fa0000000000000000000000000000000000000000000000000000000081526004016108f390612bfa565b60405180910390fd5b3373ffffffffffffffffffffffffffffffffffffffff1660008084815260200190815260200160002060000160009054906101000a900473ffffffffffffffffffffffffffffffffffffffff1673ffffffffffffffffffffffffffffffffffffffff1603610983578060008084815260200190815260200160002060060181905550610a46565b3373ffffffffffffffffffffffffffffffffffffffff1660008084815260200190815260200160002060010160009054906101000a900473ffffffffffffffffffffffffffffffffffffffff1673ffffffffffffffffffffffffffffffffffffffff1603610a0a578060008084815260200190815260200160002060070181905550610a45565b6040517f9a9be8fa000000000000000000000000000000000000000000000000000000008152600401610a3c90612b8e565b60405180910390fd5b5b5050565b60008111610a8d576040517f9a9be8fa000000000000000000000000000000000000000000000000000000008152600401610a8490612b22565b60405180910390fd5b3373ffffffffffffffffffffffffffffffffffffffff1660008083815260200190815260200160002060000160009054906101000a900473ffffffffffffffffffffffffffffffffffffffff1673ffffffffffffffffffffffffffffffffffffffff1614158015610b5f57503373ffffffffffffffffffffffffffffffffffffffff1660008083815260200190815260200160002060010160009054906101000a900473ffffffffffffffffffffffffffffffffffffffff1673ffffffffffffffffffffffffffffffffffffffff1614155b15610b9f576040517f9a9be8fa000000000000000000000000000000000000000000000000000000008152600401610b9690612b8e565b60405180910390fd5b600073ffffffffffffffffffffffffffffffffffffffff16600080838152602001908152602001600020600b0160009054906101000a900473ffffffffffffffffffffffffffffffffffffffff1673ffffffffffffffffffffffffffffffffffffffff1603610f0c5733600080838152602001908152602001600020600b0160006101000a81548173ffffffffffffffffffffffffffffffffffffffff021916908373ffffffffffffffffffffffffffffffffffffffff160217905550600543610c699190612c49565b600080838152602001908152602001600020600a018190555060008082815260200190815260200160002060000160009054906101000a900473ffffffffffffffffffffffffffffffffffffffff1673ffffffffffffffffffffffffffffffffffffffff16600080838152602001908152602001600020600b0160009054906101000a900473ffffffffffffffffffffffffffffffffffffffff1673ffffffffffffffffffffffffffffffffffffffff1603610dc857807fa11145e24e3c0a8f6586af5688ff25ef2fdd2a8143412c2cbb0044c0db72803c60008084815260200190815260200160002060010160009054906101000a900473ffffffffffffffffffffffffffffffffffffffff1660008085815260200190815260200160002060000160009054906101000a900473ffffffffffffffffffffffffffffffffffffffff16604051610dbb929190612c7d565b60405180910390a2610f0b565b60008082815260200190815260200160002060010160009054906101000a900473ffffffffffffffffffffffffffffffffffffffff1673ffffffffffffffffffffffffffffffffffffffff16600080838152602001908152602001600020600b0160009054906101000a900473ffffffffffffffffffffffffffffffffffffffff1673ffffffffffffffffffffffffffffffffffffffff1603610f0a57807fa11145e24e3c0a8f6586af5688ff25ef2fdd2a8143412c2cbb0044c0db72803c60008084815260200190815260200160002060000160009054906101000a900473ffffffffffffffffffffffffffffffffffffffff1660008085815260200190815260200160002060010160009054906101000a900473ffffffffffffffffffffffffffffffffffffffff16604051610f01929190612c7d565b60405180910390a25b5b5b50565b60008611610f52576040517f9a9be8fa000000000000000000000000000000000000000000000000000000008152600401610f4990612b22565b60405180910390fd5b3373ffffffffffffffffffffffffffffffffffffffff1660008088815260200190815260200160002060000160009054906101000a900473ffffffffffffffffffffffffffffffffffffffff1673ffffffffffffffffffffffffffffffffffffffff161415801561102457503373ffffffffffffffffffffffffffffffffffffffff1660008088815260200190815260200160002060010160009054906101000a900473ffffffffffffffffffffffffffffffffffffffff1673ffffffffffffffffffffffffffffffffffffffff1614155b15611064576040517f9a9be8fa00000000000000000000000000000000000000000000000000000000815260040161105b90612b8e565b60405180910390fd5b60008060008089815260200190815260200160002060000160009054906101000a900473ffffffffffffffffffffffffffffffffffffffff1673ffffffffffffffffffffffffffffffffffffffff163373ffffffffffffffffffffffffffffffffffffffff16036111245760008089815260200190815260200160002060010160009054906101000a900473ffffffffffffffffffffffffffffffffffffffff169150600080898152602001908152602001600020600601549050611175565b60008089815260200190815260200160002060000160009054906101000a900473ffffffffffffffffffffffffffffffffffffffff1691506000808981526020019081526020016000206007015490505b60008490506000876000808c8152602001908152602001600020600201548a61119e9190612ca6565b6111a89190612c49565b905060005b855181101561127c5760006002836111c59190612d17565b0361121457828682815181106111de576111dd612d48565b5b60200260200101516040516020016111f7929190612d98565b60405160208183030381529060405280519060200120925061125a565b85818151811061122757611226612d48565b5b602002602001015183604051602001611241929190612d98565b6040516020818303038152906040528051906020012092505b6002826112679190612dc4565b9150808061127490612df5565b9150506111ad565b5060008284036113f1576000808c815260200190815260200160002060000160009054906101000a900473ffffffffffffffffffffffffffffffffffffffff1673ffffffffffffffffffffffffffffffffffffffff163373ffffffffffffffffffffffffffffffffffffffff160361134f57600188036113325760016000808d8152602001908152602001600020600901546113189190612e3d565b6000808d8152602001908152602001600020600901819055505b6000808c81526020019081526020016000206009015490506113ac565b600188036113935760016000808d8152602001908152602001600020600801546113799190612e3d565b6000808d8152602001908152602001600020600801819055505b6000808c81526020019081526020016000206008015490505b8a7fd260c229f9fb006b4e55f793734947818cb338325a3eeeb7c3251a5f1c1ae255868c8c8c866040516113e4959493929190612e71565b60405180910390a2611494565b8a7f470cc86631700e08c11a6d20ecd69bb482a129f5071a1057455be0c10be268668633600060405161142693929190612eff565b60405180910390a28473ffffffffffffffffffffffffffffffffffffffff166108fc6000808e8152602001908152602001600020600501549081150290604051600060405180830381858888f19350505050158015611489573d6000803e3d6000fd5b50505050505061153c565b60008111611536578473ffffffffffffffffffffffffffffffffffffffff166108fc6000808e8152602001908152602001600020600501549081150290604051600060405180830381858888f193505050501580156114f7573d6000803e3d6000fd5b508a7f470cc86631700e08c11a6d20ecd69bb482a129f5071a1057455be0c10be268668633600160405161152d93929190612f71565b60405180910390a25b50505050505b505050505050565b60008211611587576040517f9a9be8fa00000000000000000000000000000000000000000000000000000000815260040161157e90612b22565b60405180910390fd5b3373ffffffffffffffffffffffffffffffffffffffff1660008084815260200190815260200160002060000160009054906101000a900473ffffffffffffffffffffffffffffffffffffffff1673ffffffffffffffffffffffffffffffffffffffff161415801561165957503373ffffffffffffffffffffffffffffffffffffffff1660008084815260200190815260200160002060010160009054906101000a900473ffffffffffffffffffffffffffffffffffffffff1673ffffffffffffffffffffffffffffffffffffffff1614155b15611699576040517f9a9be8fa00000000000000000000000000000000000000000000000000000000815260040161169090612b8e565b60405180910390fd5b8061177357600080600084815260200190815260200160002060010160006101000a81548173ffffffffffffffffffffffffffffffffffffffff021916908373ffffffffffffffffffffffffffffffffffffffff1602179055506001829080600181540180825580915050600190039060005260206000200160009091909190915055817f4cb66ab516bedeef3035e50502f6b3b1da5140fec06e41646bf41422c60c276b3360008086815260200190815260200160002060040154600060405161176693929190612fa8565b60405180910390a2611849565b6000808381526020019081526020016000206004015434146117ca576040517f08c379a00000000000000000000000000000000000000000000000000000000081526004016117c19061302b565b60405180910390fd5b3460008084815260200190815260200160002060050160008282546117ef9190612c49565b92505081905550817f4cb66ab516bedeef3035e50502f6b3b1da5140fec06e41646bf41422c60c276b336000808681526020019081526020016000206004015460016040516118409392919061304b565b60405180910390a25b5050565b60008311611890576040517f9a9be8fa00000000000000000000000000000000000000000000000000000000815260040161188790612b22565b60405180910390fd5b3373ffffffffffffffffffffffffffffffffffffffff1660008085815260200190815260200160002060000160009054906101000a900473ffffffffffffffffffffffffffffffffffffffff1673ffffffffffffffffffffffffffffffffffffffff161415801561196257503373ffffffffffffffffffffffffffffffffffffffff1660008085815260200190815260200160002060010160009054906101000a900473ffffffffffffffffffffffffffffffffffffffff1673ffffffffffffffffffffffffffffffffffffffff1614155b156119a2576040517f9a9be8fa00000000000000000000000000000000000000000000000000000000815260040161199990612b8e565b60405180910390fd5b600073ffffffffffffffffffffffffffffffffffffffff16600080858152602001908152602001600020600b0160009054906101000a900473ffffffffffffffffffffffffffffffffffffffff1673ffffffffffffffffffffffffffffffffffffffff1614611ae957827f752f14bd3601a325e97334f39b83b533f54b17c23d3f601c9ed2cee72cd404a3600080868152602001908152602001600020600b0160009054906101000a900473ffffffffffffffffffffffffffffffffffffffff16604051611a709190613082565b60405180910390a26000806000858152602001908152602001600020600b0160006101000a81548173ffffffffffffffffffffffffffffffffffffffff021916908373ffffffffffffffffffffffffffffffffffffffff1602179055506000806000858152602001908152602001600020600a01819055505b600080600085815260200190815260200160002060000160009054906101000a900473ffffffffffffffffffffffffffffffffffffffff1673ffffffffffffffffffffffffffffffffffffffff163373ffffffffffffffffffffffffffffffffffffffff1603611b905760008085815260200190815260200160002060010160009054906101000a900473ffffffffffffffffffffffffffffffffffffffff169050611bc9565b60008085815260200190815260200160002060000160009054906101000a900473ffffffffffffffffffffffffffffffffffffffff1690505b837ff201e39edbdda93a296a1844044ae16c044ad6009935126aea6c82d923efaac0828585604051611bfd9392919061309d565b60405180910390a250505050565b60018181548110611c1b57600080fd5b906000526020600020016000915090505481565b600083111580611c40575060008211155b15611c80576040517f9a9be8fa000000000000000000000000000000000000000000000000000000008152600401611c7790613146565b60405180910390fd5b803414611cc2576040517f08c379a0000000000000000000000000000000000000000000000000000000008152600401611cb99061302b565b60405180910390fd5b6000611ccc61237f565b90506040518061018001604052803373ffffffffffffffffffffffffffffffffffffffff168152602001600073ffffffffffffffffffffffffffffffffffffffff168152602001858152602001848152602001838152602001600081526020016000801b81526020016000801b815260200184815260200184815260200160008152602001600073ffffffffffffffffffffffffffffffffffffffff1681525060008083815260200190815260200160002060008201518160000160006101000a81548173ffffffffffffffffffffffffffffffffffffffff021916908373ffffffffffffffffffffffffffffffffffffffff16021790555060208201518160010160006101000a81548173ffffffffffffffffffffffffffffffffffffffff021916908373ffffffffffffffffffffffffffffffffffffffff16021790555060408201518160020155606082015181600301556080820151816004015560a0820151816005015560c0820151816006015560e082015181600701556101008201518160080155610120820151816009015561014082015181600a015561016082015181600b0160006101000a81548173ffffffffffffffffffffffffffffffffffffffff021916908373ffffffffffffffffffffffffffffffffffffffff1602179055509050506001819080600181540180825580915050600190039060005260206000200160009091909190915055346000808381526020019081526020016000206005016000828254611f029190612c49565b92505081905550807fbd19c47e9925eb6f7be8bb1c13a841e0240aaeaf17f217e90022e9c8eb66877f60405160405180910390a250505050565b60006020528060005260406000206000915090508060000160009054906101000a900473ffffffffffffffffffffffffffffffffffffffff16908060010160009054906101000a900473ffffffffffffffffffffffffffffffffffffffff169080600201549080600301549080600401549080600501549080600601549080600701549080600801549080600901549080600a01549080600b0160009054906101000a900473ffffffffffffffffffffffffffffffffffffffff1690508c565b60025481565b60018080549050101561204a576040517f9a9be8fa000000000000000000000000000000000000000000000000000000008152600401612041906131b2565b60405180910390fd5b60008082036120625761205b61239d565b90506120b4565b8190506000612070826123f0565b9050806120b2576040517f9a9be8fa0000000000000000000000000000000000000000000000000000000081526004016120a99061321e565b60405180910390fd5b505b600081116120f7576040517f9a9be8fa0000000000000000000000000000000000000000000000000000000081526004016120ee9061328a565b60405180910390fd5b600073ffffffffffffffffffffffffffffffffffffffff1660008083815260200190815260200160002060010160009054906101000a900473ffffffffffffffffffffffffffffffffffffffff1673ffffffffffffffffffffffffffffffffffffffff161461219b576040517f9a9be8fa000000000000000000000000000000000000000000000000000000008152600401612192906132f6565b60405180910390fd5b3373ffffffffffffffffffffffffffffffffffffffff1660008083815260200190815260200160002060000160009054906101000a900473ffffffffffffffffffffffffffffffffffffffff1673ffffffffffffffffffffffffffffffffffffffff160361223e576040517f9a9be8fa00000000000000000000000000000000000000000000000000000000815260040161223590613388565b60405180910390fd5b3360008083815260200190815260200160002060010160006101000a81548173ffffffffffffffffffffffffffffffffffffffff021916908373ffffffffffffffffffffffffffffffffffffffff160217905550807f66bacdfb07a49afa060b23ca1e16974d1919771fff2fd57717ab8857b0673b3460008084815260200190815260200160002060000160009054906101000a900473ffffffffffffffffffffffffffffffffffffffff1660008085815260200190815260200160002060010160009054906101000a900473ffffffffffffffffffffffffffffffffffffffff166000808681526020019081526020016000206002015460008087815260200190815260200160002060030154600080888152602001908152602001600020600401546040516123739594939291906133a8565b60405180910390a25050565b60006002600081548092919061239490612df5565b91905055905090565b600080600180549050036123b457600090506123ed565b60016123c460018054905061251b565b815481106123d5576123d4612d48565b5b906000526020600020015490506123eb816123f0565b505b90565b6000806000805b60018054905081101561244857846001828154811061241957612418612d48565b5b9060005260206000200154036124355780925060019150612448565b808061244090612df5565b9150506123f7565b5080158061245b57506001805490508210155b1561246a578092505050612516565b60008290505b600180805490506124819190612e3d565b8110156124e757600180826124969190612c49565b815481106124a7576124a6612d48565b5b9060005260206000200154600182815481106124c6576124c5612d48565b5b906000526020600020018190555080806124df90612df5565b915050612470565b5060018054806124fa576124f96133fb565b5b6001900381819060005260206000200160009055905580925050505b919050565b6000814233604051602001612531929190613493565b6040516020818303038152906040528051906020012060001c6125549190612d17565b9050919050565b6000604051905090565b600080fd5b600080fd5b6000819050919050565b6125828161256f565b811461258d57600080fd5b50565b60008135905061259f81612579565b92915050565b6000602082840312156125bb576125ba612565565b5b60006125c984828501612590565b91505092915050565b6000819050919050565b6125e5816125d2565b81146125f057600080fd5b50565b600081359050612602816125dc565b92915050565b6000806040838503121561261f5761261e612565565b5b600061262d85828601612590565b925050602061263e858286016125f3565b9150509250929050565b600080fd5b6000601f19601f8301169050919050565b7f4e487b7100000000000000000000000000000000000000000000000000000000600052604160045260246000fd5b6126968261264d565b810181811067ffffffffffffffff821117156126b5576126b461265e565b5b80604052505050565b60006126c861255b565b90506126d4828261268d565b919050565b600067ffffffffffffffff8211156126f4576126f361265e565b5b602082029050602081019050919050565b600080fd5b600061271d612718846126d9565b6126be565b905080838252602082019050602084028301858111156127405761273f612705565b5b835b81811015612769578061275588826125f3565b845260208401935050602081019050612742565b5050509392505050565b600082601f83011261278857612787612648565b5b813561279884826020860161270a565b91505092915050565b60008060008060008060c087890312156127be576127bd612565565b5b60006127cc89828a01612590565b96505060206127dd89828a01612590565b95505060406127ee89828a01612590565b94505060606127ff89828a01612590565b935050608061281089828a016125f3565b92505060a087013567ffffffffffffffff8111156128315761283061256a565b5b61283d89828a01612773565b9150509295509295509295565b60008115159050919050565b61285f8161284a565b811461286a57600080fd5b50565b60008135905061287c81612856565b92915050565b6000806040838503121561289957612898612565565b5b60006128a785828601612590565b92505060206128b88582860161286d565b9150509250929050565b6000806000606084860312156128db576128da612565565b5b60006128e986828701612590565b93505060206128fa86828701612590565b925050604061290b86828701612590565b9150509250925092565b61291e8161256f565b82525050565b60006020820190506129396000830184612915565b92915050565b600073ffffffffffffffffffffffffffffffffffffffff82169050919050565b600061296a8261293f565b9050919050565b61297a8161295f565b82525050565b612989816125d2565b82525050565b6000610180820190506129a5600083018f612971565b6129b2602083018e612971565b6129bf604083018d612915565b6129cc606083018c612915565b6129d9608083018b612915565b6129e660a083018a612915565b6129f360c0830189612980565b612a0060e0830188612980565b612a0e610100830187612915565b612a1c610120830186612915565b612a2a610140830185612915565b612a38610160830184612971565b9d9c50505050505050505050505050565b6000819050919050565b6000819050919050565b6000612a78612a73612a6e84612a49565b612a53565b61256f565b9050919050565b612a8881612a5d565b82525050565b6000606082019050612aa36000830186612971565b612ab06020830185612971565b612abd6040830184612a7f565b949350505050565b600082825260208201905092915050565b7f47616d65206964206973206e6567617469766521000000000000000000000000600082015250565b6000612b0c601483612ac5565b9150612b1782612ad6565b602082019050919050565b60006020820190508181036000830152612b3b81612aff565b9050919050565b7f506c61796572206e6f7420696e20746861742067616d65210000000000000000600082015250565b6000612b78601883612ac5565b9150612b8382612b42565b602082019050919050565b60006020820190508181036000830152612ba781612b6b565b9050919050565b7f426f61726420616c7265616479207375626d6974746564210000000000000000600082015250565b6000612be4601883612ac5565b9150612bef82612bae565b602082019050919050565b60006020820190508181036000830152612c1381612bd7565b9050919050565b7f4e487b7100000000000000000000000000000000000000000000000000000000600052601160045260246000fd5b6000612c548261256f565b9150612c5f8361256f565b9250828201905080821115612c7757612c76612c1a565b5b92915050565b6000604082019050612c926000830185612971565b612c9f6020830184612971565b9392505050565b6000612cb18261256f565b9150612cbc8361256f565b9250828202612cca8161256f565b91508282048414831517612ce157612ce0612c1a565b5b5092915050565b7f4e487b7100000000000000000000000000000000000000000000000000000000600052601260045260246000fd5b6000612d228261256f565b9150612d2d8361256f565b925082612d3d57612d3c612ce8565b5b828206905092915050565b7f4e487b7100000000000000000000000000000000000000000000000000000000600052603260045260246000fd5b6000819050919050565b612d92612d8d826125d2565b612d77565b82525050565b6000612da48285612d81565b602082019150612db48284612d81565b6020820191508190509392505050565b6000612dcf8261256f565b9150612dda8361256f565b925082612dea57612de9612ce8565b5b828204905092915050565b6000612e008261256f565b91507fffffffffffffffffffffffffffffffffffffffffffffffffffffffffffffffff8203612e3257612e31612c1a565b5b600182019050919050565b6000612e488261256f565b9150612e538361256f565b9250828203905081811115612e6b57612e6a612c1a565b5b92915050565b600060a082019050612e866000830188612971565b612e936020830187612915565b612ea06040830186612915565b612ead6060830185612915565b612eba6080830184612915565b9695505050505050565b6000819050919050565b6000612ee9612ee4612edf84612ec4565b612a53565b61256f565b9050919050565b612ef981612ece565b82525050565b6000606082019050612f146000830186612971565b612f216020830185612971565b612f2e6040830184612ef0565b949350505050565b6000819050919050565b6000612f5b612f56612f5184612f36565b612a53565b61256f565b9050919050565b612f6b81612f40565b82525050565b6000606082019050612f866000830186612971565b612f936020830185612971565b612fa06040830184612f62565b949350505050565b6000606082019050612fbd6000830186612971565b612fca6020830185612915565b612fd76040830184612ef0565b949350505050565b7f45544820616d6f756e74206172652077726f6e67210000000000000000000000600082015250565b6000613015601583612ac5565b915061302082612fdf565b602082019050919050565b6000602082019050818103600083015261304481613008565b9050919050565b60006060820190506130606000830186612971565b61306d6020830185612915565b61307a6040830184612f62565b949350505050565b60006020820190506130976000830184612971565b92915050565b60006060820190506130b26000830186612971565b6130bf6020830185612915565b6130cc6040830184612915565b949350505050565b7f496e76616c696420626f6172642073697a65206f722073686970206e756d626560008201527f7221000000000000000000000000000000000000000000000000000000000000602082015250565b6000613130602283612ac5565b915061313b826130d4565b604082019050919050565b6000602082019050818103600083015261315f81613123565b9050919050565b7f4e6f206f70656e2067616d657321000000000000000000000000000000000000600082015250565b600061319c600e83612ac5565b91506131a782613166565b602082019050919050565b600060208201905081810360008301526131cb8161318f565b9050919050565b7f546869732067616d6520646f6573206e6f742065786973742100000000000000600082015250565b6000613208601983612ac5565b9150613213826131d2565b602082019050919050565b60006020820190508181036000830152613237816131fb565b9050919050565b7f43686f73656e206964206e656761746976652100000000000000000000000000600082015250565b6000613274601383612ac5565b915061327f8261323e565b602082019050919050565b600060208201905081810360008301526132a381613267565b9050919050565b7f47616d6520616c72656164792074616b656e2100000000000000000000000000600082015250565b60006132e0601383612ac5565b91506132eb826132aa565b602082019050919050565b6000602082019050818103600083015261330f816132d3565b9050919050565b7f596f752063616e2774206a6f696e20612067616d65206372656174656420627960008201527f20796f757273656c662100000000000000000000000000000000000000000000602082015250565b6000613372602a83612ac5565b915061337d82613316565b604082019050919050565b600060208201905081810360008301526133a181613365565b9050919050565b600060a0820190506133bd6000830188612971565b6133ca6020830187612971565b6133d76040830186612915565b6133e46060830185612915565b6133f16080830184612915565b9695505050505050565b7f4e487b7100000000000000000000000000000000000000000000000000000000600052603160045260246000fd5b6000819050919050565b6134456134408261256f565b61342a565b82525050565b60008160601b9050919050565b60006134638261344b565b9050919050565b600061347582613458565b9050919050565b61348d6134888261295f565b61346a565b82525050565b600061349f8285613434565b6020820191506134af828461347c565b601482019150819050939250505056fea2646970667358221220d3430d1e4c32880fa8e93324ce6797ce7cde90dc70ede0a130996d3ff69bda4364736f6c63430008130033",
  "immutableReferences": {},
  "source": "// SPDX-License-Identifier: MIT\npragma solidity >=0.4.22 <0.9.0;\n\ncontract BattleShipGame {\n    struct gameInfo {\n        // struct with all the information about a game\n        address creator;\n        address joiner;\n        uint256 boardSize;\n        uint256 shipNum;\n        uint256 ethAmount;\n        uint256 ethBetted;\n        bytes32 creatorMerkleRoot;\n        bytes32 joinerMerkleRoot;\n        uint256 creatorNumShips;\n        uint256 joinerNumShips;\n        uint256 accusationTime;\n        address accuser;\n    }\n\n    mapping(uint256 => gameInfo) public gameList; // map of game's ID (gameId => information of that game)\n    uint256[] public availableGames; // array with all the gameId of the avaible game\n\n    uint256 public gameId = 1; // value of the next gameId\n\n    // error event:\n    error OutputError(string myError);\n\n    // event:\n    event GameCreated(uint256 indexed _gameId);\n\n    event GameJoined(\n        uint256 indexed _gameId,\n        address _creator,\n        address _joiner,\n        uint256 _boardSize,\n        uint256 _shipNum,\n        uint256 _ethAmount\n    );\n\n    event AmountEthResponse(\n        address _sender,\n        uint256 _amount,\n        uint256 indexed _gameId,\n        uint256 _response\n    );\n\n    event ShotShip(\n        uint256 indexed _gameId,\n        address _address,\n        uint256 _row,\n        uint256 _col\n    );\n\n    event ShotResult(\n        uint256 indexed _gameId,\n        address _address,\n        uint256 _row,\n        uint256 _col,\n        uint256 _result,\n        uint256 _shipsRemaining\n    );\n\n    event AccusationTrigger(\n        uint256 indexed _gameId,\n        address _accused,\n        address _accuser\n    );\n\n    event GameEnded(\n        uint256 indexed _gameId,\n        address _winner,\n        address _loser,\n        uint256 _reason\n    );\n\n    event ResolveAccuse(\n        uint256 indexed _gameId,\n        address _accuser\n    );\n\n    constructor() {}\n\n    // function to return the gameId\n    function getId() private returns (uint256 toReturn) {\n        toReturn = gameId++;\n        return toReturn;\n    }\n\n    // function to remove an element of the array availableGames\n    function removeFromArray(uint256 _gameId) private returns (bool) {\n        uint256 index;\n        bool find = false;\n\n        // loop through the avaible game until find the index of the chosen one\n        for (uint i = 0; i < availableGames.length; i++) {\n            if (availableGames[i] == _gameId) {\n                index = i;\n                find = true;\n                break;\n            }\n        }\n\n        if (!find || index >= availableGames.length) {\n            return find;\n        }\n\n        for (uint i = index; i < availableGames.length - 1; i++) {\n            // move manually all the element\n            availableGames[i] = availableGames[i + 1];\n        }\n        \n        availableGames.pop(); // remove the last element\n        \n        return find;\n    }\n\n    function getRandomNumber(uint256 bound) private view returns (uint256) {\n        return\n            uint256(keccak256(abi.encodePacked(block.timestamp, msg.sender))) %\n            bound;\n    }\n\n    // function to get the gameId of an avaible game\n    function randomGame() private returns (uint256 randGameId) {\n        if (availableGames.length == 0) {\n            return 0;\n        }\n\n        randGameId = availableGames[getRandomNumber(availableGames.length)];\n        removeFromArray(randGameId);\n        return randGameId;\n    }\n\n    // GAS EVALUATION:\n    //  with boardSize=4, shipNum=3, ethAmount=2:\n    //    - Gas used: 222881\n    //    - Total Price: 0.00033432 ETH\n    //\n    function createGame(\n        // function to create a new game\n        uint256 _boardSize,\n        uint256 _shipNum,\n        uint256 _ethAmount\n    ) public payable {\n        // create a new game\n\n        // Check if the board size and ship number are valid\n        if (_boardSize <= 0 || _shipNum <= 0) {\n            revert OutputError(\"Invalid board size or ship number!\");\n        }\n\n        require(msg.value == _ethAmount, \"ETH amount are wrong!\");\n\n        uint256 newGameId = getId();\n\n        gameList[newGameId] = gameInfo(\n            msg.sender,\n            address(0),\n            _boardSize,\n            _shipNum,\n            _ethAmount,\n            0,\n            0,\n            0,\n            _shipNum,\n            _shipNum,\n            0,\n            address(0)\n        );\n        availableGames.push(newGameId);\n\n        gameList[newGameId].ethBetted += msg.value;\n\n        emit GameCreated(newGameId);\n    }\n\n    // GAS EVALUATION:\n    //  - specificGame:\n    //    - Gas used: 68143\n    //    - Total Price: 0.00010221 ETH\n    //\n    //  - randomGame:\n    //    - Gas used: 61738\n    //    - Total Price: 0.00009261 ETH \n    function joinGame(uint256 _gameId) public {\n        // function to join a game\n        // check if there are avaible game\n        if (availableGames.length < 1) {\n            revert OutputError(\"No open games!\");\n        }\n\n        uint256 chosenGameId;\n\n        if (_gameId == 0) {\n            //random game choice\n            chosenGameId = randomGame();\n        } else {\n            //specific game\n            chosenGameId = _gameId;\n            bool find = removeFromArray(chosenGameId);\n\n            if (!find) {\n                revert OutputError(\"This game does not exist!\");\n            }\n        }\n\n        if (chosenGameId <= 0) {\n            revert OutputError(\"Chosen id negative!\");\n        }\n\n        if (gameList[chosenGameId].joiner != address(0)) {\n            revert OutputError(\"Game already taken!\");\n        }\n\n        if (gameList[chosenGameId].creator == msg.sender) {\n            revert OutputError(\"You can't join a game created by yourself!\");\n        }\n\n        gameList[chosenGameId].joiner = msg.sender;\n\n        emit GameJoined(\n            chosenGameId,\n            gameList[chosenGameId].creator,\n            gameList[chosenGameId].joiner,\n            gameList[chosenGameId].boardSize,\n            gameList[chosenGameId].shipNum,\n            gameList[chosenGameId].ethAmount\n        );\n    }\n\n    // GAS EVALUATION:\n    //  - positive response:\n    //    - Gas used: 36545\n    //    - Total Price: 0.00005482 ETH\n    //\n    function amountEthDecision(uint256 _gameId, bool _response) public payable {\n        // function to accept or refuse the eth amount\n\n        // Check if the game ID is valid\n        if (_gameId <= 0) {\n            revert OutputError(\"Game id is negative!\");\n        }\n\n        // Check if the sender is either the creator or the joiner of the game\n        if (\n            gameList[_gameId].creator != msg.sender &&\n            gameList[_gameId].joiner != msg.sender\n        ) {\n            revert OutputError(\"Player not in that game!\");\n        }\n\n        if (!_response) {\n            // refuse response\n            gameList[_gameId].joiner = address(0);\n            availableGames.push(_gameId);\n\n            emit AmountEthResponse(\n            msg.sender,\n            gameList[_gameId].ethAmount,\n            _gameId,\n            0\n        );\n        } else {\n            require(\n                msg.value == gameList[_gameId].ethAmount,\n                \"ETH amount are wrong!\"\n            );\n\n            gameList[_gameId].ethBetted += msg.value;\n\n            emit AmountEthResponse(\n            msg.sender,\n            gameList[_gameId].ethAmount,\n            _gameId,\n            1\n        );\n        }\n    }\n\n    // GAS EVALUATION:\n    //    - Gas used: 49767 - 50255\n    //    - Total Price: 0.00007465 - 0.00007538 ETH\n    //\n    function submitBoard(uint256 _gameId, bytes32 _merkleRoot) public {\n        // function to submit the board\n\n        // Check if the game ID is valid\n        if (_gameId <= 0) {\n            revert OutputError(\"Game id is negative!\");\n        }\n\n        // Check if the sender is either the creator or the joiner of the game\n        if (\n            gameList[_gameId].creator != msg.sender &&\n            gameList[_gameId].joiner != msg.sender\n        ) {\n            revert OutputError(\"Player not in that game!\");\n        }\n\n        // Check if the board is not already submitted\n        if (\n            (gameList[_gameId].creator == msg.sender &&\n                gameList[_gameId].creatorMerkleRoot != 0) ||\n            (gameList[_gameId].joiner == msg.sender &&\n                gameList[_gameId].joinerMerkleRoot != 0)\n        ) {\n            revert OutputError(\"Board already submitted!\");\n        }\n\n        if (gameList[_gameId].creator == msg.sender) {\n            gameList[_gameId].creatorMerkleRoot = _merkleRoot;\n        } else if (gameList[_gameId].joiner == msg.sender) {\n            gameList[_gameId].joinerMerkleRoot = _merkleRoot;\n        } else {\n            revert OutputError(\"Player not in that game!\");\n        }\n    }\n\n    // GAS EVALUATION:\n    //    - Gas used: 31670\n    //    - Total Price: 0.0000475 ETH\n    //\n    function shot(uint256 _gameId, uint256 _row, uint256 _col) public {\n        // function to communicate the coordinates of the fired cell\n\n        // Check if the game ID is valid\n        if (_gameId <= 0) {\n            revert OutputError(\"Game id is negative!\");\n        }\n\n        // Check if the sender is either the creator or the joiner of the game\n        if (\n            gameList[_gameId].creator != msg.sender &&\n            gameList[_gameId].joiner != msg.sender\n        ) {\n            revert OutputError(\"Player not in that game!\");\n        }\n\n        if(gameList[_gameId].accuser != address(0)){\n            emit ResolveAccuse(_gameId, gameList[_gameId].accuser);\n            gameList[_gameId].accuser = address(0);\n            gameList[_gameId].accusationTime = 0;\n        }\n        \n        // take the opponent address for comunicate who was shot\n        address opponentAddress;\n        if (msg.sender == gameList[_gameId].creator) {\n            opponentAddress = gameList[_gameId].joiner;\n        } else {\n            opponentAddress = gameList[_gameId].creator;\n        }\n\n        emit ShotShip(_gameId, opponentAddress, _row, _col);\n    }\n\n    // GAS EVALUATION:\n    //    - Gas used: 47020\n    //    - Total Price: 0.00007053 ETH\n    //\n    function shotResult(\n        uint256 _gameId,\n        uint256 _row,\n        uint256 _col,\n        uint256 _result,\n        bytes32 _hash,\n        bytes32[] memory _merkleProof\n    ) public payable {\n        // function to comunicate the result of the shot\n\n        // Check if the game ID is valid\n        if (_gameId <= 0) {\n            revert OutputError(\"Game id is negative!\");\n        }\n\n        // Check if the sender is either the creator or the joiner of the game\n        if (\n            gameList[_gameId].creator != msg.sender &&\n            gameList[_gameId].joiner != msg.sender\n        ) {\n            revert OutputError(\"Player not in that game!\");\n        }\n\n        // take the opponent address for comunicate who fired the shot\n        address opponentAddress;\n        bytes32 merkleRoot;\n        if (msg.sender == gameList[_gameId].creator) {\n            opponentAddress = gameList[_gameId].joiner;\n            merkleRoot = gameList[_gameId].creatorMerkleRoot;\n        } else {\n            opponentAddress = gameList[_gameId].creator;\n            merkleRoot = gameList[_gameId].joinerMerkleRoot;\n        }\n\n        bytes32 hashValue = _hash;\n\n        uint256 index = _row * gameList[_gameId].boardSize + _col;\n        for (uint i = 0; i < _merkleProof.length; i++) {\n            if (index % 2 == 0) {\n                hashValue = keccak256(\n                    abi.encodePacked(hashValue, _merkleProof[i])\n                );\n            } else {\n                hashValue = keccak256(\n                    abi.encodePacked(_merkleProof[i], hashValue)\n                );\n            }\n\n            index = index / 2;\n        }\n\n        uint256 shipsRemaining;\n        if (merkleRoot == hashValue) {\n            // validated shot\n            if (msg.sender == gameList[_gameId].creator) {\n                if (_result == 1) {\n                    gameList[_gameId].joinerNumShips =\n                        gameList[_gameId].joinerNumShips -\n                        1;\n                }\n                shipsRemaining = gameList[_gameId].joinerNumShips;\n            } else {\n                if (_result == 1) {\n                    gameList[_gameId].creatorNumShips =\n                        gameList[_gameId].creatorNumShips -\n                        1;\n                }\n                shipsRemaining = gameList[_gameId].creatorNumShips;\n            }\n\n            emit ShotResult(\n                _gameId,\n                opponentAddress,\n                _row,\n                _col,\n                _result,\n                shipsRemaining\n            );\n        } else {\n            // invlidated shot\n            emit GameEnded(_gameId, opponentAddress, msg.sender, 0);\n            payable(opponentAddress).transfer(gameList[_gameId].ethBetted);\n            return;\n        }\n\n        if (shipsRemaining <= 0) {\n            payable(opponentAddress).transfer(gameList[_gameId].ethBetted);\n\n            emit GameEnded(_gameId, opponentAddress, msg.sender, 1);\n        }\n    }\n\n    // GAS EVALUATION:\n    //    - Gas used: 73799\n    //    - Total Price: 0.0001107 ETH\n    //\n    function accuseOpponent(uint256 _gameId) public payable {\n        // function to accuse the opponent of having left\n\n        // Check if the game ID is valid\n        if (_gameId <= 0) {\n            revert OutputError(\"Game id is negative!\");\n        }\n\n        // Check if the sender is either the creator or the joiner of the game\n        if (\n            gameList[_gameId].creator != msg.sender &&\n            gameList[_gameId].joiner != msg.sender\n        ) {\n            revert OutputError(\"Player not in that game!\");\n        }\n\n        if (gameList[_gameId].accuser == address(0)) {\n            gameList[_gameId].accuser = msg.sender;\n            gameList[_gameId].accusationTime = block.number + 5;\n\n            if (gameList[_gameId].accuser == gameList[_gameId].creator) {\n                emit AccusationTrigger(\n                    _gameId,\n                    gameList[_gameId].joiner,\n                    gameList[_gameId].creator\n                );\n            } else if (gameList[_gameId].accuser == gameList[_gameId].joiner) {\n                emit AccusationTrigger(\n                    _gameId,\n                    gameList[_gameId].creator,\n                    gameList[_gameId].joiner\n                );\n            }\n        }\n    }\n\n    // GAS EVALUATION:\n    //    - Gas used: 28303\n    //    - Total Price: 0.00004245 ETH\n    //\n    function verifyAccuse(uint256 _gameId) public payable {\n        if (gameList[_gameId].accuser == gameList[_gameId].creator) {\n            if (gameList[_gameId].accusationTime <= block.number) {\n                payable(gameList[_gameId].accuser).transfer(\n                    gameList[_gameId].ethBetted\n                );\n\n                emit GameEnded(\n                    _gameId,\n                    gameList[_gameId].accuser,\n                    gameList[_gameId].joiner,\n                    2\n                );\n            }\n        } else if (gameList[_gameId].accuser == gameList[_gameId].joiner) {\n            if (gameList[_gameId].accusationTime <= block.number) {\n                payable(gameList[_gameId].accuser).transfer(\n                    gameList[_gameId].ethBetted\n                );\n\n                emit GameEnded(\n                    _gameId,\n                    gameList[_gameId].accuser,\n                    gameList[_gameId].creator,\n                    2\n                );\n            }\n        } else {\n            return;\n        }\n    }\n}\n",
  "sourcePath": "/mnt/storage/Magistrale/P2PB/ProgettoP2P/P2P_Project/contracts/BattleShipGame.sol",
  "compiler": {
    "name": "solc",
    "version": "0.8.19+commit.7dd6d404.Emscripten.clang"
  },
  "schemaVersion": "3.4.13",
  "updatedAt": "2023-07-23T07:46:18.699Z",
  "networkType": "ethereum",
  "devdoc": {
    "kind": "dev",
    "methods": {},
    "version": 1
  },
  "userdoc": {
    "kind": "user",
    "methods": {},
    "version": 1
  }
}