{
  "contractName": "BattleShipGame",
  "abi": [
    {
      "inputs": [],
      "stateMutability": "nonpayable",
      "type": "constructor"
    },
    {
      "inputs": [
        {
          "internalType": "string",
          "name": "myError",
          "type": "string"
        }
      ],
      "name": "OutputError",
      "type": "error"
    },
    {
      "anonymous": false,
      "inputs": [
        {
          "indexed": true,
          "internalType": "uint256",
          "name": "_gameId",
          "type": "uint256"
        }
      ],
      "name": "AccusationTrigger",
      "type": "event"
    },
    {
      "anonymous": false,
      "inputs": [
        {
          "indexed": false,
          "internalType": "address",
          "name": "_sender",
          "type": "address"
        },
        {
          "indexed": false,
          "internalType": "uint256",
          "name": "_amount",
          "type": "uint256"
        },
        {
          "indexed": true,
          "internalType": "uint256",
          "name": "_gameId",
          "type": "uint256"
        },
        {
          "indexed": false,
          "internalType": "bool",
          "name": "response",
          "type": "bool"
        }
      ],
      "name": "AmountEthResponse",
      "type": "event"
    },
    {
      "anonymous": false,
      "inputs": [
        {
          "indexed": true,
          "internalType": "uint256",
          "name": "_gameId",
          "type": "uint256"
        }
      ],
      "name": "GameCreated",
      "type": "event"
    },
    {
      "anonymous": false,
      "inputs": [
        {
          "indexed": true,
          "internalType": "uint256",
          "name": "_gameId",
          "type": "uint256"
        },
        {
          "indexed": false,
          "internalType": "address",
          "name": "_winner",
          "type": "address"
        },
        {
          "indexed": false,
          "internalType": "address",
          "name": "_loser",
          "type": "address"
        },
        {
          "indexed": false,
          "internalType": "uint256",
          "name": "_reason",
          "type": "uint256"
        }
      ],
      "name": "GameEnded",
      "type": "event"
    },
    {
      "anonymous": false,
      "inputs": [
        {
          "indexed": true,
          "internalType": "uint256",
          "name": "_gameId",
          "type": "uint256"
        },
        {
          "indexed": false,
          "internalType": "address",
          "name": "_creator",
          "type": "address"
        },
        {
          "indexed": false,
          "internalType": "address",
          "name": "_joiner",
          "type": "address"
        },
        {
          "indexed": false,
          "internalType": "uint256",
          "name": "_boardSize",
          "type": "uint256"
        },
        {
          "indexed": false,
          "internalType": "uint256",
          "name": "_shipNum",
          "type": "uint256"
        },
        {
          "indexed": false,
          "internalType": "uint256",
          "name": "_ethAmount",
          "type": "uint256"
        }
      ],
      "name": "GameJoined",
      "type": "event"
    },
    {
      "anonymous": false,
      "inputs": [
        {
          "indexed": true,
          "internalType": "uint256",
          "name": "_gameId",
          "type": "uint256"
        },
        {
          "indexed": false,
          "internalType": "address",
          "name": "_address",
          "type": "address"
        },
        {
          "indexed": false,
          "internalType": "uint256",
          "name": "_row",
          "type": "uint256"
        },
        {
          "indexed": false,
          "internalType": "uint256",
          "name": "_col",
          "type": "uint256"
        },
        {
          "indexed": false,
          "internalType": "uint256",
          "name": "_result",
          "type": "uint256"
        },
        {
          "indexed": false,
          "internalType": "uint256",
          "name": "_shipsRemaining",
          "type": "uint256"
        }
      ],
      "name": "ShootResult",
      "type": "event"
    },
    {
      "anonymous": false,
      "inputs": [
        {
          "indexed": true,
          "internalType": "uint256",
          "name": "_gameId",
          "type": "uint256"
        },
        {
          "indexed": false,
          "internalType": "address",
          "name": "_address",
          "type": "address"
        },
        {
          "indexed": false,
          "internalType": "uint256",
          "name": "_row",
          "type": "uint256"
        },
        {
          "indexed": false,
          "internalType": "uint256",
          "name": "_col",
          "type": "uint256"
        }
      ],
      "name": "ShootShip",
      "type": "event"
    },
    {
      "anonymous": false,
      "inputs": [
        {
          "indexed": true,
          "internalType": "uint256",
          "name": "_gameId",
          "type": "uint256"
        },
        {
          "indexed": false,
          "internalType": "bytes32",
          "name": "_merkleRootCreator",
          "type": "bytes32"
        },
        {
          "indexed": false,
          "internalType": "bytes32",
          "name": "_merkleRootJoiner",
          "type": "bytes32"
        }
      ],
      "name": "StartGame",
      "type": "event"
    },
    {
      "inputs": [
        {
          "internalType": "uint256",
          "name": "",
          "type": "uint256"
        }
      ],
      "name": "avaibleGame",
      "outputs": [
        {
          "internalType": "uint256",
          "name": "",
          "type": "uint256"
        }
      ],
      "stateMutability": "view",
      "type": "function",
      "constant": true
    },
    {
      "inputs": [],
      "name": "gameId",
      "outputs": [
        {
          "internalType": "uint256",
          "name": "",
          "type": "uint256"
        }
      ],
      "stateMutability": "view",
      "type": "function",
      "constant": true
    },
    {
      "inputs": [
        {
          "internalType": "uint256",
          "name": "",
          "type": "uint256"
        }
      ],
      "name": "gameList",
      "outputs": [
        {
          "internalType": "address",
          "name": "creator",
          "type": "address"
        },
        {
          "internalType": "address",
          "name": "joiner",
          "type": "address"
        },
        {
          "internalType": "uint256",
          "name": "boardSize",
          "type": "uint256"
        },
        {
          "internalType": "uint256",
          "name": "shipNum",
          "type": "uint256"
        },
        {
          "internalType": "uint256",
          "name": "ethAmount",
          "type": "uint256"
        },
        {
          "internalType": "uint256",
          "name": "creatorEth",
          "type": "uint256"
        },
        {
          "internalType": "uint256",
          "name": "joinerEth",
          "type": "uint256"
        },
        {
          "internalType": "bytes32",
          "name": "creatorMerkleRoot",
          "type": "bytes32"
        },
        {
          "internalType": "bytes32",
          "name": "joinerMerkleRoot",
          "type": "bytes32"
        },
        {
          "internalType": "uint256",
          "name": "creatorNumShips",
          "type": "uint256"
        },
        {
          "internalType": "uint256",
          "name": "joinerNumShips",
          "type": "uint256"
        }
      ],
      "stateMutability": "view",
      "type": "function",
      "constant": true
    },
    {
      "inputs": [],
      "name": "getId",
      "outputs": [
        {
          "internalType": "uint256",
          "name": "toReturn",
          "type": "uint256"
        }
      ],
      "stateMutability": "nonpayable",
      "type": "function"
    },
    {
      "inputs": [
        {
          "internalType": "uint256",
          "name": "_gameId",
          "type": "uint256"
        }
      ],
      "name": "removeFromArray",
      "outputs": [
        {
          "internalType": "bool",
          "name": "",
          "type": "bool"
        }
      ],
      "stateMutability": "nonpayable",
      "type": "function"
    },
    {
      "inputs": [],
      "name": "randomGame",
      "outputs": [
        {
          "internalType": "uint256",
          "name": "randGameId",
          "type": "uint256"
        }
      ],
      "stateMutability": "nonpayable",
      "type": "function"
    },
    {
      "inputs": [
        {
          "internalType": "uint256",
          "name": "_boardSize",
          "type": "uint256"
        },
        {
          "internalType": "uint256",
          "name": "_shipNum",
          "type": "uint256"
        },
        {
          "internalType": "uint256",
          "name": "_ethAmount",
          "type": "uint256"
        }
      ],
      "name": "createGame",
      "outputs": [],
      "stateMutability": "nonpayable",
      "type": "function"
    },
    {
      "inputs": [
        {
          "internalType": "uint256",
          "name": "_gameId",
          "type": "uint256"
        }
      ],
      "name": "joinGame",
      "outputs": [],
      "stateMutability": "nonpayable",
      "type": "function"
    },
    {
      "inputs": [
        {
          "internalType": "uint256",
          "name": "_gameId",
          "type": "uint256"
        },
        {
          "internalType": "bool",
          "name": "_response",
          "type": "bool"
        }
      ],
      "name": "amountEthDecision",
      "outputs": [],
      "stateMutability": "nonpayable",
      "type": "function"
    },
    {
      "inputs": [
        {
          "internalType": "uint256",
          "name": "_gameId",
          "type": "uint256"
        }
      ],
      "name": "sendEth",
      "outputs": [],
      "stateMutability": "payable",
      "type": "function",
      "payable": true
    },
    {
      "inputs": [
        {
          "internalType": "uint256",
          "name": "_gameId",
          "type": "uint256"
        },
        {
          "internalType": "bytes32",
          "name": "_merkleRoot",
          "type": "bytes32"
        }
      ],
      "name": "submitBoard",
      "outputs": [],
      "stateMutability": "nonpayable",
      "type": "function"
    },
    {
      "inputs": [
        {
          "internalType": "uint256",
          "name": "_gameId",
          "type": "uint256"
        },
        {
          "internalType": "uint256",
          "name": "_row",
          "type": "uint256"
        },
        {
          "internalType": "uint256",
          "name": "_col",
          "type": "uint256"
        }
      ],
      "name": "shoot",
      "outputs": [],
      "stateMutability": "nonpayable",
      "type": "function"
    },
    {
      "inputs": [
        {
          "internalType": "uint256",
          "name": "_gameId",
          "type": "uint256"
        },
        {
          "internalType": "uint256",
          "name": "_row",
          "type": "uint256"
        },
        {
          "internalType": "uint256",
          "name": "_col",
          "type": "uint256"
        },
        {
          "internalType": "uint256",
          "name": "_result",
          "type": "uint256"
        },
        {
          "internalType": "bytes32",
          "name": "_hash",
          "type": "bytes32"
        },
        {
          "internalType": "bytes32[]",
          "name": "_merkleProof",
          "type": "bytes32[]"
        }
      ],
      "name": "shootResult",
      "outputs": [],
      "stateMutability": "payable",
      "type": "function",
      "payable": true
    },
    {
      "inputs": [
        {
          "internalType": "uint256",
          "name": "_gameId",
          "type": "uint256"
        }
      ],
      "name": "accuseOpponent",
      "outputs": [],
      "stateMutability": "payable",
      "type": "function",
      "payable": true
    }
  ],
  "bytecode": "0x6080604052600160025534801561001557600080fd5b50612cc3806100256000396000f3fe6080604052600436106100dd5760003560e01c8063c558b42c1161007f578063d7c81b5511610059578063d7c81b5514610289578063d9ad3ef5146102b4578063eb56ea90146102df578063efaa55a01461031c576100dd565b8063c558b42c146101fd578063c6cfd08e14610226578063cfc548481461026d576100dd565b8063685385f3116100bb578063685385f31461015257806395e1c6fb1461017b578063a4933c8114610197578063c2741521146101d4576100dd565b80630328f6fb146100e257806320ed10571461010b5780635d1ca63114610127575b600080fd5b3480156100ee57600080fd5b5061010960048036038101906101049190611f13565b610345565b005b61012560048036038101906101209190611f53565b6107a3565b005b34801561013357600080fd5b5061013c6108fb565b6040516101499190611f8f565b60405180910390f35b34801561015e57600080fd5b5061017960048036038101906101749190611fe2565b610919565b005b6101956004803603810190610190919061217b565b610b47565b005b3480156101a357600080fd5b506101be60048036038101906101b99190611f53565b611198565b6040516101cb9190611f8f565b60405180910390f35b3480156101e057600080fd5b506101fb60048036038101906101f69190612224565b6111bc565b005b34801561020957600080fd5b50610224600480360381019061021f9190612224565b6113f6565b005b34801561023257600080fd5b5061024d60048036038101906102489190611f53565b61166d565b6040516102649b9a999897969594939291906122c7565b60405180910390f35b61028760048036038101906102829190611f53565b611707565b005b34801561029557600080fd5b5061029e6119ec565b6040516102ab9190611f8f565b60405180910390f35b3480156102c057600080fd5b506102c96119f2565b6040516102d69190611f8f565b60405180910390f35b3480156102eb57600080fd5b5061030660048036038101906103019190611f53565b611a45565b6040516103139190612381565b60405180910390f35b34801561032857600080fd5b50610343600480360381019061033e9190611f53565b611b79565b005b60008211610388576040517f9a9be8fa00000000000000000000000000000000000000000000000000000000815260040161037f906123f9565b60405180910390fd5b3373ffffffffffffffffffffffffffffffffffffffff1660008084815260200190815260200160002060000160009054906101000a900473ffffffffffffffffffffffffffffffffffffffff1673ffffffffffffffffffffffffffffffffffffffff161415801561045a57503373ffffffffffffffffffffffffffffffffffffffff1660008084815260200190815260200160002060010160009054906101000a900473ffffffffffffffffffffffffffffffffffffffff1673ffffffffffffffffffffffffffffffffffffffff1614155b1561049a576040517f9a9be8fa00000000000000000000000000000000000000000000000000000000815260040161049190612465565b60405180910390fd5b3373ffffffffffffffffffffffffffffffffffffffff1660008084815260200190815260200160002060000160009054906101000a900473ffffffffffffffffffffffffffffffffffffffff1673ffffffffffffffffffffffffffffffffffffffff1614801561052257506000801b6000808481526020019081526020016000206007015414155b806105b157503373ffffffffffffffffffffffffffffffffffffffff1660008084815260200190815260200160002060010160009054906101000a900473ffffffffffffffffffffffffffffffffffffffff1673ffffffffffffffffffffffffffffffffffffffff161480156105b057506000801b6000808481526020019081526020016000206008015414155b5b156105f1576040517f9a9be8fa0000000000000000000000000000000000000000000000000000000081526004016105e8906124d1565b60405180910390fd5b3373ffffffffffffffffffffffffffffffffffffffff1660008084815260200190815260200160002060000160009054906101000a900473ffffffffffffffffffffffffffffffffffffffff1673ffffffffffffffffffffffffffffffffffffffff160361067857806000808481526020019081526020016000206007018190555061073b565b3373ffffffffffffffffffffffffffffffffffffffff1660008084815260200190815260200160002060010160009054906101000a900473ffffffffffffffffffffffffffffffffffffffff1673ffffffffffffffffffffffffffffffffffffffff16036106ff57806000808481526020019081526020016000206008018190555061073a565b6040517f9a9be8fa00000000000000000000000000000000000000000000000000000000815260040161073190612465565b60405180910390fd5b5b817f595b7b6a75388d9a9d82ff3f71da50be33f56f7915148fdb3fd632a0234a396160008085815260200190815260200160002060070154600080868152602001908152602001600020600801546040516107979291906124f1565b60405180910390a25050565b600081116107e6576040517f9a9be8fa0000000000000000000000000000000000000000000000000000000081526004016107dd906123f9565b60405180910390fd5b3373ffffffffffffffffffffffffffffffffffffffff1660008083815260200190815260200160002060000160009054906101000a900473ffffffffffffffffffffffffffffffffffffffff1673ffffffffffffffffffffffffffffffffffffffff16141580156108b857503373ffffffffffffffffffffffffffffffffffffffff1660008083815260200190815260200160002060010160009054906101000a900473ffffffffffffffffffffffffffffffffffffffff1673ffffffffffffffffffffffffffffffffffffffff1614155b156108f8576040517f9a9be8fa0000000000000000000000000000000000000000000000000000000081526004016108ef90612465565b60405180910390fd5b50565b60006002600081548092919061091090612549565b91905055905090565b6000821161095c576040517f9a9be8fa000000000000000000000000000000000000000000000000000000008152600401610953906123f9565b60405180910390fd5b3373ffffffffffffffffffffffffffffffffffffffff1660008084815260200190815260200160002060000160009054906101000a900473ffffffffffffffffffffffffffffffffffffffff1673ffffffffffffffffffffffffffffffffffffffff1614158015610a2e57503373ffffffffffffffffffffffffffffffffffffffff1660008084815260200190815260200160002060010160009054906101000a900473ffffffffffffffffffffffffffffffffffffffff1673ffffffffffffffffffffffffffffffffffffffff1614155b15610a6e576040517f9a9be8fa000000000000000000000000000000000000000000000000000000008152600401610a6590612465565b60405180910390fd5b80610af257600080600084815260200190815260200160002060010160006101000a81548173ffffffffffffffffffffffffffffffffffffffff021916908373ffffffffffffffffffffffffffffffffffffffff16021790555060018290806001815401808255809150506001900390600052602060002001600090919091909150555b817f55329a170c309fdb206036da4397784f0560d2264c68e25316be295379a9eae8336000808681526020019081526020016000206004015484604051610b3b93929190612591565b60405180910390a25050565b60008611610b8a576040517f9a9be8fa000000000000000000000000000000000000000000000000000000008152600401610b81906123f9565b60405180910390fd5b3373ffffffffffffffffffffffffffffffffffffffff1660008088815260200190815260200160002060000160009054906101000a900473ffffffffffffffffffffffffffffffffffffffff1673ffffffffffffffffffffffffffffffffffffffff1614158015610c5c57503373ffffffffffffffffffffffffffffffffffffffff1660008088815260200190815260200160002060010160009054906101000a900473ffffffffffffffffffffffffffffffffffffffff1673ffffffffffffffffffffffffffffffffffffffff1614155b15610c9c576040517f9a9be8fa000000000000000000000000000000000000000000000000000000008152600401610c9390612465565b60405180910390fd5b60008060008089815260200190815260200160002060000160009054906101000a900473ffffffffffffffffffffffffffffffffffffffff1673ffffffffffffffffffffffffffffffffffffffff163373ffffffffffffffffffffffffffffffffffffffff1603610d5c5760008089815260200190815260200160002060010160009054906101000a900473ffffffffffffffffffffffffffffffffffffffff169150600080898152602001908152602001600020600701549050610dad565b60008089815260200190815260200160002060000160009054906101000a900473ffffffffffffffffffffffffffffffffffffffff1691506000808981526020019081526020016000206008015490505b60008490506000876000808c8152602001908152602001600020600201548a610dd691906125c8565b610de0919061260a565b905060005b8551811015610eb4576000600283610dfd919061266d565b03610e4c5782868281518110610e1657610e1561269e565b5b6020026020010151604051602001610e2f9291906126ee565b604051602081830303815290604052805190602001209250610e92565b858181518110610e5f57610e5e61269e565b5b602002602001015183604051602001610e799291906126ee565b6040516020818303038152906040528051906020012092505b600282610e9f919061271a565b91508080610eac90612549565b915050610de5565b5060006064905082840361102d576000808c815260200190815260200160002060000160009054906101000a900473ffffffffffffffffffffffffffffffffffffffff1673ffffffffffffffffffffffffffffffffffffffff163373ffffffffffffffffffffffffffffffffffffffff1603610f8b5760018803610f6e5760016000808d8152602001908152602001600020600a0154610f54919061274b565b6000808d8152602001908152602001600020600a01819055505b6000808c8152602001908152602001600020600a01549050610fe8565b60018803610fcf5760016000808d815260200190815260200160002060090154610fb5919061274b565b6000808d8152602001908152602001600020600901819055505b6000808c81526020019081526020016000206009015490505b8a7f682729007816d548060438637183b635ada59e9f6892be5bc9bc6043b9a35919868c8c8c8660405161102095949392919061277f565b60405180910390a26110dc565b8a7f470cc86631700e08c11a6d20ecd69bb482a129f5071a1057455be0c10be268668633600060405161106293929190612817565b60405180910390a28473ffffffffffffffffffffffffffffffffffffffff166108fc60026000808f8152602001908152602001600020600401546110a691906125c8565b9081150290604051600060405180830381858888f193505050501580156110d1573d6000803e3d6000fd5b505050505050611190565b6000811161118a578473ffffffffffffffffffffffffffffffffffffffff166108fc60026000808f81526020019081526020016000206004015461112091906125c8565b9081150290604051600060405180830381858888f1935050505015801561114b573d6000803e3d6000fd5b508a7f470cc86631700e08c11a6d20ecd69bb482a129f5071a1057455be0c10be268668633600160405161118193929190612889565b60405180910390a25b50505050505b505050505050565b600181815481106111a857600080fd5b906000526020600020016000915090505481565b6000831115806111cd575060008211155b1561120d576040517f9a9be8fa00000000000000000000000000000000000000000000000000000000815260040161120490612932565b60405180910390fd5b60006112176108fb565b90506040518061016001604052803373ffffffffffffffffffffffffffffffffffffffff168152602001600073ffffffffffffffffffffffffffffffffffffffff16815260200185815260200184815260200183815260200160008152602001600081526020016000801b81526020016000801b81526020018481526020018481525060008083815260200190815260200160002060008201518160000160006101000a81548173ffffffffffffffffffffffffffffffffffffffff021916908373ffffffffffffffffffffffffffffffffffffffff16021790555060208201518160010160006101000a81548173ffffffffffffffffffffffffffffffffffffffff021916908373ffffffffffffffffffffffffffffffffffffffff16021790555060408201518160020155606082015181600301556080820151816004015560a0820151816005015560c0820151816006015560e082015181600701556101008201518160080155610120820151816009015561014082015181600a01559050506001819080600181540180825580915050600190039060005260206000200160009091909190915055807fbd19c47e9925eb6f7be8bb1c13a841e0240aaeaf17f217e90022e9c8eb66877f60405160405180910390a250505050565b60008311611439576040517f9a9be8fa000000000000000000000000000000000000000000000000000000008152600401611430906123f9565b60405180910390fd5b3373ffffffffffffffffffffffffffffffffffffffff1660008085815260200190815260200160002060000160009054906101000a900473ffffffffffffffffffffffffffffffffffffffff1673ffffffffffffffffffffffffffffffffffffffff161415801561150b57503373ffffffffffffffffffffffffffffffffffffffff1660008085815260200190815260200160002060010160009054906101000a900473ffffffffffffffffffffffffffffffffffffffff1673ffffffffffffffffffffffffffffffffffffffff1614155b1561154b576040517f9a9be8fa00000000000000000000000000000000000000000000000000000000815260040161154290612465565b60405180910390fd5b600080600085815260200190815260200160002060000160009054906101000a900473ffffffffffffffffffffffffffffffffffffffff1673ffffffffffffffffffffffffffffffffffffffff163373ffffffffffffffffffffffffffffffffffffffff16036115f25760008085815260200190815260200160002060010160009054906101000a900473ffffffffffffffffffffffffffffffffffffffff16905061162b565b60008085815260200190815260200160002060000160009054906101000a900473ffffffffffffffffffffffffffffffffffffffff1690505b837fa16c812880cd48fb28e27eb04ace25edead556e67c396ab7d2a93674adf55b4382858560405161165f93929190612952565b60405180910390a250505050565b60006020528060005260406000206000915090508060000160009054906101000a900473ffffffffffffffffffffffffffffffffffffffff16908060010160009054906101000a900473ffffffffffffffffffffffffffffffffffffffff169080600201549080600301549080600401549080600501549080600601549080600701549080600801549080600901549080600a015490508b565b6000811161174a576040517f9a9be8fa000000000000000000000000000000000000000000000000000000008152600401611741906123f9565b60405180910390fd5b3373ffffffffffffffffffffffffffffffffffffffff1660008083815260200190815260200160002060000160009054906101000a900473ffffffffffffffffffffffffffffffffffffffff1673ffffffffffffffffffffffffffffffffffffffff161415801561181c57503373ffffffffffffffffffffffffffffffffffffffff1660008083815260200190815260200160002060010160009054906101000a900473ffffffffffffffffffffffffffffffffffffffff1673ffffffffffffffffffffffffffffffffffffffff1614155b1561185c576040517f9a9be8fa00000000000000000000000000000000000000000000000000000000815260040161185390612465565b60405180910390fd5b6000341161189f576040517f08c379a0000000000000000000000000000000000000000000000000000000008152600401611896906129d5565b60405180910390fd5b3373ffffffffffffffffffffffffffffffffffffffff1660008083815260200190815260200160002060000160009054906101000a900473ffffffffffffffffffffffffffffffffffffffff1673ffffffffffffffffffffffffffffffffffffffff16036119265734600080838152602001908152602001600020600501819055506119e9565b3373ffffffffffffffffffffffffffffffffffffffff1660008083815260200190815260200160002060010160009054906101000a900473ffffffffffffffffffffffffffffffffffffffff1673ffffffffffffffffffffffffffffffffffffffff16036119ad5734600080838152602001908152602001600020600601819055506119e8565b6040517f9a9be8fa0000000000000000000000000000000000000000000000000000000081526004016119df90612465565b60405180910390fd5b5b50565b60025481565b60008060018054905003611a095760009050611a42565b6001611a19600180549050611e53565b81548110611a2a57611a2961269e565b5b90600052602060002001549050611a4081611a45565b505b90565b6000806000805b600180549050811015611a9d578460018281548110611a6e57611a6d61269e565b5b906000526020600020015403611a8a5780925060019150611a9d565b8080611a9590612549565b915050611a4c565b50801580611ab057506001805490508210155b15611abf578092505050611b74565b60008290505b60018080549050611ad6919061274b565b811015611b3c5760018082611aeb919061260a565b81548110611afc57611afb61269e565b5b906000526020600020015460018281548110611b1b57611b1a61269e565b5b90600052602060002001819055508080611b3490612549565b915050611ac5565b506001808080549050611b4f919061274b565b81548110611b6057611b5f61269e565b5b906000526020600020016000905580925050505b919050565b600180805490501015611bc1576040517f9a9be8fa000000000000000000000000000000000000000000000000000000008152600401611bb890612a41565b60405180910390fd5b6000808203611bd957611bd26119f2565b9050611c2b565b8190506000611be782611a45565b905080611c29576040517f9a9be8fa000000000000000000000000000000000000000000000000000000008152600401611c2090612aad565b60405180910390fd5b505b60008111611c6e576040517f9a9be8fa000000000000000000000000000000000000000000000000000000008152600401611c6590612b19565b60405180910390fd5b600073ffffffffffffffffffffffffffffffffffffffff1660008083815260200190815260200160002060010160009054906101000a900473ffffffffffffffffffffffffffffffffffffffff1673ffffffffffffffffffffffffffffffffffffffff1614611d12576040517f9a9be8fa000000000000000000000000000000000000000000000000000000008152600401611d0990612b85565b60405180910390fd5b3360008083815260200190815260200160002060010160006101000a81548173ffffffffffffffffffffffffffffffffffffffff021916908373ffffffffffffffffffffffffffffffffffffffff160217905550807f66bacdfb07a49afa060b23ca1e16974d1919771fff2fd57717ab8857b0673b3460008084815260200190815260200160002060000160009054906101000a900473ffffffffffffffffffffffffffffffffffffffff1660008085815260200190815260200160002060010160009054906101000a900473ffffffffffffffffffffffffffffffffffffffff16600080868152602001908152602001600020600201546000808781526020019081526020016000206003015460008088815260200190815260200160002060040154604051611e47959493929190612ba5565b60405180910390a25050565b6000814233604051602001611e69929190612c61565b6040516020818303038152906040528051906020012060001c611e8c919061266d565b9050919050565b6000604051905090565b600080fd5b600080fd5b6000819050919050565b611eba81611ea7565b8114611ec557600080fd5b50565b600081359050611ed781611eb1565b92915050565b6000819050919050565b611ef081611edd565b8114611efb57600080fd5b50565b600081359050611f0d81611ee7565b92915050565b60008060408385031215611f2a57611f29611e9d565b5b6000611f3885828601611ec8565b9250506020611f4985828601611efe565b9150509250929050565b600060208284031215611f6957611f68611e9d565b5b6000611f7784828501611ec8565b91505092915050565b611f8981611ea7565b82525050565b6000602082019050611fa46000830184611f80565b92915050565b60008115159050919050565b611fbf81611faa565b8114611fca57600080fd5b50565b600081359050611fdc81611fb6565b92915050565b60008060408385031215611ff957611ff8611e9d565b5b600061200785828601611ec8565b925050602061201885828601611fcd565b9150509250929050565b600080fd5b6000601f19601f8301169050919050565b7f4e487b7100000000000000000000000000000000000000000000000000000000600052604160045260246000fd5b61207082612027565b810181811067ffffffffffffffff8211171561208f5761208e612038565b5b80604052505050565b60006120a2611e93565b90506120ae8282612067565b919050565b600067ffffffffffffffff8211156120ce576120cd612038565b5b602082029050602081019050919050565b600080fd5b60006120f76120f2846120b3565b612098565b9050808382526020820190506020840283018581111561211a576121196120df565b5b835b81811015612143578061212f8882611efe565b84526020840193505060208101905061211c565b5050509392505050565b600082601f83011261216257612161612022565b5b81356121728482602086016120e4565b91505092915050565b60008060008060008060c0878903121561219857612197611e9d565b5b60006121a689828a01611ec8565b96505060206121b789828a01611ec8565b95505060406121c889828a01611ec8565b94505060606121d989828a01611ec8565b93505060806121ea89828a01611efe565b92505060a087013567ffffffffffffffff81111561220b5761220a611ea2565b5b61221789828a0161214d565b9150509295509295509295565b60008060006060848603121561223d5761223c611e9d565b5b600061224b86828701611ec8565b935050602061225c86828701611ec8565b925050604061226d86828701611ec8565b9150509250925092565b600073ffffffffffffffffffffffffffffffffffffffff82169050919050565b60006122a282612277565b9050919050565b6122b281612297565b82525050565b6122c181611edd565b82525050565b6000610160820190506122dd600083018e6122a9565b6122ea602083018d6122a9565b6122f7604083018c611f80565b612304606083018b611f80565b612311608083018a611f80565b61231e60a0830189611f80565b61232b60c0830188611f80565b61233860e08301876122b8565b6123466101008301866122b8565b612354610120830185611f80565b612362610140830184611f80565b9c9b505050505050505050505050565b61237b81611faa565b82525050565b60006020820190506123966000830184612372565b92915050565b600082825260208201905092915050565b7f47616d65206964206973206e6567617469766521000000000000000000000000600082015250565b60006123e360148361239c565b91506123ee826123ad565b602082019050919050565b60006020820190508181036000830152612412816123d6565b9050919050565b7f506c61796572206e6f7420696e20746861742067616d65210000000000000000600082015250565b600061244f60188361239c565b915061245a82612419565b602082019050919050565b6000602082019050818103600083015261247e81612442565b9050919050565b7f426f61726420616c7265616479207375626d6974746564210000000000000000600082015250565b60006124bb60188361239c565b91506124c682612485565b602082019050919050565b600060208201905081810360008301526124ea816124ae565b9050919050565b600060408201905061250660008301856122b8565b61251360208301846122b8565b9392505050565b7f4e487b7100000000000000000000000000000000000000000000000000000000600052601160045260246000fd5b600061255482611ea7565b91507fffffffffffffffffffffffffffffffffffffffffffffffffffffffffffffffff82036125865761258561251a565b5b600182019050919050565b60006060820190506125a660008301866122a9565b6125b36020830185611f80565b6125c06040830184612372565b949350505050565b60006125d382611ea7565b91506125de83611ea7565b92508282026125ec81611ea7565b915082820484148315176126035761260261251a565b5b5092915050565b600061261582611ea7565b915061262083611ea7565b92508282019050808211156126385761263761251a565b5b92915050565b7f4e487b7100000000000000000000000000000000000000000000000000000000600052601260045260246000fd5b600061267882611ea7565b915061268383611ea7565b9250826126935761269261263e565b5b828206905092915050565b7f4e487b7100000000000000000000000000000000000000000000000000000000600052603260045260246000fd5b6000819050919050565b6126e86126e382611edd565b6126cd565b82525050565b60006126fa82856126d7565b60208201915061270a82846126d7565b6020820191508190509392505050565b600061272582611ea7565b915061273083611ea7565b9250826127405761273f61263e565b5b828204905092915050565b600061275682611ea7565b915061276183611ea7565b92508282039050818111156127795761277861251a565b5b92915050565b600060a08201905061279460008301886122a9565b6127a16020830187611f80565b6127ae6040830186611f80565b6127bb6060830185611f80565b6127c86080830184611f80565b9695505050505050565b6000819050919050565b6000819050919050565b60006128016127fc6127f7846127d2565b6127dc565b611ea7565b9050919050565b612811816127e6565b82525050565b600060608201905061282c60008301866122a9565b61283960208301856122a9565b6128466040830184612808565b949350505050565b6000819050919050565b600061287361286e6128698461284e565b6127dc565b611ea7565b9050919050565b61288381612858565b82525050565b600060608201905061289e60008301866122a9565b6128ab60208301856122a9565b6128b8604083018461287a565b949350505050565b7f496e76616c696420626f6172642073697a65206f722073686970206e756d626560008201527f7221000000000000000000000000000000000000000000000000000000000000602082015250565b600061291c60228361239c565b9150612927826128c0565b604082019050919050565b6000602082019050818103600083015261294b8161290f565b9050919050565b600060608201905061296760008301866122a9565b6129746020830185611f80565b6129816040830184611f80565b949350505050565b7f4554482061726520302100000000000000000000000000000000000000000000600082015250565b60006129bf600a8361239c565b91506129ca82612989565b602082019050919050565b600060208201905081810360008301526129ee816129b2565b9050919050565b7f4e6f206f70656e2067616d657321000000000000000000000000000000000000600082015250565b6000612a2b600e8361239c565b9150612a36826129f5565b602082019050919050565b60006020820190508181036000830152612a5a81612a1e565b9050919050565b7f546869732067616d6520646f6573206e6f742065786973742100000000000000600082015250565b6000612a9760198361239c565b9150612aa282612a61565b602082019050919050565b60006020820190508181036000830152612ac681612a8a565b9050919050565b7f43686f73656e206964206e656761746976652100000000000000000000000000600082015250565b6000612b0360138361239c565b9150612b0e82612acd565b602082019050919050565b60006020820190508181036000830152612b3281612af6565b9050919050565b7f47616d6520616c72656164792074616b656e2100000000000000000000000000600082015250565b6000612b6f60138361239c565b9150612b7a82612b39565b602082019050919050565b60006020820190508181036000830152612b9e81612b62565b9050919050565b600060a082019050612bba60008301886122a9565b612bc760208301876122a9565b612bd46040830186611f80565b612be16060830185611f80565b612bee6080830184611f80565b9695505050505050565b6000819050919050565b612c13612c0e82611ea7565b612bf8565b82525050565b60008160601b9050919050565b6000612c3182612c19565b9050919050565b6000612c4382612c26565b9050919050565b612c5b612c5682612297565b612c38565b82525050565b6000612c6d8285612c02565b602082019150612c7d8284612c4a565b601482019150819050939250505056fea2646970667358221220b6c90ba3d95f210d50d4bb7bf9190068d68f3d9d1d73d2e5986801219a45816364736f6c63430008130033",
  "immutableReferences": {},
  "source": "// SPDX-License-Identifier: MIT\npragma solidity >=0.4.22 <0.9.0;\n\ncontract BattleShipGame {\n    struct gameInfo {\n        // struct with all the information about a game\n        address creator;\n        address joiner;\n        uint256 boardSize;\n        uint256 shipNum;\n        uint256 ethAmount;\n        uint256 creatorEth;\n        uint256 joinerEth;\n        bytes32 creatorMerkleRoot;\n        bytes32 joinerMerkleRoot;\n        uint256 creatorNumShips;\n        uint256 joinerNumShips;\n    }\n\n    mapping(uint256 => gameInfo) public gameList; // map of game's ID (gameId => information of that game)\n    uint256[] public avaibleGame; // array with all the gameId of the avaible game\n\n    uint256 public gameId = 1; // value of the next gameId\n\n    // error event:\n    error OutputError(string myError);\n\n    // event:\n    event GameCreated(uint256 indexed _gameId);\n\n    event GameJoined(\n        uint256 indexed _gameId,\n        address _creator,\n        address _joiner,\n        uint256 _boardSize,\n        uint256 _shipNum,\n        uint256 _ethAmount\n    );\n\n    event AmountEthResponse(\n        address _sender,\n        uint256 _amount,\n        uint256 indexed _gameId,\n        bool response\n    );\n\n    event StartGame(\n        uint256 indexed _gameId,\n        bytes32 _merkleRootCreator,\n        bytes32 _merkleRootJoiner\n    );\n\n    event ShootShip(\n        uint256 indexed _gameId,\n        address _address,\n        uint256 _row,\n        uint256 _col\n    );\n\n    event ShootResult(\n        uint256 indexed _gameId,\n        address _address,\n        uint256 _row,\n        uint256 _col,\n        uint256 _result,\n        uint256 _shipsRemaining\n    );\n\n    // TODO: develop the accusation\n    event AccusationTrigger( \n        uint256 indexed _gameId\n    );\n\n    event GameEnded(\n        uint256 indexed _gameId,\n        address _winner,\n        address _loser,\n        uint256 _reason\n    );\n\n    constructor() {}\n\n    // function to return the gameId\n    function getId() public returns (uint256 toReturn) {\n        toReturn = gameId++;\n        return toReturn;\n    }\n\n    // function to remove an element of the array avaibleGame\n    function removeFromArray(uint256 _gameId) public returns (bool) {\n        uint256 index;\n        bool find = false;\n\n        // loop through the avaible game until find the index of the chosen one\n        for (uint i = 0; i < avaibleGame.length; i++) {\n            if (avaibleGame[i] == _gameId) {\n                index = i;\n                find = true;\n                break;\n            }\n        }\n\n        if (!find || index >= avaibleGame.length) {\n            return find;\n        }\n\n        for (uint i = index; i < avaibleGame.length - 1; i++) {\n            // move manually all the element\n            avaibleGame[i] = avaibleGame[i + 1];\n        }\n        delete avaibleGame[avaibleGame.length - 1]; // remove the last element\n        return find;\n    }\n\n    function getRandomNumber(uint256 bound) private view returns (uint256) {\n        return\n            uint256(keccak256(abi.encodePacked(block.timestamp, msg.sender))) %\n            bound;\n    }\n\n    // function to get the gameId of an avaible game\n    function randomGame() public returns (uint256 randGameId) {\n        if (avaibleGame.length == 0) {\n            return 0;\n        }\n\n        randGameId = avaibleGame[getRandomNumber(avaibleGame.length)];\n        removeFromArray(randGameId);\n        return randGameId;\n    }\n\n    function createGame(\n        // function to create a new game\n        uint256 _boardSize,\n        uint256 _shipNum,\n        uint256 _ethAmount\n    ) public {\n        // create a new game\n\n        // Check if the board size and ship number are valid\n        if (_boardSize <= 0 || _shipNum <= 0) {\n            revert OutputError(\"Invalid board size or ship number!\");\n        }\n\n        uint256 newGameId = getId();\n\n        gameList[newGameId] = gameInfo(\n            msg.sender,\n            address(0),\n            _boardSize,\n            _shipNum,\n            _ethAmount,\n            0,\n            0,\n            0,\n            0,\n            _shipNum,\n            _shipNum\n        );\n        avaibleGame.push(newGameId);\n        emit GameCreated(newGameId);\n    }\n\n    function joinGame(uint256 _gameId) public {\n        // function to join a game\n        // check if there are avaible game\n        if (avaibleGame.length < 1) {\n            revert OutputError(\"No open games!\");\n        }\n\n        uint256 chosenGameId;\n\n        if (_gameId == 0) {\n            //random game choice\n            chosenGameId = randomGame();\n        } else {\n            //specific game\n            chosenGameId = _gameId;\n            bool find = removeFromArray(chosenGameId);\n\n            if (!find) {\n                revert OutputError(\"This game does not exist!\");\n            }\n        }\n\n        if (chosenGameId <= 0) {\n            revert OutputError(\"Chosen id negative!\");\n        }\n\n        if (gameList[chosenGameId].joiner != address(0)) {\n            revert OutputError(\"Game already taken!\");\n        }\n        gameList[chosenGameId].joiner = msg.sender;\n\n        emit GameJoined(\n            chosenGameId,\n            gameList[chosenGameId].creator,\n            gameList[chosenGameId].joiner,\n            gameList[chosenGameId].boardSize,\n            gameList[chosenGameId].shipNum,\n            gameList[chosenGameId].ethAmount\n        );\n    }\n\n    function amountEthDecision(uint256 _gameId, bool _response) public {\n        // function to accept or refuse the eth amount\n\n        // Check if the game ID is valid\n        if (_gameId <= 0) {\n            revert OutputError(\"Game id is negative!\");\n        }\n\n        // Check if the sender is either the creator or the joiner of the game\n        if (gameList[_gameId].creator != msg.sender && gameList[_gameId].joiner != msg.sender) {\n            revert OutputError(\"Player not in that game!\");\n        }\n\n        if (!_response) {\n            // refuse response\n            gameList[_gameId].joiner = address(0);\n            avaibleGame.push(_gameId);\n        }\n\n        emit AmountEthResponse(\n            msg.sender,\n            gameList[_gameId].ethAmount,\n            _gameId,\n            _response\n        );\n    }\n\n    function sendEth(uint256 _gameId) public payable {\n        // function to send the ETH to the contract\n\n        // Check if the game ID is valid\n        if (_gameId <= 0) {\n            revert OutputError(\"Game id is negative!\");\n        }\n\n        // Check if the sender is either the creator or the joiner of the game\n        if (\n            gameList[_gameId].creator != msg.sender &&\n            gameList[_gameId].joiner != msg.sender\n        ) {\n            revert OutputError(\"Player not in that game!\");\n        }\n\n        require(msg.value > 0, \"ETH are 0!\");\n\n        if (gameList[_gameId].creator == msg.sender) {\n            gameList[_gameId].creatorEth = msg.value;\n        } else if (gameList[_gameId].joiner == msg.sender) {\n            gameList[_gameId].joinerEth = msg.value;\n        } else {\n            revert OutputError(\"Player not in that game!\");\n        }\n    }\n\n    function submitBoard(uint256 _gameId, bytes32 _merkleRoot) public {\n        // function to submit the board\n\n        // Check if the game ID is valid\n        if (_gameId <= 0) {\n            revert OutputError(\"Game id is negative!\");\n        }\n\n        // Check if the sender is either the creator or the joiner of the game\n        if (\n            gameList[_gameId].creator != msg.sender &&\n            gameList[_gameId].joiner != msg.sender\n        ) {\n            revert OutputError(\"Player not in that game!\");\n        }\n\n        // Check if the board is not already submitted\n        if (\n            (gameList[_gameId].creator == msg.sender &&\n                gameList[_gameId].creatorMerkleRoot != 0) ||\n            (gameList[_gameId].joiner == msg.sender &&\n                gameList[_gameId].joinerMerkleRoot != 0)\n        ) {\n            revert OutputError(\"Board already submitted!\");\n        }\n\n        if (gameList[_gameId].creator == msg.sender) {\n            gameList[_gameId].creatorMerkleRoot = _merkleRoot;\n        } else if (gameList[_gameId].joiner == msg.sender) {\n            gameList[_gameId].joinerMerkleRoot = _merkleRoot;\n        } else {\n            revert OutputError(\"Player not in that game!\");\n        }\n\n        emit StartGame(\n            _gameId,\n            gameList[_gameId].creatorMerkleRoot,\n            gameList[_gameId].joinerMerkleRoot\n        );\n    }\n\n    function shoot(uint256 _gameId, uint256 _row, uint256 _col) public {\n        // function to communicate the coordinates of the fired cell\n        \n        // Check if the game ID is valid\n        if (_gameId <= 0) {\n            revert OutputError(\"Game id is negative!\");\n        }\n\n        // Check if the sender is either the creator or the joiner of the game\n        if (\n            gameList[_gameId].creator != msg.sender &&\n            gameList[_gameId].joiner != msg.sender\n        ) {\n            revert OutputError(\"Player not in that game!\");\n        }\n\n        // take the opponent address for comunicate who was shot\n        address opponentAddress;\n        if (msg.sender == gameList[_gameId].creator) {\n            opponentAddress = gameList[_gameId].joiner;\n        } else {\n            opponentAddress = gameList[_gameId].creator;\n        }\n\n        emit ShootShip(_gameId, opponentAddress, _row, _col);\n    }\n\n    function shootResult(\n        uint256 _gameId,\n        uint256 _row,\n        uint256 _col,\n        uint256 _result,\n        bytes32 _hash,\n        bytes32[] memory _merkleProof\n    ) public payable {\n        // function to comunicate the result of the shot\n        \n        // Check if the game ID is valid\n        if (_gameId <= 0) {\n            revert OutputError(\"Game id is negative!\");\n        }\n\n        // Check if the sender is either the creator or the joiner of the game\n        if (\n            gameList[_gameId].creator != msg.sender &&\n            gameList[_gameId].joiner != msg.sender\n        ) {\n            revert OutputError(\"Player not in that game!\");\n        }\n\n        // take the opponent address for comunicate who fired the shot\n        address opponentAddress;\n        bytes32 merkleRoot;\n        if (msg.sender == gameList[_gameId].creator) {\n            opponentAddress = gameList[_gameId].joiner;\n            merkleRoot = gameList[_gameId].creatorMerkleRoot;\n        } else {\n            opponentAddress = gameList[_gameId].creator;\n            merkleRoot = gameList[_gameId].joinerMerkleRoot;\n        }\n\n        bytes32 hashValue = _hash;\n\n        uint256 index = _row * gameList[_gameId].boardSize + _col;\n        for (uint i = 0; i < _merkleProof.length; i++) {\n            if (index % 2 == 0) {\n                hashValue = keccak256(\n                    abi.encodePacked(hashValue, _merkleProof[i])\n                );\n            } else {\n                hashValue = keccak256(\n                    abi.encodePacked(_merkleProof[i], hashValue)\n                );\n            }\n\n            index = index / 2;\n        }\n\n        uint256 shipsRemaining = 100;\n        if (merkleRoot == hashValue) {\n            // validated shoot\n            if (msg.sender == gameList[_gameId].creator) {\n                if (_result == 1) {\n                    gameList[_gameId].joinerNumShips =\n                        gameList[_gameId].joinerNumShips -\n                        1;\n                }\n                shipsRemaining = gameList[_gameId].joinerNumShips;\n            } else {\n                if (_result == 1) {\n                    gameList[_gameId].creatorNumShips =\n                        gameList[_gameId].creatorNumShips -\n                        1;\n                }\n                shipsRemaining = gameList[_gameId].creatorNumShips;\n            }\n\n            emit ShootResult(\n                _gameId,\n                opponentAddress,\n                _row,\n                _col,\n                _result,\n                shipsRemaining\n            );\n        } else {\n            // invlidated shoot\n            emit GameEnded(_gameId, opponentAddress, msg.sender, 0);\n            payable(opponentAddress).transfer(gameList[_gameId].ethAmount * 2);\n            return;\n        }\n\n        if (shipsRemaining <= 0) {\n            payable(opponentAddress).transfer(gameList[_gameId].ethAmount * 2);\n\n            emit GameEnded(_gameId, opponentAddress, msg.sender, 1);\n        }\n    }\n\n    function accuseOpponent(uint256 _gameId) public payable {\n        // function to accuse the opponent of having left\n\n        // Check if the game ID is valid\n        if (_gameId <= 0) {\n            revert OutputError(\"Game id is negative!\");\n        }\n\n        // Check if the sender is either the creator or the joiner of the game\n        if (\n            gameList[_gameId].creator != msg.sender &&\n            gameList[_gameId].joiner != msg.sender\n        ) {\n            revert OutputError(\"Player not in that game!\");\n        }\n\n        // TODO: develop the accusation\n    }\n}\n",
  "sourcePath": "/mnt/storage/Magistrale/P2PB/ProgettoP2P/P2P_Project/contracts/BattleShipGame.sol",
  "compiler": {
    "name": "solc",
    "version": "0.8.19+commit.7dd6d404.Emscripten.clang"
  },
  "schemaVersion": "3.4.13",
  "updatedAt": "2023-07-19T14:17:45.790Z",
  "networkType": "ethereum",
  "devdoc": {
    "kind": "dev",
    "methods": {},
    "version": 1
  },
  "userdoc": {
    "kind": "user",
    "methods": {},
    "version": 1
  }
}