{
  "contractName": "BattleShipGame",
  "abi": [
    {
      "inputs": [],
      "stateMutability": "nonpayable",
      "type": "constructor"
    },
    {
      "inputs": [
        {
          "internalType": "string",
          "name": "myError",
          "type": "string"
        }
      ],
      "name": "OutputError",
      "type": "error"
    },
    {
      "anonymous": false,
      "inputs": [
        {
          "indexed": true,
          "internalType": "uint256",
          "name": "_gameId",
          "type": "uint256"
        },
        {
          "indexed": false,
          "internalType": "address",
          "name": "_accused",
          "type": "address"
        },
        {
          "indexed": false,
          "internalType": "address",
          "name": "_accuser",
          "type": "address"
        }
      ],
      "name": "AccusationTrigger",
      "type": "event"
    },
    {
      "anonymous": false,
      "inputs": [
        {
          "indexed": false,
          "internalType": "address",
          "name": "_sender",
          "type": "address"
        },
        {
          "indexed": false,
          "internalType": "uint256",
          "name": "_amount",
          "type": "uint256"
        },
        {
          "indexed": true,
          "internalType": "uint256",
          "name": "_gameId",
          "type": "uint256"
        },
        {
          "indexed": false,
          "internalType": "bool",
          "name": "response",
          "type": "bool"
        }
      ],
      "name": "AmountEthResponse",
      "type": "event"
    },
    {
      "anonymous": false,
      "inputs": [
        {
          "indexed": true,
          "internalType": "uint256",
          "name": "_gameId",
          "type": "uint256"
        }
      ],
      "name": "GameCreated",
      "type": "event"
    },
    {
      "anonymous": false,
      "inputs": [
        {
          "indexed": true,
          "internalType": "uint256",
          "name": "_gameId",
          "type": "uint256"
        },
        {
          "indexed": false,
          "internalType": "address",
          "name": "_winner",
          "type": "address"
        },
        {
          "indexed": false,
          "internalType": "address",
          "name": "_loser",
          "type": "address"
        },
        {
          "indexed": false,
          "internalType": "uint256",
          "name": "_reason",
          "type": "uint256"
        }
      ],
      "name": "GameEnded",
      "type": "event"
    },
    {
      "anonymous": false,
      "inputs": [
        {
          "indexed": true,
          "internalType": "uint256",
          "name": "_gameId",
          "type": "uint256"
        },
        {
          "indexed": false,
          "internalType": "address",
          "name": "_creator",
          "type": "address"
        },
        {
          "indexed": false,
          "internalType": "address",
          "name": "_joiner",
          "type": "address"
        },
        {
          "indexed": false,
          "internalType": "uint256",
          "name": "_boardSize",
          "type": "uint256"
        },
        {
          "indexed": false,
          "internalType": "uint256",
          "name": "_shipNum",
          "type": "uint256"
        },
        {
          "indexed": false,
          "internalType": "uint256",
          "name": "_ethAmount",
          "type": "uint256"
        }
      ],
      "name": "GameJoined",
      "type": "event"
    },
    {
      "anonymous": false,
      "inputs": [
        {
          "indexed": true,
          "internalType": "uint256",
          "name": "_gameId",
          "type": "uint256"
        },
        {
          "indexed": false,
          "internalType": "address",
          "name": "_accuser",
          "type": "address"
        }
      ],
      "name": "ResolveAccuse",
      "type": "event"
    },
    {
      "anonymous": false,
      "inputs": [
        {
          "indexed": true,
          "internalType": "uint256",
          "name": "_gameId",
          "type": "uint256"
        },
        {
          "indexed": false,
          "internalType": "address",
          "name": "_address",
          "type": "address"
        },
        {
          "indexed": false,
          "internalType": "uint256",
          "name": "_row",
          "type": "uint256"
        },
        {
          "indexed": false,
          "internalType": "uint256",
          "name": "_col",
          "type": "uint256"
        },
        {
          "indexed": false,
          "internalType": "uint256",
          "name": "_result",
          "type": "uint256"
        },
        {
          "indexed": false,
          "internalType": "uint256",
          "name": "_shipsRemaining",
          "type": "uint256"
        }
      ],
      "name": "ShootResult",
      "type": "event"
    },
    {
      "anonymous": false,
      "inputs": [
        {
          "indexed": true,
          "internalType": "uint256",
          "name": "_gameId",
          "type": "uint256"
        },
        {
          "indexed": false,
          "internalType": "address",
          "name": "_address",
          "type": "address"
        },
        {
          "indexed": false,
          "internalType": "uint256",
          "name": "_row",
          "type": "uint256"
        },
        {
          "indexed": false,
          "internalType": "uint256",
          "name": "_col",
          "type": "uint256"
        }
      ],
      "name": "ShootShip",
      "type": "event"
    },
    {
      "inputs": [
        {
          "internalType": "uint256",
          "name": "",
          "type": "uint256"
        }
      ],
      "name": "availableGames",
      "outputs": [
        {
          "internalType": "uint256",
          "name": "",
          "type": "uint256"
        }
      ],
      "stateMutability": "view",
      "type": "function",
      "constant": true
    },
    {
      "inputs": [],
      "name": "gameId",
      "outputs": [
        {
          "internalType": "uint256",
          "name": "",
          "type": "uint256"
        }
      ],
      "stateMutability": "view",
      "type": "function",
      "constant": true
    },
    {
      "inputs": [
        {
          "internalType": "uint256",
          "name": "",
          "type": "uint256"
        }
      ],
      "name": "gameList",
      "outputs": [
        {
          "internalType": "address",
          "name": "creator",
          "type": "address"
        },
        {
          "internalType": "address",
          "name": "joiner",
          "type": "address"
        },
        {
          "internalType": "uint256",
          "name": "boardSize",
          "type": "uint256"
        },
        {
          "internalType": "uint256",
          "name": "shipNum",
          "type": "uint256"
        },
        {
          "internalType": "uint256",
          "name": "ethAmount",
          "type": "uint256"
        },
        {
          "internalType": "uint256",
          "name": "ethBetted",
          "type": "uint256"
        },
        {
          "internalType": "bytes32",
          "name": "creatorMerkleRoot",
          "type": "bytes32"
        },
        {
          "internalType": "bytes32",
          "name": "joinerMerkleRoot",
          "type": "bytes32"
        },
        {
          "internalType": "uint256",
          "name": "creatorNumShips",
          "type": "uint256"
        },
        {
          "internalType": "uint256",
          "name": "joinerNumShips",
          "type": "uint256"
        },
        {
          "internalType": "uint256",
          "name": "accusationTime",
          "type": "uint256"
        },
        {
          "internalType": "address",
          "name": "accuser",
          "type": "address"
        }
      ],
      "stateMutability": "view",
      "type": "function",
      "constant": true
    },
    {
      "inputs": [
        {
          "internalType": "uint256",
          "name": "_boardSize",
          "type": "uint256"
        },
        {
          "internalType": "uint256",
          "name": "_shipNum",
          "type": "uint256"
        },
        {
          "internalType": "uint256",
          "name": "_ethAmount",
          "type": "uint256"
        }
      ],
      "name": "createGame",
      "outputs": [],
      "stateMutability": "payable",
      "type": "function",
      "payable": true
    },
    {
      "inputs": [
        {
          "internalType": "uint256",
          "name": "_gameId",
          "type": "uint256"
        }
      ],
      "name": "joinGame",
      "outputs": [],
      "stateMutability": "nonpayable",
      "type": "function"
    },
    {
      "inputs": [
        {
          "internalType": "uint256",
          "name": "_gameId",
          "type": "uint256"
        },
        {
          "internalType": "bool",
          "name": "_response",
          "type": "bool"
        }
      ],
      "name": "amountEthDecision",
      "outputs": [],
      "stateMutability": "payable",
      "type": "function",
      "payable": true
    },
    {
      "inputs": [
        {
          "internalType": "uint256",
          "name": "_gameId",
          "type": "uint256"
        },
        {
          "internalType": "bytes32",
          "name": "_merkleRoot",
          "type": "bytes32"
        }
      ],
      "name": "submitBoard",
      "outputs": [],
      "stateMutability": "nonpayable",
      "type": "function"
    },
    {
      "inputs": [
        {
          "internalType": "uint256",
          "name": "_gameId",
          "type": "uint256"
        },
        {
          "internalType": "uint256",
          "name": "_row",
          "type": "uint256"
        },
        {
          "internalType": "uint256",
          "name": "_col",
          "type": "uint256"
        }
      ],
      "name": "shoot",
      "outputs": [],
      "stateMutability": "nonpayable",
      "type": "function"
    },
    {
      "inputs": [
        {
          "internalType": "uint256",
          "name": "_gameId",
          "type": "uint256"
        },
        {
          "internalType": "uint256",
          "name": "_row",
          "type": "uint256"
        },
        {
          "internalType": "uint256",
          "name": "_col",
          "type": "uint256"
        },
        {
          "internalType": "uint256",
          "name": "_result",
          "type": "uint256"
        },
        {
          "internalType": "bytes32",
          "name": "_hash",
          "type": "bytes32"
        },
        {
          "internalType": "bytes32[]",
          "name": "_merkleProof",
          "type": "bytes32[]"
        }
      ],
      "name": "shootResult",
      "outputs": [],
      "stateMutability": "payable",
      "type": "function",
      "payable": true
    },
    {
      "inputs": [
        {
          "internalType": "uint256",
          "name": "_gameId",
          "type": "uint256"
        }
      ],
      "name": "accuseOpponent",
      "outputs": [],
      "stateMutability": "payable",
      "type": "function",
      "payable": true
    },
    {
      "inputs": [
        {
          "internalType": "uint256",
          "name": "_gameId",
          "type": "uint256"
        }
      ],
      "name": "verifyAccuse",
      "outputs": [],
      "stateMutability": "payable",
      "type": "function",
      "payable": true
    }
  ],
  "bytecode": "0x6080604052600160025534801561001557600080fd5b5061347a806100256000396000f3fe60806040526004361061009c5760003560e01c80639966cc83116100645780639966cc831461013a578063c274152114610177578063c558b42c14610193578063c6cfd08e146101bc578063d7c81b5514610204578063efaa55a01461022f5761009c565b80630153f922146100a15780630328f6fb146100bd57806320ed1057146100e6578063685385f31461010257806395e1c6fb1461011e575b600080fd5b6100bb60048036038101906100b69190612552565b610258565b005b3480156100c957600080fd5b506100e460048036038101906100df91906125b5565b610650565b005b61010060048036038101906100fb9190612552565b610a4a565b005b61011c6004803603810190610117919061262d565b610f0f565b005b610138600480360381019061013391906127c6565b6111c5565b005b34801561014657600080fd5b50610161600480360381019061015c9190612552565b6117fa565b60405161016e919061287e565b60405180910390f35b610191600480360381019061018c9190612899565b61181e565b005b34801561019f57600080fd5b506101ba60048036038101906101b59190612899565b611b2b565b005b3480156101c857600080fd5b506101e360048036038101906101de9190612552565b611ee9565b6040516101fb9c9b9a9998979695949392919061293c565b60405180910390f35b34801561021057600080fd5b50610219611fa9565b604051610226919061287e565b60405180910390f35b34801561023b57600080fd5b5061025660048036038101906102519190612552565b611faf565b005b60008082815260200190815260200160002060000160009054906101000a900473ffffffffffffffffffffffffffffffffffffffff1673ffffffffffffffffffffffffffffffffffffffff16600080838152602001908152602001600020600b0160009054906101000a900473ffffffffffffffffffffffffffffffffffffffff1673ffffffffffffffffffffffffffffffffffffffff160361044f5743600080838152602001908152602001600020600a01541161044a57600080828152602001908152602001600020600b0160009054906101000a900473ffffffffffffffffffffffffffffffffffffffff1673ffffffffffffffffffffffffffffffffffffffff166108fc600080848152602001908152602001600020600501549081150290604051600060405180830381858888f193505050501580156103a1573d6000803e3d6000fd5b50807f470cc86631700e08c11a6d20ecd69bb482a129f5071a1057455be0c10be26866600080848152602001908152602001600020600b0160009054906101000a900473ffffffffffffffffffffffffffffffffffffffff1660008085815260200190815260200160002060010160009054906101000a900473ffffffffffffffffffffffffffffffffffffffff16600260405161044193929190612a3b565b60405180910390a25b61064c565b60008082815260200190815260200160002060010160009054906101000a900473ffffffffffffffffffffffffffffffffffffffff1673ffffffffffffffffffffffffffffffffffffffff16600080838152602001908152602001600020600b0160009054906101000a900473ffffffffffffffffffffffffffffffffffffffff1673ffffffffffffffffffffffffffffffffffffffff16036106465743600080838152602001908152602001600020600a01541161064157600080828152602001908152602001600020600b0160009054906101000a900473ffffffffffffffffffffffffffffffffffffffff1673ffffffffffffffffffffffffffffffffffffffff166108fc600080848152602001908152602001600020600501549081150290604051600060405180830381858888f19350505050158015610598573d6000803e3d6000fd5b50807f470cc86631700e08c11a6d20ecd69bb482a129f5071a1057455be0c10be26866600080848152602001908152602001600020600b0160009054906101000a900473ffffffffffffffffffffffffffffffffffffffff1660008085815260200190815260200160002060000160009054906101000a900473ffffffffffffffffffffffffffffffffffffffff16600260405161063893929190612a3b565b60405180910390a25b61064b565b61064d565b5b5b50565b60008211610693576040517f9a9be8fa00000000000000000000000000000000000000000000000000000000815260040161068a90612acf565b60405180910390fd5b3373ffffffffffffffffffffffffffffffffffffffff1660008084815260200190815260200160002060000160009054906101000a900473ffffffffffffffffffffffffffffffffffffffff1673ffffffffffffffffffffffffffffffffffffffff161415801561076557503373ffffffffffffffffffffffffffffffffffffffff1660008084815260200190815260200160002060010160009054906101000a900473ffffffffffffffffffffffffffffffffffffffff1673ffffffffffffffffffffffffffffffffffffffff1614155b156107a5576040517f9a9be8fa00000000000000000000000000000000000000000000000000000000815260040161079c90612b3b565b60405180910390fd5b3373ffffffffffffffffffffffffffffffffffffffff1660008084815260200190815260200160002060000160009054906101000a900473ffffffffffffffffffffffffffffffffffffffff1673ffffffffffffffffffffffffffffffffffffffff1614801561082d57506000801b6000808481526020019081526020016000206006015414155b806108bc57503373ffffffffffffffffffffffffffffffffffffffff1660008084815260200190815260200160002060010160009054906101000a900473ffffffffffffffffffffffffffffffffffffffff1673ffffffffffffffffffffffffffffffffffffffff161480156108bb57506000801b6000808481526020019081526020016000206007015414155b5b156108fc576040517f9a9be8fa0000000000000000000000000000000000000000000000000000000081526004016108f390612ba7565b60405180910390fd5b3373ffffffffffffffffffffffffffffffffffffffff1660008084815260200190815260200160002060000160009054906101000a900473ffffffffffffffffffffffffffffffffffffffff1673ffffffffffffffffffffffffffffffffffffffff1603610983578060008084815260200190815260200160002060060181905550610a46565b3373ffffffffffffffffffffffffffffffffffffffff1660008084815260200190815260200160002060010160009054906101000a900473ffffffffffffffffffffffffffffffffffffffff1673ffffffffffffffffffffffffffffffffffffffff1603610a0a578060008084815260200190815260200160002060070181905550610a45565b6040517f9a9be8fa000000000000000000000000000000000000000000000000000000008152600401610a3c90612b3b565b60405180910390fd5b5b5050565b60008111610a8d576040517f9a9be8fa000000000000000000000000000000000000000000000000000000008152600401610a8490612acf565b60405180910390fd5b3373ffffffffffffffffffffffffffffffffffffffff1660008083815260200190815260200160002060000160009054906101000a900473ffffffffffffffffffffffffffffffffffffffff1673ffffffffffffffffffffffffffffffffffffffff1614158015610b5f57503373ffffffffffffffffffffffffffffffffffffffff1660008083815260200190815260200160002060010160009054906101000a900473ffffffffffffffffffffffffffffffffffffffff1673ffffffffffffffffffffffffffffffffffffffff1614155b15610b9f576040517f9a9be8fa000000000000000000000000000000000000000000000000000000008152600401610b9690612b3b565b60405180910390fd5b600073ffffffffffffffffffffffffffffffffffffffff16600080838152602001908152602001600020600b0160009054906101000a900473ffffffffffffffffffffffffffffffffffffffff1673ffffffffffffffffffffffffffffffffffffffff1603610f0c5733600080838152602001908152602001600020600b0160006101000a81548173ffffffffffffffffffffffffffffffffffffffff021916908373ffffffffffffffffffffffffffffffffffffffff160217905550600543610c699190612bf6565b600080838152602001908152602001600020600a018190555060008082815260200190815260200160002060000160009054906101000a900473ffffffffffffffffffffffffffffffffffffffff1673ffffffffffffffffffffffffffffffffffffffff16600080838152602001908152602001600020600b0160009054906101000a900473ffffffffffffffffffffffffffffffffffffffff1673ffffffffffffffffffffffffffffffffffffffff1603610dc857807fa11145e24e3c0a8f6586af5688ff25ef2fdd2a8143412c2cbb0044c0db72803c60008084815260200190815260200160002060010160009054906101000a900473ffffffffffffffffffffffffffffffffffffffff1660008085815260200190815260200160002060000160009054906101000a900473ffffffffffffffffffffffffffffffffffffffff16604051610dbb929190612c2a565b60405180910390a2610f0b565b60008082815260200190815260200160002060010160009054906101000a900473ffffffffffffffffffffffffffffffffffffffff1673ffffffffffffffffffffffffffffffffffffffff16600080838152602001908152602001600020600b0160009054906101000a900473ffffffffffffffffffffffffffffffffffffffff1673ffffffffffffffffffffffffffffffffffffffff1603610f0a57807fa11145e24e3c0a8f6586af5688ff25ef2fdd2a8143412c2cbb0044c0db72803c60008084815260200190815260200160002060000160009054906101000a900473ffffffffffffffffffffffffffffffffffffffff1660008085815260200190815260200160002060010160009054906101000a900473ffffffffffffffffffffffffffffffffffffffff16604051610f01929190612c2a565b60405180910390a25b5b5b50565b60008211610f52576040517f9a9be8fa000000000000000000000000000000000000000000000000000000008152600401610f4990612acf565b60405180910390fd5b3373ffffffffffffffffffffffffffffffffffffffff1660008084815260200190815260200160002060000160009054906101000a900473ffffffffffffffffffffffffffffffffffffffff1673ffffffffffffffffffffffffffffffffffffffff161415801561102457503373ffffffffffffffffffffffffffffffffffffffff1660008084815260200190815260200160002060010160009054906101000a900473ffffffffffffffffffffffffffffffffffffffff1673ffffffffffffffffffffffffffffffffffffffff1614155b15611064576040517f9a9be8fa00000000000000000000000000000000000000000000000000000000815260040161105b90612b3b565b60405180910390fd5b806110ec57600080600084815260200190815260200160002060010160006101000a81548173ffffffffffffffffffffffffffffffffffffffff021916908373ffffffffffffffffffffffffffffffffffffffff1602179055506001829080600181540180825580915050600190039060005260206000200160009091909190915055611170565b600080838152602001908152602001600020600401543414611143576040517f08c379a000000000000000000000000000000000000000000000000000000000815260040161113a90612c9f565b60405180910390fd5b3460008084815260200190815260200160002060050160008282546111689190612bf6565b925050819055505b817f55329a170c309fdb206036da4397784f0560d2264c68e25316be295379a9eae83360008086815260200190815260200160002060040154846040516111b993929190612cce565b60405180910390a25050565b60008611611208576040517f9a9be8fa0000000000000000000000000000000000000000000000000000000081526004016111ff90612acf565b60405180910390fd5b3373ffffffffffffffffffffffffffffffffffffffff1660008088815260200190815260200160002060000160009054906101000a900473ffffffffffffffffffffffffffffffffffffffff1673ffffffffffffffffffffffffffffffffffffffff16141580156112da57503373ffffffffffffffffffffffffffffffffffffffff1660008088815260200190815260200160002060010160009054906101000a900473ffffffffffffffffffffffffffffffffffffffff1673ffffffffffffffffffffffffffffffffffffffff1614155b1561131a576040517f9a9be8fa00000000000000000000000000000000000000000000000000000000815260040161131190612b3b565b60405180910390fd5b60008060008089815260200190815260200160002060000160009054906101000a900473ffffffffffffffffffffffffffffffffffffffff1673ffffffffffffffffffffffffffffffffffffffff163373ffffffffffffffffffffffffffffffffffffffff16036113da5760008089815260200190815260200160002060010160009054906101000a900473ffffffffffffffffffffffffffffffffffffffff16915060008089815260200190815260200160002060060154905061142b565b60008089815260200190815260200160002060000160009054906101000a900473ffffffffffffffffffffffffffffffffffffffff1691506000808981526020019081526020016000206007015490505b60008490506000876000808c8152602001908152602001600020600201548a6114549190612d05565b61145e9190612bf6565b905060005b855181101561153257600060028361147b9190612d76565b036114ca578286828151811061149457611493612da7565b5b60200260200101516040516020016114ad929190612df7565b604051602081830303815290604052805190602001209250611510565b8581815181106114dd576114dc612da7565b5b6020026020010151836040516020016114f7929190612df7565b6040516020818303038152906040528051906020012092505b60028261151d9190612e23565b9150808061152a90612e54565b915050611463565b5060008284036116a7576000808c815260200190815260200160002060000160009054906101000a900473ffffffffffffffffffffffffffffffffffffffff1673ffffffffffffffffffffffffffffffffffffffff163373ffffffffffffffffffffffffffffffffffffffff160361160557600188036115e85760016000808d8152602001908152602001600020600901546115ce9190612e9c565b6000808d8152602001908152602001600020600901819055505b6000808c8152602001908152602001600020600901549050611662565b600188036116495760016000808d81526020019081526020016000206008015461162f9190612e9c565b6000808d8152602001908152602001600020600801819055505b6000808c81526020019081526020016000206008015490505b8a7f682729007816d548060438637183b635ada59e9f6892be5bc9bc6043b9a35919868c8c8c8660405161169a959493929190612ed0565b60405180910390a261174a565b8a7f470cc86631700e08c11a6d20ecd69bb482a129f5071a1057455be0c10be26866863360006040516116dc93929190612f5e565b60405180910390a28473ffffffffffffffffffffffffffffffffffffffff166108fc6000808e8152602001908152602001600020600501549081150290604051600060405180830381858888f1935050505015801561173f573d6000803e3d6000fd5b5050505050506117f2565b600081116117ec578473ffffffffffffffffffffffffffffffffffffffff166108fc6000808e8152602001908152602001600020600501549081150290604051600060405180830381858888f193505050501580156117ad573d6000803e3d6000fd5b508a7f470cc86631700e08c11a6d20ecd69bb482a129f5071a1057455be0c10be26866863360016040516117e393929190612fd0565b60405180910390a25b50505050505b505050505050565b6001818154811061180a57600080fd5b906000526020600020016000915090505481565b60008311158061182f575060008211155b1561186f576040517f9a9be8fa00000000000000000000000000000000000000000000000000000000815260040161186690613079565b60405180910390fd5b8034146118b1576040517f08c379a00000000000000000000000000000000000000000000000000000000081526004016118a890612c9f565b60405180910390fd5b60006118bb61232c565b90506040518061018001604052803373ffffffffffffffffffffffffffffffffffffffff168152602001600073ffffffffffffffffffffffffffffffffffffffff168152602001858152602001848152602001838152602001600081526020016000801b81526020016000801b815260200184815260200184815260200160008152602001600073ffffffffffffffffffffffffffffffffffffffff1681525060008083815260200190815260200160002060008201518160000160006101000a81548173ffffffffffffffffffffffffffffffffffffffff021916908373ffffffffffffffffffffffffffffffffffffffff16021790555060208201518160010160006101000a81548173ffffffffffffffffffffffffffffffffffffffff021916908373ffffffffffffffffffffffffffffffffffffffff16021790555060408201518160020155606082015181600301556080820151816004015560a0820151816005015560c0820151816006015560e082015181600701556101008201518160080155610120820151816009015561014082015181600a015561016082015181600b0160006101000a81548173ffffffffffffffffffffffffffffffffffffffff021916908373ffffffffffffffffffffffffffffffffffffffff1602179055509050506001819080600181540180825580915050600190039060005260206000200160009091909190915055346000808381526020019081526020016000206005016000828254611af19190612bf6565b92505081905550807fbd19c47e9925eb6f7be8bb1c13a841e0240aaeaf17f217e90022e9c8eb66877f60405160405180910390a250505050565b60008311611b6e576040517f9a9be8fa000000000000000000000000000000000000000000000000000000008152600401611b6590612acf565b60405180910390fd5b3373ffffffffffffffffffffffffffffffffffffffff1660008085815260200190815260200160002060000160009054906101000a900473ffffffffffffffffffffffffffffffffffffffff1673ffffffffffffffffffffffffffffffffffffffff1614158015611c4057503373ffffffffffffffffffffffffffffffffffffffff1660008085815260200190815260200160002060010160009054906101000a900473ffffffffffffffffffffffffffffffffffffffff1673ffffffffffffffffffffffffffffffffffffffff1614155b15611c80576040517f9a9be8fa000000000000000000000000000000000000000000000000000000008152600401611c7790612b3b565b60405180910390fd5b600073ffffffffffffffffffffffffffffffffffffffff16600080858152602001908152602001600020600b0160009054906101000a900473ffffffffffffffffffffffffffffffffffffffff1673ffffffffffffffffffffffffffffffffffffffff1614611dc757827f752f14bd3601a325e97334f39b83b533f54b17c23d3f601c9ed2cee72cd404a3600080868152602001908152602001600020600b0160009054906101000a900473ffffffffffffffffffffffffffffffffffffffff16604051611d4e9190613099565b60405180910390a26000806000858152602001908152602001600020600b0160006101000a81548173ffffffffffffffffffffffffffffffffffffffff021916908373ffffffffffffffffffffffffffffffffffffffff1602179055506000806000858152602001908152602001600020600a01819055505b600080600085815260200190815260200160002060000160009054906101000a900473ffffffffffffffffffffffffffffffffffffffff1673ffffffffffffffffffffffffffffffffffffffff163373ffffffffffffffffffffffffffffffffffffffff1603611e6e5760008085815260200190815260200160002060010160009054906101000a900473ffffffffffffffffffffffffffffffffffffffff169050611ea7565b60008085815260200190815260200160002060000160009054906101000a900473ffffffffffffffffffffffffffffffffffffffff1690505b837fa16c812880cd48fb28e27eb04ace25edead556e67c396ab7d2a93674adf55b43828585604051611edb939291906130b4565b60405180910390a250505050565b60006020528060005260406000206000915090508060000160009054906101000a900473ffffffffffffffffffffffffffffffffffffffff16908060010160009054906101000a900473ffffffffffffffffffffffffffffffffffffffff169080600201549080600301549080600401549080600501549080600601549080600701549080600801549080600901549080600a01549080600b0160009054906101000a900473ffffffffffffffffffffffffffffffffffffffff1690508c565b60025481565b600180805490501015611ff7576040517f9a9be8fa000000000000000000000000000000000000000000000000000000008152600401611fee90613137565b60405180910390fd5b600080820361200f5761200861234a565b9050612061565b819050600061201d8261239d565b90508061205f576040517f9a9be8fa000000000000000000000000000000000000000000000000000000008152600401612056906131a3565b60405180910390fd5b505b600081116120a4576040517f9a9be8fa00000000000000000000000000000000000000000000000000000000815260040161209b9061320f565b60405180910390fd5b600073ffffffffffffffffffffffffffffffffffffffff1660008083815260200190815260200160002060010160009054906101000a900473ffffffffffffffffffffffffffffffffffffffff1673ffffffffffffffffffffffffffffffffffffffff1614612148576040517f9a9be8fa00000000000000000000000000000000000000000000000000000000815260040161213f9061327b565b60405180910390fd5b3373ffffffffffffffffffffffffffffffffffffffff1660008083815260200190815260200160002060000160009054906101000a900473ffffffffffffffffffffffffffffffffffffffff1673ffffffffffffffffffffffffffffffffffffffff16036121eb576040517f9a9be8fa0000000000000000000000000000000000000000000000000000000081526004016121e29061330d565b60405180910390fd5b3360008083815260200190815260200160002060010160006101000a81548173ffffffffffffffffffffffffffffffffffffffff021916908373ffffffffffffffffffffffffffffffffffffffff160217905550807f66bacdfb07a49afa060b23ca1e16974d1919771fff2fd57717ab8857b0673b3460008084815260200190815260200160002060000160009054906101000a900473ffffffffffffffffffffffffffffffffffffffff1660008085815260200190815260200160002060010160009054906101000a900473ffffffffffffffffffffffffffffffffffffffff1660008086815260200190815260200160002060020154600080878152602001908152602001600020600301546000808881526020019081526020016000206004015460405161232095949392919061332d565b60405180910390a25050565b60006002600081548092919061234190612e54565b91905055905090565b60008060018054905003612361576000905061239a565b60016123716001805490506124c8565b8154811061238257612381612da7565b5b906000526020600020015490506123988161239d565b505b90565b6000806000805b6001805490508110156123f55784600182815481106123c6576123c5612da7565b5b9060005260206000200154036123e257809250600191506123f5565b80806123ed90612e54565b9150506123a4565b5080158061240857506001805490508210155b156124175780925050506124c3565b60008290505b6001808054905061242e9190612e9c565b81101561249457600180826124439190612bf6565b8154811061245457612453612da7565b5b90600052602060002001546001828154811061247357612472612da7565b5b9060005260206000200181905550808061248c90612e54565b91505061241d565b5060018054806124a7576124a6613380565b5b6001900381819060005260206000200160009055905580925050505b919050565b60008142336040516020016124de929190613418565b6040516020818303038152906040528051906020012060001c6125019190612d76565b9050919050565b6000604051905090565b600080fd5b600080fd5b6000819050919050565b61252f8161251c565b811461253a57600080fd5b50565b60008135905061254c81612526565b92915050565b60006020828403121561256857612567612512565b5b60006125768482850161253d565b91505092915050565b6000819050919050565b6125928161257f565b811461259d57600080fd5b50565b6000813590506125af81612589565b92915050565b600080604083850312156125cc576125cb612512565b5b60006125da8582860161253d565b92505060206125eb858286016125a0565b9150509250929050565b60008115159050919050565b61260a816125f5565b811461261557600080fd5b50565b60008135905061262781612601565b92915050565b6000806040838503121561264457612643612512565b5b60006126528582860161253d565b925050602061266385828601612618565b9150509250929050565b600080fd5b6000601f19601f8301169050919050565b7f4e487b7100000000000000000000000000000000000000000000000000000000600052604160045260246000fd5b6126bb82612672565b810181811067ffffffffffffffff821117156126da576126d9612683565b5b80604052505050565b60006126ed612508565b90506126f982826126b2565b919050565b600067ffffffffffffffff82111561271957612718612683565b5b602082029050602081019050919050565b600080fd5b600061274261273d846126fe565b6126e3565b905080838252602082019050602084028301858111156127655761276461272a565b5b835b8181101561278e578061277a88826125a0565b845260208401935050602081019050612767565b5050509392505050565b600082601f8301126127ad576127ac61266d565b5b81356127bd84826020860161272f565b91505092915050565b60008060008060008060c087890312156127e3576127e2612512565b5b60006127f189828a0161253d565b965050602061280289828a0161253d565b955050604061281389828a0161253d565b945050606061282489828a0161253d565b935050608061283589828a016125a0565b92505060a087013567ffffffffffffffff81111561285657612855612517565b5b61286289828a01612798565b9150509295509295509295565b6128788161251c565b82525050565b6000602082019050612893600083018461286f565b92915050565b6000806000606084860312156128b2576128b1612512565b5b60006128c08682870161253d565b93505060206128d18682870161253d565b92505060406128e28682870161253d565b9150509250925092565b600073ffffffffffffffffffffffffffffffffffffffff82169050919050565b6000612917826128ec565b9050919050565b6129278161290c565b82525050565b6129368161257f565b82525050565b600061018082019050612952600083018f61291e565b61295f602083018e61291e565b61296c604083018d61286f565b612979606083018c61286f565b612986608083018b61286f565b61299360a083018a61286f565b6129a060c083018961292d565b6129ad60e083018861292d565b6129bb61010083018761286f565b6129c961012083018661286f565b6129d761014083018561286f565b6129e561016083018461291e565b9d9c50505050505050505050505050565b6000819050919050565b6000819050919050565b6000612a25612a20612a1b846129f6565b612a00565b61251c565b9050919050565b612a3581612a0a565b82525050565b6000606082019050612a50600083018661291e565b612a5d602083018561291e565b612a6a6040830184612a2c565b949350505050565b600082825260208201905092915050565b7f47616d65206964206973206e6567617469766521000000000000000000000000600082015250565b6000612ab9601483612a72565b9150612ac482612a83565b602082019050919050565b60006020820190508181036000830152612ae881612aac565b9050919050565b7f506c61796572206e6f7420696e20746861742067616d65210000000000000000600082015250565b6000612b25601883612a72565b9150612b3082612aef565b602082019050919050565b60006020820190508181036000830152612b5481612b18565b9050919050565b7f426f61726420616c7265616479207375626d6974746564210000000000000000600082015250565b6000612b91601883612a72565b9150612b9c82612b5b565b602082019050919050565b60006020820190508181036000830152612bc081612b84565b9050919050565b7f4e487b7100000000000000000000000000000000000000000000000000000000600052601160045260246000fd5b6000612c018261251c565b9150612c0c8361251c565b9250828201905080821115612c2457612c23612bc7565b5b92915050565b6000604082019050612c3f600083018561291e565b612c4c602083018461291e565b9392505050565b7f45544820616d6f756e74206172652077726f6e67210000000000000000000000600082015250565b6000612c89601583612a72565b9150612c9482612c53565b602082019050919050565b60006020820190508181036000830152612cb881612c7c565b9050919050565b612cc8816125f5565b82525050565b6000606082019050612ce3600083018661291e565b612cf0602083018561286f565b612cfd6040830184612cbf565b949350505050565b6000612d108261251c565b9150612d1b8361251c565b9250828202612d298161251c565b91508282048414831517612d4057612d3f612bc7565b5b5092915050565b7f4e487b7100000000000000000000000000000000000000000000000000000000600052601260045260246000fd5b6000612d818261251c565b9150612d8c8361251c565b925082612d9c57612d9b612d47565b5b828206905092915050565b7f4e487b7100000000000000000000000000000000000000000000000000000000600052603260045260246000fd5b6000819050919050565b612df1612dec8261257f565b612dd6565b82525050565b6000612e038285612de0565b602082019150612e138284612de0565b6020820191508190509392505050565b6000612e2e8261251c565b9150612e398361251c565b925082612e4957612e48612d47565b5b828204905092915050565b6000612e5f8261251c565b91507fffffffffffffffffffffffffffffffffffffffffffffffffffffffffffffffff8203612e9157612e90612bc7565b5b600182019050919050565b6000612ea78261251c565b9150612eb28361251c565b9250828203905081811115612eca57612ec9612bc7565b5b92915050565b600060a082019050612ee5600083018861291e565b612ef2602083018761286f565b612eff604083018661286f565b612f0c606083018561286f565b612f19608083018461286f565b9695505050505050565b6000819050919050565b6000612f48612f43612f3e84612f23565b612a00565b61251c565b9050919050565b612f5881612f2d565b82525050565b6000606082019050612f73600083018661291e565b612f80602083018561291e565b612f8d6040830184612f4f565b949350505050565b6000819050919050565b6000612fba612fb5612fb084612f95565b612a00565b61251c565b9050919050565b612fca81612f9f565b82525050565b6000606082019050612fe5600083018661291e565b612ff2602083018561291e565b612fff6040830184612fc1565b949350505050565b7f496e76616c696420626f6172642073697a65206f722073686970206e756d626560008201527f7221000000000000000000000000000000000000000000000000000000000000602082015250565b6000613063602283612a72565b915061306e82613007565b604082019050919050565b6000602082019050818103600083015261309281613056565b9050919050565b60006020820190506130ae600083018461291e565b92915050565b60006060820190506130c9600083018661291e565b6130d6602083018561286f565b6130e3604083018461286f565b949350505050565b7f4e6f206f70656e2067616d657321000000000000000000000000000000000000600082015250565b6000613121600e83612a72565b915061312c826130eb565b602082019050919050565b6000602082019050818103600083015261315081613114565b9050919050565b7f546869732067616d6520646f6573206e6f742065786973742100000000000000600082015250565b600061318d601983612a72565b915061319882613157565b602082019050919050565b600060208201905081810360008301526131bc81613180565b9050919050565b7f43686f73656e206964206e656761746976652100000000000000000000000000600082015250565b60006131f9601383612a72565b9150613204826131c3565b602082019050919050565b60006020820190508181036000830152613228816131ec565b9050919050565b7f47616d6520616c72656164792074616b656e2100000000000000000000000000600082015250565b6000613265601383612a72565b91506132708261322f565b602082019050919050565b6000602082019050818103600083015261329481613258565b9050919050565b7f596f752063616e2774206a6f696e20612067616d65206372656174656420627960008201527f20796f757273656c662100000000000000000000000000000000000000000000602082015250565b60006132f7602a83612a72565b91506133028261329b565b604082019050919050565b60006020820190508181036000830152613326816132ea565b9050919050565b600060a082019050613342600083018861291e565b61334f602083018761291e565b61335c604083018661286f565b613369606083018561286f565b613376608083018461286f565b9695505050505050565b7f4e487b7100000000000000000000000000000000000000000000000000000000600052603160045260246000fd5b6000819050919050565b6133ca6133c58261251c565b6133af565b82525050565b60008160601b9050919050565b60006133e8826133d0565b9050919050565b60006133fa826133dd565b9050919050565b61341261340d8261290c565b6133ef565b82525050565b600061342482856133b9565b6020820191506134348284613401565b601482019150819050939250505056fea264697066735822122046def8c3a12b987653d949a27c8e385027179639781b4a227eb5b47093dd7eed64736f6c63430008130033",
  "immutableReferences": {},
  "source": "// SPDX-License-Identifier: MIT\npragma solidity >=0.4.22 <0.9.0;\n\ncontract BattleShipGame {\n    struct gameInfo {\n        // struct with all the information about a game\n        address creator;\n        address joiner;\n        uint256 boardSize;\n        uint256 shipNum;\n        uint256 ethAmount;\n        uint256 ethBetted;\n        bytes32 creatorMerkleRoot;\n        bytes32 joinerMerkleRoot;\n        uint256 creatorNumShips;\n        uint256 joinerNumShips;\n        uint256 accusationTime;\n        address accuser;\n    }\n\n    mapping(uint256 => gameInfo) public gameList; // map of game's ID (gameId => information of that game)\n    uint256[] public availableGames; // array with all the gameId of the avaible game\n\n    uint256 public gameId = 1; // value of the next gameId\n\n    // error event:\n    error OutputError(string myError);\n\n    // event:\n    event GameCreated(uint256 indexed _gameId);\n\n    event GameJoined(\n        uint256 indexed _gameId,\n        address _creator,\n        address _joiner,\n        uint256 _boardSize,\n        uint256 _shipNum,\n        uint256 _ethAmount\n    );\n\n    event AmountEthResponse(\n        address _sender,\n        uint256 _amount,\n        uint256 indexed _gameId,\n        bool response\n    );\n\n    event ShootShip(\n        uint256 indexed _gameId,\n        address _address,\n        uint256 _row,\n        uint256 _col\n    );\n\n    event ShootResult(\n        uint256 indexed _gameId,\n        address _address,\n        uint256 _row,\n        uint256 _col,\n        uint256 _result,\n        uint256 _shipsRemaining\n    );\n\n    event AccusationTrigger(\n        uint256 indexed _gameId,\n        address _accused,\n        address _accuser\n    );\n\n    event GameEnded(\n        uint256 indexed _gameId,\n        address _winner,\n        address _loser,\n        uint256 _reason\n    );\n\n    event ResolveAccuse(\n        uint256 indexed _gameId,\n        address _accuser\n    );\n\n    constructor() {}\n\n    // function to return the gameId\n    function getId() private returns (uint256 toReturn) {\n        toReturn = gameId++;\n        return toReturn;\n    }\n\n    // function to remove an element of the array availableGames\n    function removeFromArray(uint256 _gameId) private returns (bool) {\n        uint256 index;\n        bool find = false;\n\n        // loop through the avaible game until find the index of the chosen one\n        for (uint i = 0; i < availableGames.length; i++) {\n            if (availableGames[i] == _gameId) {\n                index = i;\n                find = true;\n                break;\n            }\n        }\n\n        if (!find || index >= availableGames.length) {\n            return find;\n        }\n\n        for (uint i = index; i < availableGames.length - 1; i++) {\n            // move manually all the element\n            availableGames[i] = availableGames[i + 1];\n        }\n        \n        availableGames.pop(); // remove the last element\n        \n        return find;\n    }\n\n    function getRandomNumber(uint256 bound) private view returns (uint256) {\n        return\n            uint256(keccak256(abi.encodePacked(block.timestamp, msg.sender))) %\n            bound;\n    }\n\n    // function to get the gameId of an avaible game\n    function randomGame() private returns (uint256 randGameId) {\n        if (availableGames.length == 0) {\n            return 0;\n        }\n\n        randGameId = availableGames[getRandomNumber(availableGames.length)];\n        removeFromArray(randGameId);\n        return randGameId;\n    }\n\n    // GAS EVALUATION:\n    //  with boardSize=4, shipNum=3, ethAmount=2:\n    //    - Gas used: 222881\n    //    - Total Price: 0.00033432 ETH\n    //\n    function createGame(\n        // function to create a new game\n        uint256 _boardSize,\n        uint256 _shipNum,\n        uint256 _ethAmount\n    ) public payable {\n        // create a new game\n\n        // Check if the board size and ship number are valid\n        if (_boardSize <= 0 || _shipNum <= 0) {\n            revert OutputError(\"Invalid board size or ship number!\");\n        }\n\n        require(msg.value == _ethAmount, \"ETH amount are wrong!\");\n\n        uint256 newGameId = getId();\n\n        gameList[newGameId] = gameInfo(\n            msg.sender,\n            address(0),\n            _boardSize,\n            _shipNum,\n            _ethAmount,\n            0,\n            0,\n            0,\n            _shipNum,\n            _shipNum,\n            0,\n            address(0)\n        );\n        availableGames.push(newGameId);\n\n        gameList[newGameId].ethBetted += msg.value;\n\n        emit GameCreated(newGameId);\n    }\n\n    // GAS EVALUATION:\n    //  - specificGame:\n    //    - Gas used: 68143\n    //    - Total Price: 0.00010221 ETH\n    //\n    //  - randomGame:\n    //    - Gas used: 61738\n    //    - Total Price: 0.00009261 ETH \n    function joinGame(uint256 _gameId) public {\n        // function to join a game\n        // check if there are avaible game\n        if (availableGames.length < 1) {\n            revert OutputError(\"No open games!\");\n        }\n\n        uint256 chosenGameId;\n\n        if (_gameId == 0) {\n            //random game choice\n            chosenGameId = randomGame();\n        } else {\n            //specific game\n            chosenGameId = _gameId;\n            bool find = removeFromArray(chosenGameId);\n\n            if (!find) {\n                revert OutputError(\"This game does not exist!\");\n            }\n        }\n\n        if (chosenGameId <= 0) {\n            revert OutputError(\"Chosen id negative!\");\n        }\n\n        if (gameList[chosenGameId].joiner != address(0)) {\n            revert OutputError(\"Game already taken!\");\n        }\n\n        if (gameList[chosenGameId].creator == msg.sender) {\n            revert OutputError(\"You can't join a game created by yourself!\");\n        }\n\n        gameList[chosenGameId].joiner = msg.sender;\n\n        emit GameJoined(\n            chosenGameId,\n            gameList[chosenGameId].creator,\n            gameList[chosenGameId].joiner,\n            gameList[chosenGameId].boardSize,\n            gameList[chosenGameId].shipNum,\n            gameList[chosenGameId].ethAmount\n        );\n    }\n\n    // GAS EVALUATION:\n    //  - positive response:\n    //    - Gas used: 36545\n    //    - Total Price: 0.00005482 ETH\n    //\n    function amountEthDecision(uint256 _gameId, bool _response) public payable {\n        // function to accept or refuse the eth amount\n\n        // Check if the game ID is valid\n        if (_gameId <= 0) {\n            revert OutputError(\"Game id is negative!\");\n        }\n\n        // Check if the sender is either the creator or the joiner of the game\n        if (\n            gameList[_gameId].creator != msg.sender &&\n            gameList[_gameId].joiner != msg.sender\n        ) {\n            revert OutputError(\"Player not in that game!\");\n        }\n\n        if (!_response) {\n            // refuse response\n            gameList[_gameId].joiner = address(0);\n            availableGames.push(_gameId);\n        } else {\n            require(\n                msg.value == gameList[_gameId].ethAmount,\n                \"ETH amount are wrong!\"\n            );\n\n            gameList[_gameId].ethBetted += msg.value;\n        }\n\n        emit AmountEthResponse(\n            msg.sender,\n            gameList[_gameId].ethAmount,\n            _gameId,\n            _response\n        );\n    }\n\n    // GAS EVALUATION:\n    //    - Gas used: 49767 - 50255\n    //    - Total Price: 0.00007465 - 0.00007538 ETH\n    //\n    function submitBoard(uint256 _gameId, bytes32 _merkleRoot) public {\n        // function to submit the board\n\n        // Check if the game ID is valid\n        if (_gameId <= 0) {\n            revert OutputError(\"Game id is negative!\");\n        }\n\n        // Check if the sender is either the creator or the joiner of the game\n        if (\n            gameList[_gameId].creator != msg.sender &&\n            gameList[_gameId].joiner != msg.sender\n        ) {\n            revert OutputError(\"Player not in that game!\");\n        }\n\n        // Check if the board is not already submitted\n        if (\n            (gameList[_gameId].creator == msg.sender &&\n                gameList[_gameId].creatorMerkleRoot != 0) ||\n            (gameList[_gameId].joiner == msg.sender &&\n                gameList[_gameId].joinerMerkleRoot != 0)\n        ) {\n            revert OutputError(\"Board already submitted!\");\n        }\n\n        if (gameList[_gameId].creator == msg.sender) {\n            gameList[_gameId].creatorMerkleRoot = _merkleRoot;\n        } else if (gameList[_gameId].joiner == msg.sender) {\n            gameList[_gameId].joinerMerkleRoot = _merkleRoot;\n        } else {\n            revert OutputError(\"Player not in that game!\");\n        }\n    }\n\n    // GAS EVALUATION:\n    //    - Gas used: 31670\n    //    - Total Price: 0.0000475 ETH\n    //\n    function shoot(uint256 _gameId, uint256 _row, uint256 _col) public {\n        // function to communicate the coordinates of the fired cell\n\n        // Check if the game ID is valid\n        if (_gameId <= 0) {\n            revert OutputError(\"Game id is negative!\");\n        }\n\n        // Check if the sender is either the creator or the joiner of the game\n        if (\n            gameList[_gameId].creator != msg.sender &&\n            gameList[_gameId].joiner != msg.sender\n        ) {\n            revert OutputError(\"Player not in that game!\");\n        }\n\n        if(gameList[_gameId].accuser != address(0)){\n            emit ResolveAccuse(_gameId, gameList[_gameId].accuser);\n            gameList[_gameId].accuser = address(0);\n            gameList[_gameId].accusationTime = 0;\n        }\n        \n        // take the opponent address for comunicate who was shot\n        address opponentAddress;\n        if (msg.sender == gameList[_gameId].creator) {\n            opponentAddress = gameList[_gameId].joiner;\n        } else {\n            opponentAddress = gameList[_gameId].creator;\n        }\n\n        emit ShootShip(_gameId, opponentAddress, _row, _col);\n    }\n\n    // GAS EVALUATION:\n    //    - Gas used: 47020\n    //    - Total Price: 0.00007053 ETH\n    //\n    function shootResult(\n        uint256 _gameId,\n        uint256 _row,\n        uint256 _col,\n        uint256 _result,\n        bytes32 _hash,\n        bytes32[] memory _merkleProof\n    ) public payable {\n        // function to comunicate the result of the shot\n\n        // Check if the game ID is valid\n        if (_gameId <= 0) {\n            revert OutputError(\"Game id is negative!\");\n        }\n\n        // Check if the sender is either the creator or the joiner of the game\n        if (\n            gameList[_gameId].creator != msg.sender &&\n            gameList[_gameId].joiner != msg.sender\n        ) {\n            revert OutputError(\"Player not in that game!\");\n        }\n\n        // take the opponent address for comunicate who fired the shot\n        address opponentAddress;\n        bytes32 merkleRoot;\n        if (msg.sender == gameList[_gameId].creator) {\n            opponentAddress = gameList[_gameId].joiner;\n            merkleRoot = gameList[_gameId].creatorMerkleRoot;\n        } else {\n            opponentAddress = gameList[_gameId].creator;\n            merkleRoot = gameList[_gameId].joinerMerkleRoot;\n        }\n\n        bytes32 hashValue = _hash;\n\n        uint256 index = _row * gameList[_gameId].boardSize + _col;\n        for (uint i = 0; i < _merkleProof.length; i++) {\n            if (index % 2 == 0) {\n                hashValue = keccak256(\n                    abi.encodePacked(hashValue, _merkleProof[i])\n                );\n            } else {\n                hashValue = keccak256(\n                    abi.encodePacked(_merkleProof[i], hashValue)\n                );\n            }\n\n            index = index / 2;\n        }\n\n        uint256 shipsRemaining;\n        if (merkleRoot == hashValue) {\n            // validated shoot\n            if (msg.sender == gameList[_gameId].creator) {\n                if (_result == 1) {\n                    gameList[_gameId].joinerNumShips =\n                        gameList[_gameId].joinerNumShips -\n                        1;\n                }\n                shipsRemaining = gameList[_gameId].joinerNumShips;\n            } else {\n                if (_result == 1) {\n                    gameList[_gameId].creatorNumShips =\n                        gameList[_gameId].creatorNumShips -\n                        1;\n                }\n                shipsRemaining = gameList[_gameId].creatorNumShips;\n            }\n\n            emit ShootResult(\n                _gameId,\n                opponentAddress,\n                _row,\n                _col,\n                _result,\n                shipsRemaining\n            );\n        } else {\n            // invlidated shoot\n            emit GameEnded(_gameId, opponentAddress, msg.sender, 0);\n            payable(opponentAddress).transfer(gameList[_gameId].ethBetted);\n            return;\n        }\n\n        if (shipsRemaining <= 0) {\n            payable(opponentAddress).transfer(gameList[_gameId].ethBetted);\n\n            emit GameEnded(_gameId, opponentAddress, msg.sender, 1);\n        }\n    }\n\n    // GAS EVALUATION:\n    //    - Gas used: 73799\n    //    - Total Price: 0.0001107 ETH\n    //\n    function accuseOpponent(uint256 _gameId) public payable {\n        // function to accuse the opponent of having left\n\n        // Check if the game ID is valid\n        if (_gameId <= 0) {\n            revert OutputError(\"Game id is negative!\");\n        }\n\n        // Check if the sender is either the creator or the joiner of the game\n        if (\n            gameList[_gameId].creator != msg.sender &&\n            gameList[_gameId].joiner != msg.sender\n        ) {\n            revert OutputError(\"Player not in that game!\");\n        }\n\n        if (gameList[_gameId].accuser == address(0)) {\n            gameList[_gameId].accuser = msg.sender;\n            gameList[_gameId].accusationTime = block.number + 5;\n\n            if (gameList[_gameId].accuser == gameList[_gameId].creator) {\n                emit AccusationTrigger(\n                    _gameId,\n                    gameList[_gameId].joiner,\n                    gameList[_gameId].creator\n                );\n            } else if (gameList[_gameId].accuser == gameList[_gameId].joiner) {\n                emit AccusationTrigger(\n                    _gameId,\n                    gameList[_gameId].creator,\n                    gameList[_gameId].joiner\n                );\n            }\n        }\n    }\n\n    // GAS EVALUATION:\n    //    - Gas used: 28303\n    //    - Total Price: 0.00004245 ETH\n    //\n    function verifyAccuse(uint256 _gameId) public payable {\n        if (gameList[_gameId].accuser == gameList[_gameId].creator) {\n            if (gameList[_gameId].accusationTime <= block.number) {\n                payable(gameList[_gameId].accuser).transfer(\n                    gameList[_gameId].ethBetted\n                );\n\n                emit GameEnded(\n                    _gameId,\n                    gameList[_gameId].accuser,\n                    gameList[_gameId].joiner,\n                    2\n                );\n            }\n        } else if (gameList[_gameId].accuser == gameList[_gameId].joiner) {\n            if (gameList[_gameId].accusationTime <= block.number) {\n                payable(gameList[_gameId].accuser).transfer(\n                    gameList[_gameId].ethBetted\n                );\n\n                emit GameEnded(\n                    _gameId,\n                    gameList[_gameId].accuser,\n                    gameList[_gameId].creator,\n                    2\n                );\n            }\n        } else {\n            return;\n        }\n    }\n}\n",
  "sourcePath": "/mnt/storage/Magistrale/P2PB/ProgettoP2P/P2P_Project/contracts/BattleShipGame.sol",
  "compiler": {
    "name": "solc",
    "version": "0.8.19+commit.7dd6d404.Emscripten.clang"
  },
  "schemaVersion": "3.4.13",
  "updatedAt": "2023-07-22T17:20:24.084Z",
  "networkType": "ethereum",
  "devdoc": {
    "kind": "dev",
    "methods": {},
    "version": 1
  },
  "userdoc": {
    "kind": "user",
    "methods": {},
    "version": 1
  }
}