{
  "contractName": "BattleShipGame",
  "abi": [
    {
      "inputs": [],
      "stateMutability": "nonpayable",
      "type": "constructor"
    },
    {
      "inputs": [
        {
          "internalType": "string",
          "name": "myError",
          "type": "string"
        }
      ],
      "name": "OutputError",
      "type": "error"
    },
    {
      "anonymous": false,
      "inputs": [
        {
          "indexed": true,
          "internalType": "uint256",
          "name": "_gameId",
          "type": "uint256"
        },
        {
          "indexed": false,
          "internalType": "address",
          "name": "_accused",
          "type": "address"
        },
        {
          "indexed": false,
          "internalType": "address",
          "name": "_accuser",
          "type": "address"
        }
      ],
      "name": "AccusationTrigger",
      "type": "event"
    },
    {
      "anonymous": false,
      "inputs": [
        {
          "indexed": false,
          "internalType": "address",
          "name": "_sender",
          "type": "address"
        },
        {
          "indexed": false,
          "internalType": "uint256",
          "name": "_amount",
          "type": "uint256"
        },
        {
          "indexed": true,
          "internalType": "uint256",
          "name": "_gameId",
          "type": "uint256"
        },
        {
          "indexed": false,
          "internalType": "bool",
          "name": "response",
          "type": "bool"
        }
      ],
      "name": "AmountEthResponse",
      "type": "event"
    },
    {
      "anonymous": false,
      "inputs": [
        {
          "indexed": true,
          "internalType": "uint256",
          "name": "_gameId",
          "type": "uint256"
        }
      ],
      "name": "GameCreated",
      "type": "event"
    },
    {
      "anonymous": false,
      "inputs": [
        {
          "indexed": true,
          "internalType": "uint256",
          "name": "_gameId",
          "type": "uint256"
        },
        {
          "indexed": false,
          "internalType": "address",
          "name": "_winner",
          "type": "address"
        },
        {
          "indexed": false,
          "internalType": "address",
          "name": "_loser",
          "type": "address"
        },
        {
          "indexed": false,
          "internalType": "uint256",
          "name": "_reason",
          "type": "uint256"
        }
      ],
      "name": "GameEnded",
      "type": "event"
    },
    {
      "anonymous": false,
      "inputs": [
        {
          "indexed": true,
          "internalType": "uint256",
          "name": "_gameId",
          "type": "uint256"
        },
        {
          "indexed": false,
          "internalType": "address",
          "name": "_creator",
          "type": "address"
        },
        {
          "indexed": false,
          "internalType": "address",
          "name": "_joiner",
          "type": "address"
        },
        {
          "indexed": false,
          "internalType": "uint256",
          "name": "_boardSize",
          "type": "uint256"
        },
        {
          "indexed": false,
          "internalType": "uint256",
          "name": "_shipNum",
          "type": "uint256"
        },
        {
          "indexed": false,
          "internalType": "uint256",
          "name": "_ethAmount",
          "type": "uint256"
        }
      ],
      "name": "GameJoined",
      "type": "event"
    },
    {
      "anonymous": false,
      "inputs": [
        {
          "indexed": true,
          "internalType": "uint256",
          "name": "_gameId",
          "type": "uint256"
        },
        {
          "indexed": false,
          "internalType": "address",
          "name": "_accuser",
          "type": "address"
        }
      ],
      "name": "ResolveAccuse",
      "type": "event"
    },
    {
      "anonymous": false,
      "inputs": [
        {
          "indexed": true,
          "internalType": "uint256",
          "name": "_gameId",
          "type": "uint256"
        },
        {
          "indexed": false,
          "internalType": "address",
          "name": "_address",
          "type": "address"
        },
        {
          "indexed": false,
          "internalType": "uint256",
          "name": "_row",
          "type": "uint256"
        },
        {
          "indexed": false,
          "internalType": "uint256",
          "name": "_col",
          "type": "uint256"
        },
        {
          "indexed": false,
          "internalType": "uint256",
          "name": "_result",
          "type": "uint256"
        },
        {
          "indexed": false,
          "internalType": "uint256",
          "name": "_shipsRemaining",
          "type": "uint256"
        }
      ],
      "name": "ShootResult",
      "type": "event"
    },
    {
      "anonymous": false,
      "inputs": [
        {
          "indexed": true,
          "internalType": "uint256",
          "name": "_gameId",
          "type": "uint256"
        },
        {
          "indexed": false,
          "internalType": "address",
          "name": "_address",
          "type": "address"
        },
        {
          "indexed": false,
          "internalType": "uint256",
          "name": "_row",
          "type": "uint256"
        },
        {
          "indexed": false,
          "internalType": "uint256",
          "name": "_col",
          "type": "uint256"
        }
      ],
      "name": "ShootShip",
      "type": "event"
    },
    {
      "inputs": [
        {
          "internalType": "uint256",
          "name": "",
          "type": "uint256"
        }
      ],
      "name": "availableGames",
      "outputs": [
        {
          "internalType": "uint256",
          "name": "",
          "type": "uint256"
        }
      ],
      "stateMutability": "view",
      "type": "function",
      "constant": true
    },
    {
      "inputs": [],
      "name": "gameId",
      "outputs": [
        {
          "internalType": "uint256",
          "name": "",
          "type": "uint256"
        }
      ],
      "stateMutability": "view",
      "type": "function",
      "constant": true
    },
    {
      "inputs": [
        {
          "internalType": "uint256",
          "name": "",
          "type": "uint256"
        }
      ],
      "name": "gameList",
      "outputs": [
        {
          "internalType": "address",
          "name": "creator",
          "type": "address"
        },
        {
          "internalType": "address",
          "name": "joiner",
          "type": "address"
        },
        {
          "internalType": "uint256",
          "name": "boardSize",
          "type": "uint256"
        },
        {
          "internalType": "uint256",
          "name": "shipNum",
          "type": "uint256"
        },
        {
          "internalType": "uint256",
          "name": "ethAmount",
          "type": "uint256"
        },
        {
          "internalType": "uint256",
          "name": "ethBetted",
          "type": "uint256"
        },
        {
          "internalType": "bytes32",
          "name": "creatorMerkleRoot",
          "type": "bytes32"
        },
        {
          "internalType": "bytes32",
          "name": "joinerMerkleRoot",
          "type": "bytes32"
        },
        {
          "internalType": "uint256",
          "name": "creatorNumShips",
          "type": "uint256"
        },
        {
          "internalType": "uint256",
          "name": "joinerNumShips",
          "type": "uint256"
        },
        {
          "internalType": "uint256",
          "name": "accusationTime",
          "type": "uint256"
        },
        {
          "internalType": "address",
          "name": "accuser",
          "type": "address"
        }
      ],
      "stateMutability": "view",
      "type": "function",
      "constant": true
    },
    {
      "inputs": [],
      "name": "getId",
      "outputs": [
        {
          "internalType": "uint256",
          "name": "toReturn",
          "type": "uint256"
        }
      ],
      "stateMutability": "nonpayable",
      "type": "function"
    },
    {
      "inputs": [
        {
          "internalType": "uint256",
          "name": "_gameId",
          "type": "uint256"
        }
      ],
      "name": "removeFromArray",
      "outputs": [
        {
          "internalType": "bool",
          "name": "",
          "type": "bool"
        }
      ],
      "stateMutability": "nonpayable",
      "type": "function"
    },
    {
      "inputs": [],
      "name": "randomGame",
      "outputs": [
        {
          "internalType": "uint256",
          "name": "randGameId",
          "type": "uint256"
        }
      ],
      "stateMutability": "nonpayable",
      "type": "function"
    },
    {
      "inputs": [
        {
          "internalType": "uint256",
          "name": "_boardSize",
          "type": "uint256"
        },
        {
          "internalType": "uint256",
          "name": "_shipNum",
          "type": "uint256"
        },
        {
          "internalType": "uint256",
          "name": "_ethAmount",
          "type": "uint256"
        }
      ],
      "name": "createGame",
      "outputs": [],
      "stateMutability": "payable",
      "type": "function",
      "payable": true
    },
    {
      "inputs": [
        {
          "internalType": "uint256",
          "name": "_gameId",
          "type": "uint256"
        }
      ],
      "name": "joinGame",
      "outputs": [],
      "stateMutability": "nonpayable",
      "type": "function"
    },
    {
      "inputs": [
        {
          "internalType": "uint256",
          "name": "_gameId",
          "type": "uint256"
        },
        {
          "internalType": "bool",
          "name": "_response",
          "type": "bool"
        }
      ],
      "name": "amountEthDecision",
      "outputs": [],
      "stateMutability": "payable",
      "type": "function",
      "payable": true
    },
    {
      "inputs": [
        {
          "internalType": "uint256",
          "name": "_gameId",
          "type": "uint256"
        },
        {
          "internalType": "bytes32",
          "name": "_merkleRoot",
          "type": "bytes32"
        }
      ],
      "name": "submitBoard",
      "outputs": [],
      "stateMutability": "nonpayable",
      "type": "function"
    },
    {
      "inputs": [
        {
          "internalType": "uint256",
          "name": "_gameId",
          "type": "uint256"
        },
        {
          "internalType": "uint256",
          "name": "_row",
          "type": "uint256"
        },
        {
          "internalType": "uint256",
          "name": "_col",
          "type": "uint256"
        }
      ],
      "name": "shoot",
      "outputs": [],
      "stateMutability": "nonpayable",
      "type": "function"
    },
    {
      "inputs": [
        {
          "internalType": "uint256",
          "name": "_gameId",
          "type": "uint256"
        },
        {
          "internalType": "uint256",
          "name": "_row",
          "type": "uint256"
        },
        {
          "internalType": "uint256",
          "name": "_col",
          "type": "uint256"
        },
        {
          "internalType": "uint256",
          "name": "_result",
          "type": "uint256"
        },
        {
          "internalType": "bytes32",
          "name": "_hash",
          "type": "bytes32"
        },
        {
          "internalType": "bytes32[]",
          "name": "_merkleProof",
          "type": "bytes32[]"
        }
      ],
      "name": "shootResult",
      "outputs": [],
      "stateMutability": "payable",
      "type": "function",
      "payable": true
    },
    {
      "inputs": [
        {
          "internalType": "uint256",
          "name": "_gameId",
          "type": "uint256"
        }
      ],
      "name": "accuseOpponent",
      "outputs": [],
      "stateMutability": "payable",
      "type": "function",
      "payable": true
    },
    {
      "inputs": [
        {
          "internalType": "uint256",
          "name": "_gameId",
          "type": "uint256"
        }
      ],
      "name": "verifyAccuse",
      "outputs": [],
      "stateMutability": "payable",
      "type": "function",
      "payable": true
    }
  ],
  "bytecode": "0x6080604052600160025534801561001557600080fd5b50613543806100256000396000f3fe6080604052600436106100dd5760003560e01c8063c27415211161007f578063d7c81b5511610059578063d7c81b5514610270578063d9ad3ef51461029b578063eb56ea90146102c6578063efaa55a014610303576100dd565b8063c2741521146101e3578063c558b42c146101ff578063c6cfd08e14610228576100dd565b80635d1ca631116100bb5780635d1ca63114610143578063685385f31461016e57806395e1c6fb1461018a5780639966cc83146101a6576100dd565b80630153f922146100e25780630328f6fb146100fe57806320ed105714610127575b600080fd5b6100fc60048036038101906100f7919061262f565b61032c565b005b34801561010a57600080fd5b5061012560048036038101906101209190612692565b610724565b005b610141600480360381019061013c919061262f565b610b1e565b005b34801561014f57600080fd5b50610158610fe3565b60405161016591906126e1565b60405180910390f35b61018860048036038101906101839190612734565b611001565b005b6101a4600480360381019061019f91906128cd565b6112b7565b005b3480156101b257600080fd5b506101cd60048036038101906101c8919061262f565b6118ec565b6040516101da91906126e1565b60405180910390f35b6101fd60048036038101906101f89190612976565b611910565b005b34801561020b57600080fd5b5061022660048036038101906102219190612976565b611c1d565b005b34801561023457600080fd5b5061024f600480360381019061024a919061262f565b611fdb565b6040516102679c9b9a99989796959493929190612a19565b60405180910390f35b34801561027c57600080fd5b5061028561209b565b60405161029291906126e1565b60405180910390f35b3480156102a757600080fd5b506102b06120a1565b6040516102bd91906126e1565b60405180910390f35b3480156102d257600080fd5b506102ed60048036038101906102e8919061262f565b6120f4565b6040516102fa9190612ae2565b60405180910390f35b34801561030f57600080fd5b5061032a6004803603810190610325919061262f565b612228565b005b60008082815260200190815260200160002060000160009054906101000a900473ffffffffffffffffffffffffffffffffffffffff1673ffffffffffffffffffffffffffffffffffffffff16600080838152602001908152602001600020600b0160009054906101000a900473ffffffffffffffffffffffffffffffffffffffff1673ffffffffffffffffffffffffffffffffffffffff16036105235743600080838152602001908152602001600020600a01541161051e57600080828152602001908152602001600020600b0160009054906101000a900473ffffffffffffffffffffffffffffffffffffffff1673ffffffffffffffffffffffffffffffffffffffff166108fc600080848152602001908152602001600020600501549081150290604051600060405180830381858888f19350505050158015610475573d6000803e3d6000fd5b50807f470cc86631700e08c11a6d20ecd69bb482a129f5071a1057455be0c10be26866600080848152602001908152602001600020600b0160009054906101000a900473ffffffffffffffffffffffffffffffffffffffff1660008085815260200190815260200160002060010160009054906101000a900473ffffffffffffffffffffffffffffffffffffffff16600260405161051593929190612b42565b60405180910390a25b610720565b60008082815260200190815260200160002060010160009054906101000a900473ffffffffffffffffffffffffffffffffffffffff1673ffffffffffffffffffffffffffffffffffffffff16600080838152602001908152602001600020600b0160009054906101000a900473ffffffffffffffffffffffffffffffffffffffff1673ffffffffffffffffffffffffffffffffffffffff160361071a5743600080838152602001908152602001600020600a01541161071557600080828152602001908152602001600020600b0160009054906101000a900473ffffffffffffffffffffffffffffffffffffffff1673ffffffffffffffffffffffffffffffffffffffff166108fc600080848152602001908152602001600020600501549081150290604051600060405180830381858888f1935050505015801561066c573d6000803e3d6000fd5b50807f470cc86631700e08c11a6d20ecd69bb482a129f5071a1057455be0c10be26866600080848152602001908152602001600020600b0160009054906101000a900473ffffffffffffffffffffffffffffffffffffffff1660008085815260200190815260200160002060000160009054906101000a900473ffffffffffffffffffffffffffffffffffffffff16600260405161070c93929190612b42565b60405180910390a25b61071f565b610721565b5b5b50565b60008211610767576040517f9a9be8fa00000000000000000000000000000000000000000000000000000000815260040161075e90612bd6565b60405180910390fd5b3373ffffffffffffffffffffffffffffffffffffffff1660008084815260200190815260200160002060000160009054906101000a900473ffffffffffffffffffffffffffffffffffffffff1673ffffffffffffffffffffffffffffffffffffffff161415801561083957503373ffffffffffffffffffffffffffffffffffffffff1660008084815260200190815260200160002060010160009054906101000a900473ffffffffffffffffffffffffffffffffffffffff1673ffffffffffffffffffffffffffffffffffffffff1614155b15610879576040517f9a9be8fa00000000000000000000000000000000000000000000000000000000815260040161087090612c42565b60405180910390fd5b3373ffffffffffffffffffffffffffffffffffffffff1660008084815260200190815260200160002060000160009054906101000a900473ffffffffffffffffffffffffffffffffffffffff1673ffffffffffffffffffffffffffffffffffffffff1614801561090157506000801b6000808481526020019081526020016000206006015414155b8061099057503373ffffffffffffffffffffffffffffffffffffffff1660008084815260200190815260200160002060010160009054906101000a900473ffffffffffffffffffffffffffffffffffffffff1673ffffffffffffffffffffffffffffffffffffffff1614801561098f57506000801b6000808481526020019081526020016000206007015414155b5b156109d0576040517f9a9be8fa0000000000000000000000000000000000000000000000000000000081526004016109c790612cae565b60405180910390fd5b3373ffffffffffffffffffffffffffffffffffffffff1660008084815260200190815260200160002060000160009054906101000a900473ffffffffffffffffffffffffffffffffffffffff1673ffffffffffffffffffffffffffffffffffffffff1603610a57578060008084815260200190815260200160002060060181905550610b1a565b3373ffffffffffffffffffffffffffffffffffffffff1660008084815260200190815260200160002060010160009054906101000a900473ffffffffffffffffffffffffffffffffffffffff1673ffffffffffffffffffffffffffffffffffffffff1603610ade578060008084815260200190815260200160002060070181905550610b19565b6040517f9a9be8fa000000000000000000000000000000000000000000000000000000008152600401610b1090612c42565b60405180910390fd5b5b5050565b60008111610b61576040517f9a9be8fa000000000000000000000000000000000000000000000000000000008152600401610b5890612bd6565b60405180910390fd5b3373ffffffffffffffffffffffffffffffffffffffff1660008083815260200190815260200160002060000160009054906101000a900473ffffffffffffffffffffffffffffffffffffffff1673ffffffffffffffffffffffffffffffffffffffff1614158015610c3357503373ffffffffffffffffffffffffffffffffffffffff1660008083815260200190815260200160002060010160009054906101000a900473ffffffffffffffffffffffffffffffffffffffff1673ffffffffffffffffffffffffffffffffffffffff1614155b15610c73576040517f9a9be8fa000000000000000000000000000000000000000000000000000000008152600401610c6a90612c42565b60405180910390fd5b600073ffffffffffffffffffffffffffffffffffffffff16600080838152602001908152602001600020600b0160009054906101000a900473ffffffffffffffffffffffffffffffffffffffff1673ffffffffffffffffffffffffffffffffffffffff1603610fe05733600080838152602001908152602001600020600b0160006101000a81548173ffffffffffffffffffffffffffffffffffffffff021916908373ffffffffffffffffffffffffffffffffffffffff160217905550600543610d3d9190612cfd565b600080838152602001908152602001600020600a018190555060008082815260200190815260200160002060000160009054906101000a900473ffffffffffffffffffffffffffffffffffffffff1673ffffffffffffffffffffffffffffffffffffffff16600080838152602001908152602001600020600b0160009054906101000a900473ffffffffffffffffffffffffffffffffffffffff1673ffffffffffffffffffffffffffffffffffffffff1603610e9c57807fa11145e24e3c0a8f6586af5688ff25ef2fdd2a8143412c2cbb0044c0db72803c60008084815260200190815260200160002060010160009054906101000a900473ffffffffffffffffffffffffffffffffffffffff1660008085815260200190815260200160002060000160009054906101000a900473ffffffffffffffffffffffffffffffffffffffff16604051610e8f929190612d31565b60405180910390a2610fdf565b60008082815260200190815260200160002060010160009054906101000a900473ffffffffffffffffffffffffffffffffffffffff1673ffffffffffffffffffffffffffffffffffffffff16600080838152602001908152602001600020600b0160009054906101000a900473ffffffffffffffffffffffffffffffffffffffff1673ffffffffffffffffffffffffffffffffffffffff1603610fde57807fa11145e24e3c0a8f6586af5688ff25ef2fdd2a8143412c2cbb0044c0db72803c60008084815260200190815260200160002060000160009054906101000a900473ffffffffffffffffffffffffffffffffffffffff1660008085815260200190815260200160002060010160009054906101000a900473ffffffffffffffffffffffffffffffffffffffff16604051610fd5929190612d31565b60405180910390a25b5b5b50565b600060026000815480929190610ff890612d5a565b91905055905090565b60008211611044576040517f9a9be8fa00000000000000000000000000000000000000000000000000000000815260040161103b90612bd6565b60405180910390fd5b3373ffffffffffffffffffffffffffffffffffffffff1660008084815260200190815260200160002060000160009054906101000a900473ffffffffffffffffffffffffffffffffffffffff1673ffffffffffffffffffffffffffffffffffffffff161415801561111657503373ffffffffffffffffffffffffffffffffffffffff1660008084815260200190815260200160002060010160009054906101000a900473ffffffffffffffffffffffffffffffffffffffff1673ffffffffffffffffffffffffffffffffffffffff1614155b15611156576040517f9a9be8fa00000000000000000000000000000000000000000000000000000000815260040161114d90612c42565b60405180910390fd5b806111de57600080600084815260200190815260200160002060010160006101000a81548173ffffffffffffffffffffffffffffffffffffffff021916908373ffffffffffffffffffffffffffffffffffffffff1602179055506001829080600181540180825580915050600190039060005260206000200160009091909190915055611262565b600080838152602001908152602001600020600401543414611235576040517f08c379a000000000000000000000000000000000000000000000000000000000815260040161122c90612dee565b60405180910390fd5b34600080848152602001908152602001600020600501600082825461125a9190612cfd565b925050819055505b817f55329a170c309fdb206036da4397784f0560d2264c68e25316be295379a9eae83360008086815260200190815260200160002060040154846040516112ab93929190612e0e565b60405180910390a25050565b600086116112fa576040517f9a9be8fa0000000000000000000000000000000000000000000000000000000081526004016112f190612bd6565b60405180910390fd5b3373ffffffffffffffffffffffffffffffffffffffff1660008088815260200190815260200160002060000160009054906101000a900473ffffffffffffffffffffffffffffffffffffffff1673ffffffffffffffffffffffffffffffffffffffff16141580156113cc57503373ffffffffffffffffffffffffffffffffffffffff1660008088815260200190815260200160002060010160009054906101000a900473ffffffffffffffffffffffffffffffffffffffff1673ffffffffffffffffffffffffffffffffffffffff1614155b1561140c576040517f9a9be8fa00000000000000000000000000000000000000000000000000000000815260040161140390612c42565b60405180910390fd5b60008060008089815260200190815260200160002060000160009054906101000a900473ffffffffffffffffffffffffffffffffffffffff1673ffffffffffffffffffffffffffffffffffffffff163373ffffffffffffffffffffffffffffffffffffffff16036114cc5760008089815260200190815260200160002060010160009054906101000a900473ffffffffffffffffffffffffffffffffffffffff16915060008089815260200190815260200160002060060154905061151d565b60008089815260200190815260200160002060000160009054906101000a900473ffffffffffffffffffffffffffffffffffffffff1691506000808981526020019081526020016000206007015490505b60008490506000876000808c8152602001908152602001600020600201548a6115469190612e45565b6115509190612cfd565b905060005b855181101561162457600060028361156d9190612eb6565b036115bc578286828151811061158657611585612ee7565b5b602002602001015160405160200161159f929190612f37565b604051602081830303815290604052805190602001209250611602565b8581815181106115cf576115ce612ee7565b5b6020026020010151836040516020016115e9929190612f37565b6040516020818303038152906040528051906020012092505b60028261160f9190612f63565b9150808061161c90612d5a565b915050611555565b506000828403611799576000808c815260200190815260200160002060000160009054906101000a900473ffffffffffffffffffffffffffffffffffffffff1673ffffffffffffffffffffffffffffffffffffffff163373ffffffffffffffffffffffffffffffffffffffff16036116f757600188036116da5760016000808d8152602001908152602001600020600901546116c09190612f94565b6000808d8152602001908152602001600020600901819055505b6000808c8152602001908152602001600020600901549050611754565b6001880361173b5760016000808d8152602001908152602001600020600801546117219190612f94565b6000808d8152602001908152602001600020600801819055505b6000808c81526020019081526020016000206008015490505b8a7f682729007816d548060438637183b635ada59e9f6892be5bc9bc6043b9a35919868c8c8c8660405161178c959493929190612fc8565b60405180910390a261183c565b8a7f470cc86631700e08c11a6d20ecd69bb482a129f5071a1057455be0c10be26866863360006040516117ce93929190613056565b60405180910390a28473ffffffffffffffffffffffffffffffffffffffff166108fc6000808e8152602001908152602001600020600501549081150290604051600060405180830381858888f19350505050158015611831573d6000803e3d6000fd5b5050505050506118e4565b600081116118de578473ffffffffffffffffffffffffffffffffffffffff166108fc6000808e8152602001908152602001600020600501549081150290604051600060405180830381858888f1935050505015801561189f573d6000803e3d6000fd5b508a7f470cc86631700e08c11a6d20ecd69bb482a129f5071a1057455be0c10be26866863360016040516118d5939291906130c8565b60405180910390a25b50505050505b505050505050565b600181815481106118fc57600080fd5b906000526020600020016000915090505481565b600083111580611921575060008211155b15611961576040517f9a9be8fa00000000000000000000000000000000000000000000000000000000815260040161195890613171565b60405180910390fd5b8034146119a3576040517f08c379a000000000000000000000000000000000000000000000000000000000815260040161199a90612dee565b60405180910390fd5b60006119ad610fe3565b90506040518061018001604052803373ffffffffffffffffffffffffffffffffffffffff168152602001600073ffffffffffffffffffffffffffffffffffffffff168152602001858152602001848152602001838152602001600081526020016000801b81526020016000801b815260200184815260200184815260200160008152602001600073ffffffffffffffffffffffffffffffffffffffff1681525060008083815260200190815260200160002060008201518160000160006101000a81548173ffffffffffffffffffffffffffffffffffffffff021916908373ffffffffffffffffffffffffffffffffffffffff16021790555060208201518160010160006101000a81548173ffffffffffffffffffffffffffffffffffffffff021916908373ffffffffffffffffffffffffffffffffffffffff16021790555060408201518160020155606082015181600301556080820151816004015560a0820151816005015560c0820151816006015560e082015181600701556101008201518160080155610120820151816009015561014082015181600a015561016082015181600b0160006101000a81548173ffffffffffffffffffffffffffffffffffffffff021916908373ffffffffffffffffffffffffffffffffffffffff1602179055509050506001819080600181540180825580915050600190039060005260206000200160009091909190915055346000808381526020019081526020016000206005016000828254611be39190612cfd565b92505081905550807fbd19c47e9925eb6f7be8bb1c13a841e0240aaeaf17f217e90022e9c8eb66877f60405160405180910390a250505050565b60008311611c60576040517f9a9be8fa000000000000000000000000000000000000000000000000000000008152600401611c5790612bd6565b60405180910390fd5b3373ffffffffffffffffffffffffffffffffffffffff1660008085815260200190815260200160002060000160009054906101000a900473ffffffffffffffffffffffffffffffffffffffff1673ffffffffffffffffffffffffffffffffffffffff1614158015611d3257503373ffffffffffffffffffffffffffffffffffffffff1660008085815260200190815260200160002060010160009054906101000a900473ffffffffffffffffffffffffffffffffffffffff1673ffffffffffffffffffffffffffffffffffffffff1614155b15611d72576040517f9a9be8fa000000000000000000000000000000000000000000000000000000008152600401611d6990612c42565b60405180910390fd5b600073ffffffffffffffffffffffffffffffffffffffff16600080858152602001908152602001600020600b0160009054906101000a900473ffffffffffffffffffffffffffffffffffffffff1673ffffffffffffffffffffffffffffffffffffffff1614611eb957827f752f14bd3601a325e97334f39b83b533f54b17c23d3f601c9ed2cee72cd404a3600080868152602001908152602001600020600b0160009054906101000a900473ffffffffffffffffffffffffffffffffffffffff16604051611e409190613191565b60405180910390a26000806000858152602001908152602001600020600b0160006101000a81548173ffffffffffffffffffffffffffffffffffffffff021916908373ffffffffffffffffffffffffffffffffffffffff1602179055506000806000858152602001908152602001600020600a01819055505b600080600085815260200190815260200160002060000160009054906101000a900473ffffffffffffffffffffffffffffffffffffffff1673ffffffffffffffffffffffffffffffffffffffff163373ffffffffffffffffffffffffffffffffffffffff1603611f605760008085815260200190815260200160002060010160009054906101000a900473ffffffffffffffffffffffffffffffffffffffff169050611f99565b60008085815260200190815260200160002060000160009054906101000a900473ffffffffffffffffffffffffffffffffffffffff1690505b837fa16c812880cd48fb28e27eb04ace25edead556e67c396ab7d2a93674adf55b43828585604051611fcd939291906131ac565b60405180910390a250505050565b60006020528060005260406000206000915090508060000160009054906101000a900473ffffffffffffffffffffffffffffffffffffffff16908060010160009054906101000a900473ffffffffffffffffffffffffffffffffffffffff169080600201549080600301549080600401549080600501549080600601549080600701549080600801549080600901549080600a01549080600b0160009054906101000a900473ffffffffffffffffffffffffffffffffffffffff1690508c565b60025481565b600080600180549050036120b857600090506120f1565b60016120c86001805490506125a5565b815481106120d9576120d8612ee7565b5b906000526020600020015490506120ef816120f4565b505b90565b6000806000805b60018054905081101561214c57846001828154811061211d5761211c612ee7565b5b906000526020600020015403612139578092506001915061214c565b808061214490612d5a565b9150506120fb565b5080158061215f57506001805490508210155b1561216e578092505050612223565b60008290505b600180805490506121859190612f94565b8110156121eb576001808261219a9190612cfd565b815481106121ab576121aa612ee7565b5b9060005260206000200154600182815481106121ca576121c9612ee7565b5b906000526020600020018190555080806121e390612d5a565b915050612174565b5060018080805490506121fe9190612f94565b8154811061220f5761220e612ee7565b5b906000526020600020016000905580925050505b919050565b600180805490501015612270576040517f9a9be8fa0000000000000000000000000000000000000000000000000000000081526004016122679061322f565b60405180910390fd5b6000808203612288576122816120a1565b90506122da565b8190506000612296826120f4565b9050806122d8576040517f9a9be8fa0000000000000000000000000000000000000000000000000000000081526004016122cf9061329b565b60405180910390fd5b505b6000811161231d576040517f9a9be8fa00000000000000000000000000000000000000000000000000000000815260040161231490613307565b60405180910390fd5b600073ffffffffffffffffffffffffffffffffffffffff1660008083815260200190815260200160002060010160009054906101000a900473ffffffffffffffffffffffffffffffffffffffff1673ffffffffffffffffffffffffffffffffffffffff16146123c1576040517f9a9be8fa0000000000000000000000000000000000000000000000000000000081526004016123b890613373565b60405180910390fd5b3373ffffffffffffffffffffffffffffffffffffffff1660008083815260200190815260200160002060000160009054906101000a900473ffffffffffffffffffffffffffffffffffffffff1673ffffffffffffffffffffffffffffffffffffffff1603612464576040517f9a9be8fa00000000000000000000000000000000000000000000000000000000815260040161245b90613405565b60405180910390fd5b3360008083815260200190815260200160002060010160006101000a81548173ffffffffffffffffffffffffffffffffffffffff021916908373ffffffffffffffffffffffffffffffffffffffff160217905550807f66bacdfb07a49afa060b23ca1e16974d1919771fff2fd57717ab8857b0673b3460008084815260200190815260200160002060000160009054906101000a900473ffffffffffffffffffffffffffffffffffffffff1660008085815260200190815260200160002060010160009054906101000a900473ffffffffffffffffffffffffffffffffffffffff16600080868152602001908152602001600020600201546000808781526020019081526020016000206003015460008088815260200190815260200160002060040154604051612599959493929190613425565b60405180910390a25050565b60008142336040516020016125bb9291906134e1565b6040516020818303038152906040528051906020012060001c6125de9190612eb6565b9050919050565b6000604051905090565b600080fd5b600080fd5b6000819050919050565b61260c816125f9565b811461261757600080fd5b50565b60008135905061262981612603565b92915050565b600060208284031215612645576126446125ef565b5b60006126538482850161261a565b91505092915050565b6000819050919050565b61266f8161265c565b811461267a57600080fd5b50565b60008135905061268c81612666565b92915050565b600080604083850312156126a9576126a86125ef565b5b60006126b78582860161261a565b92505060206126c88582860161267d565b9150509250929050565b6126db816125f9565b82525050565b60006020820190506126f660008301846126d2565b92915050565b60008115159050919050565b612711816126fc565b811461271c57600080fd5b50565b60008135905061272e81612708565b92915050565b6000806040838503121561274b5761274a6125ef565b5b60006127598582860161261a565b925050602061276a8582860161271f565b9150509250929050565b600080fd5b6000601f19601f8301169050919050565b7f4e487b7100000000000000000000000000000000000000000000000000000000600052604160045260246000fd5b6127c282612779565b810181811067ffffffffffffffff821117156127e1576127e061278a565b5b80604052505050565b60006127f46125e5565b905061280082826127b9565b919050565b600067ffffffffffffffff8211156128205761281f61278a565b5b602082029050602081019050919050565b600080fd5b600061284961284484612805565b6127ea565b9050808382526020820190506020840283018581111561286c5761286b612831565b5b835b818110156128955780612881888261267d565b84526020840193505060208101905061286e565b5050509392505050565b600082601f8301126128b4576128b3612774565b5b81356128c4848260208601612836565b91505092915050565b60008060008060008060c087890312156128ea576128e96125ef565b5b60006128f889828a0161261a565b965050602061290989828a0161261a565b955050604061291a89828a0161261a565b945050606061292b89828a0161261a565b935050608061293c89828a0161267d565b92505060a087013567ffffffffffffffff81111561295d5761295c6125f4565b5b61296989828a0161289f565b9150509295509295509295565b60008060006060848603121561298f5761298e6125ef565b5b600061299d8682870161261a565b93505060206129ae8682870161261a565b92505060406129bf8682870161261a565b9150509250925092565b600073ffffffffffffffffffffffffffffffffffffffff82169050919050565b60006129f4826129c9565b9050919050565b612a04816129e9565b82525050565b612a138161265c565b82525050565b600061018082019050612a2f600083018f6129fb565b612a3c602083018e6129fb565b612a49604083018d6126d2565b612a56606083018c6126d2565b612a63608083018b6126d2565b612a7060a083018a6126d2565b612a7d60c0830189612a0a565b612a8a60e0830188612a0a565b612a986101008301876126d2565b612aa66101208301866126d2565b612ab46101408301856126d2565b612ac26101608301846129fb565b9d9c50505050505050505050505050565b612adc816126fc565b82525050565b6000602082019050612af76000830184612ad3565b92915050565b6000819050919050565b6000819050919050565b6000612b2c612b27612b2284612afd565b612b07565b6125f9565b9050919050565b612b3c81612b11565b82525050565b6000606082019050612b5760008301866129fb565b612b6460208301856129fb565b612b716040830184612b33565b949350505050565b600082825260208201905092915050565b7f47616d65206964206973206e6567617469766521000000000000000000000000600082015250565b6000612bc0601483612b79565b9150612bcb82612b8a565b602082019050919050565b60006020820190508181036000830152612bef81612bb3565b9050919050565b7f506c61796572206e6f7420696e20746861742067616d65210000000000000000600082015250565b6000612c2c601883612b79565b9150612c3782612bf6565b602082019050919050565b60006020820190508181036000830152612c5b81612c1f565b9050919050565b7f426f61726420616c7265616479207375626d6974746564210000000000000000600082015250565b6000612c98601883612b79565b9150612ca382612c62565b602082019050919050565b60006020820190508181036000830152612cc781612c8b565b9050919050565b7f4e487b7100000000000000000000000000000000000000000000000000000000600052601160045260246000fd5b6000612d08826125f9565b9150612d13836125f9565b9250828201905080821115612d2b57612d2a612cce565b5b92915050565b6000604082019050612d4660008301856129fb565b612d5360208301846129fb565b9392505050565b6000612d65826125f9565b91507fffffffffffffffffffffffffffffffffffffffffffffffffffffffffffffffff8203612d9757612d96612cce565b5b600182019050919050565b7f45544820616d6f756e74206172652077726f6e67210000000000000000000000600082015250565b6000612dd8601583612b79565b9150612de382612da2565b602082019050919050565b60006020820190508181036000830152612e0781612dcb565b9050919050565b6000606082019050612e2360008301866129fb565b612e3060208301856126d2565b612e3d6040830184612ad3565b949350505050565b6000612e50826125f9565b9150612e5b836125f9565b9250828202612e69816125f9565b91508282048414831517612e8057612e7f612cce565b5b5092915050565b7f4e487b7100000000000000000000000000000000000000000000000000000000600052601260045260246000fd5b6000612ec1826125f9565b9150612ecc836125f9565b925082612edc57612edb612e87565b5b828206905092915050565b7f4e487b7100000000000000000000000000000000000000000000000000000000600052603260045260246000fd5b6000819050919050565b612f31612f2c8261265c565b612f16565b82525050565b6000612f438285612f20565b602082019150612f538284612f20565b6020820191508190509392505050565b6000612f6e826125f9565b9150612f79836125f9565b925082612f8957612f88612e87565b5b828204905092915050565b6000612f9f826125f9565b9150612faa836125f9565b9250828203905081811115612fc257612fc1612cce565b5b92915050565b600060a082019050612fdd60008301886129fb565b612fea60208301876126d2565b612ff760408301866126d2565b61300460608301856126d2565b61301160808301846126d2565b9695505050505050565b6000819050919050565b600061304061303b6130368461301b565b612b07565b6125f9565b9050919050565b61305081613025565b82525050565b600060608201905061306b60008301866129fb565b61307860208301856129fb565b6130856040830184613047565b949350505050565b6000819050919050565b60006130b26130ad6130a88461308d565b612b07565b6125f9565b9050919050565b6130c281613097565b82525050565b60006060820190506130dd60008301866129fb565b6130ea60208301856129fb565b6130f760408301846130b9565b949350505050565b7f496e76616c696420626f6172642073697a65206f722073686970206e756d626560008201527f7221000000000000000000000000000000000000000000000000000000000000602082015250565b600061315b602283612b79565b9150613166826130ff565b604082019050919050565b6000602082019050818103600083015261318a8161314e565b9050919050565b60006020820190506131a660008301846129fb565b92915050565b60006060820190506131c160008301866129fb565b6131ce60208301856126d2565b6131db60408301846126d2565b949350505050565b7f4e6f206f70656e2067616d657321000000000000000000000000000000000000600082015250565b6000613219600e83612b79565b9150613224826131e3565b602082019050919050565b600060208201905081810360008301526132488161320c565b9050919050565b7f546869732067616d6520646f6573206e6f742065786973742100000000000000600082015250565b6000613285601983612b79565b91506132908261324f565b602082019050919050565b600060208201905081810360008301526132b481613278565b9050919050565b7f43686f73656e206964206e656761746976652100000000000000000000000000600082015250565b60006132f1601383612b79565b91506132fc826132bb565b602082019050919050565b60006020820190508181036000830152613320816132e4565b9050919050565b7f47616d6520616c72656164792074616b656e2100000000000000000000000000600082015250565b600061335d601383612b79565b915061336882613327565b602082019050919050565b6000602082019050818103600083015261338c81613350565b9050919050565b7f596f752063616e2774206a6f696e20612067616d65206372656174656420627960008201527f20796f757273656c662100000000000000000000000000000000000000000000602082015250565b60006133ef602a83612b79565b91506133fa82613393565b604082019050919050565b6000602082019050818103600083015261341e816133e2565b9050919050565b600060a08201905061343a60008301886129fb565b61344760208301876129fb565b61345460408301866126d2565b61346160608301856126d2565b61346e60808301846126d2565b9695505050505050565b6000819050919050565b61349361348e826125f9565b613478565b82525050565b60008160601b9050919050565b60006134b182613499565b9050919050565b60006134c3826134a6565b9050919050565b6134db6134d6826129e9565b6134b8565b82525050565b60006134ed8285613482565b6020820191506134fd82846134ca565b601482019150819050939250505056fea26469706673582212209c38f17587410b7d4f62cfdd366693cbd9aa29a831ab13d1ff9b253688d9934664736f6c63430008130033",
  "immutableReferences": {},
  "source": "// SPDX-License-Identifier: MIT\npragma solidity >=0.4.22 <0.9.0;\n\ncontract BattleShipGame {\n    struct gameInfo {\n        // struct with all the information about a game\n        address creator;\n        address joiner;\n        uint256 boardSize;\n        uint256 shipNum;\n        uint256 ethAmount;\n        uint256 ethBetted;\n        bytes32 creatorMerkleRoot;\n        bytes32 joinerMerkleRoot;\n        uint256 creatorNumShips;\n        uint256 joinerNumShips;\n        uint256 accusationTime;\n        address accuser;\n    }\n\n    mapping(uint256 => gameInfo) public gameList; // map of game's ID (gameId => information of that game)\n    uint256[] public availableGames; // array with all the gameId of the avaible game\n\n    uint256 public gameId = 1; // value of the next gameId\n\n    // error event:\n    error OutputError(string myError);\n\n    // event:\n    event GameCreated(uint256 indexed _gameId);\n\n    event GameJoined(\n        uint256 indexed _gameId,\n        address _creator,\n        address _joiner,\n        uint256 _boardSize,\n        uint256 _shipNum,\n        uint256 _ethAmount\n    );\n\n    event AmountEthResponse(\n        address _sender,\n        uint256 _amount,\n        uint256 indexed _gameId,\n        bool response\n    );\n\n    event ShootShip(\n        uint256 indexed _gameId,\n        address _address,\n        uint256 _row,\n        uint256 _col\n    );\n\n    event ShootResult(\n        uint256 indexed _gameId,\n        address _address,\n        uint256 _row,\n        uint256 _col,\n        uint256 _result,\n        uint256 _shipsRemaining\n    );\n\n    event AccusationTrigger(\n        uint256 indexed _gameId,\n        address _accused,\n        address _accuser\n    );\n\n    event GameEnded(\n        uint256 indexed _gameId,\n        address _winner,\n        address _loser,\n        uint256 _reason\n    );\n\n    event ResolveAccuse(\n        uint256 indexed _gameId,\n        address _accuser\n    );\n\n    constructor() {}\n\n    // function to return the gameId\n    function getId() public returns (uint256 toReturn) {\n        toReturn = gameId++;\n        return toReturn;\n    }\n\n    // function to remove an element of the array availableGames\n    function removeFromArray(uint256 _gameId) public returns (bool) {\n        uint256 index;\n        bool find = false;\n\n        // loop through the avaible game until find the index of the chosen one\n        for (uint i = 0; i < availableGames.length; i++) {\n            if (availableGames[i] == _gameId) {\n                index = i;\n                find = true;\n                break;\n            }\n        }\n\n        if (!find || index >= availableGames.length) {\n            return find;\n        }\n\n        for (uint i = index; i < availableGames.length - 1; i++) {\n            // move manually all the element\n            availableGames[i] = availableGames[i + 1];\n        }\n        delete availableGames[availableGames.length - 1]; // remove the last element\n        return find;\n    }\n\n    function getRandomNumber(uint256 bound) private view returns (uint256) {\n        return\n            uint256(keccak256(abi.encodePacked(block.timestamp, msg.sender))) %\n            bound;\n    }\n\n    // function to get the gameId of an avaible game\n    function randomGame() public returns (uint256 randGameId) {\n        if (availableGames.length == 0) {\n            return 0;\n        }\n\n        randGameId = availableGames[getRandomNumber(availableGames.length)];\n        removeFromArray(randGameId);\n        return randGameId;\n    }\n\n    function createGame(\n        // function to create a new game\n        uint256 _boardSize,\n        uint256 _shipNum,\n        uint256 _ethAmount\n    ) public payable {\n        // create a new game\n\n        // Check if the board size and ship number are valid\n        if (_boardSize <= 0 || _shipNum <= 0) {\n            revert OutputError(\"Invalid board size or ship number!\");\n        }\n\n        require(msg.value == _ethAmount, \"ETH amount are wrong!\");\n\n        uint256 newGameId = getId();\n\n        gameList[newGameId] = gameInfo(\n            msg.sender,\n            address(0),\n            _boardSize,\n            _shipNum,\n            _ethAmount,\n            0,\n            0,\n            0,\n            _shipNum,\n            _shipNum,\n            0,\n            address(0)\n        );\n        availableGames.push(newGameId);\n\n        gameList[newGameId].ethBetted += msg.value;\n\n        emit GameCreated(newGameId);\n    }\n\n    function joinGame(uint256 _gameId) public {\n        // function to join a game\n        // check if there are avaible game\n        if (availableGames.length < 1) {\n            revert OutputError(\"No open games!\");\n        }\n\n        uint256 chosenGameId;\n\n        if (_gameId == 0) {\n            //random game choice\n            chosenGameId = randomGame();\n        } else {\n            //specific game\n            chosenGameId = _gameId;\n            bool find = removeFromArray(chosenGameId);\n\n            if (!find) {\n                revert OutputError(\"This game does not exist!\");\n            }\n        }\n\n        if (chosenGameId <= 0) {\n            revert OutputError(\"Chosen id negative!\");\n        }\n\n        if (gameList[chosenGameId].joiner != address(0)) {\n            revert OutputError(\"Game already taken!\");\n        }\n\n        if (gameList[chosenGameId].creator == msg.sender) {\n            revert OutputError(\"You can't join a game created by yourself!\");\n        }\n\n        gameList[chosenGameId].joiner = msg.sender;\n\n        emit GameJoined(\n            chosenGameId,\n            gameList[chosenGameId].creator,\n            gameList[chosenGameId].joiner,\n            gameList[chosenGameId].boardSize,\n            gameList[chosenGameId].shipNum,\n            gameList[chosenGameId].ethAmount\n        );\n    }\n\n    function amountEthDecision(uint256 _gameId, bool _response) public payable {\n        // function to accept or refuse the eth amount\n\n        // Check if the game ID is valid\n        if (_gameId <= 0) {\n            revert OutputError(\"Game id is negative!\");\n        }\n\n        // Check if the sender is either the creator or the joiner of the game\n        if (\n            gameList[_gameId].creator != msg.sender &&\n            gameList[_gameId].joiner != msg.sender\n        ) {\n            revert OutputError(\"Player not in that game!\");\n        }\n\n        if (!_response) {\n            // refuse response\n            gameList[_gameId].joiner = address(0);\n            availableGames.push(_gameId);\n        } else {\n            require(\n                msg.value == gameList[_gameId].ethAmount,\n                \"ETH amount are wrong!\"\n            );\n\n            gameList[_gameId].ethBetted += msg.value;\n        }\n\n        emit AmountEthResponse(\n            msg.sender,\n            gameList[_gameId].ethAmount,\n            _gameId,\n            _response\n        );\n    }\n\n    function submitBoard(uint256 _gameId, bytes32 _merkleRoot) public {\n        // function to submit the board\n\n        // Check if the game ID is valid\n        if (_gameId <= 0) {\n            revert OutputError(\"Game id is negative!\");\n        }\n\n        // Check if the sender is either the creator or the joiner of the game\n        if (\n            gameList[_gameId].creator != msg.sender &&\n            gameList[_gameId].joiner != msg.sender\n        ) {\n            revert OutputError(\"Player not in that game!\");\n        }\n\n        // Check if the board is not already submitted\n        if (\n            (gameList[_gameId].creator == msg.sender &&\n                gameList[_gameId].creatorMerkleRoot != 0) ||\n            (gameList[_gameId].joiner == msg.sender &&\n                gameList[_gameId].joinerMerkleRoot != 0)\n        ) {\n            revert OutputError(\"Board already submitted!\");\n        }\n\n        if (gameList[_gameId].creator == msg.sender) {\n            gameList[_gameId].creatorMerkleRoot = _merkleRoot;\n        } else if (gameList[_gameId].joiner == msg.sender) {\n            gameList[_gameId].joinerMerkleRoot = _merkleRoot;\n        } else {\n            revert OutputError(\"Player not in that game!\");\n        }\n    }\n\n    function shoot(uint256 _gameId, uint256 _row, uint256 _col) public {\n        // function to communicate the coordinates of the fired cell\n\n        // Check if the game ID is valid\n        if (_gameId <= 0) {\n            revert OutputError(\"Game id is negative!\");\n        }\n\n        // Check if the sender is either the creator or the joiner of the game\n        if (\n            gameList[_gameId].creator != msg.sender &&\n            gameList[_gameId].joiner != msg.sender\n        ) {\n            revert OutputError(\"Player not in that game!\");\n        }\n\n        if(gameList[_gameId].accuser != address(0)){\n            emit ResolveAccuse(_gameId, gameList[_gameId].accuser);\n            gameList[_gameId].accuser = address(0);\n            gameList[_gameId].accusationTime = 0;\n        }\n        \n        // take the opponent address for comunicate who was shot\n        address opponentAddress;\n        if (msg.sender == gameList[_gameId].creator) {\n            opponentAddress = gameList[_gameId].joiner;\n        } else {\n            opponentAddress = gameList[_gameId].creator;\n        }\n\n        emit ShootShip(_gameId, opponentAddress, _row, _col);\n    }\n\n    function shootResult(\n        uint256 _gameId,\n        uint256 _row,\n        uint256 _col,\n        uint256 _result,\n        bytes32 _hash,\n        bytes32[] memory _merkleProof\n    ) public payable {\n        // function to comunicate the result of the shot\n\n        // Check if the game ID is valid\n        if (_gameId <= 0) {\n            revert OutputError(\"Game id is negative!\");\n        }\n\n        // Check if the sender is either the creator or the joiner of the game\n        if (\n            gameList[_gameId].creator != msg.sender &&\n            gameList[_gameId].joiner != msg.sender\n        ) {\n            revert OutputError(\"Player not in that game!\");\n        }\n\n        // take the opponent address for comunicate who fired the shot\n        address opponentAddress;\n        bytes32 merkleRoot;\n        if (msg.sender == gameList[_gameId].creator) {\n            opponentAddress = gameList[_gameId].joiner;\n            merkleRoot = gameList[_gameId].creatorMerkleRoot;\n        } else {\n            opponentAddress = gameList[_gameId].creator;\n            merkleRoot = gameList[_gameId].joinerMerkleRoot;\n        }\n\n        bytes32 hashValue = _hash;\n\n        uint256 index = _row * gameList[_gameId].boardSize + _col;\n        for (uint i = 0; i < _merkleProof.length; i++) {\n            if (index % 2 == 0) {\n                hashValue = keccak256(\n                    abi.encodePacked(hashValue, _merkleProof[i])\n                );\n            } else {\n                hashValue = keccak256(\n                    abi.encodePacked(_merkleProof[i], hashValue)\n                );\n            }\n\n            index = index / 2;\n        }\n\n        uint256 shipsRemaining;\n        if (merkleRoot == hashValue) {\n            // validated shoot\n            if (msg.sender == gameList[_gameId].creator) {\n                if (_result == 1) {\n                    gameList[_gameId].joinerNumShips =\n                        gameList[_gameId].joinerNumShips -\n                        1;\n                }\n                shipsRemaining = gameList[_gameId].joinerNumShips;\n            } else {\n                if (_result == 1) {\n                    gameList[_gameId].creatorNumShips =\n                        gameList[_gameId].creatorNumShips -\n                        1;\n                }\n                shipsRemaining = gameList[_gameId].creatorNumShips;\n            }\n\n            emit ShootResult(\n                _gameId,\n                opponentAddress,\n                _row,\n                _col,\n                _result,\n                shipsRemaining\n            );\n        } else {\n            // invlidated shoot\n            emit GameEnded(_gameId, opponentAddress, msg.sender, 0);\n            payable(opponentAddress).transfer(gameList[_gameId].ethBetted);\n            return;\n        }\n\n        if (shipsRemaining <= 0) {\n            payable(opponentAddress).transfer(gameList[_gameId].ethBetted);\n\n            emit GameEnded(_gameId, opponentAddress, msg.sender, 1);\n        }\n    }\n\n    function accuseOpponent(uint256 _gameId) public payable {\n        // function to accuse the opponent of having left\n\n        // Check if the game ID is valid\n        if (_gameId <= 0) {\n            revert OutputError(\"Game id is negative!\");\n        }\n\n        // Check if the sender is either the creator or the joiner of the game\n        if (\n            gameList[_gameId].creator != msg.sender &&\n            gameList[_gameId].joiner != msg.sender\n        ) {\n            revert OutputError(\"Player not in that game!\");\n        }\n\n        if (gameList[_gameId].accuser == address(0)) {\n            gameList[_gameId].accuser = msg.sender;\n            gameList[_gameId].accusationTime = block.number + 5;\n\n            if (gameList[_gameId].accuser == gameList[_gameId].creator) {\n                emit AccusationTrigger(\n                    _gameId,\n                    gameList[_gameId].joiner,\n                    gameList[_gameId].creator\n                );\n            } else if (gameList[_gameId].accuser == gameList[_gameId].joiner) {\n                emit AccusationTrigger(\n                    _gameId,\n                    gameList[_gameId].creator,\n                    gameList[_gameId].joiner\n                );\n            }\n        }\n    }\n\n    function verifyAccuse(uint256 _gameId) public payable {\n        if (gameList[_gameId].accuser == gameList[_gameId].creator) {\n            if (gameList[_gameId].accusationTime <= block.number) {\n                payable(gameList[_gameId].accuser).transfer(\n                    gameList[_gameId].ethBetted\n                );\n\n                emit GameEnded(\n                    _gameId,\n                    gameList[_gameId].accuser,\n                    gameList[_gameId].joiner,\n                    2\n                );\n            }\n        } else if (gameList[_gameId].accuser == gameList[_gameId].joiner) {\n            if (gameList[_gameId].accusationTime <= block.number) {\n                payable(gameList[_gameId].accuser).transfer(\n                    gameList[_gameId].ethBetted\n                );\n\n                emit GameEnded(\n                    _gameId,\n                    gameList[_gameId].accuser,\n                    gameList[_gameId].creator,\n                    2\n                );\n            }\n        } else {\n            return;\n        }\n    }\n}\n",
  "sourcePath": "/mnt/storage/Magistrale/P2PB/ProgettoP2P/P2P_Project/contracts/BattleShipGame.sol",
  "compiler": {
    "name": "solc",
    "version": "0.8.19+commit.7dd6d404.Emscripten.clang"
  },
  "schemaVersion": "3.4.13",
  "updatedAt": "2023-07-21T08:31:22.711Z",
  "networkType": "ethereum",
  "devdoc": {
    "kind": "dev",
    "methods": {},
    "version": 1
  },
  "userdoc": {
    "kind": "user",
    "methods": {},
    "version": 1
  }
}