{
  "contractName": "BattleShipGame",
  "abi": [
    {
      "inputs": [],
      "stateMutability": "nonpayable",
      "type": "constructor"
    },
    {
      "inputs": [
        {
          "internalType": "string",
          "name": "myError",
          "type": "string"
        }
      ],
      "name": "OutputError",
      "type": "error"
    },
    {
      "anonymous": false,
      "inputs": [
        {
          "indexed": true,
          "internalType": "uint256",
          "name": "_gameId",
          "type": "uint256"
        },
        {
          "indexed": false,
          "internalType": "address",
          "name": "_accused",
          "type": "address"
        },
        {
          "indexed": false,
          "internalType": "address",
          "name": "_accuser",
          "type": "address"
        }
      ],
      "name": "AccusationTrigger",
      "type": "event"
    },
    {
      "anonymous": false,
      "inputs": [
        {
          "indexed": false,
          "internalType": "address",
          "name": "_sender",
          "type": "address"
        },
        {
          "indexed": false,
          "internalType": "uint256",
          "name": "_amount",
          "type": "uint256"
        },
        {
          "indexed": true,
          "internalType": "uint256",
          "name": "_gameId",
          "type": "uint256"
        },
        {
          "indexed": false,
          "internalType": "uint256",
          "name": "_response",
          "type": "uint256"
        }
      ],
      "name": "AmountEthResponse",
      "type": "event"
    },
    {
      "anonymous": false,
      "inputs": [
        {
          "indexed": true,
          "internalType": "uint256",
          "name": "_gameId",
          "type": "uint256"
        }
      ],
      "name": "GameCreated",
      "type": "event"
    },
    {
      "anonymous": false,
      "inputs": [
        {
          "indexed": true,
          "internalType": "uint256",
          "name": "_gameId",
          "type": "uint256"
        },
        {
          "indexed": false,
          "internalType": "address",
          "name": "_winner",
          "type": "address"
        },
        {
          "indexed": false,
          "internalType": "address",
          "name": "_loser",
          "type": "address"
        },
        {
          "indexed": false,
          "internalType": "uint256",
          "name": "_reason",
          "type": "uint256"
        }
      ],
      "name": "GameEnded",
      "type": "event"
    },
    {
      "anonymous": false,
      "inputs": [
        {
          "indexed": true,
          "internalType": "uint256",
          "name": "_gameId",
          "type": "uint256"
        },
        {
          "indexed": false,
          "internalType": "address",
          "name": "_creator",
          "type": "address"
        },
        {
          "indexed": false,
          "internalType": "address",
          "name": "_joiner",
          "type": "address"
        },
        {
          "indexed": false,
          "internalType": "uint256",
          "name": "_boardSize",
          "type": "uint256"
        },
        {
          "indexed": false,
          "internalType": "uint256",
          "name": "_shipNum",
          "type": "uint256"
        },
        {
          "indexed": false,
          "internalType": "uint256",
          "name": "_ethAmount",
          "type": "uint256"
        }
      ],
      "name": "GameJoined",
      "type": "event"
    },
    {
      "anonymous": false,
      "inputs": [
        {
          "indexed": true,
          "internalType": "uint256",
          "name": "_gameId",
          "type": "uint256"
        },
        {
          "indexed": false,
          "internalType": "address",
          "name": "_accuser",
          "type": "address"
        }
      ],
      "name": "ResolveAccuse",
      "type": "event"
    },
    {
      "anonymous": false,
      "inputs": [
        {
          "indexed": true,
          "internalType": "uint256",
          "name": "_gameId",
          "type": "uint256"
        },
        {
          "indexed": false,
          "internalType": "address",
          "name": "_address",
          "type": "address"
        },
        {
          "indexed": false,
          "internalType": "uint256",
          "name": "_row",
          "type": "uint256"
        },
        {
          "indexed": false,
          "internalType": "uint256",
          "name": "_col",
          "type": "uint256"
        },
        {
          "indexed": false,
          "internalType": "uint256",
          "name": "_result",
          "type": "uint256"
        },
        {
          "indexed": false,
          "internalType": "uint256",
          "name": "_shipsRemaining",
          "type": "uint256"
        }
      ],
      "name": "ShotResult",
      "type": "event"
    },
    {
      "anonymous": false,
      "inputs": [
        {
          "indexed": true,
          "internalType": "uint256",
          "name": "_gameId",
          "type": "uint256"
        },
        {
          "indexed": false,
          "internalType": "address",
          "name": "_address",
          "type": "address"
        },
        {
          "indexed": false,
          "internalType": "uint256",
          "name": "_row",
          "type": "uint256"
        },
        {
          "indexed": false,
          "internalType": "uint256",
          "name": "_col",
          "type": "uint256"
        }
      ],
      "name": "ShotShip",
      "type": "event"
    },
    {
      "inputs": [
        {
          "internalType": "uint256",
          "name": "",
          "type": "uint256"
        }
      ],
      "name": "availableGames",
      "outputs": [
        {
          "internalType": "uint256",
          "name": "",
          "type": "uint256"
        }
      ],
      "stateMutability": "view",
      "type": "function",
      "constant": true
    },
    {
      "inputs": [],
      "name": "gameId",
      "outputs": [
        {
          "internalType": "uint256",
          "name": "",
          "type": "uint256"
        }
      ],
      "stateMutability": "view",
      "type": "function",
      "constant": true
    },
    {
      "inputs": [
        {
          "internalType": "uint256",
          "name": "",
          "type": "uint256"
        }
      ],
      "name": "gameList",
      "outputs": [
        {
          "internalType": "address",
          "name": "creator",
          "type": "address"
        },
        {
          "internalType": "address",
          "name": "joiner",
          "type": "address"
        },
        {
          "internalType": "uint256",
          "name": "boardSize",
          "type": "uint256"
        },
        {
          "internalType": "uint256",
          "name": "shipNum",
          "type": "uint256"
        },
        {
          "internalType": "uint256",
          "name": "ethAmount",
          "type": "uint256"
        },
        {
          "internalType": "uint256",
          "name": "ethBetted",
          "type": "uint256"
        },
        {
          "internalType": "bytes32",
          "name": "creatorMerkleRoot",
          "type": "bytes32"
        },
        {
          "internalType": "bytes32",
          "name": "joinerMerkleRoot",
          "type": "bytes32"
        },
        {
          "internalType": "uint256",
          "name": "creatorNumShips",
          "type": "uint256"
        },
        {
          "internalType": "uint256",
          "name": "joinerNumShips",
          "type": "uint256"
        },
        {
          "internalType": "uint256",
          "name": "accusationTime",
          "type": "uint256"
        },
        {
          "internalType": "address",
          "name": "accuser",
          "type": "address"
        }
      ],
      "stateMutability": "view",
      "type": "function",
      "constant": true
    },
    {
      "inputs": [
        {
          "internalType": "uint256",
          "name": "_boardSize",
          "type": "uint256"
        },
        {
          "internalType": "uint256",
          "name": "_shipNum",
          "type": "uint256"
        },
        {
          "internalType": "uint256",
          "name": "_ethAmount",
          "type": "uint256"
        }
      ],
      "name": "createGame",
      "outputs": [],
      "stateMutability": "payable",
      "type": "function",
      "payable": true
    },
    {
      "inputs": [
        {
          "internalType": "uint256",
          "name": "_gameId",
          "type": "uint256"
        }
      ],
      "name": "joinGame",
      "outputs": [],
      "stateMutability": "nonpayable",
      "type": "function"
    },
    {
      "inputs": [
        {
          "internalType": "uint256",
          "name": "_gameId",
          "type": "uint256"
        },
        {
          "internalType": "bool",
          "name": "_response",
          "type": "bool"
        }
      ],
      "name": "amountEthDecision",
      "outputs": [],
      "stateMutability": "payable",
      "type": "function",
      "payable": true
    },
    {
      "inputs": [
        {
          "internalType": "uint256",
          "name": "_gameId",
          "type": "uint256"
        },
        {
          "internalType": "bytes32",
          "name": "_merkleRoot",
          "type": "bytes32"
        }
      ],
      "name": "submitBoard",
      "outputs": [],
      "stateMutability": "nonpayable",
      "type": "function"
    },
    {
      "inputs": [
        {
          "internalType": "uint256",
          "name": "_gameId",
          "type": "uint256"
        },
        {
          "internalType": "uint256",
          "name": "_row",
          "type": "uint256"
        },
        {
          "internalType": "uint256",
          "name": "_col",
          "type": "uint256"
        }
      ],
      "name": "shot",
      "outputs": [],
      "stateMutability": "nonpayable",
      "type": "function"
    },
    {
      "inputs": [
        {
          "internalType": "uint256",
          "name": "_gameId",
          "type": "uint256"
        },
        {
          "internalType": "uint256",
          "name": "_row",
          "type": "uint256"
        },
        {
          "internalType": "uint256",
          "name": "_col",
          "type": "uint256"
        },
        {
          "internalType": "uint256",
          "name": "_result",
          "type": "uint256"
        },
        {
          "internalType": "bytes32",
          "name": "_hash",
          "type": "bytes32"
        },
        {
          "internalType": "bytes32[]",
          "name": "_merkleProof",
          "type": "bytes32[]"
        }
      ],
      "name": "shotResult",
      "outputs": [],
      "stateMutability": "payable",
      "type": "function",
      "payable": true
    },
    {
      "inputs": [
        {
          "internalType": "uint256",
          "name": "_gameId",
          "type": "uint256"
        }
      ],
      "name": "accuseOpponent",
      "outputs": [],
      "stateMutability": "payable",
      "type": "function",
      "payable": true
    },
    {
      "inputs": [
        {
          "internalType": "uint256",
          "name": "_gameId",
          "type": "uint256"
        }
      ],
      "name": "verifyAccuse",
      "outputs": [],
      "stateMutability": "payable",
      "type": "function",
      "payable": true
    }
  ],
  "bytecode": "0x6080604052600160025534801561001557600080fd5b50613670806100256000396000f3fe60806040526004361061009c5760003560e01c80639377b400116100645780639377b4001461013a5780639966cc8314610163578063c2741521146101a0578063c6cfd08e146101bc578063d7c81b5514610204578063efaa55a01461022f5761009c565b80630153f922146100a15780630328f6fb146100bd57806320ed1057146100e65780634f7f73f314610102578063685385f31461011e575b600080fd5b6100bb60048036038101906100b69190612720565b610258565b005b3480156100c957600080fd5b506100e460048036038101906100df9190612783565b6107a5565b005b61010060048036038101906100fb9190612720565b610b9f565b005b61011c6004803603810190610117919061291c565b611064565b005b610138600480360381019061013391906129fd565b611699565b005b34801561014657600080fd5b50610161600480360381019061015c9190612a3d565b6119b5565b005b34801561016f57600080fd5b5061018a60048036038101906101859190612720565b611d73565b6040516101979190612a9f565b60405180910390f35b6101ba60048036038101906101b59190612a3d565b611d97565b005b3480156101c857600080fd5b506101e360048036038101906101de9190612720565b6120b7565b6040516101fb9c9b9a99989796959493929190612b0a565b60405180910390f35b34801561021057600080fd5b50610219612177565b6040516102269190612a9f565b60405180910390f35b34801561023b57600080fd5b5061025660048036038101906102519190612720565b61217d565b005b6000811161029b576040517f9a9be8fa00000000000000000000000000000000000000000000000000000000815260040161029290612c21565b60405180910390fd5b3373ffffffffffffffffffffffffffffffffffffffff1660008083815260200190815260200160002060000160009054906101000a900473ffffffffffffffffffffffffffffffffffffffff1673ffffffffffffffffffffffffffffffffffffffff161415801561036d57503373ffffffffffffffffffffffffffffffffffffffff1660008083815260200190815260200160002060010160009054906101000a900473ffffffffffffffffffffffffffffffffffffffff1673ffffffffffffffffffffffffffffffffffffffff1614155b156103ad576040517f9a9be8fa0000000000000000000000000000000000000000000000000000000081526004016103a490612c8d565b60405180910390fd5b60008082815260200190815260200160002060000160009054906101000a900473ffffffffffffffffffffffffffffffffffffffff1673ffffffffffffffffffffffffffffffffffffffff16600080838152602001908152602001600020600b0160009054906101000a900473ffffffffffffffffffffffffffffffffffffffff1673ffffffffffffffffffffffffffffffffffffffff16036105a45743600080838152602001908152602001600020600a01541161059f57600080828152602001908152602001600020600b0160009054906101000a900473ffffffffffffffffffffffffffffffffffffffff1673ffffffffffffffffffffffffffffffffffffffff166108fc600080848152602001908152602001600020600501549081150290604051600060405180830381858888f193505050501580156104f6573d6000803e3d6000fd5b50807f470cc86631700e08c11a6d20ecd69bb482a129f5071a1057455be0c10be26866600080848152602001908152602001600020600b0160009054906101000a900473ffffffffffffffffffffffffffffffffffffffff1660008085815260200190815260200160002060010160009054906101000a900473ffffffffffffffffffffffffffffffffffffffff16600260405161059693929190612cf2565b60405180910390a25b6107a1565b60008082815260200190815260200160002060010160009054906101000a900473ffffffffffffffffffffffffffffffffffffffff1673ffffffffffffffffffffffffffffffffffffffff16600080838152602001908152602001600020600b0160009054906101000a900473ffffffffffffffffffffffffffffffffffffffff1673ffffffffffffffffffffffffffffffffffffffff160361079b5743600080838152602001908152602001600020600a01541161079657600080828152602001908152602001600020600b0160009054906101000a900473ffffffffffffffffffffffffffffffffffffffff1673ffffffffffffffffffffffffffffffffffffffff166108fc600080848152602001908152602001600020600501549081150290604051600060405180830381858888f193505050501580156106ed573d6000803e3d6000fd5b50807f470cc86631700e08c11a6d20ecd69bb482a129f5071a1057455be0c10be26866600080848152602001908152602001600020600b0160009054906101000a900473ffffffffffffffffffffffffffffffffffffffff1660008085815260200190815260200160002060000160009054906101000a900473ffffffffffffffffffffffffffffffffffffffff16600260405161078d93929190612cf2565b60405180910390a25b6107a0565b6107a2565b5b5b50565b600082116107e8576040517f9a9be8fa0000000000000000000000000000000000000000000000000000000081526004016107df90612c21565b60405180910390fd5b3373ffffffffffffffffffffffffffffffffffffffff1660008084815260200190815260200160002060000160009054906101000a900473ffffffffffffffffffffffffffffffffffffffff1673ffffffffffffffffffffffffffffffffffffffff16141580156108ba57503373ffffffffffffffffffffffffffffffffffffffff1660008084815260200190815260200160002060010160009054906101000a900473ffffffffffffffffffffffffffffffffffffffff1673ffffffffffffffffffffffffffffffffffffffff1614155b156108fa576040517f9a9be8fa0000000000000000000000000000000000000000000000000000000081526004016108f190612c8d565b60405180910390fd5b3373ffffffffffffffffffffffffffffffffffffffff1660008084815260200190815260200160002060000160009054906101000a900473ffffffffffffffffffffffffffffffffffffffff1673ffffffffffffffffffffffffffffffffffffffff1614801561098257506000801b6000808481526020019081526020016000206006015414155b80610a1157503373ffffffffffffffffffffffffffffffffffffffff1660008084815260200190815260200160002060010160009054906101000a900473ffffffffffffffffffffffffffffffffffffffff1673ffffffffffffffffffffffffffffffffffffffff16148015610a1057506000801b6000808481526020019081526020016000206007015414155b5b15610a51576040517f9a9be8fa000000000000000000000000000000000000000000000000000000008152600401610a4890612d75565b60405180910390fd5b3373ffffffffffffffffffffffffffffffffffffffff1660008084815260200190815260200160002060000160009054906101000a900473ffffffffffffffffffffffffffffffffffffffff1673ffffffffffffffffffffffffffffffffffffffff1603610ad8578060008084815260200190815260200160002060060181905550610b9b565b3373ffffffffffffffffffffffffffffffffffffffff1660008084815260200190815260200160002060010160009054906101000a900473ffffffffffffffffffffffffffffffffffffffff1673ffffffffffffffffffffffffffffffffffffffff1603610b5f578060008084815260200190815260200160002060070181905550610b9a565b6040517f9a9be8fa000000000000000000000000000000000000000000000000000000008152600401610b9190612c8d565b60405180910390fd5b5b5050565b60008111610be2576040517f9a9be8fa000000000000000000000000000000000000000000000000000000008152600401610bd990612c21565b60405180910390fd5b3373ffffffffffffffffffffffffffffffffffffffff1660008083815260200190815260200160002060000160009054906101000a900473ffffffffffffffffffffffffffffffffffffffff1673ffffffffffffffffffffffffffffffffffffffff1614158015610cb457503373ffffffffffffffffffffffffffffffffffffffff1660008083815260200190815260200160002060010160009054906101000a900473ffffffffffffffffffffffffffffffffffffffff1673ffffffffffffffffffffffffffffffffffffffff1614155b15610cf4576040517f9a9be8fa000000000000000000000000000000000000000000000000000000008152600401610ceb90612c8d565b60405180910390fd5b600073ffffffffffffffffffffffffffffffffffffffff16600080838152602001908152602001600020600b0160009054906101000a900473ffffffffffffffffffffffffffffffffffffffff1673ffffffffffffffffffffffffffffffffffffffff16036110615733600080838152602001908152602001600020600b0160006101000a81548173ffffffffffffffffffffffffffffffffffffffff021916908373ffffffffffffffffffffffffffffffffffffffff160217905550600543610dbe9190612dc4565b600080838152602001908152602001600020600a018190555060008082815260200190815260200160002060000160009054906101000a900473ffffffffffffffffffffffffffffffffffffffff1673ffffffffffffffffffffffffffffffffffffffff16600080838152602001908152602001600020600b0160009054906101000a900473ffffffffffffffffffffffffffffffffffffffff1673ffffffffffffffffffffffffffffffffffffffff1603610f1d57807fa11145e24e3c0a8f6586af5688ff25ef2fdd2a8143412c2cbb0044c0db72803c60008084815260200190815260200160002060010160009054906101000a900473ffffffffffffffffffffffffffffffffffffffff1660008085815260200190815260200160002060000160009054906101000a900473ffffffffffffffffffffffffffffffffffffffff16604051610f10929190612df8565b60405180910390a2611060565b60008082815260200190815260200160002060010160009054906101000a900473ffffffffffffffffffffffffffffffffffffffff1673ffffffffffffffffffffffffffffffffffffffff16600080838152602001908152602001600020600b0160009054906101000a900473ffffffffffffffffffffffffffffffffffffffff1673ffffffffffffffffffffffffffffffffffffffff160361105f57807fa11145e24e3c0a8f6586af5688ff25ef2fdd2a8143412c2cbb0044c0db72803c60008084815260200190815260200160002060000160009054906101000a900473ffffffffffffffffffffffffffffffffffffffff1660008085815260200190815260200160002060010160009054906101000a900473ffffffffffffffffffffffffffffffffffffffff16604051611056929190612df8565b60405180910390a25b5b5b50565b600086116110a7576040517f9a9be8fa00000000000000000000000000000000000000000000000000000000815260040161109e90612c21565b60405180910390fd5b3373ffffffffffffffffffffffffffffffffffffffff1660008088815260200190815260200160002060000160009054906101000a900473ffffffffffffffffffffffffffffffffffffffff1673ffffffffffffffffffffffffffffffffffffffff161415801561117957503373ffffffffffffffffffffffffffffffffffffffff1660008088815260200190815260200160002060010160009054906101000a900473ffffffffffffffffffffffffffffffffffffffff1673ffffffffffffffffffffffffffffffffffffffff1614155b156111b9576040517f9a9be8fa0000000000000000000000000000000000000000000000000000000081526004016111b090612c8d565b60405180910390fd5b60008060008089815260200190815260200160002060000160009054906101000a900473ffffffffffffffffffffffffffffffffffffffff1673ffffffffffffffffffffffffffffffffffffffff163373ffffffffffffffffffffffffffffffffffffffff16036112795760008089815260200190815260200160002060010160009054906101000a900473ffffffffffffffffffffffffffffffffffffffff1691506000808981526020019081526020016000206006015490506112ca565b60008089815260200190815260200160002060000160009054906101000a900473ffffffffffffffffffffffffffffffffffffffff1691506000808981526020019081526020016000206007015490505b60008490506000876000808c8152602001908152602001600020600201548a6112f39190612e21565b6112fd9190612dc4565b905060005b85518110156113d157600060028361131a9190612e92565b03611369578286828151811061133357611332612ec3565b5b602002602001015160405160200161134c929190612f13565b6040516020818303038152906040528051906020012092506113af565b85818151811061137c5761137b612ec3565b5b602002602001015183604051602001611396929190612f13565b6040516020818303038152906040528051906020012092505b6002826113bc9190612f3f565b915080806113c990612f70565b915050611302565b506000828403611546576000808c815260200190815260200160002060000160009054906101000a900473ffffffffffffffffffffffffffffffffffffffff1673ffffffffffffffffffffffffffffffffffffffff163373ffffffffffffffffffffffffffffffffffffffff16036114a457600188036114875760016000808d81526020019081526020016000206009015461146d9190612fb8565b6000808d8152602001908152602001600020600901819055505b6000808c8152602001908152602001600020600901549050611501565b600188036114e85760016000808d8152602001908152602001600020600801546114ce9190612fb8565b6000808d8152602001908152602001600020600801819055505b6000808c81526020019081526020016000206008015490505b8a7fd260c229f9fb006b4e55f793734947818cb338325a3eeeb7c3251a5f1c1ae255868c8c8c86604051611539959493929190612fec565b60405180910390a26115e9565b8a7f470cc86631700e08c11a6d20ecd69bb482a129f5071a1057455be0c10be268668633600060405161157b9392919061307a565b60405180910390a28473ffffffffffffffffffffffffffffffffffffffff166108fc6000808e8152602001908152602001600020600501549081150290604051600060405180830381858888f193505050501580156115de573d6000803e3d6000fd5b505050505050611691565b6000811161168b578473ffffffffffffffffffffffffffffffffffffffff166108fc6000808e8152602001908152602001600020600501549081150290604051600060405180830381858888f1935050505015801561164c573d6000803e3d6000fd5b508a7f470cc86631700e08c11a6d20ecd69bb482a129f5071a1057455be0c10be2686686336001604051611682939291906130ec565b60405180910390a25b50505050505b505050505050565b600082116116dc576040517f9a9be8fa0000000000000000000000000000000000000000000000000000000081526004016116d390612c21565b60405180910390fd5b3373ffffffffffffffffffffffffffffffffffffffff1660008084815260200190815260200160002060000160009054906101000a900473ffffffffffffffffffffffffffffffffffffffff1673ffffffffffffffffffffffffffffffffffffffff16141580156117ae57503373ffffffffffffffffffffffffffffffffffffffff1660008084815260200190815260200160002060010160009054906101000a900473ffffffffffffffffffffffffffffffffffffffff1673ffffffffffffffffffffffffffffffffffffffff1614155b156117ee576040517f9a9be8fa0000000000000000000000000000000000000000000000000000000081526004016117e590612c8d565b60405180910390fd5b806118c857600080600084815260200190815260200160002060010160006101000a81548173ffffffffffffffffffffffffffffffffffffffff021916908373ffffffffffffffffffffffffffffffffffffffff1602179055506001829080600181540180825580915050600190039060005260206000200160009091909190915055817f4cb66ab516bedeef3035e50502f6b3b1da5140fec06e41646bf41422c60c276b336000808681526020019081526020016000206004015460006040516118bb93929190613123565b60405180910390a26119b1565b60008083815260200190815260200160002060040154670de0b6b3a7640000346118f29190612f3f565b14611932576040517f08c379a0000000000000000000000000000000000000000000000000000000008152600401611929906131a6565b60405180910390fd5b3460008084815260200190815260200160002060050160008282546119579190612dc4565b92505081905550817f4cb66ab516bedeef3035e50502f6b3b1da5140fec06e41646bf41422c60c276b336000808681526020019081526020016000206004015460016040516119a8939291906131c6565b60405180910390a25b5050565b600083116119f8576040517f9a9be8fa0000000000000000000000000000000000000000000000000000000081526004016119ef90612c21565b60405180910390fd5b3373ffffffffffffffffffffffffffffffffffffffff1660008085815260200190815260200160002060000160009054906101000a900473ffffffffffffffffffffffffffffffffffffffff1673ffffffffffffffffffffffffffffffffffffffff1614158015611aca57503373ffffffffffffffffffffffffffffffffffffffff1660008085815260200190815260200160002060010160009054906101000a900473ffffffffffffffffffffffffffffffffffffffff1673ffffffffffffffffffffffffffffffffffffffff1614155b15611b0a576040517f9a9be8fa000000000000000000000000000000000000000000000000000000008152600401611b0190612c8d565b60405180910390fd5b600073ffffffffffffffffffffffffffffffffffffffff16600080858152602001908152602001600020600b0160009054906101000a900473ffffffffffffffffffffffffffffffffffffffff1673ffffffffffffffffffffffffffffffffffffffff1614611c5157827f752f14bd3601a325e97334f39b83b533f54b17c23d3f601c9ed2cee72cd404a3600080868152602001908152602001600020600b0160009054906101000a900473ffffffffffffffffffffffffffffffffffffffff16604051611bd891906131fd565b60405180910390a26000806000858152602001908152602001600020600b0160006101000a81548173ffffffffffffffffffffffffffffffffffffffff021916908373ffffffffffffffffffffffffffffffffffffffff1602179055506000806000858152602001908152602001600020600a01819055505b600080600085815260200190815260200160002060000160009054906101000a900473ffffffffffffffffffffffffffffffffffffffff1673ffffffffffffffffffffffffffffffffffffffff163373ffffffffffffffffffffffffffffffffffffffff1603611cf85760008085815260200190815260200160002060010160009054906101000a900473ffffffffffffffffffffffffffffffffffffffff169050611d31565b60008085815260200190815260200160002060000160009054906101000a900473ffffffffffffffffffffffffffffffffffffffff1690505b837ff201e39edbdda93a296a1844044ae16c044ad6009935126aea6c82d923efaac0828585604051611d6593929190613218565b60405180910390a250505050565b60018181548110611d8357600080fd5b906000526020600020016000915090505481565b600083111580611da8575060008211155b15611de8576040517f9a9be8fa000000000000000000000000000000000000000000000000000000008152600401611ddf906132c1565b60405180910390fd5b80670de0b6b3a764000034611dfd9190612f3f565b14611e3d576040517f08c379a0000000000000000000000000000000000000000000000000000000008152600401611e34906131a6565b60405180910390fd5b6000611e476124fa565b90506040518061018001604052803373ffffffffffffffffffffffffffffffffffffffff168152602001600073ffffffffffffffffffffffffffffffffffffffff168152602001858152602001848152602001838152602001600081526020016000801b81526020016000801b815260200184815260200184815260200160008152602001600073ffffffffffffffffffffffffffffffffffffffff1681525060008083815260200190815260200160002060008201518160000160006101000a81548173ffffffffffffffffffffffffffffffffffffffff021916908373ffffffffffffffffffffffffffffffffffffffff16021790555060208201518160010160006101000a81548173ffffffffffffffffffffffffffffffffffffffff021916908373ffffffffffffffffffffffffffffffffffffffff16021790555060408201518160020155606082015181600301556080820151816004015560a0820151816005015560c0820151816006015560e082015181600701556101008201518160080155610120820151816009015561014082015181600a015561016082015181600b0160006101000a81548173ffffffffffffffffffffffffffffffffffffffff021916908373ffffffffffffffffffffffffffffffffffffffff160217905550905050600181908060018154018082558091505060019003906000526020600020016000909190919091505534600080838152602001908152602001600020600501600082825461207d9190612dc4565b92505081905550807fbd19c47e9925eb6f7be8bb1c13a841e0240aaeaf17f217e90022e9c8eb66877f60405160405180910390a250505050565b60006020528060005260406000206000915090508060000160009054906101000a900473ffffffffffffffffffffffffffffffffffffffff16908060010160009054906101000a900473ffffffffffffffffffffffffffffffffffffffff169080600201549080600301549080600401549080600501549080600601549080600701549080600801549080600901549080600a01549080600b0160009054906101000a900473ffffffffffffffffffffffffffffffffffffffff1690508c565b60025481565b6001808054905010156121c5576040517f9a9be8fa0000000000000000000000000000000000000000000000000000000081526004016121bc9061332d565b60405180910390fd5b60008082036121dd576121d6612518565b905061222f565b81905060006121eb8261256b565b90508061222d576040517f9a9be8fa00000000000000000000000000000000000000000000000000000000815260040161222490613399565b60405180910390fd5b505b60008111612272576040517f9a9be8fa00000000000000000000000000000000000000000000000000000000815260040161226990613405565b60405180910390fd5b600073ffffffffffffffffffffffffffffffffffffffff1660008083815260200190815260200160002060010160009054906101000a900473ffffffffffffffffffffffffffffffffffffffff1673ffffffffffffffffffffffffffffffffffffffff1614612316576040517f9a9be8fa00000000000000000000000000000000000000000000000000000000815260040161230d90613471565b60405180910390fd5b3373ffffffffffffffffffffffffffffffffffffffff1660008083815260200190815260200160002060000160009054906101000a900473ffffffffffffffffffffffffffffffffffffffff1673ffffffffffffffffffffffffffffffffffffffff16036123b9576040517f9a9be8fa0000000000000000000000000000000000000000000000000000000081526004016123b090613503565b60405180910390fd5b3360008083815260200190815260200160002060010160006101000a81548173ffffffffffffffffffffffffffffffffffffffff021916908373ffffffffffffffffffffffffffffffffffffffff160217905550807f66bacdfb07a49afa060b23ca1e16974d1919771fff2fd57717ab8857b0673b3460008084815260200190815260200160002060000160009054906101000a900473ffffffffffffffffffffffffffffffffffffffff1660008085815260200190815260200160002060010160009054906101000a900473ffffffffffffffffffffffffffffffffffffffff166000808681526020019081526020016000206002015460008087815260200190815260200160002060030154600080888152602001908152602001600020600401546040516124ee959493929190613523565b60405180910390a25050565b60006002600081548092919061250f90612f70565b91905055905090565b6000806001805490500361252f5760009050612568565b600161253f600180549050612696565b815481106125505761254f612ec3565b5b906000526020600020015490506125668161256b565b505b90565b6000806000805b6001805490508110156125c357846001828154811061259457612593612ec3565b5b9060005260206000200154036125b057809250600191506125c3565b80806125bb90612f70565b915050612572565b508015806125d657506001805490508210155b156125e5578092505050612691565b60008290505b600180805490506125fc9190612fb8565b81101561266257600180826126119190612dc4565b8154811061262257612621612ec3565b5b90600052602060002001546001828154811061264157612640612ec3565b5b9060005260206000200181905550808061265a90612f70565b9150506125eb565b50600180548061267557612674613576565b5b6001900381819060005260206000200160009055905580925050505b919050565b60008142336040516020016126ac92919061360e565b6040516020818303038152906040528051906020012060001c6126cf9190612e92565b9050919050565b6000604051905090565b600080fd5b600080fd5b6000819050919050565b6126fd816126ea565b811461270857600080fd5b50565b60008135905061271a816126f4565b92915050565b600060208284031215612736576127356126e0565b5b60006127448482850161270b565b91505092915050565b6000819050919050565b6127608161274d565b811461276b57600080fd5b50565b60008135905061277d81612757565b92915050565b6000806040838503121561279a576127996126e0565b5b60006127a88582860161270b565b92505060206127b98582860161276e565b9150509250929050565b600080fd5b6000601f19601f8301169050919050565b7f4e487b7100000000000000000000000000000000000000000000000000000000600052604160045260246000fd5b612811826127c8565b810181811067ffffffffffffffff821117156128305761282f6127d9565b5b80604052505050565b60006128436126d6565b905061284f8282612808565b919050565b600067ffffffffffffffff82111561286f5761286e6127d9565b5b602082029050602081019050919050565b600080fd5b600061289861289384612854565b612839565b905080838252602082019050602084028301858111156128bb576128ba612880565b5b835b818110156128e457806128d0888261276e565b8452602084019350506020810190506128bd565b5050509392505050565b600082601f830112612903576129026127c3565b5b8135612913848260208601612885565b91505092915050565b60008060008060008060c08789031215612939576129386126e0565b5b600061294789828a0161270b565b965050602061295889828a0161270b565b955050604061296989828a0161270b565b945050606061297a89828a0161270b565b935050608061298b89828a0161276e565b92505060a087013567ffffffffffffffff8111156129ac576129ab6126e5565b5b6129b889828a016128ee565b9150509295509295509295565b60008115159050919050565b6129da816129c5565b81146129e557600080fd5b50565b6000813590506129f7816129d1565b92915050565b60008060408385031215612a1457612a136126e0565b5b6000612a228582860161270b565b9250506020612a33858286016129e8565b9150509250929050565b600080600060608486031215612a5657612a556126e0565b5b6000612a648682870161270b565b9350506020612a758682870161270b565b9250506040612a868682870161270b565b9150509250925092565b612a99816126ea565b82525050565b6000602082019050612ab46000830184612a90565b92915050565b600073ffffffffffffffffffffffffffffffffffffffff82169050919050565b6000612ae582612aba565b9050919050565b612af581612ada565b82525050565b612b048161274d565b82525050565b600061018082019050612b20600083018f612aec565b612b2d602083018e612aec565b612b3a604083018d612a90565b612b47606083018c612a90565b612b54608083018b612a90565b612b6160a083018a612a90565b612b6e60c0830189612afb565b612b7b60e0830188612afb565b612b89610100830187612a90565b612b97610120830186612a90565b612ba5610140830185612a90565b612bb3610160830184612aec565b9d9c50505050505050505050505050565b600082825260208201905092915050565b7f47616d65206964206973206e6567617469766521000000000000000000000000600082015250565b6000612c0b601483612bc4565b9150612c1682612bd5565b602082019050919050565b60006020820190508181036000830152612c3a81612bfe565b9050919050565b7f506c61796572206e6f7420696e20746861742067616d65210000000000000000600082015250565b6000612c77601883612bc4565b9150612c8282612c41565b602082019050919050565b60006020820190508181036000830152612ca681612c6a565b9050919050565b6000819050919050565b6000819050919050565b6000612cdc612cd7612cd284612cad565b612cb7565b6126ea565b9050919050565b612cec81612cc1565b82525050565b6000606082019050612d076000830186612aec565b612d146020830185612aec565b612d216040830184612ce3565b949350505050565b7f426f61726420616c7265616479207375626d6974746564210000000000000000600082015250565b6000612d5f601883612bc4565b9150612d6a82612d29565b602082019050919050565b60006020820190508181036000830152612d8e81612d52565b9050919050565b7f4e487b7100000000000000000000000000000000000000000000000000000000600052601160045260246000fd5b6000612dcf826126ea565b9150612dda836126ea565b9250828201905080821115612df257612df1612d95565b5b92915050565b6000604082019050612e0d6000830185612aec565b612e1a6020830184612aec565b9392505050565b6000612e2c826126ea565b9150612e37836126ea565b9250828202612e45816126ea565b91508282048414831517612e5c57612e5b612d95565b5b5092915050565b7f4e487b7100000000000000000000000000000000000000000000000000000000600052601260045260246000fd5b6000612e9d826126ea565b9150612ea8836126ea565b925082612eb857612eb7612e63565b5b828206905092915050565b7f4e487b7100000000000000000000000000000000000000000000000000000000600052603260045260246000fd5b6000819050919050565b612f0d612f088261274d565b612ef2565b82525050565b6000612f1f8285612efc565b602082019150612f2f8284612efc565b6020820191508190509392505050565b6000612f4a826126ea565b9150612f55836126ea565b925082612f6557612f64612e63565b5b828204905092915050565b6000612f7b826126ea565b91507fffffffffffffffffffffffffffffffffffffffffffffffffffffffffffffffff8203612fad57612fac612d95565b5b600182019050919050565b6000612fc3826126ea565b9150612fce836126ea565b9250828203905081811115612fe657612fe5612d95565b5b92915050565b600060a0820190506130016000830188612aec565b61300e6020830187612a90565b61301b6040830186612a90565b6130286060830185612a90565b6130356080830184612a90565b9695505050505050565b6000819050919050565b600061306461305f61305a8461303f565b612cb7565b6126ea565b9050919050565b61307481613049565b82525050565b600060608201905061308f6000830186612aec565b61309c6020830185612aec565b6130a9604083018461306b565b949350505050565b6000819050919050565b60006130d66130d16130cc846130b1565b612cb7565b6126ea565b9050919050565b6130e6816130bb565b82525050565b60006060820190506131016000830186612aec565b61310e6020830185612aec565b61311b60408301846130dd565b949350505050565b60006060820190506131386000830186612aec565b6131456020830185612a90565b613152604083018461306b565b949350505050565b7f45544820616d6f756e74206172652077726f6e67210000000000000000000000600082015250565b6000613190601583612bc4565b915061319b8261315a565b602082019050919050565b600060208201905081810360008301526131bf81613183565b9050919050565b60006060820190506131db6000830186612aec565b6131e86020830185612a90565b6131f560408301846130dd565b949350505050565b60006020820190506132126000830184612aec565b92915050565b600060608201905061322d6000830186612aec565b61323a6020830185612a90565b6132476040830184612a90565b949350505050565b7f496e76616c696420626f6172642073697a65206f722073686970206e756d626560008201527f7221000000000000000000000000000000000000000000000000000000000000602082015250565b60006132ab602283612bc4565b91506132b68261324f565b604082019050919050565b600060208201905081810360008301526132da8161329e565b9050919050565b7f4e6f206f70656e2067616d657321000000000000000000000000000000000000600082015250565b6000613317600e83612bc4565b9150613322826132e1565b602082019050919050565b600060208201905081810360008301526133468161330a565b9050919050565b7f546869732067616d6520646f6573206e6f742065786973742100000000000000600082015250565b6000613383601983612bc4565b915061338e8261334d565b602082019050919050565b600060208201905081810360008301526133b281613376565b9050919050565b7f43686f73656e206964206e656761746976652100000000000000000000000000600082015250565b60006133ef601383612bc4565b91506133fa826133b9565b602082019050919050565b6000602082019050818103600083015261341e816133e2565b9050919050565b7f47616d6520616c72656164792074616b656e2100000000000000000000000000600082015250565b600061345b601383612bc4565b915061346682613425565b602082019050919050565b6000602082019050818103600083015261348a8161344e565b9050919050565b7f596f752063616e2774206a6f696e20612067616d65206372656174656420627960008201527f20796f757273656c662100000000000000000000000000000000000000000000602082015250565b60006134ed602a83612bc4565b91506134f882613491565b604082019050919050565b6000602082019050818103600083015261351c816134e0565b9050919050565b600060a0820190506135386000830188612aec565b6135456020830187612aec565b6135526040830186612a90565b61355f6060830185612a90565b61356c6080830184612a90565b9695505050505050565b7f4e487b7100000000000000000000000000000000000000000000000000000000600052603160045260246000fd5b6000819050919050565b6135c06135bb826126ea565b6135a5565b82525050565b60008160601b9050919050565b60006135de826135c6565b9050919050565b60006135f0826135d3565b9050919050565b61360861360382612ada565b6135e5565b82525050565b600061361a82856135af565b60208201915061362a82846135f7565b601482019150819050939250505056fea26469706673582212205959ad0f7ade71b4944972f9df97dd1ed752fffea71b2db78ad26c49e24ea10e64736f6c63430008130033",
  "immutableReferences": {},
  "source": "// SPDX-License-Identifier: MIT\npragma solidity >=0.4.22 <0.9.0;\n\n// FRANCESCO BENOCCI 24/07/2023\ncontract BattleShipGame {\n    struct gameInfo {\n        // struct with all the information about a game\n        address creator;\n        address joiner;\n        uint256 boardSize;\n        uint256 shipNum;\n        uint256 ethAmount;\n        uint256 ethBetted;\n        bytes32 creatorMerkleRoot;\n        bytes32 joinerMerkleRoot;\n        uint256 creatorNumShips;\n        uint256 joinerNumShips;\n        uint256 accusationTime;\n        address accuser;\n    }\n\n    mapping(uint256 => gameInfo) public gameList; // map of game's ID (gameId => information of that game)\n    uint256[] public availableGames; // array with all the gameId of the avaible game\n\n    uint256 public gameId = 1; // value of the next gameId\n\n    // error event:\n    error OutputError(string myError);\n\n    // event:\n    event GameCreated(uint256 indexed _gameId);\n\n    event GameJoined(\n        uint256 indexed _gameId,\n        address _creator,\n        address _joiner,\n        uint256 _boardSize,\n        uint256 _shipNum,\n        uint256 _ethAmount\n    );\n\n    event AmountEthResponse(\n        address _sender,\n        uint256 _amount,\n        uint256 indexed _gameId,\n        uint256 _response\n    );\n\n    event ShotShip(\n        uint256 indexed _gameId,\n        address _address,\n        uint256 _row,\n        uint256 _col\n    );\n\n    event ShotResult(\n        uint256 indexed _gameId,\n        address _address,\n        uint256 _row,\n        uint256 _col,\n        uint256 _result,\n        uint256 _shipsRemaining\n    );\n\n    event AccusationTrigger(\n        uint256 indexed _gameId,\n        address _accused,\n        address _accuser\n    );\n\n    event GameEnded(\n        uint256 indexed _gameId,\n        address _winner,\n        address _loser,\n        uint256 _reason\n    );\n\n    event ResolveAccuse(\n        uint256 indexed _gameId,\n        address _accuser\n    );\n\n    constructor() {}\n\n    // function to return the gameId\n    function getId() private returns (uint256 toReturn) {\n        toReturn = gameId++;\n        return toReturn;\n    }\n\n    // function to remove an element of the array availableGames\n    function removeFromArray(uint256 _gameId) private returns (bool) {\n        uint256 index;\n        bool find = false;\n\n        // loop through the avaible game until find the index of the chosen one\n        for (uint i = 0; i < availableGames.length; i++) {\n            if (availableGames[i] == _gameId) {\n                index = i;\n                find = true;\n                break;\n            }\n        }\n\n        if (!find || index >= availableGames.length) {\n            return find;\n        }\n\n        for (uint i = index; i < availableGames.length - 1; i++) {\n            // move manually all the element\n            availableGames[i] = availableGames[i + 1];\n        }\n        \n        availableGames.pop(); // remove the last element\n        \n        return find;\n    }\n\n    function getRandomNumber(uint256 bound) private view returns (uint256) {\n        return\n            uint256(keccak256(abi.encodePacked(block.timestamp, msg.sender))) %\n            bound;\n    }\n\n    // function to get the gameId of an avaible game\n    function randomGame() private returns (uint256 randGameId) {\n        if (availableGames.length == 0) {\n            return 0;\n        }\n\n        randGameId = availableGames[getRandomNumber(availableGames.length)];\n        removeFromArray(randGameId);\n        return randGameId;\n    }\n\n    // GAS EVALUATION:\n    //  with boardSize=4, shipNum=3, ethAmount=2:\n    //    - Gas used: 222881\n    //    - Total Price: 0.00033432 ETH\n    //\n    function createGame(\n        // function to create a new game\n        uint256 _boardSize,\n        uint256 _shipNum,\n        uint256 _ethAmount\n    ) public payable {\n        // create a new game\n\n        // Check if the board size and ship number are valid\n        if (_boardSize <= 0 || _shipNum <= 0) {\n            revert OutputError(\"Invalid board size or ship number!\");\n        }\n\n        require(msg.value/1000000000000000000 == _ethAmount, \"ETH amount are wrong!\");\n\n        uint256 newGameId = getId();\n\n        gameList[newGameId] = gameInfo(\n            msg.sender,\n            address(0),\n            _boardSize,\n            _shipNum,\n            _ethAmount,\n            0,\n            0,\n            0,\n            _shipNum,\n            _shipNum,\n            0,\n            address(0)\n        );\n        availableGames.push(newGameId);\n\n        gameList[newGameId].ethBetted += msg.value;\n\n        emit GameCreated(newGameId);\n    }\n\n    // GAS EVALUATION:\n    //  - specificGame:\n    //    - Gas used: 68143\n    //    - Total Price: 0.00010221 ETH\n    //\n    //  - randomGame:\n    //    - Gas used: 61738\n    //    - Total Price: 0.00009261 ETH \n    function joinGame(uint256 _gameId) public {\n        // function to join a game\n        // check if there are avaible game\n        if (availableGames.length < 1) {\n            revert OutputError(\"No open games!\");\n        }\n\n        uint256 chosenGameId;\n\n        if (_gameId == 0) {\n            //random game choice\n            chosenGameId = randomGame();\n        } else {\n            //specific game\n            chosenGameId = _gameId;\n            bool find = removeFromArray(chosenGameId);\n\n            if (!find) {\n                revert OutputError(\"This game does not exist!\");\n            }\n        }\n\n        if (chosenGameId <= 0) {\n            revert OutputError(\"Chosen id negative!\");\n        }\n\n        if (gameList[chosenGameId].joiner != address(0)) {\n            revert OutputError(\"Game already taken!\");\n        }\n\n        if (gameList[chosenGameId].creator == msg.sender) {\n            revert OutputError(\"You can't join a game created by yourself!\");\n        }\n\n        gameList[chosenGameId].joiner = msg.sender;\n\n        emit GameJoined(\n            chosenGameId,\n            gameList[chosenGameId].creator,\n            gameList[chosenGameId].joiner,\n            gameList[chosenGameId].boardSize,\n            gameList[chosenGameId].shipNum,\n            gameList[chosenGameId].ethAmount\n        );\n    }\n\n    // GAS EVALUATION:\n    //  - positive response:\n    //    - Gas used: 36545\n    //    - Total Price: 0.00005482 ETH\n    //\n    function amountEthDecision(uint256 _gameId, bool _response) public payable {\n        // function to accept or refuse the eth amount\n\n        // Check if the game ID is valid\n        if (_gameId <= 0) {\n            revert OutputError(\"Game id is negative!\");\n        }\n\n        // Check if the sender is either the creator or the joiner of the game\n        if (\n            gameList[_gameId].creator != msg.sender &&\n            gameList[_gameId].joiner != msg.sender\n        ) {\n            revert OutputError(\"Player not in that game!\");\n        }\n\n        if (!_response) {\n            // refuse response\n            gameList[_gameId].joiner = address(0);\n            availableGames.push(_gameId);\n\n            emit AmountEthResponse(\n            msg.sender,\n            gameList[_gameId].ethAmount,\n            _gameId,\n            0\n        );\n        } else {\n            require(\n                msg.value/1000000000000000000 == gameList[_gameId].ethAmount,\n                \"ETH amount are wrong!\"\n            );\n\n            gameList[_gameId].ethBetted += msg.value;\n\n            emit AmountEthResponse(\n            msg.sender,\n            gameList[_gameId].ethAmount,\n            _gameId,\n            1\n        );\n        }\n    }\n\n    // GAS EVALUATION:\n    //    - Gas used: 49767 - 50255\n    //    - Total Price: 0.00007465 - 0.00007538 ETH\n    //\n    function submitBoard(uint256 _gameId, bytes32 _merkleRoot) public {\n        // function to submit the board\n\n        // Check if the game ID is valid\n        if (_gameId <= 0) {\n            revert OutputError(\"Game id is negative!\");\n        }\n\n        // Check if the sender is either the creator or the joiner of the game\n        if (\n            gameList[_gameId].creator != msg.sender &&\n            gameList[_gameId].joiner != msg.sender\n        ) {\n            revert OutputError(\"Player not in that game!\");\n        }\n\n        // Check if the board is not already submitted\n        if (\n            (gameList[_gameId].creator == msg.sender &&\n                gameList[_gameId].creatorMerkleRoot != 0) ||\n            (gameList[_gameId].joiner == msg.sender &&\n                gameList[_gameId].joinerMerkleRoot != 0)\n        ) {\n            revert OutputError(\"Board already submitted!\");\n        }\n\n        if (gameList[_gameId].creator == msg.sender) {\n            gameList[_gameId].creatorMerkleRoot = _merkleRoot;\n        } else if (gameList[_gameId].joiner == msg.sender) {\n            gameList[_gameId].joinerMerkleRoot = _merkleRoot;\n        } else {\n            revert OutputError(\"Player not in that game!\");\n        }\n    }\n\n    // GAS EVALUATION:\n    //    - Gas used: 31670\n    //    - Total Price: 0.0000475 ETH\n    //\n    function shot(uint256 _gameId, uint256 _row, uint256 _col) public {\n        // function to communicate the coordinates of the fired cell\n\n        // Check if the game ID is valid\n        if (_gameId <= 0) {\n            revert OutputError(\"Game id is negative!\");\n        }\n\n        // Check if the sender is either the creator or the joiner of the game\n        if (\n            gameList[_gameId].creator != msg.sender &&\n            gameList[_gameId].joiner != msg.sender\n        ) {\n            revert OutputError(\"Player not in that game!\");\n        }\n\n        if(gameList[_gameId].accuser != address(0)){\n            emit ResolveAccuse(_gameId, gameList[_gameId].accuser);\n            gameList[_gameId].accuser = address(0);\n            gameList[_gameId].accusationTime = 0;\n        }\n        \n        // take the opponent address for comunicate who was shot\n        address opponentAddress;\n        if (msg.sender == gameList[_gameId].creator) {\n            opponentAddress = gameList[_gameId].joiner;\n        } else {\n            opponentAddress = gameList[_gameId].creator;\n        }\n\n        emit ShotShip(_gameId, opponentAddress, _row, _col);\n    }\n\n    // GAS EVALUATION:\n    //    - Gas used: 47020\n    //    - Total Price: 0.00007053 ETH\n    //\n    function shotResult(\n        uint256 _gameId,\n        uint256 _row,\n        uint256 _col,\n        uint256 _result,\n        bytes32 _hash,\n        bytes32[] memory _merkleProof\n    ) public payable {\n        // function to comunicate the result of the shot\n\n        // Check if the game ID is valid\n        if (_gameId <= 0) {\n            revert OutputError(\"Game id is negative!\");\n        }\n\n        // Check if the sender is either the creator or the joiner of the game\n        if (\n            gameList[_gameId].creator != msg.sender &&\n            gameList[_gameId].joiner != msg.sender\n        ) {\n            revert OutputError(\"Player not in that game!\");\n        }\n\n        // take the opponent address for comunicate who fired the shot\n        address opponentAddress;\n        bytes32 merkleRoot;\n        if (msg.sender == gameList[_gameId].creator) {\n            opponentAddress = gameList[_gameId].joiner;\n            merkleRoot = gameList[_gameId].creatorMerkleRoot;\n        } else {\n            opponentAddress = gameList[_gameId].creator;\n            merkleRoot = gameList[_gameId].joinerMerkleRoot;\n        }\n\n        bytes32 hashValue = _hash;\n\n        uint256 index = _row * gameList[_gameId].boardSize + _col;\n        for (uint i = 0; i < _merkleProof.length; i++) {\n            if (index % 2 == 0) {\n                hashValue = keccak256(\n                    abi.encodePacked(hashValue, _merkleProof[i])\n                );\n            } else {\n                hashValue = keccak256(\n                    abi.encodePacked(_merkleProof[i], hashValue)\n                );\n            }\n\n            index = index / 2;\n        }\n\n        uint256 shipsRemaining;\n        if (merkleRoot == hashValue) {\n            // validated shot\n            if (msg.sender == gameList[_gameId].creator) {\n                if (_result == 1) {\n                    gameList[_gameId].joinerNumShips =\n                        gameList[_gameId].joinerNumShips -\n                        1;\n                }\n                shipsRemaining = gameList[_gameId].joinerNumShips;\n            } else {\n                if (_result == 1) {\n                    gameList[_gameId].creatorNumShips =\n                        gameList[_gameId].creatorNumShips -\n                        1;\n                }\n                shipsRemaining = gameList[_gameId].creatorNumShips;\n            }\n\n            emit ShotResult(\n                _gameId,\n                opponentAddress,\n                _row,\n                _col,\n                _result,\n                shipsRemaining\n            );\n        } else {\n            // invlidated shot\n            emit GameEnded(_gameId, opponentAddress, msg.sender, 0);\n            payable(opponentAddress).transfer(gameList[_gameId].ethBetted);\n            return;\n        }\n\n        if (shipsRemaining <= 0) {\n            payable(opponentAddress).transfer(gameList[_gameId].ethBetted);\n\n            emit GameEnded(_gameId, opponentAddress, msg.sender, 1);\n        }\n    }\n\n    // GAS EVALUATION:\n    //    - Gas used: 73799\n    //    - Total Price: 0.0001107 ETH\n    //\n    function accuseOpponent(uint256 _gameId) public payable {\n        // function to accuse the opponent of having left\n\n        // Check if the game ID is valid\n        if (_gameId <= 0) {\n            revert OutputError(\"Game id is negative!\");\n        }\n\n        // Check if the sender is either the creator or the joiner of the game\n        if (\n            gameList[_gameId].creator != msg.sender &&\n            gameList[_gameId].joiner != msg.sender\n        ) {\n            revert OutputError(\"Player not in that game!\");\n        }\n\n        if (gameList[_gameId].accuser == address(0)) { // if there isn't an accuser\n            // set the accuser and the accusationTime:\n            gameList[_gameId].accuser = msg.sender;\n            gameList[_gameId].accusationTime = block.number + 5;\n\n            // send the event of the accusation\n            if (gameList[_gameId].accuser == gameList[_gameId].creator) {\n                emit AccusationTrigger(\n                    _gameId,\n                    gameList[_gameId].joiner,\n                    gameList[_gameId].creator\n                );\n            } else if (gameList[_gameId].accuser == gameList[_gameId].joiner) {\n                emit AccusationTrigger(\n                    _gameId,\n                    gameList[_gameId].creator,\n                    gameList[_gameId].joiner\n                );\n            }\n        }\n    }\n\n    // GAS EVALUATION:\n    //    - Gas used: 28303\n    //    - Total Price: 0.00004245 ETH\n    //\n    function verifyAccuse(uint256 _gameId) public payable {\n        // function that verifies that the accusation time has elapsed\n\n        // Check if the game ID is valid\n        if (_gameId <= 0) {\n            revert OutputError(\"Game id is negative!\");\n        }\n\n        // Check if the sender is either the creator or the joiner of the game\n        if (\n            gameList[_gameId].creator != msg.sender &&\n            gameList[_gameId].joiner != msg.sender\n        ) {\n            revert OutputError(\"Player not in that game!\");\n        }\n\n        if (gameList[_gameId].accuser == gameList[_gameId].creator) { // if the creatore was the accuser\n\n            if (gameList[_gameId].accusationTime <= block.number) { // if the time has passed the games end\n                payable(gameList[_gameId].accuser).transfer(\n                    gameList[_gameId].ethBetted\n                );\n\n                emit GameEnded(\n                    _gameId,\n                    gameList[_gameId].accuser,\n                    gameList[_gameId].joiner,\n                    2\n                );\n            }\n        } else if (gameList[_gameId].accuser == gameList[_gameId].joiner) { // if the joiner was the accuser\n            \n            if (gameList[_gameId].accusationTime <= block.number) { // if the time has passed the games end\n                payable(gameList[_gameId].accuser).transfer(\n                    gameList[_gameId].ethBetted\n                );\n\n                emit GameEnded(\n                    _gameId,\n                    gameList[_gameId].accuser,\n                    gameList[_gameId].creator,\n                    2\n                );\n            }\n        } else {\n            return;\n        }\n    }\n}\n",
  "sourcePath": "/mnt/storage/Magistrale/P2PB/ProgettoP2P/P2P_Project/contracts/BattleShipGame.sol",
  "compiler": {
    "name": "solc",
    "version": "0.8.19+commit.7dd6d404.Emscripten.clang"
  },
  "schemaVersion": "3.4.13",
  "updatedAt": "2023-07-24T12:39:38.362Z",
  "networkType": "ethereum",
  "devdoc": {
    "kind": "dev",
    "methods": {},
    "version": 1
  },
  "userdoc": {
    "kind": "user",
    "methods": {},
    "version": 1
  }
}