{
  "contractName": "BattleShipGame",
  "abi": [
    {
      "inputs": [],
      "stateMutability": "nonpayable",
      "type": "constructor"
    },
    {
      "inputs": [
        {
          "internalType": "string",
          "name": "myError",
          "type": "string"
        }
      ],
      "name": "OutputError",
      "type": "error"
    },
    {
      "anonymous": false,
      "inputs": [
        {
          "indexed": false,
          "internalType": "address",
          "name": "_sender",
          "type": "address"
        },
        {
          "indexed": false,
          "internalType": "uint256",
          "name": "_amount",
          "type": "uint256"
        },
        {
          "indexed": true,
          "internalType": "uint256",
          "name": "_gameId",
          "type": "uint256"
        },
        {
          "indexed": false,
          "internalType": "bool",
          "name": "response",
          "type": "bool"
        }
      ],
      "name": "AmountEthResponse",
      "type": "event"
    },
    {
      "anonymous": false,
      "inputs": [
        {
          "indexed": true,
          "internalType": "uint256",
          "name": "_gameId",
          "type": "uint256"
        }
      ],
      "name": "GameCreated",
      "type": "event"
    },
    {
      "anonymous": false,
      "inputs": [
        {
          "indexed": true,
          "internalType": "uint256",
          "name": "_gameId",
          "type": "uint256"
        },
        {
          "indexed": false,
          "internalType": "address",
          "name": "_creator",
          "type": "address"
        },
        {
          "indexed": false,
          "internalType": "address",
          "name": "_joiner",
          "type": "address"
        },
        {
          "indexed": false,
          "internalType": "uint256",
          "name": "_boardSize",
          "type": "uint256"
        },
        {
          "indexed": false,
          "internalType": "uint256",
          "name": "_shipNum",
          "type": "uint256"
        },
        {
          "indexed": false,
          "internalType": "uint256",
          "name": "_ethAmount",
          "type": "uint256"
        }
      ],
      "name": "GameJoined",
      "type": "event"
    },
    {
      "anonymous": false,
      "inputs": [
        {
          "indexed": true,
          "internalType": "uint256",
          "name": "_gameId",
          "type": "uint256"
        },
        {
          "indexed": false,
          "internalType": "address",
          "name": "_address",
          "type": "address"
        },
        {
          "indexed": false,
          "internalType": "bytes32",
          "name": "_merkleRootVictim",
          "type": "bytes32"
        },
        {
          "indexed": false,
          "internalType": "bytes32",
          "name": "_merkleRootShooter",
          "type": "bytes32"
        },
        {
          "indexed": false,
          "internalType": "bytes32",
          "name": "_merkleRootProof",
          "type": "bytes32"
        }
      ],
      "name": "SendInfo",
      "type": "event"
    },
    {
      "anonymous": false,
      "inputs": [
        {
          "indexed": true,
          "internalType": "uint256",
          "name": "_gameId",
          "type": "uint256"
        },
        {
          "indexed": false,
          "internalType": "address",
          "name": "_address",
          "type": "address"
        },
        {
          "indexed": false,
          "internalType": "uint256",
          "name": "_row",
          "type": "uint256"
        },
        {
          "indexed": false,
          "internalType": "uint256",
          "name": "_col",
          "type": "uint256"
        },
        {
          "indexed": false,
          "internalType": "uint256",
          "name": "_merkleCheck",
          "type": "uint256"
        },
        {
          "indexed": false,
          "internalType": "uint256",
          "name": "_result",
          "type": "uint256"
        }
      ],
      "name": "ShootResult",
      "type": "event"
    },
    {
      "anonymous": false,
      "inputs": [
        {
          "indexed": true,
          "internalType": "uint256",
          "name": "_gameId",
          "type": "uint256"
        },
        {
          "indexed": false,
          "internalType": "address",
          "name": "_address",
          "type": "address"
        },
        {
          "indexed": false,
          "internalType": "uint256",
          "name": "_row",
          "type": "uint256"
        },
        {
          "indexed": false,
          "internalType": "uint256",
          "name": "_col",
          "type": "uint256"
        }
      ],
      "name": "ShootShip",
      "type": "event"
    },
    {
      "anonymous": false,
      "inputs": [
        {
          "indexed": true,
          "internalType": "uint256",
          "name": "_gameId",
          "type": "uint256"
        },
        {
          "indexed": false,
          "internalType": "bytes32",
          "name": "_merkleRootCreator",
          "type": "bytes32"
        },
        {
          "indexed": false,
          "internalType": "bytes32",
          "name": "_merkleRootJoiner",
          "type": "bytes32"
        }
      ],
      "name": "StartGame",
      "type": "event"
    },
    {
      "inputs": [
        {
          "internalType": "uint256",
          "name": "",
          "type": "uint256"
        }
      ],
      "name": "avaibleGame",
      "outputs": [
        {
          "internalType": "uint256",
          "name": "",
          "type": "uint256"
        }
      ],
      "stateMutability": "view",
      "type": "function",
      "constant": true
    },
    {
      "inputs": [],
      "name": "gameId",
      "outputs": [
        {
          "internalType": "uint256",
          "name": "",
          "type": "uint256"
        }
      ],
      "stateMutability": "view",
      "type": "function",
      "constant": true
    },
    {
      "inputs": [
        {
          "internalType": "uint256",
          "name": "",
          "type": "uint256"
        }
      ],
      "name": "gameList",
      "outputs": [
        {
          "internalType": "address",
          "name": "creator",
          "type": "address"
        },
        {
          "internalType": "address",
          "name": "joiner",
          "type": "address"
        },
        {
          "internalType": "uint256",
          "name": "boardSize",
          "type": "uint256"
        },
        {
          "internalType": "uint256",
          "name": "shipNum",
          "type": "uint256"
        },
        {
          "internalType": "uint256",
          "name": "ethAmount",
          "type": "uint256"
        },
        {
          "internalType": "bytes32",
          "name": "creatorMerkleRoot",
          "type": "bytes32"
        },
        {
          "internalType": "bytes32",
          "name": "joinerMerkleRoot",
          "type": "bytes32"
        }
      ],
      "stateMutability": "view",
      "type": "function",
      "constant": true
    },
    {
      "inputs": [],
      "name": "getId",
      "outputs": [
        {
          "internalType": "uint256",
          "name": "toReturn",
          "type": "uint256"
        }
      ],
      "stateMutability": "nonpayable",
      "type": "function"
    },
    {
      "inputs": [
        {
          "internalType": "uint256",
          "name": "_gameId",
          "type": "uint256"
        }
      ],
      "name": "removeFromArray",
      "outputs": [
        {
          "internalType": "bool",
          "name": "",
          "type": "bool"
        }
      ],
      "stateMutability": "nonpayable",
      "type": "function"
    },
    {
      "inputs": [],
      "name": "randomGame",
      "outputs": [
        {
          "internalType": "uint256",
          "name": "randGameId",
          "type": "uint256"
        }
      ],
      "stateMutability": "nonpayable",
      "type": "function"
    },
    {
      "inputs": [
        {
          "internalType": "uint256",
          "name": "_boardSize",
          "type": "uint256"
        },
        {
          "internalType": "uint256",
          "name": "_shipNum",
          "type": "uint256"
        },
        {
          "internalType": "uint256",
          "name": "_ethAmount",
          "type": "uint256"
        }
      ],
      "name": "createGame",
      "outputs": [],
      "stateMutability": "nonpayable",
      "type": "function"
    },
    {
      "inputs": [
        {
          "internalType": "uint256",
          "name": "_gameId",
          "type": "uint256"
        }
      ],
      "name": "joinGame",
      "outputs": [],
      "stateMutability": "nonpayable",
      "type": "function"
    },
    {
      "inputs": [
        {
          "internalType": "uint256",
          "name": "_gameId",
          "type": "uint256"
        },
        {
          "internalType": "bool",
          "name": "_response",
          "type": "bool"
        }
      ],
      "name": "amountEthDecision",
      "outputs": [],
      "stateMutability": "nonpayable",
      "type": "function"
    },
    {
      "inputs": [
        {
          "internalType": "uint256",
          "name": "_gameId",
          "type": "uint256"
        },
        {
          "internalType": "bytes32",
          "name": "_merkleRoot",
          "type": "bytes32"
        }
      ],
      "name": "submitBoard",
      "outputs": [],
      "stateMutability": "nonpayable",
      "type": "function"
    },
    {
      "inputs": [
        {
          "internalType": "uint256",
          "name": "_gameId",
          "type": "uint256"
        },
        {
          "internalType": "uint256",
          "name": "_row",
          "type": "uint256"
        },
        {
          "internalType": "uint256",
          "name": "_col",
          "type": "uint256"
        }
      ],
      "name": "shoot",
      "outputs": [],
      "stateMutability": "nonpayable",
      "type": "function"
    },
    {
      "inputs": [
        {
          "internalType": "uint256",
          "name": "_gameId",
          "type": "uint256"
        },
        {
          "internalType": "uint256",
          "name": "_row",
          "type": "uint256"
        },
        {
          "internalType": "uint256",
          "name": "_col",
          "type": "uint256"
        },
        {
          "internalType": "uint256",
          "name": "_result",
          "type": "uint256"
        },
        {
          "internalType": "bytes32",
          "name": "_hash",
          "type": "bytes32"
        },
        {
          "internalType": "bytes32[]",
          "name": "_merkleProof",
          "type": "bytes32[]"
        }
      ],
      "name": "shootResult",
      "outputs": [],
      "stateMutability": "nonpayable",
      "type": "function"
    }
  ],
  "bytecode": "0x6080604052600160025534801561001557600080fd5b50611ca3806100256000396000f3fe608060405234801561001057600080fd5b50600436106100b45760003560e01c8063c558b42c11610071578063c558b42c14610177578063c6cfd08e14610193578063d7c81b55146101c9578063d9ad3ef5146101e7578063eb56ea9014610205578063efaa55a014610235576100b4565b80630328f6fb146100b95780635d1ca631146100d5578063685385f3146100f357806395e1c6fb1461010f578063a4933c811461012b578063c27415211461015b575b600080fd5b6100d360048036038101906100ce9190611142565b610251565b005b6100dd610446565b6040516100ea9190611191565b60405180910390f35b61010d600480360381019061010891906111e4565b610464565b005b6101296004803603810190610124919061137d565b61053d565b005b61014560048036038101906101409190611426565b61086d565b6040516101529190611191565b60405180910390f35b61017560048036038101906101709190611453565b610891565b005b610191600480360381019061018c9190611453565b610a34565b005b6101ad60048036038101906101a89190611426565b610b99565b6040516101c097969594939291906114f6565b60405180910390f35b6101d1610c1b565b6040516101de9190611191565b60405180910390f35b6101ef610c21565b6040516101fc9190611191565b60405180910390f35b61021f600480360381019061021a9190611426565b610c74565b60405161022c9190611574565b60405180910390f35b61024f600480360381019061024a9190611426565b610da8565b005b60008211610294576040517f9a9be8fa00000000000000000000000000000000000000000000000000000000815260040161028b906115ec565b60405180910390fd5b3373ffffffffffffffffffffffffffffffffffffffff1660008084815260200190815260200160002060000160009054906101000a900473ffffffffffffffffffffffffffffffffffffffff1673ffffffffffffffffffffffffffffffffffffffff160361031b5780600080848152602001908152602001600020600501819055506103de565b3373ffffffffffffffffffffffffffffffffffffffff1660008084815260200190815260200160002060010160009054906101000a900473ffffffffffffffffffffffffffffffffffffffff1673ffffffffffffffffffffffffffffffffffffffff16036103a25780600080848152602001908152602001600020600601819055506103dd565b6040517f9a9be8fa0000000000000000000000000000000000000000000000000000000081526004016103d490611658565b60405180910390fd5b5b817f595b7b6a75388d9a9d82ff3f71da50be33f56f7915148fdb3fd632a0234a3961600080858152602001908152602001600020600501546000808681526020019081526020016000206006015460405161043a929190611678565b60405180910390a25050565b60006002600081548092919061045b906116d0565b91905055905090565b806104e857600080600084815260200190815260200160002060010160006101000a81548173ffffffffffffffffffffffffffffffffffffffff021916908373ffffffffffffffffffffffffffffffffffffffff16021790555060018290806001815401808255809150506001900390600052602060002001600090919091909150555b817f55329a170c309fdb206036da4397784f0560d2264c68e25316be295379a9eae833600080868152602001908152602001600020600401548460405161053193929190611718565b60405180910390a25050565b60008611610580576040517f9a9be8fa000000000000000000000000000000000000000000000000000000008152600401610577906115ec565b60405180910390fd5b60008060008060008a815260200190815260200160002060000160009054906101000a900473ffffffffffffffffffffffffffffffffffffffff1673ffffffffffffffffffffffffffffffffffffffff163373ffffffffffffffffffffffffffffffffffffffff160361065a576000808a815260200190815260200160002060010160009054906101000a900473ffffffffffffffffffffffffffffffffffffffff1692506000808a81526020019081526020016000206005015491506000808a81526020019081526020016000206006015490506106c3565b6000808a815260200190815260200160002060000160009054906101000a900473ffffffffffffffffffffffffffffffffffffffff1692506000808a81526020019081526020016000206006015491506000808a81526020019081526020016000206005015490505b6000808690506000896000808e8152602001908152602001600020600201548c6106ed919061174f565b6106f79190611791565b905060005b87518110156107cb57600060028361071491906117f4565b03610763578288828151811061072d5761072c611825565b5b6020026020010151604051602001610746929190611875565b6040516020818303038152906040528051906020012092506107a9565b87818151811061077657610775611825565b5b602002602001015183604051602001610790929190611875565b6040516020818303038152906040528051906020012092505b6002826107b691906118a1565b915080806107c3906116d0565b9150506106fc565b508185036107dc57600192506107e1565b600092505b8b7f682729007816d548060438637183b635ada59e9f6892be5bc9bc6043b9a35919878d8d878e6040516108199594939291906118d2565b60405180910390a28b7fa30e6bf36cfc9aa6676fe87344e4f3dc0735e0cb91bb79a7900b6f93c07e078c878787866040516108579493929190611925565b60405180910390a2505050505050505050505050565b6001818154811061087d57600080fd5b906000526020600020016000915090505481565b600061089b610446565b90506040518060e001604052803373ffffffffffffffffffffffffffffffffffffffff168152602001600073ffffffffffffffffffffffffffffffffffffffff1681526020018581526020018481526020018381526020016000801b81526020016000801b81525060008083815260200190815260200160002060008201518160000160006101000a81548173ffffffffffffffffffffffffffffffffffffffff021916908373ffffffffffffffffffffffffffffffffffffffff16021790555060208201518160010160006101000a81548173ffffffffffffffffffffffffffffffffffffffff021916908373ffffffffffffffffffffffffffffffffffffffff16021790555060408201518160020155606082015181600301556080820151816004015560a0820151816005015560c082015181600601559050506001819080600181540180825580915050600190039060005260206000200160009091909190915055807fbd19c47e9925eb6f7be8bb1c13a841e0240aaeaf17f217e90022e9c8eb66877f60405160405180910390a250505050565b60008311610a77576040517f9a9be8fa000000000000000000000000000000000000000000000000000000008152600401610a6e906115ec565b60405180910390fd5b600080600085815260200190815260200160002060000160009054906101000a900473ffffffffffffffffffffffffffffffffffffffff1673ffffffffffffffffffffffffffffffffffffffff163373ffffffffffffffffffffffffffffffffffffffff1603610b1e5760008085815260200190815260200160002060010160009054906101000a900473ffffffffffffffffffffffffffffffffffffffff169050610b57565b60008085815260200190815260200160002060000160009054906101000a900473ffffffffffffffffffffffffffffffffffffffff1690505b837fa16c812880cd48fb28e27eb04ace25edead556e67c396ab7d2a93674adf55b43828585604051610b8b9392919061196a565b60405180910390a250505050565b60006020528060005260406000206000915090508060000160009054906101000a900473ffffffffffffffffffffffffffffffffffffffff16908060010160009054906101000a900473ffffffffffffffffffffffffffffffffffffffff16908060020154908060030154908060040154908060050154908060060154905087565b60025481565b60008060018054905003610c385760009050610c71565b6001610c48600180549050611082565b81548110610c5957610c58611825565b5b90600052602060002001549050610c6f81610c74565b505b90565b6000806000805b600180549050811015610ccc578460018281548110610c9d57610c9c611825565b5b906000526020600020015403610cb95780925060019150610ccc565b8080610cc4906116d0565b915050610c7b565b50801580610cdf57506001805490508210155b15610cee578092505050610da3565b60008290505b60018080549050610d0591906119a1565b811015610d6b5760018082610d1a9190611791565b81548110610d2b57610d2a611825565b5b906000526020600020015460018281548110610d4a57610d49611825565b5b90600052602060002001819055508080610d63906116d0565b915050610cf4565b506001808080549050610d7e91906119a1565b81548110610d8f57610d8e611825565b5b906000526020600020016000905580925050505b919050565b600180805490501015610df0576040517f9a9be8fa000000000000000000000000000000000000000000000000000000008152600401610de790611a21565b60405180910390fd5b6000808203610e0857610e01610c21565b9050610e5a565b8190506000610e1682610c74565b905080610e58576040517f9a9be8fa000000000000000000000000000000000000000000000000000000008152600401610e4f90611a8d565b60405180910390fd5b505b60008111610e9d576040517f9a9be8fa000000000000000000000000000000000000000000000000000000008152600401610e9490611af9565b60405180910390fd5b600073ffffffffffffffffffffffffffffffffffffffff1660008083815260200190815260200160002060010160009054906101000a900473ffffffffffffffffffffffffffffffffffffffff1673ffffffffffffffffffffffffffffffffffffffff1614610f41576040517f9a9be8fa000000000000000000000000000000000000000000000000000000008152600401610f3890611b65565b60405180910390fd5b3360008083815260200190815260200160002060010160006101000a81548173ffffffffffffffffffffffffffffffffffffffff021916908373ffffffffffffffffffffffffffffffffffffffff160217905550807f66bacdfb07a49afa060b23ca1e16974d1919771fff2fd57717ab8857b0673b3460008084815260200190815260200160002060000160009054906101000a900473ffffffffffffffffffffffffffffffffffffffff1660008085815260200190815260200160002060010160009054906101000a900473ffffffffffffffffffffffffffffffffffffffff16600080868152602001908152602001600020600201546000808781526020019081526020016000206003015460008088815260200190815260200160002060040154604051611076959493929190611b85565b60405180910390a25050565b6000814233604051602001611098929190611c41565b6040516020818303038152906040528051906020012060001c6110bb91906117f4565b9050919050565b6000604051905090565b600080fd5b600080fd5b6000819050919050565b6110e9816110d6565b81146110f457600080fd5b50565b600081359050611106816110e0565b92915050565b6000819050919050565b61111f8161110c565b811461112a57600080fd5b50565b60008135905061113c81611116565b92915050565b60008060408385031215611159576111586110cc565b5b6000611167858286016110f7565b92505060206111788582860161112d565b9150509250929050565b61118b816110d6565b82525050565b60006020820190506111a66000830184611182565b92915050565b60008115159050919050565b6111c1816111ac565b81146111cc57600080fd5b50565b6000813590506111de816111b8565b92915050565b600080604083850312156111fb576111fa6110cc565b5b6000611209858286016110f7565b925050602061121a858286016111cf565b9150509250929050565b600080fd5b6000601f19601f8301169050919050565b7f4e487b7100000000000000000000000000000000000000000000000000000000600052604160045260246000fd5b61127282611229565b810181811067ffffffffffffffff821117156112915761129061123a565b5b80604052505050565b60006112a46110c2565b90506112b08282611269565b919050565b600067ffffffffffffffff8211156112d0576112cf61123a565b5b602082029050602081019050919050565b600080fd5b60006112f96112f4846112b5565b61129a565b9050808382526020820190506020840283018581111561131c5761131b6112e1565b5b835b818110156113455780611331888261112d565b84526020840193505060208101905061131e565b5050509392505050565b600082601f83011261136457611363611224565b5b81356113748482602086016112e6565b91505092915050565b60008060008060008060c0878903121561139a576113996110cc565b5b60006113a889828a016110f7565b96505060206113b989828a016110f7565b95505060406113ca89828a016110f7565b94505060606113db89828a016110f7565b93505060806113ec89828a0161112d565b92505060a087013567ffffffffffffffff81111561140d5761140c6110d1565b5b61141989828a0161134f565b9150509295509295509295565b60006020828403121561143c5761143b6110cc565b5b600061144a848285016110f7565b91505092915050565b60008060006060848603121561146c5761146b6110cc565b5b600061147a868287016110f7565b935050602061148b868287016110f7565b925050604061149c868287016110f7565b9150509250925092565b600073ffffffffffffffffffffffffffffffffffffffff82169050919050565b60006114d1826114a6565b9050919050565b6114e1816114c6565b82525050565b6114f08161110c565b82525050565b600060e08201905061150b600083018a6114d8565b61151860208301896114d8565b6115256040830188611182565b6115326060830187611182565b61153f6080830186611182565b61154c60a08301856114e7565b61155960c08301846114e7565b98975050505050505050565b61156e816111ac565b82525050565b60006020820190506115896000830184611565565b92915050565b600082825260208201905092915050565b7f47616d65206964206973206e6567617469766521000000000000000000000000600082015250565b60006115d660148361158f565b91506115e1826115a0565b602082019050919050565b60006020820190508181036000830152611605816115c9565b9050919050565b7f506c61796572206e6f7420696e20746861742067616d65210000000000000000600082015250565b600061164260188361158f565b915061164d8261160c565b602082019050919050565b6000602082019050818103600083015261167181611635565b9050919050565b600060408201905061168d60008301856114e7565b61169a60208301846114e7565b9392505050565b7f4e487b7100000000000000000000000000000000000000000000000000000000600052601160045260246000fd5b60006116db826110d6565b91507fffffffffffffffffffffffffffffffffffffffffffffffffffffffffffffffff820361170d5761170c6116a1565b5b600182019050919050565b600060608201905061172d60008301866114d8565b61173a6020830185611182565b6117476040830184611565565b949350505050565b600061175a826110d6565b9150611765836110d6565b9250828202611773816110d6565b9150828204841483151761178a576117896116a1565b5b5092915050565b600061179c826110d6565b91506117a7836110d6565b92508282019050808211156117bf576117be6116a1565b5b92915050565b7f4e487b7100000000000000000000000000000000000000000000000000000000600052601260045260246000fd5b60006117ff826110d6565b915061180a836110d6565b92508261181a576118196117c5565b5b828206905092915050565b7f4e487b7100000000000000000000000000000000000000000000000000000000600052603260045260246000fd5b6000819050919050565b61186f61186a8261110c565b611854565b82525050565b6000611881828561185e565b602082019150611891828461185e565b6020820191508190509392505050565b60006118ac826110d6565b91506118b7836110d6565b9250826118c7576118c66117c5565b5b828204905092915050565b600060a0820190506118e760008301886114d8565b6118f46020830187611182565b6119016040830186611182565b61190e6060830185611182565b61191b6080830184611182565b9695505050505050565b600060808201905061193a60008301876114d8565b61194760208301866114e7565b61195460408301856114e7565b61196160608301846114e7565b95945050505050565b600060608201905061197f60008301866114d8565b61198c6020830185611182565b6119996040830184611182565b949350505050565b60006119ac826110d6565b91506119b7836110d6565b92508282039050818111156119cf576119ce6116a1565b5b92915050565b7f4e6f206f70656e2067616d657321000000000000000000000000000000000000600082015250565b6000611a0b600e8361158f565b9150611a16826119d5565b602082019050919050565b60006020820190508181036000830152611a3a816119fe565b9050919050565b7f546869732067616d6520646f6573206e6f742065786973742100000000000000600082015250565b6000611a7760198361158f565b9150611a8282611a41565b602082019050919050565b60006020820190508181036000830152611aa681611a6a565b9050919050565b7f43686f73656e206964206e656761746976652100000000000000000000000000600082015250565b6000611ae360138361158f565b9150611aee82611aad565b602082019050919050565b60006020820190508181036000830152611b1281611ad6565b9050919050565b7f47616d6520616c72656164792074616b656e2100000000000000000000000000600082015250565b6000611b4f60138361158f565b9150611b5a82611b19565b602082019050919050565b60006020820190508181036000830152611b7e81611b42565b9050919050565b600060a082019050611b9a60008301886114d8565b611ba760208301876114d8565b611bb46040830186611182565b611bc16060830185611182565b611bce6080830184611182565b9695505050505050565b6000819050919050565b611bf3611bee826110d6565b611bd8565b82525050565b60008160601b9050919050565b6000611c1182611bf9565b9050919050565b6000611c2382611c06565b9050919050565b611c3b611c36826114c6565b611c18565b82525050565b6000611c4d8285611be2565b602082019150611c5d8284611c2a565b601482019150819050939250505056fea264697066735822122033498d72458f3d51c4192f9fae5ea6e4aa07593ba725442f6781ad54ac8777ca64736f6c63430008130033",
  "immutableReferences": {},
  "source": "// SPDX-License-Identifier: MIT\npragma solidity >=0.4.22 <0.9.0;\n\ncontract BattleShipGame {\n    struct gameInfo {\n        // struct with all the information about a game\n        address creator;\n        address joiner;\n        uint256 boardSize;\n        uint256 shipNum;\n        uint256 ethAmount;\n        bytes32 creatorMerkleRoot;\n        bytes32 joinerMerkleRoot;\n    }\n\n    mapping(uint256 => gameInfo) public gameList; // map of game's ID (gameId => information of that game)\n    uint256[] public avaibleGame; // array with all the gameId of the avaible game\n\n    uint256 public gameId = 1; // value of the next gameId\n\n    // error event:\n    error OutputError(string myError);\n\n    // event:\n    event GameCreated(uint256 indexed _gameId);\n\n    event GameJoined(\n        uint256 indexed _gameId,\n        address _creator,\n        address _joiner,\n        uint256 _boardSize,\n        uint256 _shipNum,\n        uint256 _ethAmount\n    );\n\n    event AmountEthResponse(\n        address _sender,\n        uint256 _amount,\n        uint256 indexed _gameId,\n        bool response\n    );\n\n    event StartGame(\n        uint256 indexed _gameId,\n        bytes32 _merkleRootCreator, \n        bytes32 _merkleRootJoiner\n    );\n\n    event ShootShip(\n        uint256 indexed _gameId,\n        address _address,\n        uint256 _row,\n        uint256 _col\n    );\n\n    event ShootResult(\n        uint256 indexed _gameId,\n        address _address,\n        uint256 _row,\n        uint256 _col,\n        uint256 _merkleCheck,\n        uint256 _result\n    );\n\n    event SendInfo(\n        uint256 indexed _gameId,\n        address _address,\n        bytes32 _merkleRootVictim,\n        bytes32 _merkleRootShooter,\n        bytes32 _merkleRootProof\n    );\n\n    constructor() {}\n\n    // function to return the gameId\n    function getId() public returns (uint256 toReturn) {\n        toReturn = gameId++;\n        return toReturn;\n    }\n\n    // function to remove an element of the array avaibleGame\n    function removeFromArray(uint256 _gameId) public returns (bool) {\n        uint256 index;\n        bool find = false;\n\n        // loop the avaible game until find the index of the chosen one\n        for (uint i = 0; i < avaibleGame.length; i++) {\n            if (avaibleGame[i] == _gameId) {\n                index = i;\n                find = true;\n                break;\n            }\n        }\n\n        if (!find || index >= avaibleGame.length) {\n            return find;\n        }\n\n        for (uint i = index; i < avaibleGame.length - 1; i++) {\n            // move manually all the element\n            avaibleGame[i] = avaibleGame[i + 1];\n        }\n        delete avaibleGame[avaibleGame.length - 1]; // remove the last element\n        return find;\n    }\n\n    function getRandomNumber(uint256 bound) private view returns (uint256) {\n        return\n            uint256(keccak256(abi.encodePacked(block.timestamp, msg.sender))) %\n            bound;\n    }\n\n    // function to get the gameId of an avaible game\n    function randomGame() public returns (uint256 randGameId) {\n        if (avaibleGame.length == 0) {\n            return 0;\n        }\n\n        randGameId = avaibleGame[getRandomNumber(avaibleGame.length)];\n        removeFromArray(randGameId);\n        return randGameId;\n    }\n\n    function createGame(\n        // function to create a new game\n        uint256 _boardSize,\n        uint256 _shipNum,\n        uint256 _ethAmount\n    ) public {\n        // create a new game\n        uint256 newGameId = getId();\n\n        gameList[newGameId] = gameInfo(\n            msg.sender,\n            address(0),\n            _boardSize,\n            _shipNum,\n            _ethAmount,\n            0,\n            0\n        );\n        avaibleGame.push(newGameId);\n        emit GameCreated(newGameId);\n    }\n\n    function joinGame(uint256 _gameId) public {\n        // function to join a game\n        // check if there are avaible game\n        if (avaibleGame.length < 1) {\n            revert OutputError({myError: \"No open games!\"});\n        }\n\n        uint256 chosenGameId;\n\n        if (_gameId == 0) {\n            //random game choice\n            chosenGameId = randomGame();\n        } else {\n            //specific game\n            chosenGameId = _gameId;\n            bool find = removeFromArray(chosenGameId);\n\n            if (!find) {\n                revert OutputError({myError: \"This game does not exist!\"});\n            }\n        }\n\n        if (chosenGameId <= 0) {\n            revert OutputError({myError: \"Chosen id negative!\"});\n        }\n\n        if (gameList[chosenGameId].joiner != address(0)) {\n            revert OutputError({myError: \"Game already taken!\"});\n        }\n        gameList[chosenGameId].joiner = msg.sender;\n\n        emit GameJoined(\n            chosenGameId,\n            gameList[chosenGameId].creator,\n            gameList[chosenGameId].joiner,\n            gameList[chosenGameId].boardSize,\n            gameList[chosenGameId].shipNum,\n            gameList[chosenGameId].ethAmount\n        );\n    }\n\n    function amountEthDecision(uint256 _gameId, bool _response) public {\n        // function to accept or refuse the eth amount\n        if (!_response) {\n            // refuse response\n            gameList[_gameId].joiner = address(0);\n            avaibleGame.push(_gameId);\n        }\n\n        emit AmountEthResponse(\n            msg.sender,\n            gameList[_gameId].ethAmount,\n            _gameId,\n            _response\n        );\n    }\n\n    function submitBoard(uint256 _gameId, bytes32 _merkleRoot) public {\n        // function to submit the board\n        //TODO: check\n        if (_gameId <= 0) {\n            revert OutputError({myError: \"Game id is negative!\"});\n        }\n\n        if (gameList[_gameId].creator == msg.sender) {\n            gameList[_gameId].creatorMerkleRoot = _merkleRoot;\n        } else if (gameList[_gameId].joiner == msg.sender) {\n            gameList[_gameId].joinerMerkleRoot = _merkleRoot;\n        } else {\n            revert OutputError({myError: \"Player not in that game!\"});\n        }\n\n        emit StartGame(_gameId, gameList[_gameId].creatorMerkleRoot, gameList[_gameId].joinerMerkleRoot);\n    }\n\n    function shoot(uint256 _gameId, uint256 _row, uint256 _col) public {\n        // function to communicate the coordinates of the fired cell\n        if (_gameId <= 0) {\n            revert OutputError({myError: \"Game id is negative!\"});\n        }\n\n        // take the opponent address for comunicate who was shot\n        address opponentAddress;\n        if (msg.sender == gameList[_gameId].creator) {\n            opponentAddress = gameList[_gameId].joiner;\n        } else {\n            opponentAddress = gameList[_gameId].creator;\n        }\n\n        emit ShootShip(_gameId, opponentAddress, _row, _col);\n    }\n\n    function shootResult(\n        uint256 _gameId,\n        uint256 _row,\n        uint256 _col,\n        uint256 _result,\n        bytes32 _hash,\n        bytes32[] memory _merkleProof\n    ) public {\n        // function to comunicate the result of the shot\n        if (_gameId <= 0) {\n            revert OutputError({myError: \"Game id is negative!\"});\n        }\n\n        // take the opponent address for comunicate who fired the shot\n        address opponentAddress;\n        bytes32 merkleRoot;\n        bytes32 merkleRoot2;\n        if (msg.sender == gameList[_gameId].creator) {\n            opponentAddress = gameList[_gameId].joiner;\n            merkleRoot = gameList[_gameId].creatorMerkleRoot;\n            merkleRoot2 = gameList[_gameId].joinerMerkleRoot;\n        } else {\n            opponentAddress = gameList[_gameId].creator;\n            merkleRoot = gameList[_gameId].joinerMerkleRoot;\n            merkleRoot2 = gameList[_gameId].creatorMerkleRoot;\n        }\n\n        uint256 check;\n        bytes32 hashValue = _hash;\n\n        uint256 index = _row * gameList[_gameId].boardSize + _col;\n        for (uint i = 0; i < _merkleProof.length; i++) {\n            if (index % 2 == 0) {\n                hashValue = keccak256(abi.encodePacked(hashValue, _merkleProof[i]));\n            } else {\n                hashValue = keccak256(abi.encodePacked(_merkleProof[i], hashValue));\n            }\n\n            index = index/2;\n        }\n\n        if(merkleRoot == hashValue){\n            check = 1;\n        }\n        else{\n            check = 0;\n        }\n\n        emit ShootResult(_gameId, opponentAddress, _row, _col, check, _result);\n\n        emit SendInfo(_gameId, opponentAddress, merkleRoot, merkleRoot2, hashValue);\n    }\n}\n",
  "sourcePath": "/mnt/storage/Magistrale/P2PB/ProgettoP2P/P2P_Project/contracts/BattleShipGame.sol",
  "compiler": {
    "name": "solc",
    "version": "0.8.19+commit.7dd6d404.Emscripten.clang"
  },
  "schemaVersion": "3.4.13",
  "updatedAt": "2023-07-16T16:18:47.646Z",
  "networkType": "ethereum",
  "devdoc": {
    "kind": "dev",
    "methods": {},
    "version": 1
  },
  "userdoc": {
    "kind": "user",
    "methods": {},
    "version": 1
  }
}