{
  "contractName": "BattleShipGame",
  "abi": [
    {
      "inputs": [],
      "stateMutability": "nonpayable",
      "type": "constructor"
    },
    {
      "inputs": [
        {
          "internalType": "string",
          "name": "myError",
          "type": "string"
        }
      ],
      "name": "OutputError",
      "type": "error"
    },
    {
      "anonymous": false,
      "inputs": [
        {
          "indexed": false,
          "internalType": "address",
          "name": "_sender",
          "type": "address"
        },
        {
          "indexed": false,
          "internalType": "uint256",
          "name": "_amount",
          "type": "uint256"
        },
        {
          "indexed": true,
          "internalType": "uint256",
          "name": "_gameId",
          "type": "uint256"
        },
        {
          "indexed": false,
          "internalType": "bool",
          "name": "response",
          "type": "bool"
        }
      ],
      "name": "AmountEthResponse",
      "type": "event"
    },
    {
      "anonymous": false,
      "inputs": [
        {
          "indexed": true,
          "internalType": "uint256",
          "name": "_gameId",
          "type": "uint256"
        }
      ],
      "name": "GameCreated",
      "type": "event"
    },
    {
      "anonymous": false,
      "inputs": [
        {
          "indexed": true,
          "internalType": "uint256",
          "name": "_gameId",
          "type": "uint256"
        },
        {
          "indexed": false,
          "internalType": "address",
          "name": "_creator",
          "type": "address"
        },
        {
          "indexed": false,
          "internalType": "address",
          "name": "_joiner",
          "type": "address"
        },
        {
          "indexed": false,
          "internalType": "uint256",
          "name": "_boardSize",
          "type": "uint256"
        },
        {
          "indexed": false,
          "internalType": "uint256",
          "name": "_shipNum",
          "type": "uint256"
        },
        {
          "indexed": false,
          "internalType": "uint256",
          "name": "_ethAmount",
          "type": "uint256"
        }
      ],
      "name": "GameJoined",
      "type": "event"
    },
    {
      "anonymous": false,
      "inputs": [
        {
          "indexed": true,
          "internalType": "uint256",
          "name": "_gameId",
          "type": "uint256"
        },
        {
          "indexed": false,
          "internalType": "address",
          "name": "_address",
          "type": "address"
        },
        {
          "indexed": false,
          "internalType": "uint256",
          "name": "_row",
          "type": "uint256"
        },
        {
          "indexed": false,
          "internalType": "uint256",
          "name": "_col",
          "type": "uint256"
        },
        {
          "indexed": false,
          "internalType": "uint256",
          "name": "_result",
          "type": "uint256"
        }
      ],
      "name": "ShootResult",
      "type": "event"
    },
    {
      "anonymous": false,
      "inputs": [
        {
          "indexed": true,
          "internalType": "uint256",
          "name": "_gameId",
          "type": "uint256"
        },
        {
          "indexed": false,
          "internalType": "address",
          "name": "_address",
          "type": "address"
        },
        {
          "indexed": false,
          "internalType": "uint256",
          "name": "_row",
          "type": "uint256"
        },
        {
          "indexed": false,
          "internalType": "uint256",
          "name": "_col",
          "type": "uint256"
        }
      ],
      "name": "ShootShip",
      "type": "event"
    },
    {
      "anonymous": false,
      "inputs": [
        {
          "indexed": true,
          "internalType": "uint256",
          "name": "_gameId",
          "type": "uint256"
        }
      ],
      "name": "StartGame",
      "type": "event"
    },
    {
      "inputs": [
        {
          "internalType": "uint256",
          "name": "",
          "type": "uint256"
        }
      ],
      "name": "avaibleGame",
      "outputs": [
        {
          "internalType": "uint256",
          "name": "",
          "type": "uint256"
        }
      ],
      "stateMutability": "view",
      "type": "function",
      "constant": true
    },
    {
      "inputs": [],
      "name": "gameId",
      "outputs": [
        {
          "internalType": "uint256",
          "name": "",
          "type": "uint256"
        }
      ],
      "stateMutability": "view",
      "type": "function",
      "constant": true
    },
    {
      "inputs": [
        {
          "internalType": "uint256",
          "name": "",
          "type": "uint256"
        }
      ],
      "name": "gameList",
      "outputs": [
        {
          "internalType": "address",
          "name": "creator",
          "type": "address"
        },
        {
          "internalType": "address",
          "name": "joiner",
          "type": "address"
        },
        {
          "internalType": "uint256",
          "name": "boardSize",
          "type": "uint256"
        },
        {
          "internalType": "uint256",
          "name": "shipNum",
          "type": "uint256"
        },
        {
          "internalType": "uint256",
          "name": "ethAmount",
          "type": "uint256"
        },
        {
          "internalType": "uint256",
          "name": "creatorMerkleRoot",
          "type": "uint256"
        },
        {
          "internalType": "uint256",
          "name": "joinerMerkleRoot",
          "type": "uint256"
        }
      ],
      "stateMutability": "view",
      "type": "function",
      "constant": true
    },
    {
      "inputs": [],
      "name": "getId",
      "outputs": [
        {
          "internalType": "uint256",
          "name": "toReturn",
          "type": "uint256"
        }
      ],
      "stateMutability": "nonpayable",
      "type": "function"
    },
    {
      "inputs": [
        {
          "internalType": "uint256",
          "name": "_gameId",
          "type": "uint256"
        }
      ],
      "name": "removeFromArray",
      "outputs": [
        {
          "internalType": "bool",
          "name": "",
          "type": "bool"
        }
      ],
      "stateMutability": "nonpayable",
      "type": "function"
    },
    {
      "inputs": [],
      "name": "randomGame",
      "outputs": [
        {
          "internalType": "uint256",
          "name": "randGameId",
          "type": "uint256"
        }
      ],
      "stateMutability": "nonpayable",
      "type": "function"
    },
    {
      "inputs": [
        {
          "internalType": "uint256",
          "name": "_boardSize",
          "type": "uint256"
        },
        {
          "internalType": "uint256",
          "name": "_shipNum",
          "type": "uint256"
        },
        {
          "internalType": "uint256",
          "name": "_ethAmount",
          "type": "uint256"
        }
      ],
      "name": "createGame",
      "outputs": [],
      "stateMutability": "nonpayable",
      "type": "function"
    },
    {
      "inputs": [
        {
          "internalType": "uint256",
          "name": "_gameId",
          "type": "uint256"
        }
      ],
      "name": "joinGame",
      "outputs": [],
      "stateMutability": "nonpayable",
      "type": "function"
    },
    {
      "inputs": [
        {
          "internalType": "uint256",
          "name": "_gameId",
          "type": "uint256"
        },
        {
          "internalType": "bool",
          "name": "_response",
          "type": "bool"
        }
      ],
      "name": "amountEthDecision",
      "outputs": [],
      "stateMutability": "nonpayable",
      "type": "function"
    },
    {
      "inputs": [
        {
          "internalType": "uint256",
          "name": "_gameId",
          "type": "uint256"
        },
        {
          "internalType": "uint256",
          "name": "_merkleRoot",
          "type": "uint256"
        }
      ],
      "name": "submitBoard",
      "outputs": [],
      "stateMutability": "nonpayable",
      "type": "function"
    },
    {
      "inputs": [
        {
          "internalType": "uint256",
          "name": "_gameId",
          "type": "uint256"
        },
        {
          "internalType": "uint256",
          "name": "_row",
          "type": "uint256"
        },
        {
          "internalType": "uint256",
          "name": "_col",
          "type": "uint256"
        }
      ],
      "name": "shoot",
      "outputs": [],
      "stateMutability": "nonpayable",
      "type": "function"
    },
    {
      "inputs": [
        {
          "internalType": "uint256",
          "name": "_gameId",
          "type": "uint256"
        },
        {
          "internalType": "uint256",
          "name": "_row",
          "type": "uint256"
        },
        {
          "internalType": "uint256",
          "name": "_col",
          "type": "uint256"
        },
        {
          "internalType": "uint256",
          "name": "_result",
          "type": "uint256"
        },
        {
          "internalType": "bytes32",
          "name": "_hash",
          "type": "bytes32"
        },
        {
          "internalType": "bytes32[]",
          "name": "_merkleProof",
          "type": "bytes32[]"
        }
      ],
      "name": "shootResult",
      "outputs": [],
      "stateMutability": "nonpayable",
      "type": "function"
    }
  ],
  "bytecode": "0x6080604052600160025534801561001557600080fd5b50611957806100256000396000f3fe608060405234801561001057600080fd5b50600436106100b45760003560e01c8063c558b42c11610071578063c558b42c14610177578063c6cfd08e14610193578063d7c81b55146101c9578063d9ad3ef5146101e7578063eb56ea9014610205578063efaa55a014610235576100b4565b80635d1ca631146100b9578063685385f3146100d757806372e49ad3146100f357806395e1c6fb1461010f578063a4933c811461012b578063c27415211461015b575b600080fd5b6100c1610251565b6040516100ce9190610eda565b60405180910390f35b6100f160048036038101906100ec9190610f6d565b61026f565b005b61010d60048036038101906101089190610fad565b610348565b005b6101296004803603810190610124919061117c565b610506565b005b61014560048036038101906101409190611225565b610670565b6040516101529190610eda565b60405180910390f35b61017560048036038101906101709190611252565b610694565b005b610191600480360381019061018c9190611252565b610833565b005b6101ad60048036038101906101a89190611225565b610998565b6040516101c097969594939291906112e6565b60405180910390f35b6101d1610a1a565b6040516101de9190610eda565b60405180910390f35b6101ef610a20565b6040516101fc9190610eda565b60405180910390f35b61021f600480360381019061021a9190611225565b610a73565b60405161022c9190611364565b60405180910390f35b61024f600480360381019061024a9190611225565b610ba7565b005b600060026000815480929190610266906113ae565b91905055905090565b806102f357600080600084815260200190815260200160002060010160006101000a81548173ffffffffffffffffffffffffffffffffffffffff021916908373ffffffffffffffffffffffffffffffffffffffff16021790555060018290806001815401808255809150506001900390600052602060002001600090919091909150555b817f55329a170c309fdb206036da4397784f0560d2264c68e25316be295379a9eae833600080868152602001908152602001600020600401548460405161033c939291906113f6565b60405180910390a25050565b6000821161038b576040517f9a9be8fa0000000000000000000000000000000000000000000000000000000081526004016103829061148a565b60405180910390fd5b3373ffffffffffffffffffffffffffffffffffffffff1660008084815260200190815260200160002060000160009054906101000a900473ffffffffffffffffffffffffffffffffffffffff1673ffffffffffffffffffffffffffffffffffffffff16036104125780600080848152602001908152602001600020600501819055506104d5565b3373ffffffffffffffffffffffffffffffffffffffff1660008084815260200190815260200160002060010160009054906101000a900473ffffffffffffffffffffffffffffffffffffffff1673ffffffffffffffffffffffffffffffffffffffff16036104995780600080848152602001908152602001600020600601819055506104d4565b6040517f9a9be8fa0000000000000000000000000000000000000000000000000000000081526004016104cb906114f6565b60405180910390fd5b5b817f12333b322723ec26360eb708b341801ecca576387b55caa77d6e408107d2c70f60405160405180910390a25050565b60008611610549576040517f9a9be8fa0000000000000000000000000000000000000000000000000000000081526004016105409061148a565b60405180910390fd5b600080600088815260200190815260200160002060000160009054906101000a900473ffffffffffffffffffffffffffffffffffffffff1673ffffffffffffffffffffffffffffffffffffffff163373ffffffffffffffffffffffffffffffffffffffff16036105f05760008088815260200190815260200160002060010160009054906101000a900473ffffffffffffffffffffffffffffffffffffffff169050610629565b60008088815260200190815260200160002060000160009054906101000a900473ffffffffffffffffffffffffffffffffffffffff1690505b867ff497e56b4fa56357a2b88ddd91f8c5256dd2af7da875abac5678f5d17e616ce48288888860405161065f9493929190611516565b60405180910390a250505050505050565b6001818154811061068057600080fd5b906000526020600020016000915090505481565b600061069e610251565b90506040518060e001604052803373ffffffffffffffffffffffffffffffffffffffff168152602001600073ffffffffffffffffffffffffffffffffffffffff16815260200185815260200184815260200183815260200160008152602001600081525060008083815260200190815260200160002060008201518160000160006101000a81548173ffffffffffffffffffffffffffffffffffffffff021916908373ffffffffffffffffffffffffffffffffffffffff16021790555060208201518160010160006101000a81548173ffffffffffffffffffffffffffffffffffffffff021916908373ffffffffffffffffffffffffffffffffffffffff16021790555060408201518160020155606082015181600301556080820151816004015560a0820151816005015560c082015181600601559050506001819080600181540180825580915050600190039060005260206000200160009091909190915055807fbd19c47e9925eb6f7be8bb1c13a841e0240aaeaf17f217e90022e9c8eb66877f60405160405180910390a250505050565b60008311610876576040517f9a9be8fa00000000000000000000000000000000000000000000000000000000815260040161086d9061148a565b60405180910390fd5b600080600085815260200190815260200160002060000160009054906101000a900473ffffffffffffffffffffffffffffffffffffffff1673ffffffffffffffffffffffffffffffffffffffff163373ffffffffffffffffffffffffffffffffffffffff160361091d5760008085815260200190815260200160002060010160009054906101000a900473ffffffffffffffffffffffffffffffffffffffff169050610956565b60008085815260200190815260200160002060000160009054906101000a900473ffffffffffffffffffffffffffffffffffffffff1690505b837fa16c812880cd48fb28e27eb04ace25edead556e67c396ab7d2a93674adf55b4382858560405161098a9392919061155b565b60405180910390a250505050565b60006020528060005260406000206000915090508060000160009054906101000a900473ffffffffffffffffffffffffffffffffffffffff16908060010160009054906101000a900473ffffffffffffffffffffffffffffffffffffffff16908060020154908060030154908060040154908060050154908060060154905087565b60025481565b60008060018054905003610a375760009050610a70565b6001610a47600180549050610e81565b81548110610a5857610a57611592565b5b90600052602060002001549050610a6e81610a73565b505b90565b6000806000805b600180549050811015610acb578460018281548110610a9c57610a9b611592565b5b906000526020600020015403610ab85780925060019150610acb565b8080610ac3906113ae565b915050610a7a565b50801580610ade57506001805490508210155b15610aed578092505050610ba2565b60008290505b60018080549050610b0491906115c1565b811015610b6a5760018082610b1991906115f5565b81548110610b2a57610b29611592565b5b906000526020600020015460018281548110610b4957610b48611592565b5b90600052602060002001819055508080610b62906113ae565b915050610af3565b506001808080549050610b7d91906115c1565b81548110610b8e57610b8d611592565b5b906000526020600020016000905580925050505b919050565b600180805490501015610bef576040517f9a9be8fa000000000000000000000000000000000000000000000000000000008152600401610be690611675565b60405180910390fd5b6000808203610c0757610c00610a20565b9050610c59565b8190506000610c1582610a73565b905080610c57576040517f9a9be8fa000000000000000000000000000000000000000000000000000000008152600401610c4e906116e1565b60405180910390fd5b505b60008111610c9c576040517f9a9be8fa000000000000000000000000000000000000000000000000000000008152600401610c939061174d565b60405180910390fd5b600073ffffffffffffffffffffffffffffffffffffffff1660008083815260200190815260200160002060010160009054906101000a900473ffffffffffffffffffffffffffffffffffffffff1673ffffffffffffffffffffffffffffffffffffffff1614610d40576040517f9a9be8fa000000000000000000000000000000000000000000000000000000008152600401610d37906117b9565b60405180910390fd5b3360008083815260200190815260200160002060010160006101000a81548173ffffffffffffffffffffffffffffffffffffffff021916908373ffffffffffffffffffffffffffffffffffffffff160217905550807f66bacdfb07a49afa060b23ca1e16974d1919771fff2fd57717ab8857b0673b3460008084815260200190815260200160002060000160009054906101000a900473ffffffffffffffffffffffffffffffffffffffff1660008085815260200190815260200160002060010160009054906101000a900473ffffffffffffffffffffffffffffffffffffffff16600080868152602001908152602001600020600201546000808781526020019081526020016000206003015460008088815260200190815260200160002060040154604051610e759594939291906117d9565b60405180910390a25050565b6000814233604051602001610e97929190611895565b6040516020818303038152906040528051906020012060001c610eba91906118f0565b9050919050565b6000819050919050565b610ed481610ec1565b82525050565b6000602082019050610eef6000830184610ecb565b92915050565b6000604051905090565b600080fd5b600080fd5b610f1281610ec1565b8114610f1d57600080fd5b50565b600081359050610f2f81610f09565b92915050565b60008115159050919050565b610f4a81610f35565b8114610f5557600080fd5b50565b600081359050610f6781610f41565b92915050565b60008060408385031215610f8457610f83610eff565b5b6000610f9285828601610f20565b9250506020610fa385828601610f58565b9150509250929050565b60008060408385031215610fc457610fc3610eff565b5b6000610fd285828601610f20565b9250506020610fe385828601610f20565b9150509250929050565b6000819050919050565b61100081610fed565b811461100b57600080fd5b50565b60008135905061101d81610ff7565b92915050565b600080fd5b6000601f19601f8301169050919050565b7f4e487b7100000000000000000000000000000000000000000000000000000000600052604160045260246000fd5b61107182611028565b810181811067ffffffffffffffff821117156110905761108f611039565b5b80604052505050565b60006110a3610ef5565b90506110af8282611068565b919050565b600067ffffffffffffffff8211156110cf576110ce611039565b5b602082029050602081019050919050565b600080fd5b60006110f86110f3846110b4565b611099565b9050808382526020820190506020840283018581111561111b5761111a6110e0565b5b835b818110156111445780611130888261100e565b84526020840193505060208101905061111d565b5050509392505050565b600082601f83011261116357611162611023565b5b81356111738482602086016110e5565b91505092915050565b60008060008060008060c0878903121561119957611198610eff565b5b60006111a789828a01610f20565b96505060206111b889828a01610f20565b95505060406111c989828a01610f20565b94505060606111da89828a01610f20565b93505060806111eb89828a0161100e565b92505060a087013567ffffffffffffffff81111561120c5761120b610f04565b5b61121889828a0161114e565b9150509295509295509295565b60006020828403121561123b5761123a610eff565b5b600061124984828501610f20565b91505092915050565b60008060006060848603121561126b5761126a610eff565b5b600061127986828701610f20565b935050602061128a86828701610f20565b925050604061129b86828701610f20565b9150509250925092565b600073ffffffffffffffffffffffffffffffffffffffff82169050919050565b60006112d0826112a5565b9050919050565b6112e0816112c5565b82525050565b600060e0820190506112fb600083018a6112d7565b61130860208301896112d7565b6113156040830188610ecb565b6113226060830187610ecb565b61132f6080830186610ecb565b61133c60a0830185610ecb565b61134960c0830184610ecb565b98975050505050505050565b61135e81610f35565b82525050565b60006020820190506113796000830184611355565b92915050565b7f4e487b7100000000000000000000000000000000000000000000000000000000600052601160045260246000fd5b60006113b982610ec1565b91507fffffffffffffffffffffffffffffffffffffffffffffffffffffffffffffffff82036113eb576113ea61137f565b5b600182019050919050565b600060608201905061140b60008301866112d7565b6114186020830185610ecb565b6114256040830184611355565b949350505050565b600082825260208201905092915050565b7f47616d65206964206973206e6567617469766521000000000000000000000000600082015250565b600061147460148361142d565b915061147f8261143e565b602082019050919050565b600060208201905081810360008301526114a381611467565b9050919050565b7f506c61796572206e6f7420696e20746861742067616d65210000000000000000600082015250565b60006114e060188361142d565b91506114eb826114aa565b602082019050919050565b6000602082019050818103600083015261150f816114d3565b9050919050565b600060808201905061152b60008301876112d7565b6115386020830186610ecb565b6115456040830185610ecb565b6115526060830184610ecb565b95945050505050565b600060608201905061157060008301866112d7565b61157d6020830185610ecb565b61158a6040830184610ecb565b949350505050565b7f4e487b7100000000000000000000000000000000000000000000000000000000600052603260045260246000fd5b60006115cc82610ec1565b91506115d783610ec1565b92508282039050818111156115ef576115ee61137f565b5b92915050565b600061160082610ec1565b915061160b83610ec1565b92508282019050808211156116235761162261137f565b5b92915050565b7f4e6f206f70656e2067616d657321000000000000000000000000000000000000600082015250565b600061165f600e8361142d565b915061166a82611629565b602082019050919050565b6000602082019050818103600083015261168e81611652565b9050919050565b7f546869732067616d6520646f6573206e6f742065786973742100000000000000600082015250565b60006116cb60198361142d565b91506116d682611695565b602082019050919050565b600060208201905081810360008301526116fa816116be565b9050919050565b7f43686f73656e206964206e656761746976652100000000000000000000000000600082015250565b600061173760138361142d565b915061174282611701565b602082019050919050565b600060208201905081810360008301526117668161172a565b9050919050565b7f47616d6520616c72656164792074616b656e2100000000000000000000000000600082015250565b60006117a360138361142d565b91506117ae8261176d565b602082019050919050565b600060208201905081810360008301526117d281611796565b9050919050565b600060a0820190506117ee60008301886112d7565b6117fb60208301876112d7565b6118086040830186610ecb565b6118156060830185610ecb565b6118226080830184610ecb565b9695505050505050565b6000819050919050565b61184761184282610ec1565b61182c565b82525050565b60008160601b9050919050565b60006118658261184d565b9050919050565b60006118778261185a565b9050919050565b61188f61188a826112c5565b61186c565b82525050565b60006118a18285611836565b6020820191506118b1828461187e565b6014820191508190509392505050565b7f4e487b7100000000000000000000000000000000000000000000000000000000600052601260045260246000fd5b60006118fb82610ec1565b915061190683610ec1565b925082611916576119156118c1565b5b82820690509291505056fea2646970667358221220d92ac93bdfeed446991fc498b74d088103d3c243c94a5a86dcdd1b3655b017d564736f6c63430008130033",
  "immutableReferences": {},
  "source": "// SPDX-License-Identifier: MIT\npragma solidity >=0.4.22 <0.9.0;\n\ncontract BattleShipGame {\n    struct gameInfo {\n        // struct with all the information about a game\n        address creator;\n        address joiner;\n        uint256 boardSize;\n        uint256 shipNum;\n        uint256 ethAmount;\n        uint256 creatorMerkleRoot;\n        uint256 joinerMerkleRoot;\n    }\n\n    mapping(uint256 => gameInfo) public gameList; // map of game's ID (gameId => information of that game)\n    uint256[] public avaibleGame; // array with all the gameId of the avaible game\n\n    uint256 public gameId = 1; // value of the next gameId\n\n    // error event:\n    error OutputError(string myError);\n\n    // event:\n    event GameCreated(uint256 indexed _gameId);\n\n    event GameJoined(\n        uint256 indexed _gameId,\n        address _creator,\n        address _joiner,\n        uint256 _boardSize,\n        uint256 _shipNum,\n        uint256 _ethAmount\n    );\n\n    event AmountEthResponse(\n        address _sender,\n        uint256 _amount,\n        uint256 indexed _gameId,\n        bool response\n    );\n\n    event StartGame(uint256 indexed _gameId);\n\n    event ShootShip(\n        uint256 indexed _gameId,\n        address _address,\n        uint256 _row,\n        uint256 _col\n    );\n\n    event ShootResult(\n        uint256 indexed _gameId,\n        address _address,\n        uint256 _row,\n        uint256 _col,\n        uint256 _result\n    );\n\n    constructor() {}\n\n    // function to return the gameId\n    function getId() public returns (uint256 toReturn) {\n        toReturn = gameId++;\n        return toReturn;\n    }\n\n    // function to remove an element of the array avaibleGame\n    function removeFromArray(uint256 _gameId) public returns (bool) {\n        uint256 index;\n        bool find = false;\n\n        // loop the avaible game until find the index of the chosen one\n        for (uint i = 0; i < avaibleGame.length; i++) {\n            if (avaibleGame[i] == _gameId) {\n                index = i;\n                find = true;\n                break;\n            }\n        }\n\n        if (!find || index >= avaibleGame.length) {\n            return find;\n        }\n\n        for (uint i = index; i < avaibleGame.length - 1; i++) {\n            // move manually all the element\n            avaibleGame[i] = avaibleGame[i + 1];\n        }\n        delete avaibleGame[avaibleGame.length - 1]; // remove the last element\n        return find;\n    }\n\n    function getRandomNumber(uint256 bound) private view returns (uint256) {\n        return\n            uint256(keccak256(abi.encodePacked(block.timestamp, msg.sender))) %\n            bound;\n    }\n\n    // function to get the gameId of an avaible game\n    function randomGame() public returns (uint256 randGameId) {\n        if (avaibleGame.length == 0) {\n            return 0;\n        }\n\n        randGameId = avaibleGame[getRandomNumber(avaibleGame.length)];\n        removeFromArray(randGameId);\n        return randGameId;\n    }\n\n    function createGame(\n        // function to create a new game\n        uint256 _boardSize,\n        uint256 _shipNum,\n        uint256 _ethAmount\n    ) public {\n        // create a new game\n        uint256 newGameId = getId();\n\n        gameList[newGameId] = gameInfo(\n            msg.sender,\n            address(0),\n            _boardSize,\n            _shipNum,\n            _ethAmount,\n            0,\n            0\n        );\n        avaibleGame.push(newGameId);\n        emit GameCreated(newGameId);\n    }\n\n    function joinGame(uint256 _gameId) public {\n        // function to join a game\n        // check if there are avaible game\n        if (avaibleGame.length < 1) {\n            revert OutputError({myError: \"No open games!\"});\n        }\n\n        uint256 chosenGameId;\n\n        if (_gameId == 0) {\n            //random game choice\n            chosenGameId = randomGame();\n        } else {\n            //specific game\n            chosenGameId = _gameId;\n            bool find = removeFromArray(chosenGameId);\n\n            if (!find) {\n                revert OutputError({myError: \"This game does not exist!\"});\n            }\n        }\n\n        if (chosenGameId <= 0) {\n            revert OutputError({myError: \"Chosen id negative!\"});\n        }\n\n        if (gameList[chosenGameId].joiner != address(0)) {\n            revert OutputError({myError: \"Game already taken!\"});\n        }\n        gameList[chosenGameId].joiner = msg.sender;\n\n        emit GameJoined(\n            chosenGameId,\n            gameList[chosenGameId].creator,\n            gameList[chosenGameId].joiner,\n            gameList[chosenGameId].boardSize,\n            gameList[chosenGameId].shipNum,\n            gameList[chosenGameId].ethAmount\n        );\n    }\n\n    function amountEthDecision(uint256 _gameId, bool _response) public {\n        // function to accept or refuse the eth amount\n        if (!_response) {\n            // refuse response\n            gameList[_gameId].joiner = address(0);\n            avaibleGame.push(_gameId);\n        }\n\n        emit AmountEthResponse(\n            msg.sender,\n            gameList[_gameId].ethAmount,\n            _gameId,\n            _response\n        );\n    }\n\n    function submitBoard(uint256 _gameId, uint256 _merkleRoot) public {\n        // function to submit the board\n        //TODO: check\n        if (_gameId <= 0) {\n            revert OutputError({myError: \"Game id is negative!\"});\n        }\n\n        if (gameList[_gameId].creator == msg.sender) {\n            gameList[_gameId].creatorMerkleRoot = _merkleRoot;\n        } else if (gameList[_gameId].joiner == msg.sender) {\n            gameList[_gameId].joinerMerkleRoot = _merkleRoot;\n        } else {\n            revert OutputError({myError: \"Player not in that game!\"});\n        }\n\n        emit StartGame(_gameId);\n    }\n\n    function shoot(uint256 _gameId, uint256 _row, uint256 _col) public {\n        // function to communicate the coordinates of the fired cell\n        if (_gameId <= 0) {\n            revert OutputError({myError: \"Game id is negative!\"});\n        }\n\n        // take the opponent address for comunicate who was shot\n        address opponentAddress;\n        if (msg.sender == gameList[_gameId].creator) {\n            opponentAddress = gameList[_gameId].joiner;\n        } else {\n            opponentAddress = gameList[_gameId].creator;\n        }\n\n        emit ShootShip(\n            _gameId,\n            opponentAddress,\n            _row,\n            _col\n        );\n    }\n\n    function shootResult(\n        uint256 _gameId,\n        uint256 _row,\n        uint256 _col,\n        uint256 _result,\n        bytes32 _hash,\n        bytes32[] memory _merkleProof\n    ) public {\n        // function to comunicate the result of the shot\n        if (_gameId <= 0) {\n            revert OutputError({myError: \"Game id is negative!\"});\n        }\n\n        // take the opponent address for comunicate who fired the shot\n        address opponentAddress;\n        if (msg.sender == gameList[_gameId].creator) {\n            opponentAddress = gameList[_gameId].joiner;\n        } else {\n            opponentAddress = gameList[_gameId].creator;\n        }\n\n        emit ShootResult(\n            _gameId,\n            opponentAddress, \n            _row,\n            _col,\n            _result\n        );\n    }\n}\n",
  "sourcePath": "/mnt/storage/Magistrale/P2PB/ProgettoP2P/P2P_Project/contracts/BattleShipGame.sol",
  "compiler": {
    "name": "solc",
    "version": "0.8.19+commit.7dd6d404.Emscripten.clang"
  },
  "schemaVersion": "3.4.13",
  "updatedAt": "2023-07-14T16:51:00.549Z",
  "networkType": "ethereum",
  "devdoc": {
    "kind": "dev",
    "methods": {},
    "version": 1
  },
  "userdoc": {
    "kind": "user",
    "methods": {},
    "version": 1
  }
}