{
  "contractName": "BattleShipGame",
  "abi": [
    {
      "inputs": [],
      "stateMutability": "nonpayable",
      "type": "constructor"
    },
    {
      "inputs": [
        {
          "internalType": "string",
          "name": "myError",
          "type": "string"
        }
      ],
      "name": "OutputError",
      "type": "error"
    },
    {
      "anonymous": false,
      "inputs": [
        {
          "indexed": false,
          "internalType": "address",
          "name": "_sender",
          "type": "address"
        },
        {
          "indexed": false,
          "internalType": "uint256",
          "name": "_amount",
          "type": "uint256"
        },
        {
          "indexed": true,
          "internalType": "uint256",
          "name": "_gameId",
          "type": "uint256"
        },
        {
          "indexed": false,
          "internalType": "bool",
          "name": "response",
          "type": "bool"
        }
      ],
      "name": "AmountEthResponse",
      "type": "event"
    },
    {
      "anonymous": false,
      "inputs": [
        {
          "indexed": true,
          "internalType": "uint256",
          "name": "_gameId",
          "type": "uint256"
        }
      ],
      "name": "GameCreated",
      "type": "event"
    },
    {
      "anonymous": false,
      "inputs": [
        {
          "indexed": true,
          "internalType": "uint256",
          "name": "_gameId",
          "type": "uint256"
        },
        {
          "indexed": false,
          "internalType": "address",
          "name": "_creator",
          "type": "address"
        },
        {
          "indexed": false,
          "internalType": "address",
          "name": "_joiner",
          "type": "address"
        },
        {
          "indexed": false,
          "internalType": "uint256",
          "name": "_boardSize",
          "type": "uint256"
        },
        {
          "indexed": false,
          "internalType": "uint256",
          "name": "_shipNum",
          "type": "uint256"
        },
        {
          "indexed": false,
          "internalType": "uint256",
          "name": "_ethAmount",
          "type": "uint256"
        }
      ],
      "name": "GameJoined",
      "type": "event"
    },
    {
      "anonymous": false,
      "inputs": [
        {
          "indexed": true,
          "internalType": "uint256",
          "name": "_gameId",
          "type": "uint256"
        },
        {
          "indexed": false,
          "internalType": "uint256[][]",
          "name": "_gameBoard",
          "type": "uint256[][]"
        }
      ],
      "name": "SubmitBoard",
      "type": "event"
    },
    {
      "inputs": [
        {
          "internalType": "uint256",
          "name": "",
          "type": "uint256"
        }
      ],
      "name": "avaibleGame",
      "outputs": [
        {
          "internalType": "uint256",
          "name": "",
          "type": "uint256"
        }
      ],
      "stateMutability": "view",
      "type": "function",
      "constant": true
    },
    {
      "inputs": [],
      "name": "gameId",
      "outputs": [
        {
          "internalType": "uint256",
          "name": "",
          "type": "uint256"
        }
      ],
      "stateMutability": "view",
      "type": "function",
      "constant": true
    },
    {
      "inputs": [
        {
          "internalType": "uint256",
          "name": "",
          "type": "uint256"
        }
      ],
      "name": "gameList",
      "outputs": [
        {
          "internalType": "address",
          "name": "creator",
          "type": "address"
        },
        {
          "internalType": "address",
          "name": "joiner",
          "type": "address"
        },
        {
          "internalType": "uint256",
          "name": "boardSize",
          "type": "uint256"
        },
        {
          "internalType": "uint256",
          "name": "shipNum",
          "type": "uint256"
        },
        {
          "internalType": "uint256",
          "name": "ethAmount",
          "type": "uint256"
        }
      ],
      "stateMutability": "view",
      "type": "function",
      "constant": true
    },
    {
      "inputs": [],
      "name": "getId",
      "outputs": [
        {
          "internalType": "uint256",
          "name": "toReturn",
          "type": "uint256"
        }
      ],
      "stateMutability": "nonpayable",
      "type": "function"
    },
    {
      "inputs": [
        {
          "internalType": "uint256",
          "name": "index",
          "type": "uint256"
        }
      ],
      "name": "removeFromArray",
      "outputs": [],
      "stateMutability": "nonpayable",
      "type": "function"
    },
    {
      "inputs": [],
      "name": "randomGame",
      "outputs": [
        {
          "internalType": "uint256",
          "name": "randGameId",
          "type": "uint256"
        }
      ],
      "stateMutability": "nonpayable",
      "type": "function"
    },
    {
      "inputs": [
        {
          "internalType": "uint256",
          "name": "_boardSize",
          "type": "uint256"
        },
        {
          "internalType": "uint256",
          "name": "_shipNum",
          "type": "uint256"
        },
        {
          "internalType": "uint256",
          "name": "_ethAmount",
          "type": "uint256"
        }
      ],
      "name": "createGame",
      "outputs": [],
      "stateMutability": "nonpayable",
      "type": "function"
    },
    {
      "inputs": [
        {
          "internalType": "uint256",
          "name": "_gameId",
          "type": "uint256"
        }
      ],
      "name": "joinGame",
      "outputs": [],
      "stateMutability": "nonpayable",
      "type": "function"
    },
    {
      "inputs": [
        {
          "internalType": "uint256",
          "name": "_gameId",
          "type": "uint256"
        },
        {
          "internalType": "bool",
          "name": "_response",
          "type": "bool"
        }
      ],
      "name": "amountEthDecision",
      "outputs": [],
      "stateMutability": "nonpayable",
      "type": "function"
    },
    {
      "inputs": [
        {
          "internalType": "uint256",
          "name": "_gameId",
          "type": "uint256"
        },
        {
          "internalType": "uint256[][]",
          "name": "_gameBoard",
          "type": "uint256[][]"
        }
      ],
      "name": "submitBoard",
      "outputs": [],
      "stateMutability": "nonpayable",
      "type": "function"
    }
  ],
  "bytecode": "0x6080604052600160025534801561001557600080fd5b50611093806100256000396000f3fe608060405234801561001057600080fd5b506004361061009e5760003560e01c8063c6cfd08e11610066578063c6cfd08e14610145578063d7c81b5514610179578063d9ad3ef514610197578063eb56ea90146101b5578063efaa55a0146101d15761009e565b80635d1ca631146100a3578063685385f3146100c1578063712e6f5e146100dd578063a4933c81146100f9578063c274152114610129575b600080fd5b6100ab6101ed565b6040516100b89190610869565b60405180910390f35b6100db60048036038101906100d691906108fc565b61020b565b005b6100f760048036038101906100f29190610b76565b6102bb565b005b610113600480360381019061010e9190610bd2565b6102f7565b6040516101209190610869565b60405180910390f35b610143600480360381019061013e9190610bff565b61031b565b005b61015f600480360381019061015a9190610bd2565b610498565b604051610170959493929190610c93565b60405180910390f35b61018161050e565b60405161018e9190610869565b60405180910390f35b61019f610514565b6040516101ac9190610869565b60405180910390f35b6101cf60048036038101906101ca9190610bd2565b61058f565b005b6101eb60048036038101906101e69190610bd2565b6105b4565b005b60006002600081548092919061020290610d15565b91905055905090565b8061026657600080600084815260200190815260200160002060010160006101000a81548173ffffffffffffffffffffffffffffffffffffffff021916908373ffffffffffffffffffffffffffffffffffffffff1602179055505b817f55329a170c309fdb206036da4397784f0560d2264c68e25316be295379a9eae83360008086815260200190815260200160002060040154846040516102af93929190610d6c565b60405180910390a25050565b817f5ca339d59d18810ad0d86547fead43543314d4325efbaefee08a4ed590cdf8ca826040516102eb9190610f23565b60405180910390a25050565b6001818154811061030757600080fd5b906000526020600020016000915090505481565b60006103256101ed565b90506040518060a001604052803373ffffffffffffffffffffffffffffffffffffffff168152602001600073ffffffffffffffffffffffffffffffffffffffff1681526020018581526020018481526020018381525060008083815260200190815260200160002060008201518160000160006101000a81548173ffffffffffffffffffffffffffffffffffffffff021916908373ffffffffffffffffffffffffffffffffffffffff16021790555060208201518160010160006101000a81548173ffffffffffffffffffffffffffffffffffffffff021916908373ffffffffffffffffffffffffffffffffffffffff1602179055506040820151816002015560608201518160030155608082015181600401559050506001819080600181540180825580915050600190039060005260206000200160009091909190915055807fbd19c47e9925eb6f7be8bb1c13a841e0240aaeaf17f217e90022e9c8eb66877f60405160405180910390a250505050565b60006020528060005260406000206000915090508060000160009054906101000a900473ffffffffffffffffffffffffffffffffffffffff16908060010160009054906101000a900473ffffffffffffffffffffffffffffffffffffffff16908060020154908060030154908060040154905085565b60025481565b6000806001805490500361052b576000905061058c565b60005b600180549050811015610586576001818154811061054f5761054e610f45565b5b90600052602060002001549150600082146105735761056d8161058f565b5061058c565b808061057e90610d15565b91505061052e565b50600090505b90565b600181815481106105a3576105a2610f45565b5b906000526020600020016000905550565b6001808054905010156105fc576040517f9a9be8fa0000000000000000000000000000000000000000000000000000000081526004016105f390610fd1565b60405180910390fd5b60008082036106145761060d610514565b905061066b565b81905060005b60018054905081101561066957816001828154811061063c5761063b610f45565b5b906000526020600020015403610656576106558161058f565b5b808061066190610d15565b91505061061a565b505b600073ffffffffffffffffffffffffffffffffffffffff1660008083815260200190815260200160002060010160009054906101000a900473ffffffffffffffffffffffffffffffffffffffff1673ffffffffffffffffffffffffffffffffffffffff161461070f576040517f9a9be8fa0000000000000000000000000000000000000000000000000000000081526004016107069061103d565b60405180910390fd5b3360008083815260200190815260200160002060010160006101000a81548173ffffffffffffffffffffffffffffffffffffffff021916908373ffffffffffffffffffffffffffffffffffffffff160217905550817f66bacdfb07a49afa060b23ca1e16974d1919771fff2fd57717ab8857b0673b3460008084815260200190815260200160002060000160009054906101000a900473ffffffffffffffffffffffffffffffffffffffff1660008085815260200190815260200160002060010160009054906101000a900473ffffffffffffffffffffffffffffffffffffffff16600080868152602001908152602001600020600201546000808781526020019081526020016000206003015460008088815260200190815260200160002060040154604051610844959493929190610c93565b60405180910390a25050565b6000819050919050565b61086381610850565b82525050565b600060208201905061087e600083018461085a565b92915050565b6000604051905090565b600080fd5b600080fd5b6108a181610850565b81146108ac57600080fd5b50565b6000813590506108be81610898565b92915050565b60008115159050919050565b6108d9816108c4565b81146108e457600080fd5b50565b6000813590506108f6816108d0565b92915050565b600080604083850312156109135761091261088e565b5b6000610921858286016108af565b9250506020610932858286016108e7565b9150509250929050565b600080fd5b6000601f19601f8301169050919050565b7f4e487b7100000000000000000000000000000000000000000000000000000000600052604160045260246000fd5b61098a82610941565b810181811067ffffffffffffffff821117156109a9576109a8610952565b5b80604052505050565b60006109bc610884565b90506109c88282610981565b919050565b600067ffffffffffffffff8211156109e8576109e7610952565b5b602082029050602081019050919050565b600080fd5b600067ffffffffffffffff821115610a1957610a18610952565b5b602082029050602081019050919050565b6000610a3d610a38846109fe565b6109b2565b90508083825260208201905060208402830185811115610a6057610a5f6109f9565b5b835b81811015610a895780610a7588826108af565b845260208401935050602081019050610a62565b5050509392505050565b600082601f830112610aa857610aa761093c565b5b8135610ab8848260208601610a2a565b91505092915050565b6000610ad4610acf846109cd565b6109b2565b90508083825260208201905060208402830185811115610af757610af66109f9565b5b835b81811015610b3e57803567ffffffffffffffff811115610b1c57610b1b61093c565b5b808601610b298982610a93565b85526020850194505050602081019050610af9565b5050509392505050565b600082601f830112610b5d57610b5c61093c565b5b8135610b6d848260208601610ac1565b91505092915050565b60008060408385031215610b8d57610b8c61088e565b5b6000610b9b858286016108af565b925050602083013567ffffffffffffffff811115610bbc57610bbb610893565b5b610bc885828601610b48565b9150509250929050565b600060208284031215610be857610be761088e565b5b6000610bf6848285016108af565b91505092915050565b600080600060608486031215610c1857610c1761088e565b5b6000610c26868287016108af565b9350506020610c37868287016108af565b9250506040610c48868287016108af565b9150509250925092565b600073ffffffffffffffffffffffffffffffffffffffff82169050919050565b6000610c7d82610c52565b9050919050565b610c8d81610c72565b82525050565b600060a082019050610ca86000830188610c84565b610cb56020830187610c84565b610cc2604083018661085a565b610ccf606083018561085a565b610cdc608083018461085a565b9695505050505050565b7f4e487b7100000000000000000000000000000000000000000000000000000000600052601160045260246000fd5b6000610d2082610850565b91507fffffffffffffffffffffffffffffffffffffffffffffffffffffffffffffffff8203610d5257610d51610ce6565b5b600182019050919050565b610d66816108c4565b82525050565b6000606082019050610d816000830186610c84565b610d8e602083018561085a565b610d9b6040830184610d5d565b949350505050565b600081519050919050565b600082825260208201905092915050565b6000819050602082019050919050565b600081519050919050565b600082825260208201905092915050565b6000819050602082019050919050565b610e0481610850565b82525050565b6000610e168383610dfb565b60208301905092915050565b6000602082019050919050565b6000610e3a82610dcf565b610e448185610dda565b9350610e4f83610deb565b8060005b83811015610e80578151610e678882610e0a565b9750610e7283610e22565b925050600181019050610e53565b5085935050505092915050565b6000610e998383610e2f565b905092915050565b6000602082019050919050565b6000610eb982610da3565b610ec38185610dae565b935083602082028501610ed585610dbf565b8060005b85811015610f115784840389528151610ef28582610e8d565b9450610efd83610ea1565b925060208a01995050600181019050610ed9565b50829750879550505050505092915050565b60006020820190508181036000830152610f3d8184610eae565b905092915050565b7f4e487b7100000000000000000000000000000000000000000000000000000000600052603260045260246000fd5b600082825260208201905092915050565b7f4e6f206f70656e2067616d657321000000000000000000000000000000000000600082015250565b6000610fbb600e83610f74565b9150610fc682610f85565b602082019050919050565b60006020820190508181036000830152610fea81610fae565b9050919050565b7f47616d6520616c72656164792074616b656e2100000000000000000000000000600082015250565b6000611027601383610f74565b915061103282610ff1565b602082019050919050565b600060208201905081810360008301526110568161101a565b905091905056fea264697066735822122052de24a023bae4dfa95366019bf181894bf87140cbafeda60044462f6ac7a2e564736f6c63430008130033",
  "immutableReferences": {},
  "source": "// SPDX-License-Identifier: MIT\npragma solidity >=0.4.22 <0.9.0;\n\ncontract BattleShipGame {\n    struct gameInfo {\n        // struct with all the information about a game\n        address creator;\n        address joiner;\n        uint256 boardSize;\n        uint256 shipNum;\n        uint256 ethAmount;\n    }\n\n    mapping(uint256 => gameInfo) public gameList; // map of game's ID (gameId => information of that game)\n    uint256[] public avaibleGame; // array with all the gameId of the avaible game\n\n    uint256 public gameId = 1; // value of the next gameId\n\n    // error event:\n    error OutputError(string myError);\n\n    // event:\n    event GameCreated(\n        uint256 indexed _gameId\n    );\n\n    event GameJoined(\n        uint256 indexed _gameId,\n        address _creator,\n        address _joiner,\n        uint256 _boardSize,\n        uint256 _shipNum,\n        uint256 _ethAmount\n    );\n\n    event AmountEthResponse(\n        address _sender,\n        uint256 _amount,\n        uint256 indexed _gameId,\n        bool response\n    );\n\n    event SubmitBoard(\n        uint256 indexed _gameId,\n        uint256[][] _gameBoard\n    );\n\n    constructor() {}\n\n    // function to return the gameId\n    function getId() public returns (uint256 toReturn) {\n        toReturn = gameId++;\n        return toReturn;\n    }\n\n    // function to remove an element of the array avaibleGame\n    function removeFromArray(uint256 index) public {\n        delete avaibleGame[index]; // TODO make a pop function tu extract the first element of the array\n    }\n\n    // function to get the gameId of an avaible game\n    function randomGame() public returns (uint256 randGameId) {\n        if (avaibleGame.length == 0) {\n            return 0;\n        }\n\n        for (uint256 i = 0; i < avaibleGame.length; i++) {\n            randGameId = avaibleGame[i];\n            if (randGameId != 0) {\n                removeFromArray(i);\n                return randGameId;\n            }\n        }\n\n        return 0;\n    }\n\n    function createGame(\n        uint256 _boardSize,\n        uint256 _shipNum,\n        uint256 _ethAmount\n    ) public {\n        // create a new game\n        uint256 newGameId = getId();\n\n        gameList[newGameId] = gameInfo(\n            msg.sender,\n            address(0),\n            _boardSize,\n            _shipNum,\n            _ethAmount\n        );\n        avaibleGame.push(newGameId);\n        emit GameCreated(newGameId);\n    }\n\n    function joinGame(uint256 _gameId) public {\n        // join a new game\n        if (avaibleGame.length < 1) {\n            revert OutputError({myError: \"No open games!\"});\n        }\n\n        uint256 chosenGameId;\n\n        if (_gameId == 0) {\n            //random game choice\n            chosenGameId = randomGame();\n        } else {\n            //specific game\n            chosenGameId = _gameId;\n\n            for (uint256 i = 0; i < avaibleGame.length; i++) {\n                if (avaibleGame[i] == chosenGameId) {\n                    removeFromArray(i);\n                }\n            }\n        }\n\n        if (gameList[chosenGameId].joiner != address(0)) {\n            revert OutputError({myError: \"Game already taken!\"});\n        }\n        gameList[chosenGameId].joiner = msg.sender;\n\n        emit GameJoined(\n            _gameId,\n            gameList[chosenGameId].creator,\n            gameList[chosenGameId].joiner,\n            gameList[chosenGameId].boardSize,\n            gameList[chosenGameId].shipNum,\n            gameList[chosenGameId].ethAmount\n        );\n    }\n\n    function amountEthDecision(uint256 _gameId, bool _response) public {\n        if (!_response) {\n            gameList[_gameId].joiner = address(0);\n        }\n\n        emit AmountEthResponse(\n            msg.sender,\n            gameList[_gameId].ethAmount,\n            _gameId,\n            _response\n        );\n    }\n\n    function submitBoard(uint256 _gameId, uint256[][] memory _gameBoard) public {\n        emit SubmitBoard(\n            _gameId,\n            _gameBoard\n        );\n    }\n}\n",
  "sourcePath": "/mnt/storage/Magistrale/P2PB/ProgettoP2P/P2P_Project/contracts/BattleShipGame.sol",
  "compiler": {
    "name": "solc",
    "version": "0.8.19+commit.7dd6d404.Emscripten.clang"
  },
  "schemaVersion": "3.4.13",
  "updatedAt": "2023-07-01T17:06:00.160Z",
  "networkType": "ethereum",
  "devdoc": {
    "kind": "dev",
    "methods": {},
    "version": 1
  },
  "userdoc": {
    "kind": "user",
    "methods": {},
    "version": 1
  }
}