{
  "contractName": "BattleShipGame",
  "abi": [
    {
      "inputs": [],
      "stateMutability": "nonpayable",
      "type": "constructor"
    },
    {
      "inputs": [
        {
          "internalType": "string",
          "name": "myError",
          "type": "string"
        }
      ],
      "name": "OutputError",
      "type": "error"
    },
    {
      "anonymous": false,
      "inputs": [
        {
          "indexed": false,
          "internalType": "address",
          "name": "_sender",
          "type": "address"
        },
        {
          "indexed": false,
          "internalType": "uint256",
          "name": "_amount",
          "type": "uint256"
        },
        {
          "indexed": true,
          "internalType": "uint256",
          "name": "_gameId",
          "type": "uint256"
        },
        {
          "indexed": false,
          "internalType": "bool",
          "name": "response",
          "type": "bool"
        }
      ],
      "name": "AmountEthResponse",
      "type": "event"
    },
    {
      "anonymous": false,
      "inputs": [
        {
          "indexed": true,
          "internalType": "uint256",
          "name": "_gameId",
          "type": "uint256"
        }
      ],
      "name": "GameCreated",
      "type": "event"
    },
    {
      "anonymous": false,
      "inputs": [
        {
          "indexed": true,
          "internalType": "uint256",
          "name": "_gameId",
          "type": "uint256"
        },
        {
          "indexed": false,
          "internalType": "address",
          "name": "_creator",
          "type": "address"
        },
        {
          "indexed": false,
          "internalType": "address",
          "name": "_joiner",
          "type": "address"
        },
        {
          "indexed": false,
          "internalType": "uint256",
          "name": "_boardSize",
          "type": "uint256"
        },
        {
          "indexed": false,
          "internalType": "uint256",
          "name": "_shipNum",
          "type": "uint256"
        },
        {
          "indexed": false,
          "internalType": "uint256",
          "name": "_ethAmount",
          "type": "uint256"
        }
      ],
      "name": "GameJoined",
      "type": "event"
    },
    {
      "anonymous": false,
      "inputs": [
        {
          "indexed": true,
          "internalType": "uint256",
          "name": "_gameId",
          "type": "uint256"
        },
        {
          "indexed": false,
          "internalType": "address",
          "name": "_address",
          "type": "address"
        },
        {
          "indexed": false,
          "internalType": "uint256",
          "name": "_row",
          "type": "uint256"
        },
        {
          "indexed": false,
          "internalType": "uint256",
          "name": "_col",
          "type": "uint256"
        },
        {
          "indexed": false,
          "internalType": "uint256",
          "name": "_merkleCheck",
          "type": "uint256"
        },
        {
          "indexed": false,
          "internalType": "uint256",
          "name": "_result",
          "type": "uint256"
        }
      ],
      "name": "ShootResult",
      "type": "event"
    },
    {
      "anonymous": false,
      "inputs": [
        {
          "indexed": true,
          "internalType": "uint256",
          "name": "_gameId",
          "type": "uint256"
        },
        {
          "indexed": false,
          "internalType": "address",
          "name": "_address",
          "type": "address"
        },
        {
          "indexed": false,
          "internalType": "uint256",
          "name": "_row",
          "type": "uint256"
        },
        {
          "indexed": false,
          "internalType": "uint256",
          "name": "_col",
          "type": "uint256"
        }
      ],
      "name": "ShootShip",
      "type": "event"
    },
    {
      "anonymous": false,
      "inputs": [
        {
          "indexed": true,
          "internalType": "uint256",
          "name": "_gameId",
          "type": "uint256"
        },
        {
          "indexed": false,
          "internalType": "bytes32",
          "name": "_merkleRootCreator",
          "type": "bytes32"
        },
        {
          "indexed": false,
          "internalType": "bytes32",
          "name": "_merkleRootJoiner",
          "type": "bytes32"
        }
      ],
      "name": "StartGame",
      "type": "event"
    },
    {
      "inputs": [
        {
          "internalType": "uint256",
          "name": "",
          "type": "uint256"
        }
      ],
      "name": "avaibleGame",
      "outputs": [
        {
          "internalType": "uint256",
          "name": "",
          "type": "uint256"
        }
      ],
      "stateMutability": "view",
      "type": "function",
      "constant": true
    },
    {
      "inputs": [],
      "name": "gameId",
      "outputs": [
        {
          "internalType": "uint256",
          "name": "",
          "type": "uint256"
        }
      ],
      "stateMutability": "view",
      "type": "function",
      "constant": true
    },
    {
      "inputs": [
        {
          "internalType": "uint256",
          "name": "",
          "type": "uint256"
        }
      ],
      "name": "gameList",
      "outputs": [
        {
          "internalType": "address",
          "name": "creator",
          "type": "address"
        },
        {
          "internalType": "address",
          "name": "joiner",
          "type": "address"
        },
        {
          "internalType": "uint256",
          "name": "boardSize",
          "type": "uint256"
        },
        {
          "internalType": "uint256",
          "name": "shipNum",
          "type": "uint256"
        },
        {
          "internalType": "uint256",
          "name": "ethAmount",
          "type": "uint256"
        },
        {
          "internalType": "bytes32",
          "name": "creatorMerkleRoot",
          "type": "bytes32"
        },
        {
          "internalType": "bytes32",
          "name": "joinerMerkleRoot",
          "type": "bytes32"
        }
      ],
      "stateMutability": "view",
      "type": "function",
      "constant": true
    },
    {
      "inputs": [],
      "name": "getId",
      "outputs": [
        {
          "internalType": "uint256",
          "name": "toReturn",
          "type": "uint256"
        }
      ],
      "stateMutability": "nonpayable",
      "type": "function"
    },
    {
      "inputs": [
        {
          "internalType": "uint256",
          "name": "_gameId",
          "type": "uint256"
        }
      ],
      "name": "removeFromArray",
      "outputs": [
        {
          "internalType": "bool",
          "name": "",
          "type": "bool"
        }
      ],
      "stateMutability": "nonpayable",
      "type": "function"
    },
    {
      "inputs": [],
      "name": "randomGame",
      "outputs": [
        {
          "internalType": "uint256",
          "name": "randGameId",
          "type": "uint256"
        }
      ],
      "stateMutability": "nonpayable",
      "type": "function"
    },
    {
      "inputs": [
        {
          "internalType": "uint256",
          "name": "_boardSize",
          "type": "uint256"
        },
        {
          "internalType": "uint256",
          "name": "_shipNum",
          "type": "uint256"
        },
        {
          "internalType": "uint256",
          "name": "_ethAmount",
          "type": "uint256"
        }
      ],
      "name": "createGame",
      "outputs": [],
      "stateMutability": "nonpayable",
      "type": "function"
    },
    {
      "inputs": [
        {
          "internalType": "uint256",
          "name": "_gameId",
          "type": "uint256"
        }
      ],
      "name": "joinGame",
      "outputs": [],
      "stateMutability": "nonpayable",
      "type": "function"
    },
    {
      "inputs": [
        {
          "internalType": "uint256",
          "name": "_gameId",
          "type": "uint256"
        },
        {
          "internalType": "bool",
          "name": "_response",
          "type": "bool"
        }
      ],
      "name": "amountEthDecision",
      "outputs": [],
      "stateMutability": "nonpayable",
      "type": "function"
    },
    {
      "inputs": [
        {
          "internalType": "uint256",
          "name": "_gameId",
          "type": "uint256"
        },
        {
          "internalType": "bytes32",
          "name": "_merkleRoot",
          "type": "bytes32"
        }
      ],
      "name": "submitBoard",
      "outputs": [],
      "stateMutability": "nonpayable",
      "type": "function"
    },
    {
      "inputs": [
        {
          "internalType": "uint256",
          "name": "_gameId",
          "type": "uint256"
        },
        {
          "internalType": "uint256",
          "name": "_row",
          "type": "uint256"
        },
        {
          "internalType": "uint256",
          "name": "_col",
          "type": "uint256"
        }
      ],
      "name": "shoot",
      "outputs": [],
      "stateMutability": "nonpayable",
      "type": "function"
    },
    {
      "inputs": [
        {
          "internalType": "uint256",
          "name": "_gameId",
          "type": "uint256"
        },
        {
          "internalType": "uint256",
          "name": "_row",
          "type": "uint256"
        },
        {
          "internalType": "uint256",
          "name": "_col",
          "type": "uint256"
        },
        {
          "internalType": "uint256",
          "name": "_result",
          "type": "uint256"
        },
        {
          "internalType": "bytes32",
          "name": "_hash",
          "type": "bytes32"
        },
        {
          "internalType": "bytes32[]",
          "name": "_merkleProof",
          "type": "bytes32[]"
        }
      ],
      "name": "shootResult",
      "outputs": [],
      "stateMutability": "nonpayable",
      "type": "function"
    }
  ],
  "bytecode": "0x6080604052600160025534801561001557600080fd5b50611bed806100256000396000f3fe608060405234801561001057600080fd5b50600436106100b45760003560e01c8063c558b42c11610071578063c558b42c14610177578063c6cfd08e14610193578063d7c81b55146101c9578063d9ad3ef5146101e7578063eb56ea9014610205578063efaa55a014610235576100b4565b80630328f6fb146100b95780635d1ca631146100d5578063685385f3146100f357806395e1c6fb1461010f578063a4933c811461012b578063c27415211461015b575b600080fd5b6100d360048036038101906100ce91906110d1565b610251565b005b6100dd610446565b6040516100ea9190611120565b60405180910390f35b61010d60048036038101906101089190611173565b610464565b005b6101296004803603810190610124919061130c565b61053d565b005b610145600480360381019061014091906113b5565b6107fc565b6040516101529190611120565b60405180910390f35b610175600480360381019061017091906113e2565b610820565b005b610191600480360381019061018c91906113e2565b6109c3565b005b6101ad60048036038101906101a891906113b5565b610b28565b6040516101c09796959493929190611485565b60405180910390f35b6101d1610baa565b6040516101de9190611120565b60405180910390f35b6101ef610bb0565b6040516101fc9190611120565b60405180910390f35b61021f600480360381019061021a91906113b5565b610c03565b60405161022c9190611503565b60405180910390f35b61024f600480360381019061024a91906113b5565b610d37565b005b60008211610294576040517f9a9be8fa00000000000000000000000000000000000000000000000000000000815260040161028b9061157b565b60405180910390fd5b3373ffffffffffffffffffffffffffffffffffffffff1660008084815260200190815260200160002060000160009054906101000a900473ffffffffffffffffffffffffffffffffffffffff1673ffffffffffffffffffffffffffffffffffffffff160361031b5780600080848152602001908152602001600020600501819055506103de565b3373ffffffffffffffffffffffffffffffffffffffff1660008084815260200190815260200160002060010160009054906101000a900473ffffffffffffffffffffffffffffffffffffffff1673ffffffffffffffffffffffffffffffffffffffff16036103a25780600080848152602001908152602001600020600601819055506103dd565b6040517f9a9be8fa0000000000000000000000000000000000000000000000000000000081526004016103d4906115e7565b60405180910390fd5b5b817f595b7b6a75388d9a9d82ff3f71da50be33f56f7915148fdb3fd632a0234a3961600080858152602001908152602001600020600501546000808681526020019081526020016000206006015460405161043a929190611607565b60405180910390a25050565b60006002600081548092919061045b9061165f565b91905055905090565b806104e857600080600084815260200190815260200160002060010160006101000a81548173ffffffffffffffffffffffffffffffffffffffff021916908373ffffffffffffffffffffffffffffffffffffffff16021790555060018290806001815401808255809150506001900390600052602060002001600090919091909150555b817f55329a170c309fdb206036da4397784f0560d2264c68e25316be295379a9eae8336000808681526020019081526020016000206004015484604051610531939291906116a7565b60405180910390a25050565b60008611610580576040517f9a9be8fa0000000000000000000000000000000000000000000000000000000081526004016105779061157b565b60405180910390fd5b60008060008089815260200190815260200160002060000160009054906101000a900473ffffffffffffffffffffffffffffffffffffffff1673ffffffffffffffffffffffffffffffffffffffff163373ffffffffffffffffffffffffffffffffffffffff16036106405760008089815260200190815260200160002060010160009054906101000a900473ffffffffffffffffffffffffffffffffffffffff169150600080898152602001908152602001600020600501549050610691565b60008089815260200190815260200160002060000160009054906101000a900473ffffffffffffffffffffffffffffffffffffffff1691506000808981526020019081526020016000206006015490505b6000808590506000886000808d8152602001908152602001600020600201548b6106bb91906116de565b6106c59190611720565b905060005b86518110156107995760006002836106e29190611783565b0361073157828782815181106106fb576106fa6117b4565b5b6020026020010151604051602001610714929190611804565b604051602081830303815290604052805190602001209250610777565b868181518110610744576107436117b4565b5b60200260200101518360405160200161075e929190611804565b6040516020818303038152906040528051906020012092505b6002826107849190611830565b915080806107919061165f565b9150506106ca565b508184036107aa57600192506107af565b600092505b8a7f682729007816d548060438637183b635ada59e9f6892be5bc9bc6043b9a35919868c8c878d6040516107e7959493929190611861565b60405180910390a25050505050505050505050565b6001818154811061080c57600080fd5b906000526020600020016000915090505481565b600061082a610446565b90506040518060e001604052803373ffffffffffffffffffffffffffffffffffffffff168152602001600073ffffffffffffffffffffffffffffffffffffffff1681526020018581526020018481526020018381526020016000801b81526020016000801b81525060008083815260200190815260200160002060008201518160000160006101000a81548173ffffffffffffffffffffffffffffffffffffffff021916908373ffffffffffffffffffffffffffffffffffffffff16021790555060208201518160010160006101000a81548173ffffffffffffffffffffffffffffffffffffffff021916908373ffffffffffffffffffffffffffffffffffffffff16021790555060408201518160020155606082015181600301556080820151816004015560a0820151816005015560c082015181600601559050506001819080600181540180825580915050600190039060005260206000200160009091909190915055807fbd19c47e9925eb6f7be8bb1c13a841e0240aaeaf17f217e90022e9c8eb66877f60405160405180910390a250505050565b60008311610a06576040517f9a9be8fa0000000000000000000000000000000000000000000000000000000081526004016109fd9061157b565b60405180910390fd5b600080600085815260200190815260200160002060000160009054906101000a900473ffffffffffffffffffffffffffffffffffffffff1673ffffffffffffffffffffffffffffffffffffffff163373ffffffffffffffffffffffffffffffffffffffff1603610aad5760008085815260200190815260200160002060010160009054906101000a900473ffffffffffffffffffffffffffffffffffffffff169050610ae6565b60008085815260200190815260200160002060000160009054906101000a900473ffffffffffffffffffffffffffffffffffffffff1690505b837fa16c812880cd48fb28e27eb04ace25edead556e67c396ab7d2a93674adf55b43828585604051610b1a939291906118b4565b60405180910390a250505050565b60006020528060005260406000206000915090508060000160009054906101000a900473ffffffffffffffffffffffffffffffffffffffff16908060010160009054906101000a900473ffffffffffffffffffffffffffffffffffffffff16908060020154908060030154908060040154908060050154908060060154905087565b60025481565b60008060018054905003610bc75760009050610c00565b6001610bd7600180549050611011565b81548110610be857610be76117b4565b5b90600052602060002001549050610bfe81610c03565b505b90565b6000806000805b600180549050811015610c5b578460018281548110610c2c57610c2b6117b4565b5b906000526020600020015403610c485780925060019150610c5b565b8080610c539061165f565b915050610c0a565b50801580610c6e57506001805490508210155b15610c7d578092505050610d32565b60008290505b60018080549050610c9491906118eb565b811015610cfa5760018082610ca99190611720565b81548110610cba57610cb96117b4565b5b906000526020600020015460018281548110610cd957610cd86117b4565b5b90600052602060002001819055508080610cf29061165f565b915050610c83565b506001808080549050610d0d91906118eb565b81548110610d1e57610d1d6117b4565b5b906000526020600020016000905580925050505b919050565b600180805490501015610d7f576040517f9a9be8fa000000000000000000000000000000000000000000000000000000008152600401610d769061196b565b60405180910390fd5b6000808203610d9757610d90610bb0565b9050610de9565b8190506000610da582610c03565b905080610de7576040517f9a9be8fa000000000000000000000000000000000000000000000000000000008152600401610dde906119d7565b60405180910390fd5b505b60008111610e2c576040517f9a9be8fa000000000000000000000000000000000000000000000000000000008152600401610e2390611a43565b60405180910390fd5b600073ffffffffffffffffffffffffffffffffffffffff1660008083815260200190815260200160002060010160009054906101000a900473ffffffffffffffffffffffffffffffffffffffff1673ffffffffffffffffffffffffffffffffffffffff1614610ed0576040517f9a9be8fa000000000000000000000000000000000000000000000000000000008152600401610ec790611aaf565b60405180910390fd5b3360008083815260200190815260200160002060010160006101000a81548173ffffffffffffffffffffffffffffffffffffffff021916908373ffffffffffffffffffffffffffffffffffffffff160217905550807f66bacdfb07a49afa060b23ca1e16974d1919771fff2fd57717ab8857b0673b3460008084815260200190815260200160002060000160009054906101000a900473ffffffffffffffffffffffffffffffffffffffff1660008085815260200190815260200160002060010160009054906101000a900473ffffffffffffffffffffffffffffffffffffffff16600080868152602001908152602001600020600201546000808781526020019081526020016000206003015460008088815260200190815260200160002060040154604051611005959493929190611acf565b60405180910390a25050565b6000814233604051602001611027929190611b8b565b6040516020818303038152906040528051906020012060001c61104a9190611783565b9050919050565b6000604051905090565b600080fd5b600080fd5b6000819050919050565b61107881611065565b811461108357600080fd5b50565b6000813590506110958161106f565b92915050565b6000819050919050565b6110ae8161109b565b81146110b957600080fd5b50565b6000813590506110cb816110a5565b92915050565b600080604083850312156110e8576110e761105b565b5b60006110f685828601611086565b9250506020611107858286016110bc565b9150509250929050565b61111a81611065565b82525050565b60006020820190506111356000830184611111565b92915050565b60008115159050919050565b6111508161113b565b811461115b57600080fd5b50565b60008135905061116d81611147565b92915050565b6000806040838503121561118a5761118961105b565b5b600061119885828601611086565b92505060206111a98582860161115e565b9150509250929050565b600080fd5b6000601f19601f8301169050919050565b7f4e487b7100000000000000000000000000000000000000000000000000000000600052604160045260246000fd5b611201826111b8565b810181811067ffffffffffffffff821117156112205761121f6111c9565b5b80604052505050565b6000611233611051565b905061123f82826111f8565b919050565b600067ffffffffffffffff82111561125f5761125e6111c9565b5b602082029050602081019050919050565b600080fd5b600061128861128384611244565b611229565b905080838252602082019050602084028301858111156112ab576112aa611270565b5b835b818110156112d457806112c088826110bc565b8452602084019350506020810190506112ad565b5050509392505050565b600082601f8301126112f3576112f26111b3565b5b8135611303848260208601611275565b91505092915050565b60008060008060008060c087890312156113295761132861105b565b5b600061133789828a01611086565b965050602061134889828a01611086565b955050604061135989828a01611086565b945050606061136a89828a01611086565b935050608061137b89828a016110bc565b92505060a087013567ffffffffffffffff81111561139c5761139b611060565b5b6113a889828a016112de565b9150509295509295509295565b6000602082840312156113cb576113ca61105b565b5b60006113d984828501611086565b91505092915050565b6000806000606084860312156113fb576113fa61105b565b5b600061140986828701611086565b935050602061141a86828701611086565b925050604061142b86828701611086565b9150509250925092565b600073ffffffffffffffffffffffffffffffffffffffff82169050919050565b600061146082611435565b9050919050565b61147081611455565b82525050565b61147f8161109b565b82525050565b600060e08201905061149a600083018a611467565b6114a76020830189611467565b6114b46040830188611111565b6114c16060830187611111565b6114ce6080830186611111565b6114db60a0830185611476565b6114e860c0830184611476565b98975050505050505050565b6114fd8161113b565b82525050565b600060208201905061151860008301846114f4565b92915050565b600082825260208201905092915050565b7f47616d65206964206973206e6567617469766521000000000000000000000000600082015250565b600061156560148361151e565b91506115708261152f565b602082019050919050565b6000602082019050818103600083015261159481611558565b9050919050565b7f506c61796572206e6f7420696e20746861742067616d65210000000000000000600082015250565b60006115d160188361151e565b91506115dc8261159b565b602082019050919050565b60006020820190508181036000830152611600816115c4565b9050919050565b600060408201905061161c6000830185611476565b6116296020830184611476565b9392505050565b7f4e487b7100000000000000000000000000000000000000000000000000000000600052601160045260246000fd5b600061166a82611065565b91507fffffffffffffffffffffffffffffffffffffffffffffffffffffffffffffffff820361169c5761169b611630565b5b600182019050919050565b60006060820190506116bc6000830186611467565b6116c96020830185611111565b6116d660408301846114f4565b949350505050565b60006116e982611065565b91506116f483611065565b925082820261170281611065565b9150828204841483151761171957611718611630565b5b5092915050565b600061172b82611065565b915061173683611065565b925082820190508082111561174e5761174d611630565b5b92915050565b7f4e487b7100000000000000000000000000000000000000000000000000000000600052601260045260246000fd5b600061178e82611065565b915061179983611065565b9250826117a9576117a8611754565b5b828206905092915050565b7f4e487b7100000000000000000000000000000000000000000000000000000000600052603260045260246000fd5b6000819050919050565b6117fe6117f98261109b565b6117e3565b82525050565b600061181082856117ed565b60208201915061182082846117ed565b6020820191508190509392505050565b600061183b82611065565b915061184683611065565b92508261185657611855611754565b5b828204905092915050565b600060a0820190506118766000830188611467565b6118836020830187611111565b6118906040830186611111565b61189d6060830185611111565b6118aa6080830184611111565b9695505050505050565b60006060820190506118c96000830186611467565b6118d66020830185611111565b6118e36040830184611111565b949350505050565b60006118f682611065565b915061190183611065565b925082820390508181111561191957611918611630565b5b92915050565b7f4e6f206f70656e2067616d657321000000000000000000000000000000000000600082015250565b6000611955600e8361151e565b91506119608261191f565b602082019050919050565b6000602082019050818103600083015261198481611948565b9050919050565b7f546869732067616d6520646f6573206e6f742065786973742100000000000000600082015250565b60006119c160198361151e565b91506119cc8261198b565b602082019050919050565b600060208201905081810360008301526119f0816119b4565b9050919050565b7f43686f73656e206964206e656761746976652100000000000000000000000000600082015250565b6000611a2d60138361151e565b9150611a38826119f7565b602082019050919050565b60006020820190508181036000830152611a5c81611a20565b9050919050565b7f47616d6520616c72656164792074616b656e2100000000000000000000000000600082015250565b6000611a9960138361151e565b9150611aa482611a63565b602082019050919050565b60006020820190508181036000830152611ac881611a8c565b9050919050565b600060a082019050611ae46000830188611467565b611af16020830187611467565b611afe6040830186611111565b611b0b6060830185611111565b611b186080830184611111565b9695505050505050565b6000819050919050565b611b3d611b3882611065565b611b22565b82525050565b60008160601b9050919050565b6000611b5b82611b43565b9050919050565b6000611b6d82611b50565b9050919050565b611b85611b8082611455565b611b62565b82525050565b6000611b978285611b2c565b602082019150611ba78284611b74565b601482019150819050939250505056fea26469706673582212202826fc82a127133c6ac83fdacc2f63f2be520b417a95bd7793d84ef89218f04a64736f6c63430008130033",
  "immutableReferences": {},
  "source": "// SPDX-License-Identifier: MIT\npragma solidity >=0.4.22 <0.9.0;\n\ncontract BattleShipGame {\n    struct gameInfo {\n        // struct with all the information about a game\n        address creator;\n        address joiner;\n        uint256 boardSize;\n        uint256 shipNum;\n        uint256 ethAmount;\n        bytes32 creatorMerkleRoot;\n        bytes32 joinerMerkleRoot;\n    }\n\n    mapping(uint256 => gameInfo) public gameList; // map of game's ID (gameId => information of that game)\n    uint256[] public avaibleGame; // array with all the gameId of the avaible game\n\n    uint256 public gameId = 1; // value of the next gameId\n\n    // error event:\n    error OutputError(string myError);\n\n    // event:\n    event GameCreated(uint256 indexed _gameId);\n\n    event GameJoined(\n        uint256 indexed _gameId,\n        address _creator,\n        address _joiner,\n        uint256 _boardSize,\n        uint256 _shipNum,\n        uint256 _ethAmount\n    );\n\n    event AmountEthResponse(\n        address _sender,\n        uint256 _amount,\n        uint256 indexed _gameId,\n        bool response\n    );\n\n    event StartGame(\n        uint256 indexed _gameId,\n        bytes32 _merkleRootCreator, \n        bytes32 _merkleRootJoiner\n    );\n\n    event ShootShip(\n        uint256 indexed _gameId,\n        address _address,\n        uint256 _row,\n        uint256 _col\n    );\n\n    event ShootResult(\n        uint256 indexed _gameId,\n        address _address,\n        uint256 _row,\n        uint256 _col,\n        uint256 _merkleCheck,\n        uint256 _result\n    );\n\n    constructor() {}\n\n    // function to return the gameId\n    function getId() public returns (uint256 toReturn) {\n        toReturn = gameId++;\n        return toReturn;\n    }\n\n    // function to remove an element of the array avaibleGame\n    function removeFromArray(uint256 _gameId) public returns (bool) {\n        uint256 index;\n        bool find = false;\n\n        // loop the avaible game until find the index of the chosen one\n        for (uint i = 0; i < avaibleGame.length; i++) {\n            if (avaibleGame[i] == _gameId) {\n                index = i;\n                find = true;\n                break;\n            }\n        }\n\n        if (!find || index >= avaibleGame.length) {\n            return find;\n        }\n\n        for (uint i = index; i < avaibleGame.length - 1; i++) {\n            // move manually all the element\n            avaibleGame[i] = avaibleGame[i + 1];\n        }\n        delete avaibleGame[avaibleGame.length - 1]; // remove the last element\n        return find;\n    }\n\n    function getRandomNumber(uint256 bound) private view returns (uint256) {\n        return\n            uint256(keccak256(abi.encodePacked(block.timestamp, msg.sender))) %\n            bound;\n    }\n\n    // function to get the gameId of an avaible game\n    function randomGame() public returns (uint256 randGameId) {\n        if (avaibleGame.length == 0) {\n            return 0;\n        }\n\n        randGameId = avaibleGame[getRandomNumber(avaibleGame.length)];\n        removeFromArray(randGameId);\n        return randGameId;\n    }\n\n    function createGame(\n        // function to create a new game\n        uint256 _boardSize,\n        uint256 _shipNum,\n        uint256 _ethAmount\n    ) public {\n        // create a new game\n        uint256 newGameId = getId();\n\n        gameList[newGameId] = gameInfo(\n            msg.sender,\n            address(0),\n            _boardSize,\n            _shipNum,\n            _ethAmount,\n            0,\n            0\n        );\n        avaibleGame.push(newGameId);\n        emit GameCreated(newGameId);\n    }\n\n    function joinGame(uint256 _gameId) public {\n        // function to join a game\n        // check if there are avaible game\n        if (avaibleGame.length < 1) {\n            revert OutputError({myError: \"No open games!\"});\n        }\n\n        uint256 chosenGameId;\n\n        if (_gameId == 0) {\n            //random game choice\n            chosenGameId = randomGame();\n        } else {\n            //specific game\n            chosenGameId = _gameId;\n            bool find = removeFromArray(chosenGameId);\n\n            if (!find) {\n                revert OutputError({myError: \"This game does not exist!\"});\n            }\n        }\n\n        if (chosenGameId <= 0) {\n            revert OutputError({myError: \"Chosen id negative!\"});\n        }\n\n        if (gameList[chosenGameId].joiner != address(0)) {\n            revert OutputError({myError: \"Game already taken!\"});\n        }\n        gameList[chosenGameId].joiner = msg.sender;\n\n        emit GameJoined(\n            chosenGameId,\n            gameList[chosenGameId].creator,\n            gameList[chosenGameId].joiner,\n            gameList[chosenGameId].boardSize,\n            gameList[chosenGameId].shipNum,\n            gameList[chosenGameId].ethAmount\n        );\n    }\n\n    function amountEthDecision(uint256 _gameId, bool _response) public {\n        // function to accept or refuse the eth amount\n        if (!_response) {\n            // refuse response\n            gameList[_gameId].joiner = address(0);\n            avaibleGame.push(_gameId);\n        }\n\n        emit AmountEthResponse(\n            msg.sender,\n            gameList[_gameId].ethAmount,\n            _gameId,\n            _response\n        );\n    }\n\n    function submitBoard(uint256 _gameId, bytes32 _merkleRoot) public {\n        // function to submit the board\n        //TODO: check\n        if (_gameId <= 0) {\n            revert OutputError({myError: \"Game id is negative!\"});\n        }\n\n        if (gameList[_gameId].creator == msg.sender) {\n            gameList[_gameId].creatorMerkleRoot = _merkleRoot;\n        } else if (gameList[_gameId].joiner == msg.sender) {\n            gameList[_gameId].joinerMerkleRoot = _merkleRoot;\n        } else {\n            revert OutputError({myError: \"Player not in that game!\"});\n        }\n\n        emit StartGame(_gameId, gameList[_gameId].creatorMerkleRoot, gameList[_gameId].joinerMerkleRoot);\n    }\n\n    function shoot(uint256 _gameId, uint256 _row, uint256 _col) public {\n        // function to communicate the coordinates of the fired cell\n        if (_gameId <= 0) {\n            revert OutputError({myError: \"Game id is negative!\"});\n        }\n\n        // take the opponent address for comunicate who was shot\n        address opponentAddress;\n        if (msg.sender == gameList[_gameId].creator) {\n            opponentAddress = gameList[_gameId].joiner;\n        } else {\n            opponentAddress = gameList[_gameId].creator;\n        }\n\n        emit ShootShip(_gameId, opponentAddress, _row, _col);\n    }\n\n    function shootResult(\n        uint256 _gameId,\n        uint256 _row,\n        uint256 _col,\n        uint256 _result,\n        bytes32 _hash,\n        bytes32[] memory _merkleProof\n    ) public {\n        // function to comunicate the result of the shot\n        if (_gameId <= 0) {\n            revert OutputError({myError: \"Game id is negative!\"});\n        }\n\n        // take the opponent address for comunicate who fired the shot\n        address opponentAddress;\n        bytes32 merkleRoot;\n        if (msg.sender == gameList[_gameId].creator) {\n            opponentAddress = gameList[_gameId].joiner;\n            merkleRoot = gameList[_gameId].creatorMerkleRoot;\n        } else {\n            opponentAddress = gameList[_gameId].creator;\n            merkleRoot = gameList[_gameId].joinerMerkleRoot;\n        }\n\n        uint256 check;\n        bytes32 hashValue = _hash;\n\n        uint256 index = _row * gameList[_gameId].boardSize + _col;\n        for (uint i = 0; i < _merkleProof.length; i++) {\n            if (index % 2 == 0) {\n                hashValue = keccak256(abi.encodePacked(hashValue, _merkleProof[i]));\n            } else {\n                hashValue = keccak256(abi.encodePacked(_merkleProof[i], hashValue));\n            }\n\n            index = index/2;\n        }\n\n        if(merkleRoot == hashValue){\n            check = 1;\n        }\n        else{\n            check = 0;\n        }\n\n        emit ShootResult(_gameId, opponentAddress, _row, _col, check, _result);\n    }\n}\n",
  "sourcePath": "/mnt/storage/Magistrale/P2PB/ProgettoP2P/P2P_Project/contracts/BattleShipGame.sol",
  "compiler": {
    "name": "solc",
    "version": "0.8.19+commit.7dd6d404.Emscripten.clang"
  },
  "schemaVersion": "3.4.13",
  "updatedAt": "2023-07-17T10:39:31.168Z",
  "networkType": "ethereum",
  "devdoc": {
    "kind": "dev",
    "methods": {},
    "version": 1
  },
  "userdoc": {
    "kind": "user",
    "methods": {},
    "version": 1
  }
}