{
  "contractName": "BattleShipGame",
  "abi": [
    {
      "inputs": [],
      "stateMutability": "nonpayable",
      "type": "constructor"
    },
    {
      "inputs": [
        {
          "internalType": "string",
          "name": "myError",
          "type": "string"
        }
      ],
      "name": "OutputError",
      "type": "error"
    },
    {
      "anonymous": false,
      "inputs": [
        {
          "indexed": false,
          "internalType": "address",
          "name": "_sender",
          "type": "address"
        },
        {
          "indexed": false,
          "internalType": "uint256",
          "name": "_amount",
          "type": "uint256"
        },
        {
          "indexed": true,
          "internalType": "uint256",
          "name": "_gameId",
          "type": "uint256"
        },
        {
          "indexed": false,
          "internalType": "bool",
          "name": "response",
          "type": "bool"
        }
      ],
      "name": "AmountEthResponse",
      "type": "event"
    },
    {
      "anonymous": false,
      "inputs": [
        {
          "indexed": true,
          "internalType": "uint256",
          "name": "_gameId",
          "type": "uint256"
        }
      ],
      "name": "GameCreated",
      "type": "event"
    },
    {
      "anonymous": false,
      "inputs": [
        {
          "indexed": true,
          "internalType": "uint256",
          "name": "_gameId",
          "type": "uint256"
        },
        {
          "indexed": false,
          "internalType": "address",
          "name": "_creator",
          "type": "address"
        },
        {
          "indexed": false,
          "internalType": "address",
          "name": "_joiner",
          "type": "address"
        },
        {
          "indexed": false,
          "internalType": "uint256",
          "name": "_boardSize",
          "type": "uint256"
        },
        {
          "indexed": false,
          "internalType": "uint256",
          "name": "_shipNum",
          "type": "uint256"
        },
        {
          "indexed": false,
          "internalType": "uint256",
          "name": "_ethAmount",
          "type": "uint256"
        }
      ],
      "name": "GameJoined",
      "type": "event"
    },
    {
      "anonymous": false,
      "inputs": [
        {
          "indexed": true,
          "internalType": "uint256",
          "name": "_gameId",
          "type": "uint256"
        },
        {
          "indexed": false,
          "internalType": "address",
          "name": "_address",
          "type": "address"
        },
        {
          "indexed": false,
          "internalType": "uint256",
          "name": "_row",
          "type": "uint256"
        },
        {
          "indexed": false,
          "internalType": "uint256",
          "name": "_col",
          "type": "uint256"
        },
        {
          "indexed": false,
          "internalType": "uint256",
          "name": "_result",
          "type": "uint256"
        }
      ],
      "name": "ShootResult",
      "type": "event"
    },
    {
      "anonymous": false,
      "inputs": [
        {
          "indexed": true,
          "internalType": "uint256",
          "name": "_gameId",
          "type": "uint256"
        },
        {
          "indexed": false,
          "internalType": "address",
          "name": "_address",
          "type": "address"
        },
        {
          "indexed": false,
          "internalType": "uint256",
          "name": "_row",
          "type": "uint256"
        },
        {
          "indexed": false,
          "internalType": "uint256",
          "name": "_col",
          "type": "uint256"
        }
      ],
      "name": "ShootShip",
      "type": "event"
    },
    {
      "anonymous": false,
      "inputs": [
        {
          "indexed": true,
          "internalType": "uint256",
          "name": "_gameId",
          "type": "uint256"
        }
      ],
      "name": "StartGame",
      "type": "event"
    },
    {
      "inputs": [
        {
          "internalType": "uint256",
          "name": "",
          "type": "uint256"
        }
      ],
      "name": "avaibleGame",
      "outputs": [
        {
          "internalType": "uint256",
          "name": "",
          "type": "uint256"
        }
      ],
      "stateMutability": "view",
      "type": "function",
      "constant": true
    },
    {
      "inputs": [],
      "name": "gameId",
      "outputs": [
        {
          "internalType": "uint256",
          "name": "",
          "type": "uint256"
        }
      ],
      "stateMutability": "view",
      "type": "function",
      "constant": true
    },
    {
      "inputs": [
        {
          "internalType": "uint256",
          "name": "",
          "type": "uint256"
        }
      ],
      "name": "gameList",
      "outputs": [
        {
          "internalType": "address",
          "name": "creator",
          "type": "address"
        },
        {
          "internalType": "address",
          "name": "joiner",
          "type": "address"
        },
        {
          "internalType": "uint256",
          "name": "boardSize",
          "type": "uint256"
        },
        {
          "internalType": "uint256",
          "name": "shipNum",
          "type": "uint256"
        },
        {
          "internalType": "uint256",
          "name": "ethAmount",
          "type": "uint256"
        },
        {
          "internalType": "uint256",
          "name": "merkleRoot",
          "type": "uint256"
        }
      ],
      "stateMutability": "view",
      "type": "function",
      "constant": true
    },
    {
      "inputs": [],
      "name": "getId",
      "outputs": [
        {
          "internalType": "uint256",
          "name": "toReturn",
          "type": "uint256"
        }
      ],
      "stateMutability": "nonpayable",
      "type": "function"
    },
    {
      "inputs": [
        {
          "internalType": "uint256",
          "name": "_gameId",
          "type": "uint256"
        }
      ],
      "name": "removeFromArray",
      "outputs": [],
      "stateMutability": "nonpayable",
      "type": "function"
    },
    {
      "inputs": [],
      "name": "randomGame",
      "outputs": [
        {
          "internalType": "uint256",
          "name": "randGameId",
          "type": "uint256"
        }
      ],
      "stateMutability": "nonpayable",
      "type": "function"
    },
    {
      "inputs": [
        {
          "internalType": "uint256",
          "name": "_boardSize",
          "type": "uint256"
        },
        {
          "internalType": "uint256",
          "name": "_shipNum",
          "type": "uint256"
        },
        {
          "internalType": "uint256",
          "name": "_ethAmount",
          "type": "uint256"
        }
      ],
      "name": "createGame",
      "outputs": [],
      "stateMutability": "nonpayable",
      "type": "function"
    },
    {
      "inputs": [
        {
          "internalType": "uint256",
          "name": "_gameId",
          "type": "uint256"
        }
      ],
      "name": "joinGame",
      "outputs": [],
      "stateMutability": "nonpayable",
      "type": "function"
    },
    {
      "inputs": [
        {
          "internalType": "uint256",
          "name": "_gameId",
          "type": "uint256"
        },
        {
          "internalType": "bool",
          "name": "_response",
          "type": "bool"
        }
      ],
      "name": "amountEthDecision",
      "outputs": [],
      "stateMutability": "nonpayable",
      "type": "function"
    },
    {
      "inputs": [
        {
          "internalType": "uint256",
          "name": "_gameId",
          "type": "uint256"
        },
        {
          "internalType": "uint256",
          "name": "_merkleRoot",
          "type": "uint256"
        }
      ],
      "name": "submitBoard",
      "outputs": [],
      "stateMutability": "nonpayable",
      "type": "function"
    },
    {
      "inputs": [
        {
          "internalType": "uint256",
          "name": "_gameId",
          "type": "uint256"
        },
        {
          "internalType": "uint256",
          "name": "_row",
          "type": "uint256"
        },
        {
          "internalType": "uint256",
          "name": "_col",
          "type": "uint256"
        }
      ],
      "name": "shoot",
      "outputs": [],
      "stateMutability": "nonpayable",
      "type": "function"
    },
    {
      "inputs": [
        {
          "internalType": "uint256",
          "name": "_gameId",
          "type": "uint256"
        },
        {
          "internalType": "uint256",
          "name": "_row",
          "type": "uint256"
        },
        {
          "internalType": "uint256",
          "name": "_col",
          "type": "uint256"
        },
        {
          "internalType": "uint256",
          "name": "_result",
          "type": "uint256"
        }
      ],
      "name": "shootResult",
      "outputs": [],
      "stateMutability": "nonpayable",
      "type": "function"
    }
  ],
  "bytecode": "0x6080604052600160025534801561001557600080fd5b5061164d806100256000396000f3fe608060405234801561001057600080fd5b50600436106100b45760003560e01c8063c558b42c11610071578063c558b42c14610177578063c6cfd08e14610193578063d7c81b55146101c8578063d9ad3ef5146101e6578063eb56ea9014610204578063efaa55a014610220576100b4565b80630a79d3d1146100b95780635d1ca631146100d5578063685385f3146100f357806372e49ad31461010f578063a4933c811461012b578063c27415211461015b575b600080fd5b6100d360048036038101906100ce9190610e67565b61023c565b005b6100dd6103a4565b6040516100ea9190610edd565b60405180910390f35b61010d60048036038101906101089190610f30565b6103c2565b005b61012960048036038101906101249190610f70565b61049b565b005b61014560048036038101906101409190610fb0565b61063d565b6040516101529190610edd565b60405180910390f35b61017560048036038101906101709190610fdd565b610661565b005b610191600480360381019061018c9190610fdd565b6107ef565b005b6101ad60048036038101906101a89190610fb0565b610954565b6040516101bf96959493929190611071565b60405180910390f35b6101d06109d0565b6040516101dd9190610edd565b60405180910390f35b6101ee6109d6565b6040516101fb9190610edd565b60405180910390f35b61021e60048036038101906102199190610fb0565b610a28565b005b61023a60048036038101906102359190610fb0565b610b57565b005b6000841161027f576040517f9a9be8fa0000000000000000000000000000000000000000000000000000000081526004016102769061112f565b60405180910390fd5b600080600086815260200190815260200160002060000160009054906101000a900473ffffffffffffffffffffffffffffffffffffffff1673ffffffffffffffffffffffffffffffffffffffff163373ffffffffffffffffffffffffffffffffffffffff16036103265760008086815260200190815260200160002060010160009054906101000a900473ffffffffffffffffffffffffffffffffffffffff16905061035f565b60008086815260200190815260200160002060000160009054906101000a900473ffffffffffffffffffffffffffffffffffffffff1690505b847ff497e56b4fa56357a2b88ddd91f8c5256dd2af7da875abac5678f5d17e616ce482868686604051610395949392919061114f565b60405180910390a25050505050565b6000600260008154809291906103b9906111c3565b91905055905090565b8061044657600080600084815260200190815260200160002060010160006101000a81548173ffffffffffffffffffffffffffffffffffffffff021916908373ffffffffffffffffffffffffffffffffffffffff16021790555060018290806001815401808255809150506001900390600052602060002001600090919091909150555b817f55329a170c309fdb206036da4397784f0560d2264c68e25316be295379a9eae833600080868152602001908152602001600020600401548460405161048f9392919061121a565b60405180910390a25050565b600082116104de576040517f9a9be8fa0000000000000000000000000000000000000000000000000000000081526004016104d59061112f565b60405180910390fd5b3373ffffffffffffffffffffffffffffffffffffffff1660008084815260200190815260200160002060000160009054906101000a900473ffffffffffffffffffffffffffffffffffffffff1673ffffffffffffffffffffffffffffffffffffffff1614806105ad57503373ffffffffffffffffffffffffffffffffffffffff1660008084815260200190815260200160002060010160009054906101000a900473ffffffffffffffffffffffffffffffffffffffff1673ffffffffffffffffffffffffffffffffffffffff16145b156105d157806000808481526020019081526020016000206005018190555061060c565b6040517f9a9be8fa0000000000000000000000000000000000000000000000000000000081526004016106039061129d565b60405180910390fd5b817f12333b322723ec26360eb708b341801ecca576387b55caa77d6e408107d2c70f60405160405180910390a25050565b6001818154811061064d57600080fd5b906000526020600020016000915090505481565b600061066b6103a4565b90506040518060c001604052803373ffffffffffffffffffffffffffffffffffffffff168152602001600073ffffffffffffffffffffffffffffffffffffffff168152602001858152602001848152602001838152602001600081525060008083815260200190815260200160002060008201518160000160006101000a81548173ffffffffffffffffffffffffffffffffffffffff021916908373ffffffffffffffffffffffffffffffffffffffff16021790555060208201518160010160006101000a81548173ffffffffffffffffffffffffffffffffffffffff021916908373ffffffffffffffffffffffffffffffffffffffff16021790555060408201518160020155606082015181600301556080820151816004015560a082015181600501559050506001819080600181540180825580915050600190039060005260206000200160009091909190915055807fbd19c47e9925eb6f7be8bb1c13a841e0240aaeaf17f217e90022e9c8eb66877f60405160405180910390a250505050565b60008311610832576040517f9a9be8fa0000000000000000000000000000000000000000000000000000000081526004016108299061112f565b60405180910390fd5b600080600085815260200190815260200160002060000160009054906101000a900473ffffffffffffffffffffffffffffffffffffffff1673ffffffffffffffffffffffffffffffffffffffff163373ffffffffffffffffffffffffffffffffffffffff16036108d95760008085815260200190815260200160002060010160009054906101000a900473ffffffffffffffffffffffffffffffffffffffff169050610912565b60008085815260200190815260200160002060000160009054906101000a900473ffffffffffffffffffffffffffffffffffffffff1690505b837fa16c812880cd48fb28e27eb04ace25edead556e67c396ab7d2a93674adf55b43828585604051610946939291906112bd565b60405180910390a250505050565b60006020528060005260406000206000915090508060000160009054906101000a900473ffffffffffffffffffffffffffffffffffffffff16908060010160009054906101000a900473ffffffffffffffffffffffffffffffffffffffff16908060020154908060030154908060040154908060050154905086565b60025481565b600080600180549050036109ed5760009050610a25565b60016109fd600180549050610dec565b81548110610a0e57610a0d6112f4565b5b90600052602060002001549050610a2481610a28565b5b90565b6000806000905060005b600180549050811015610a83578360018281548110610a5457610a536112f4565b5b906000526020600020015403610a705780925060019150610a83565b8080610a7b906111c3565b915050610a32565b50801580610a9657506001805490508210155b15610aa2575050610b54565b60008290505b60018080549050610ab99190611323565b811015610b1f5760018082610ace9190611357565b81548110610adf57610ade6112f4565b5b906000526020600020015460018281548110610afe57610afd6112f4565b5b90600052602060002001819055508080610b17906111c3565b915050610aa8565b506001808080549050610b329190611323565b81548110610b4357610b426112f4565b5b906000526020600020016000905550505b50565b600180805490501015610b9f576040517f9a9be8fa000000000000000000000000000000000000000000000000000000008152600401610b96906113d7565b60405180910390fd5b6000808203610bb757610bb06109d6565b9050610bc4565b819050610bc381610a28565b5b60008111610c07576040517f9a9be8fa000000000000000000000000000000000000000000000000000000008152600401610bfe90611443565b60405180910390fd5b600073ffffffffffffffffffffffffffffffffffffffff1660008083815260200190815260200160002060010160009054906101000a900473ffffffffffffffffffffffffffffffffffffffff1673ffffffffffffffffffffffffffffffffffffffff1614610cab576040517f9a9be8fa000000000000000000000000000000000000000000000000000000008152600401610ca2906114af565b60405180910390fd5b3360008083815260200190815260200160002060010160006101000a81548173ffffffffffffffffffffffffffffffffffffffff021916908373ffffffffffffffffffffffffffffffffffffffff160217905550807f66bacdfb07a49afa060b23ca1e16974d1919771fff2fd57717ab8857b0673b3460008084815260200190815260200160002060000160009054906101000a900473ffffffffffffffffffffffffffffffffffffffff1660008085815260200190815260200160002060010160009054906101000a900473ffffffffffffffffffffffffffffffffffffffff16600080868152602001908152602001600020600201546000808781526020019081526020016000206003015460008088815260200190815260200160002060040154604051610de09594939291906114cf565b60405180910390a25050565b6000814233604051602001610e0292919061158b565b6040516020818303038152906040528051906020012060001c610e2591906115e6565b9050919050565b600080fd5b6000819050919050565b610e4481610e31565b8114610e4f57600080fd5b50565b600081359050610e6181610e3b565b92915050565b60008060008060808587031215610e8157610e80610e2c565b5b6000610e8f87828801610e52565b9450506020610ea087828801610e52565b9350506040610eb187828801610e52565b9250506060610ec287828801610e52565b91505092959194509250565b610ed781610e31565b82525050565b6000602082019050610ef26000830184610ece565b92915050565b60008115159050919050565b610f0d81610ef8565b8114610f1857600080fd5b50565b600081359050610f2a81610f04565b92915050565b60008060408385031215610f4757610f46610e2c565b5b6000610f5585828601610e52565b9250506020610f6685828601610f1b565b9150509250929050565b60008060408385031215610f8757610f86610e2c565b5b6000610f9585828601610e52565b9250506020610fa685828601610e52565b9150509250929050565b600060208284031215610fc657610fc5610e2c565b5b6000610fd484828501610e52565b91505092915050565b600080600060608486031215610ff657610ff5610e2c565b5b600061100486828701610e52565b935050602061101586828701610e52565b925050604061102686828701610e52565b9150509250925092565b600073ffffffffffffffffffffffffffffffffffffffff82169050919050565b600061105b82611030565b9050919050565b61106b81611050565b82525050565b600060c0820190506110866000830189611062565b6110936020830188611062565b6110a06040830187610ece565b6110ad6060830186610ece565b6110ba6080830185610ece565b6110c760a0830184610ece565b979650505050505050565b600082825260208201905092915050565b7f47616d65206964206973206e6567617469766521000000000000000000000000600082015250565b60006111196014836110d2565b9150611124826110e3565b602082019050919050565b600060208201905081810360008301526111488161110c565b9050919050565b60006080820190506111646000830187611062565b6111716020830186610ece565b61117e6040830185610ece565b61118b6060830184610ece565b95945050505050565b7f4e487b7100000000000000000000000000000000000000000000000000000000600052601160045260246000fd5b60006111ce82610e31565b91507fffffffffffffffffffffffffffffffffffffffffffffffffffffffffffffffff8203611200576111ff611194565b5b600182019050919050565b61121481610ef8565b82525050565b600060608201905061122f6000830186611062565b61123c6020830185610ece565b611249604083018461120b565b949350505050565b7f506c61796572206e6f7420696e20746861742067616d65210000000000000000600082015250565b60006112876018836110d2565b915061129282611251565b602082019050919050565b600060208201905081810360008301526112b68161127a565b9050919050565b60006060820190506112d26000830186611062565b6112df6020830185610ece565b6112ec6040830184610ece565b949350505050565b7f4e487b7100000000000000000000000000000000000000000000000000000000600052603260045260246000fd5b600061132e82610e31565b915061133983610e31565b925082820390508181111561135157611350611194565b5b92915050565b600061136282610e31565b915061136d83610e31565b925082820190508082111561138557611384611194565b5b92915050565b7f4e6f206f70656e2067616d657321000000000000000000000000000000000000600082015250565b60006113c1600e836110d2565b91506113cc8261138b565b602082019050919050565b600060208201905081810360008301526113f0816113b4565b9050919050565b7f43686f73656e206964206e656761746976652100000000000000000000000000600082015250565b600061142d6013836110d2565b9150611438826113f7565b602082019050919050565b6000602082019050818103600083015261145c81611420565b9050919050565b7f47616d6520616c72656164792074616b656e2100000000000000000000000000600082015250565b60006114996013836110d2565b91506114a482611463565b602082019050919050565b600060208201905081810360008301526114c88161148c565b9050919050565b600060a0820190506114e46000830188611062565b6114f16020830187611062565b6114fe6040830186610ece565b61150b6060830185610ece565b6115186080830184610ece565b9695505050505050565b6000819050919050565b61153d61153882610e31565b611522565b82525050565b60008160601b9050919050565b600061155b82611543565b9050919050565b600061156d82611550565b9050919050565b61158561158082611050565b611562565b82525050565b6000611597828561152c565b6020820191506115a78284611574565b6014820191508190509392505050565b7f4e487b7100000000000000000000000000000000000000000000000000000000600052601260045260246000fd5b60006115f182610e31565b91506115fc83610e31565b92508261160c5761160b6115b7565b5b82820690509291505056fea264697066735822122031d73bb55331d7b835011296c73e128d0b429d0a75ea3e8fc95f88808d0580cc64736f6c63430008130033",
  "immutableReferences": {},
  "source": "// SPDX-License-Identifier: MIT\npragma solidity >=0.4.22 <0.9.0;\n\ncontract BattleShipGame {\n    struct gameInfo {\n        // struct with all the information about a game\n        address creator;\n        address joiner;\n        uint256 boardSize;\n        uint256 shipNum;\n        uint256 ethAmount;\n        uint256 merkleRoot;\n    }\n\n    mapping(uint256 => gameInfo) public gameList; // map of game's ID (gameId => information of that game)\n    uint256[] public avaibleGame; // array with all the gameId of the avaible game\n\n    uint256 public gameId = 1; // value of the next gameId\n\n    // error event:\n    error OutputError(string myError);\n\n    // event:\n    event GameCreated(\n        uint256 indexed _gameId\n    );\n\n    event GameJoined(\n        uint256 indexed _gameId,\n        address _creator,\n        address _joiner,\n        uint256 _boardSize,\n        uint256 _shipNum,\n        uint256 _ethAmount\n    );\n\n    event AmountEthResponse(\n        address _sender,\n        uint256 _amount,\n        uint256 indexed _gameId,\n        bool response\n    );\n\n    event StartGame(\n        uint256 indexed _gameId\n    );\n\n    event ShootShip(\n        uint256 indexed _gameId,\n        address _address,\n        uint256 _row,\n        uint256 _col\n    );\n\n    event ShootResult(\n        uint256 indexed _gameId,\n        address _address,\n        uint256 _row,\n        uint256 _col,\n        uint256 _result\n    );\n\n    constructor() {}\n\n    // function to return the gameId\n    function getId() public returns (uint256 toReturn) {\n        toReturn = gameId++;\n        return toReturn;\n    }\n\n    // function to remove an element of the array avaibleGame\n    function removeFromArray(uint256 _gameId) public {\n        uint256 index;\n        bool find = false;\n\n        // loop the avaible game until find the index of the chosen one\n        for (uint i = 0; i < avaibleGame.length ; i++){\n            if(avaibleGame[i] == _gameId){\n                index = i;\n                find = true;\n                break;\n            }\n        }\n\n        if (!find || index >= avaibleGame.length){\n            return;\n        }\n\n        for (uint i = index; i<avaibleGame.length-1; i++){ // move manually all the element\n            avaibleGame[i] = avaibleGame[i+1];\n        }\n        delete avaibleGame[avaibleGame.length-1]; // remove the last element\n    }\n\n    function getRandomNumber(uint256 bound) private view returns (uint256) {\n        return uint256(keccak256(abi.encodePacked(block.timestamp, msg.sender))) % bound;\n    }\n\n    // function to get the gameId of an avaible game\n    function randomGame() public returns (uint256 randGameId) {\n        if (avaibleGame.length == 0) {\n            return 0;\n        }\n\n        randGameId = avaibleGame[getRandomNumber(avaibleGame.length)];\n        removeFromArray(randGameId);\n        return randGameId;\n    }\n\n    function createGame( // function to create a new game\n        uint256 _boardSize,\n        uint256 _shipNum,\n        uint256 _ethAmount\n    ) public {\n        // create a new game\n        uint256 newGameId = getId();\n\n        gameList[newGameId] = gameInfo(\n            msg.sender,\n            address(0),\n            _boardSize,\n            _shipNum,\n            _ethAmount,\n            0\n        );\n        avaibleGame.push(newGameId);\n        emit GameCreated(newGameId);\n    }\n\n    function joinGame(uint256 _gameId) public { // function to join a game\n        // check if there are avaible game\n        if (avaibleGame.length < 1) {\n            revert OutputError({myError: \"No open games!\"});\n        }\n\n        uint256 chosenGameId;\n\n        if (_gameId == 0) {\n            //random game choice\n            chosenGameId = randomGame();\n        } else {\n            //specific game\n            chosenGameId = _gameId;\n            removeFromArray(chosenGameId);\n        }\n\n        if(chosenGameId <= 0){\n            revert OutputError({myError: \"Chosen id negative!\"});\n        }\n\n        if (gameList[chosenGameId].joiner != address(0)) {\n            revert OutputError({myError: \"Game already taken!\"});\n        }\n        gameList[chosenGameId].joiner = msg.sender;\n\n        emit GameJoined(\n            chosenGameId,\n            gameList[chosenGameId].creator,\n            gameList[chosenGameId].joiner,\n            gameList[chosenGameId].boardSize,\n            gameList[chosenGameId].shipNum,\n            gameList[chosenGameId].ethAmount\n        );\n    }\n\n    function amountEthDecision(uint256 _gameId, bool _response) public { // function to accept or refuse the eth amount\n        if (!_response) { // refuse response\n            gameList[_gameId].joiner = address(0);\n            avaibleGame.push(_gameId);\n        }\n\n        emit AmountEthResponse(\n            msg.sender,\n            gameList[_gameId].ethAmount,\n            _gameId,\n            _response\n        );\n    }\n\n    function submitBoard(uint256 _gameId, uint256 _merkleRoot) public {\n        //TODO: check\n        if(_gameId <= 0){\n            revert OutputError({myError: \"Game id is negative!\"});\n        }\n\n        if(gameList[_gameId].creator == msg.sender || gameList[_gameId].joiner == msg.sender){\n            gameList[_gameId].merkleRoot = _merkleRoot; \n        }\n        else{\n            revert OutputError({myError: \"Player not in that game!\"});\n        }\n        \n        emit StartGame(\n            _gameId\n        );\n    }\n\n    function shoot(uint256 _gameId, uint256 _row, uint256 _col) public {\n        if(_gameId <= 0){\n            revert OutputError({myError: \"Game id is negative!\"});\n        }\n\n        address opponentAddress;\n\n        if(msg.sender == gameList[_gameId].creator){\n            opponentAddress = gameList[_gameId].joiner;\n        }\n        else{\n            opponentAddress = gameList[_gameId].creator;\n        }\n\n        emit ShootShip(\n            _gameId,\n            opponentAddress,\n            _row,\n            _col\n        );\n    }\n\n    function shootResult(uint256 _gameId, uint256 _row, uint256 _col, uint256 _result) public {\n        if(_gameId <= 0){\n            revert OutputError({myError: \"Game id is negative!\"});\n        }\n        \n        address opponentAddress;\n\n        if(msg.sender == gameList[_gameId].creator){\n            opponentAddress = gameList[_gameId].joiner;\n        }\n        else{\n            opponentAddress = gameList[_gameId].creator;\n        }\n\n        emit ShootResult(\n            _gameId,\n            opponentAddress,\n            _row,\n            _col,\n            _result\n        );\n    }\n}\n",
  "sourcePath": "/mnt/storage/Magistrale/P2PB/ProgettoP2P/P2P_Project/contracts/BattleShipGame.sol",
  "compiler": {
    "name": "solc",
    "version": "0.8.19+commit.7dd6d404.Emscripten.clang"
  },
  "schemaVersion": "3.4.13",
  "updatedAt": "2023-07-10T09:44:29.188Z",
  "networkType": "ethereum",
  "devdoc": {
    "kind": "dev",
    "methods": {},
    "version": 1
  },
  "userdoc": {
    "kind": "user",
    "methods": {},
    "version": 1
  }
}