{
  "contractName": "BattleShipGame",
  "abi": [
    {
      "inputs": [],
      "stateMutability": "nonpayable",
      "type": "constructor"
    },
    {
      "inputs": [
        {
          "internalType": "string",
          "name": "myError",
          "type": "string"
        }
      ],
      "name": "OutputError",
      "type": "error"
    },
    {
      "anonymous": false,
      "inputs": [
        {
          "indexed": false,
          "internalType": "address",
          "name": "_sender",
          "type": "address"
        },
        {
          "indexed": false,
          "internalType": "uint256",
          "name": "_amount",
          "type": "uint256"
        },
        {
          "indexed": true,
          "internalType": "uint256",
          "name": "_gameId",
          "type": "uint256"
        },
        {
          "indexed": false,
          "internalType": "bool",
          "name": "response",
          "type": "bool"
        }
      ],
      "name": "AmountEthResponse",
      "type": "event"
    },
    {
      "anonymous": false,
      "inputs": [
        {
          "indexed": true,
          "internalType": "uint256",
          "name": "_gameId",
          "type": "uint256"
        }
      ],
      "name": "GameCreated",
      "type": "event"
    },
    {
      "anonymous": false,
      "inputs": [
        {
          "indexed": true,
          "internalType": "uint256",
          "name": "_gameId",
          "type": "uint256"
        },
        {
          "indexed": false,
          "internalType": "address",
          "name": "_creator",
          "type": "address"
        },
        {
          "indexed": false,
          "internalType": "address",
          "name": "_joiner",
          "type": "address"
        },
        {
          "indexed": false,
          "internalType": "uint256",
          "name": "_boardSize",
          "type": "uint256"
        },
        {
          "indexed": false,
          "internalType": "uint256",
          "name": "_shipNum",
          "type": "uint256"
        },
        {
          "indexed": false,
          "internalType": "uint256",
          "name": "_ethAmount",
          "type": "uint256"
        }
      ],
      "name": "GameJoined",
      "type": "event"
    },
    {
      "anonymous": false,
      "inputs": [
        {
          "indexed": true,
          "internalType": "uint256",
          "name": "_gameId",
          "type": "uint256"
        }
      ],
      "name": "StartGame",
      "type": "event"
    },
    {
      "inputs": [
        {
          "internalType": "uint256",
          "name": "",
          "type": "uint256"
        }
      ],
      "name": "avaibleGame",
      "outputs": [
        {
          "internalType": "uint256",
          "name": "",
          "type": "uint256"
        }
      ],
      "stateMutability": "view",
      "type": "function",
      "constant": true
    },
    {
      "inputs": [],
      "name": "gameId",
      "outputs": [
        {
          "internalType": "uint256",
          "name": "",
          "type": "uint256"
        }
      ],
      "stateMutability": "view",
      "type": "function",
      "constant": true
    },
    {
      "inputs": [
        {
          "internalType": "uint256",
          "name": "",
          "type": "uint256"
        }
      ],
      "name": "gameList",
      "outputs": [
        {
          "internalType": "address",
          "name": "creator",
          "type": "address"
        },
        {
          "internalType": "address",
          "name": "joiner",
          "type": "address"
        },
        {
          "internalType": "uint256",
          "name": "boardSize",
          "type": "uint256"
        },
        {
          "internalType": "uint256",
          "name": "shipNum",
          "type": "uint256"
        },
        {
          "internalType": "uint256",
          "name": "ethAmount",
          "type": "uint256"
        },
        {
          "internalType": "uint256",
          "name": "merkleRoot",
          "type": "uint256"
        }
      ],
      "stateMutability": "view",
      "type": "function",
      "constant": true
    },
    {
      "inputs": [],
      "name": "getId",
      "outputs": [
        {
          "internalType": "uint256",
          "name": "toReturn",
          "type": "uint256"
        }
      ],
      "stateMutability": "nonpayable",
      "type": "function"
    },
    {
      "inputs": [
        {
          "internalType": "uint256",
          "name": "_gameId",
          "type": "uint256"
        }
      ],
      "name": "removeFromArray",
      "outputs": [],
      "stateMutability": "nonpayable",
      "type": "function"
    },
    {
      "inputs": [],
      "name": "randomGame",
      "outputs": [
        {
          "internalType": "uint256",
          "name": "randGameId",
          "type": "uint256"
        }
      ],
      "stateMutability": "nonpayable",
      "type": "function"
    },
    {
      "inputs": [
        {
          "internalType": "uint256",
          "name": "_boardSize",
          "type": "uint256"
        },
        {
          "internalType": "uint256",
          "name": "_shipNum",
          "type": "uint256"
        },
        {
          "internalType": "uint256",
          "name": "_ethAmount",
          "type": "uint256"
        }
      ],
      "name": "createGame",
      "outputs": [],
      "stateMutability": "nonpayable",
      "type": "function"
    },
    {
      "inputs": [
        {
          "internalType": "uint256",
          "name": "_gameId",
          "type": "uint256"
        }
      ],
      "name": "joinGame",
      "outputs": [],
      "stateMutability": "nonpayable",
      "type": "function"
    },
    {
      "inputs": [
        {
          "internalType": "uint256",
          "name": "_gameId",
          "type": "uint256"
        },
        {
          "internalType": "bool",
          "name": "_response",
          "type": "bool"
        }
      ],
      "name": "amountEthDecision",
      "outputs": [],
      "stateMutability": "nonpayable",
      "type": "function"
    },
    {
      "inputs": [
        {
          "internalType": "uint256",
          "name": "_gameId",
          "type": "uint256"
        },
        {
          "internalType": "uint256",
          "name": "_merkleRoot",
          "type": "uint256"
        }
      ],
      "name": "submitBoard",
      "outputs": [],
      "stateMutability": "nonpayable",
      "type": "function"
    }
  ],
  "bytecode": "0x6080604052600160025534801561001557600080fd5b5061124f806100256000396000f3fe608060405234801561001057600080fd5b506004361061009e5760003560e01c8063c6cfd08e11610066578063c6cfd08e14610145578063d7c81b551461017a578063d9ad3ef514610198578063eb56ea90146101b6578063efaa55a0146101d25761009e565b80635d1ca631146100a3578063685385f3146100c157806372e49ad3146100dd578063a4933c81146100f9578063c274152114610129575b600080fd5b6100ab6101ee565b6040516100b89190610b2a565b60405180910390f35b6100db60048036038101906100d69190610bae565b61020c565b005b6100f760048036038101906100f29190610bee565b6102e5565b005b610113600480360381019061010e9190610c2e565b610487565b6040516101209190610b2a565b60405180910390f35b610143600480360381019061013e9190610c5b565b6104ab565b005b61015f600480360381019061015a9190610c2e565b610639565b60405161017196959493929190610cef565b60405180910390f35b6101826106b5565b60405161018f9190610b2a565b60405180910390f35b6101a06106bb565b6040516101ad9190610b2a565b60405180910390f35b6101d060048036038101906101cb9190610c2e565b61070d565b005b6101ec60048036038101906101e79190610c2e565b61083c565b005b60006002600081548092919061020390610d7f565b91905055905090565b8061029057600080600084815260200190815260200160002060010160006101000a81548173ffffffffffffffffffffffffffffffffffffffff021916908373ffffffffffffffffffffffffffffffffffffffff16021790555060018290806001815401808255809150506001900390600052602060002001600090919091909150555b817f55329a170c309fdb206036da4397784f0560d2264c68e25316be295379a9eae83360008086815260200190815260200160002060040154846040516102d993929190610dd6565b60405180910390a25050565b60008211610328576040517f9a9be8fa00000000000000000000000000000000000000000000000000000000815260040161031f90610e6a565b60405180910390fd5b3373ffffffffffffffffffffffffffffffffffffffff1660008084815260200190815260200160002060000160009054906101000a900473ffffffffffffffffffffffffffffffffffffffff1673ffffffffffffffffffffffffffffffffffffffff1614806103f757503373ffffffffffffffffffffffffffffffffffffffff1660008084815260200190815260200160002060010160009054906101000a900473ffffffffffffffffffffffffffffffffffffffff1673ffffffffffffffffffffffffffffffffffffffff16145b1561041b578060008084815260200190815260200160002060050181905550610456565b6040517f9a9be8fa00000000000000000000000000000000000000000000000000000000815260040161044d90610ed6565b60405180910390fd5b817f12333b322723ec26360eb708b341801ecca576387b55caa77d6e408107d2c70f60405160405180910390a25050565b6001818154811061049757600080fd5b906000526020600020016000915090505481565b60006104b56101ee565b90506040518060c001604052803373ffffffffffffffffffffffffffffffffffffffff168152602001600073ffffffffffffffffffffffffffffffffffffffff168152602001858152602001848152602001838152602001600081525060008083815260200190815260200160002060008201518160000160006101000a81548173ffffffffffffffffffffffffffffffffffffffff021916908373ffffffffffffffffffffffffffffffffffffffff16021790555060208201518160010160006101000a81548173ffffffffffffffffffffffffffffffffffffffff021916908373ffffffffffffffffffffffffffffffffffffffff16021790555060408201518160020155606082015181600301556080820151816004015560a082015181600501559050506001819080600181540180825580915050600190039060005260206000200160009091909190915055807fbd19c47e9925eb6f7be8bb1c13a841e0240aaeaf17f217e90022e9c8eb66877f60405160405180910390a250505050565b60006020528060005260406000206000915090508060000160009054906101000a900473ffffffffffffffffffffffffffffffffffffffff16908060010160009054906101000a900473ffffffffffffffffffffffffffffffffffffffff16908060020154908060030154908060040154908060050154905086565b60025481565b600080600180549050036106d2576000905061070a565b60016106e2600180549050610ad1565b815481106106f3576106f2610ef6565b5b906000526020600020015490506107098161070d565b5b90565b6000806000905060005b60018054905081101561076857836001828154811061073957610738610ef6565b5b9060005260206000200154036107555780925060019150610768565b808061076090610d7f565b915050610717565b5080158061077b57506001805490508210155b15610787575050610839565b60008290505b6001808054905061079e9190610f25565b81101561080457600180826107b39190610f59565b815481106107c4576107c3610ef6565b5b9060005260206000200154600182815481106107e3576107e2610ef6565b5b906000526020600020018190555080806107fc90610d7f565b91505061078d565b5060018080805490506108179190610f25565b8154811061082857610827610ef6565b5b906000526020600020016000905550505b50565b600180805490501015610884576040517f9a9be8fa00000000000000000000000000000000000000000000000000000000815260040161087b90610fd9565b60405180910390fd5b600080820361089c576108956106bb565b90506108a9565b8190506108a88161070d565b5b600081116108ec576040517f9a9be8fa0000000000000000000000000000000000000000000000000000000081526004016108e390611045565b60405180910390fd5b600073ffffffffffffffffffffffffffffffffffffffff1660008083815260200190815260200160002060010160009054906101000a900473ffffffffffffffffffffffffffffffffffffffff1673ffffffffffffffffffffffffffffffffffffffff1614610990576040517f9a9be8fa000000000000000000000000000000000000000000000000000000008152600401610987906110b1565b60405180910390fd5b3360008083815260200190815260200160002060010160006101000a81548173ffffffffffffffffffffffffffffffffffffffff021916908373ffffffffffffffffffffffffffffffffffffffff160217905550807f66bacdfb07a49afa060b23ca1e16974d1919771fff2fd57717ab8857b0673b3460008084815260200190815260200160002060000160009054906101000a900473ffffffffffffffffffffffffffffffffffffffff1660008085815260200190815260200160002060010160009054906101000a900473ffffffffffffffffffffffffffffffffffffffff16600080868152602001908152602001600020600201546000808781526020019081526020016000206003015460008088815260200190815260200160002060040154604051610ac59594939291906110d1565b60405180910390a25050565b6000814233604051602001610ae792919061118d565b6040516020818303038152906040528051906020012060001c610b0a91906111e8565b9050919050565b6000819050919050565b610b2481610b11565b82525050565b6000602082019050610b3f6000830184610b1b565b92915050565b600080fd5b610b5381610b11565b8114610b5e57600080fd5b50565b600081359050610b7081610b4a565b92915050565b60008115159050919050565b610b8b81610b76565b8114610b9657600080fd5b50565b600081359050610ba881610b82565b92915050565b60008060408385031215610bc557610bc4610b45565b5b6000610bd385828601610b61565b9250506020610be485828601610b99565b9150509250929050565b60008060408385031215610c0557610c04610b45565b5b6000610c1385828601610b61565b9250506020610c2485828601610b61565b9150509250929050565b600060208284031215610c4457610c43610b45565b5b6000610c5284828501610b61565b91505092915050565b600080600060608486031215610c7457610c73610b45565b5b6000610c8286828701610b61565b9350506020610c9386828701610b61565b9250506040610ca486828701610b61565b9150509250925092565b600073ffffffffffffffffffffffffffffffffffffffff82169050919050565b6000610cd982610cae565b9050919050565b610ce981610cce565b82525050565b600060c082019050610d046000830189610ce0565b610d116020830188610ce0565b610d1e6040830187610b1b565b610d2b6060830186610b1b565b610d386080830185610b1b565b610d4560a0830184610b1b565b979650505050505050565b7f4e487b7100000000000000000000000000000000000000000000000000000000600052601160045260246000fd5b6000610d8a82610b11565b91507fffffffffffffffffffffffffffffffffffffffffffffffffffffffffffffffff8203610dbc57610dbb610d50565b5b600182019050919050565b610dd081610b76565b82525050565b6000606082019050610deb6000830186610ce0565b610df86020830185610b1b565b610e056040830184610dc7565b949350505050565b600082825260208201905092915050565b7f47616d65206964206973206e6567617469766521000000000000000000000000600082015250565b6000610e54601483610e0d565b9150610e5f82610e1e565b602082019050919050565b60006020820190508181036000830152610e8381610e47565b9050919050565b7f506c61796572206e6f7420696e20746861742067616d65210000000000000000600082015250565b6000610ec0601883610e0d565b9150610ecb82610e8a565b602082019050919050565b60006020820190508181036000830152610eef81610eb3565b9050919050565b7f4e487b7100000000000000000000000000000000000000000000000000000000600052603260045260246000fd5b6000610f3082610b11565b9150610f3b83610b11565b9250828203905081811115610f5357610f52610d50565b5b92915050565b6000610f6482610b11565b9150610f6f83610b11565b9250828201905080821115610f8757610f86610d50565b5b92915050565b7f4e6f206f70656e2067616d657321000000000000000000000000000000000000600082015250565b6000610fc3600e83610e0d565b9150610fce82610f8d565b602082019050919050565b60006020820190508181036000830152610ff281610fb6565b9050919050565b7f43686f73656e206964206e656761746976652100000000000000000000000000600082015250565b600061102f601383610e0d565b915061103a82610ff9565b602082019050919050565b6000602082019050818103600083015261105e81611022565b9050919050565b7f47616d6520616c72656164792074616b656e2100000000000000000000000000600082015250565b600061109b601383610e0d565b91506110a682611065565b602082019050919050565b600060208201905081810360008301526110ca8161108e565b9050919050565b600060a0820190506110e66000830188610ce0565b6110f36020830187610ce0565b6111006040830186610b1b565b61110d6060830185610b1b565b61111a6080830184610b1b565b9695505050505050565b6000819050919050565b61113f61113a82610b11565b611124565b82525050565b60008160601b9050919050565b600061115d82611145565b9050919050565b600061116f82611152565b9050919050565b61118761118282610cce565b611164565b82525050565b6000611199828561112e565b6020820191506111a98284611176565b6014820191508190509392505050565b7f4e487b7100000000000000000000000000000000000000000000000000000000600052601260045260246000fd5b60006111f382610b11565b91506111fe83610b11565b92508261120e5761120d6111b9565b5b82820690509291505056fea2646970667358221220f2d410c86b27992e6eb84cd8fa9256ec6f874b1bf71040a8b533091790f7501d64736f6c63430008130033",
  "immutableReferences": {},
  "source": "// SPDX-License-Identifier: MIT\npragma solidity >=0.4.22 <0.9.0;\n\ncontract BattleShipGame {\n    struct gameInfo {\n        // struct with all the information about a game\n        address creator;\n        address joiner;\n        uint256 boardSize;\n        uint256 shipNum;\n        uint256 ethAmount;\n        uint256 merkleRoot;\n    }\n\n    mapping(uint256 => gameInfo) public gameList; // map of game's ID (gameId => information of that game)\n    uint256[] public avaibleGame; // array with all the gameId of the avaible game\n\n    uint256 public gameId = 1; // value of the next gameId\n\n    // error event:\n    error OutputError(string myError);\n\n    // event:\n    event GameCreated(\n        uint256 indexed _gameId\n    );\n\n    event GameJoined(\n        uint256 indexed _gameId,\n        address _creator,\n        address _joiner,\n        uint256 _boardSize,\n        uint256 _shipNum,\n        uint256 _ethAmount\n    );\n\n    event AmountEthResponse(\n        address _sender,\n        uint256 _amount,\n        uint256 indexed _gameId,\n        bool response\n    );\n\n    event StartGame(\n        uint256 indexed _gameId\n    );\n\n    constructor() {}\n\n    // function to return the gameId\n    function getId() public returns (uint256 toReturn) {\n        toReturn = gameId++;\n        return toReturn;\n    }\n\n    // function to remove an element of the array avaibleGame\n    function removeFromArray(uint256 _gameId) public {\n        uint256 index;\n        bool find = false;\n\n        // loop the avaible game until find the index of the chosen one\n        for (uint i = 0; i < avaibleGame.length ; i++){\n            if(avaibleGame[i] == _gameId){\n                index = i;\n                find = true;\n                break;\n            }\n        }\n\n        if (!find || index >= avaibleGame.length){\n            return;\n        }\n\n        for (uint i = index; i<avaibleGame.length-1; i++){ // move manually all the element\n            avaibleGame[i] = avaibleGame[i+1];\n        }\n        delete avaibleGame[avaibleGame.length-1]; // remove the last element\n    }\n\n    function getRandomNumber(uint256 bound) private view returns (uint256) {\n        return uint256(keccak256(abi.encodePacked(block.timestamp, msg.sender))) % bound;\n    }\n\n    // function to get the gameId of an avaible game\n    function randomGame() public returns (uint256 randGameId) {\n        if (avaibleGame.length == 0) {\n            return 0;\n        }\n\n        randGameId = avaibleGame[getRandomNumber(avaibleGame.length)];\n        removeFromArray(randGameId);\n        return randGameId;\n    }\n\n    function createGame( // function to create a new game\n        uint256 _boardSize,\n        uint256 _shipNum,\n        uint256 _ethAmount\n    ) public {\n        // create a new game\n        uint256 newGameId = getId();\n\n        gameList[newGameId] = gameInfo(\n            msg.sender,\n            address(0),\n            _boardSize,\n            _shipNum,\n            _ethAmount,\n            0\n        );\n        avaibleGame.push(newGameId);\n        emit GameCreated(newGameId);\n    }\n\n    function joinGame(uint256 _gameId) public { // function to join a game\n        // check if there are avaible game\n        if (avaibleGame.length < 1) {\n            revert OutputError({myError: \"No open games!\"});\n        }\n\n        uint256 chosenGameId;\n\n        if (_gameId == 0) {\n            //random game choice\n            chosenGameId = randomGame();\n        } else {\n            //specific game\n            chosenGameId = _gameId;\n            removeFromArray(chosenGameId);\n        }\n\n        if(chosenGameId <= 0){\n            revert OutputError({myError: \"Chosen id negative!\"});\n        }\n\n        if (gameList[chosenGameId].joiner != address(0)) {\n            revert OutputError({myError: \"Game already taken!\"});\n        }\n        gameList[chosenGameId].joiner = msg.sender;\n\n        emit GameJoined(\n            chosenGameId,\n            gameList[chosenGameId].creator,\n            gameList[chosenGameId].joiner,\n            gameList[chosenGameId].boardSize,\n            gameList[chosenGameId].shipNum,\n            gameList[chosenGameId].ethAmount\n        );\n    }\n\n    function amountEthDecision(uint256 _gameId, bool _response) public { // function to accept or refuse the eth amount\n        if (!_response) { // refuse response\n            gameList[_gameId].joiner = address(0);\n            avaibleGame.push(_gameId);\n        }\n\n        emit AmountEthResponse(\n            msg.sender,\n            gameList[_gameId].ethAmount,\n            _gameId,\n            _response\n        );\n    }\n\n    function submitBoard(uint256 _gameId, uint256 _merkleRoot) public {\n        //TODO: check\n        if(_gameId <= 0){\n            revert OutputError({myError: \"Game id is negative!\"});\n        }\n\n        if(gameList[_gameId].creator == msg.sender || gameList[_gameId].joiner == msg.sender){\n            gameList[_gameId].merkleRoot = _merkleRoot; \n        }\n        else{\n            revert OutputError({myError: \"Player not in that game!\"});\n        }\n        \n        emit StartGame(\n            _gameId\n        );\n    }\n}\n",
  "sourcePath": "/mnt/storage/Magistrale/P2PB/ProgettoP2P/P2P_Project/contracts/BattleShipGame.sol",
  "compiler": {
    "name": "solc",
    "version": "0.8.19+commit.7dd6d404.Emscripten.clang"
  },
  "schemaVersion": "3.4.13",
  "updatedAt": "2023-07-05T15:26:59.485Z",
  "networkType": "ethereum",
  "devdoc": {
    "kind": "dev",
    "methods": {},
    "version": 1
  },
  "userdoc": {
    "kind": "user",
    "methods": {},
    "version": 1
  }
}