{
  "contractName": "BattleShipGame",
  "abi": [
    {
      "inputs": [],
      "stateMutability": "nonpayable",
      "type": "constructor"
    },
    {
      "inputs": [
        {
          "internalType": "string",
          "name": "myError",
          "type": "string"
        }
      ],
      "name": "OutputError",
      "type": "error"
    },
    {
      "anonymous": false,
      "inputs": [
        {
          "indexed": false,
          "internalType": "address",
          "name": "_sender",
          "type": "address"
        },
        {
          "indexed": false,
          "internalType": "uint256",
          "name": "_amount",
          "type": "uint256"
        },
        {
          "indexed": true,
          "internalType": "uint256",
          "name": "_gameId",
          "type": "uint256"
        }
      ],
      "name": "AmountEthConfirm",
      "type": "event"
    },
    {
      "anonymous": false,
      "inputs": [
        {
          "indexed": false,
          "internalType": "address",
          "name": "_sender",
          "type": "address"
        },
        {
          "indexed": false,
          "internalType": "uint256",
          "name": "_amount",
          "type": "uint256"
        },
        {
          "indexed": true,
          "internalType": "uint256",
          "name": "_gameId",
          "type": "uint256"
        }
      ],
      "name": "AmountEthOffer",
      "type": "event"
    },
    {
      "anonymous": false,
      "inputs": [
        {
          "indexed": true,
          "internalType": "uint256",
          "name": "_gameId",
          "type": "uint256"
        }
      ],
      "name": "GameCreated",
      "type": "event"
    },
    {
      "anonymous": false,
      "inputs": [
        {
          "indexed": true,
          "internalType": "uint256",
          "name": "_gameId",
          "type": "uint256"
        },
        {
          "indexed": false,
          "internalType": "address",
          "name": "_creator",
          "type": "address"
        },
        {
          "indexed": false,
          "internalType": "address",
          "name": "_joiner",
          "type": "address"
        },
        {
          "indexed": false,
          "internalType": "uint256",
          "name": "_boardSize",
          "type": "uint256"
        },
        {
          "indexed": false,
          "internalType": "uint256",
          "name": "_shipNum",
          "type": "uint256"
        }
      ],
      "name": "GameJoined",
      "type": "event"
    },
    {
      "inputs": [
        {
          "internalType": "uint256",
          "name": "",
          "type": "uint256"
        }
      ],
      "name": "avaibleGame",
      "outputs": [
        {
          "internalType": "uint256",
          "name": "",
          "type": "uint256"
        }
      ],
      "stateMutability": "view",
      "type": "function",
      "constant": true
    },
    {
      "inputs": [],
      "name": "gameId",
      "outputs": [
        {
          "internalType": "uint256",
          "name": "",
          "type": "uint256"
        }
      ],
      "stateMutability": "view",
      "type": "function",
      "constant": true
    },
    {
      "inputs": [
        {
          "internalType": "uint256",
          "name": "",
          "type": "uint256"
        }
      ],
      "name": "gameList",
      "outputs": [
        {
          "internalType": "address",
          "name": "creator",
          "type": "address"
        },
        {
          "internalType": "address",
          "name": "joiner",
          "type": "address"
        },
        {
          "internalType": "uint256",
          "name": "boardSize",
          "type": "uint256"
        },
        {
          "internalType": "uint256",
          "name": "shipNum",
          "type": "uint256"
        },
        {
          "internalType": "uint256",
          "name": "ethAmount",
          "type": "uint256"
        },
        {
          "internalType": "bool",
          "name": "openGame",
          "type": "bool"
        }
      ],
      "stateMutability": "view",
      "type": "function",
      "constant": true
    },
    {
      "inputs": [],
      "name": "randomGame",
      "outputs": [
        {
          "internalType": "uint256",
          "name": "randGameId",
          "type": "uint256"
        }
      ],
      "stateMutability": "nonpayable",
      "type": "function"
    },
    {
      "inputs": [
        {
          "internalType": "uint256",
          "name": "_boardSize",
          "type": "uint256"
        },
        {
          "internalType": "uint256",
          "name": "_shipNum",
          "type": "uint256"
        }
      ],
      "name": "createGame",
      "outputs": [],
      "stateMutability": "nonpayable",
      "type": "function"
    },
    {
      "inputs": [
        {
          "internalType": "uint256",
          "name": "_gameId",
          "type": "uint256"
        }
      ],
      "name": "joinGame",
      "outputs": [],
      "stateMutability": "nonpayable",
      "type": "function"
    },
    {
      "inputs": [
        {
          "internalType": "uint256",
          "name": "_gameId",
          "type": "uint256"
        },
        {
          "internalType": "uint256",
          "name": "_amount",
          "type": "uint256"
        }
      ],
      "name": "AmountEthCommit",
      "outputs": [],
      "stateMutability": "nonpayable",
      "type": "function"
    },
    {
      "inputs": [
        {
          "internalType": "uint256",
          "name": "_gameId",
          "type": "uint256"
        }
      ],
      "name": "AmountEthAccept",
      "outputs": [],
      "stateMutability": "nonpayable",
      "type": "function"
    }
  ],
  "bytecode": "0x6080604052600160025534801561001557600080fd5b50610a10806100256000396000f3fe608060405234801561001057600080fd5b50600436106100885760003560e01c8063c6cfd08e1161005b578063c6cfd08e14610111578063d7c81b5514610146578063d9ad3ef514610164578063efaa55a01461018257610088565b8063129bd5d51461008d57806360104cef146100a9578063893e796c146100c5578063a4933c81146100e1575b600080fd5b6100a760048036038101906100a291906106f5565b61019e565b005b6100c360048036038101906100be9190610722565b6101f0565b005b6100df60048036038101906100da9190610722565b6103a5565b005b6100fb60048036038101906100f691906106f5565b6103e3565b6040516101089190610771565b60405180910390f35b61012b600480360381019061012691906106f5565b610407565b60405161013d969594939291906107e8565b60405180910390f35b61014e610490565b60405161015b9190610771565b60405180910390f35b61016c610496565b6040516101799190610771565b60405180910390f35b61019c600480360381019061019791906106f5565b61052c565b005b807f5c75b29c09bdc8b11aca31f82f9303ca5e6780b9c273b8dd5110841e5fe733a233600080858152602001908152602001600020600401546040516101e5929190610849565b60405180910390a250565b600060026000815480929190610205906108a1565b9190505590506040518060c001604052803373ffffffffffffffffffffffffffffffffffffffff168152602001600073ffffffffffffffffffffffffffffffffffffffff168152602001848152602001838152602001600081526020016001151581525060008083815260200190815260200160002060008201518160000160006101000a81548173ffffffffffffffffffffffffffffffffffffffff021916908373ffffffffffffffffffffffffffffffffffffffff16021790555060208201518160010160006101000a81548173ffffffffffffffffffffffffffffffffffffffff021916908373ffffffffffffffffffffffffffffffffffffffff16021790555060408201518160020155606082015181600301556080820151816004015560a08201518160050160006101000a81548160ff0219169083151502179055509050506001819080600181540180825580915050600190039060005260206000200160009091909190915055807fbd19c47e9925eb6f7be8bb1c13a841e0240aaeaf17f217e90022e9c8eb66877f60405160405180910390a2505050565b817fa25cc8f5c820a4017c3336fc73d771690fb894367b47d97cf22511e974c9ed7133836040516103d7929190610849565b60405180910390a25050565b600181815481106103f357600080fd5b906000526020600020016000915090505481565b60006020528060005260406000206000915090508060000160009054906101000a900473ffffffffffffffffffffffffffffffffffffffff16908060010160009054906101000a900473ffffffffffffffffffffffffffffffffffffffff16908060020154908060030154908060040154908060050160009054906101000a900460ff16905086565b60025481565b600080600180549050036104ad5760009050610529565b60005b60018054905081101561052357600181815481106104d1576104d06108e9565b5b9060005260206000200154915060008214610510576000600182815481106104fc576104fb6108e9565b5b906000526020600020018190555050610529565b808061051b906108a1565b9150506104b0565b50600090505b90565b600180805490501015610574576040517f9a9be8fa00000000000000000000000000000000000000000000000000000000815260040161056b90610975565b60405180910390fd5b600080820361058c57610585610496565b9050610590565b8190505b3360008083815260200190815260200160002060010160006101000a81548173ffffffffffffffffffffffffffffffffffffffff021916908373ffffffffffffffffffffffffffffffffffffffff160217905550817f3c7559df3c8541eee58c4a345861be9080036af00d9ec88f28a4779cf18358c060008084815260200190815260200160002060000160009054906101000a900473ffffffffffffffffffffffffffffffffffffffff1660008085815260200190815260200160002060010160009054906101000a900473ffffffffffffffffffffffffffffffffffffffff1660008086815260200190815260200160002060020154600080878152602001908152602001600020600301546040516106ae9493929190610995565b60405180910390a25050565b600080fd5b6000819050919050565b6106d2816106bf565b81146106dd57600080fd5b50565b6000813590506106ef816106c9565b92915050565b60006020828403121561070b5761070a6106ba565b5b6000610719848285016106e0565b91505092915050565b60008060408385031215610739576107386106ba565b5b6000610747858286016106e0565b9250506020610758858286016106e0565b9150509250929050565b61076b816106bf565b82525050565b60006020820190506107866000830184610762565b92915050565b600073ffffffffffffffffffffffffffffffffffffffff82169050919050565b60006107b78261078c565b9050919050565b6107c7816107ac565b82525050565b60008115159050919050565b6107e2816107cd565b82525050565b600060c0820190506107fd60008301896107be565b61080a60208301886107be565b6108176040830187610762565b6108246060830186610762565b6108316080830185610762565b61083e60a08301846107d9565b979650505050505050565b600060408201905061085e60008301856107be565b61086b6020830184610762565b9392505050565b7f4e487b7100000000000000000000000000000000000000000000000000000000600052601160045260246000fd5b60006108ac826106bf565b91507fffffffffffffffffffffffffffffffffffffffffffffffffffffffffffffffff82036108de576108dd610872565b5b600182019050919050565b7f4e487b7100000000000000000000000000000000000000000000000000000000600052603260045260246000fd5b600082825260208201905092915050565b7f4e6f206f70656e2067616d657300000000000000000000000000000000000000600082015250565b600061095f600d83610918565b915061096a82610929565b602082019050919050565b6000602082019050818103600083015261098e81610952565b9050919050565b60006080820190506109aa60008301876107be565b6109b760208301866107be565b6109c46040830185610762565b6109d16060830184610762565b9594505050505056fea2646970667358221220f2f2beb43a08012c22c27127c39415867f6f86cd4dbb699e4197bd275d32e65c64736f6c63430008130033",
  "immutableReferences": {},
  "source": "// SPDX-License-Identifier: MIT\npragma solidity >=0.4.22 <0.9.0;\n\ncontract BattleShipGame {\n    struct gameInfo {\n        address creator;\n        address joiner;\n        uint256 boardSize;\n        uint256 shipNum;\n        uint256 ethAmount;\n        bool openGame;\n    }\n\n    mapping(uint256 => gameInfo) public gameList; //map of game's ID\n    uint256[] public avaibleGame;\n\n    uint256 public gameId=1;\n\n    error OutputError(string myError);\n\n    event AmountEthOffer(address _sender, uint256 _amount, uint256 indexed _gameId);\n\n    event AmountEthConfirm(address _sender, uint256 _amount, uint256 indexed _gameId);\n\n    event GameCreated(uint256 indexed _gameId);\n\n    event GameJoined(\n        uint256 indexed _gameId,\n        address _creator,\n        address _joiner,\n        uint256 _boardSize,\n        uint256 _shipNum\n    );\n\n\n    constructor () {}\n\n    function randomGame() public returns (uint256 randGameId) {\n        if(avaibleGame.length == 0){\n            return 0;\n        }\n\n        for(uint256 i=0; i<avaibleGame.length; i++){\n            randGameId = avaibleGame[i];\n            if(randGameId!=0){\n                avaibleGame[i] = 0;\n                return randGameId;\n            }\n        }\n\n        return 0;\n    }\n\n    function createGame(uint256 _boardSize, uint256 _shipNum) public {\n        uint256 newGameId = gameId++;\n\n        gameList[newGameId] = gameInfo(\n            msg.sender,\n            address(0),\n            _boardSize,\n            _shipNum,\n            0,\n            true\n        );\n        avaibleGame.push(newGameId);\n        emit GameCreated(newGameId);\n    }\n\n    function joinGame(uint256 _gameId) public {\n        if(avaibleGame.length < 1){\n            //TODO: handle the exception\n            revert OutputError({myError: \"No open games\"});\n        }\n        \n        uint256 chosenGameId;\n\n        if(_gameId == 0){ //random game choice\n            chosenGameId = randomGame();\n        }\n        else{ //specific game\n            chosenGameId = _gameId;\n        }\n\n        gameList[chosenGameId].joiner = msg.sender;\n        emit GameJoined(\n            _gameId,\n            gameList[chosenGameId].creator,\n            gameList[chosenGameId].joiner,\n            gameList[chosenGameId].boardSize,\n            gameList[chosenGameId].shipNum);\n    }\n\n\n    function AmountEthCommit(uint256 _gameId, uint256 _amount) public {\n        emit AmountEthOffer(\n            msg.sender,\n            _amount,\n            _gameId);\n    }\n\n    function AmountEthAccept(uint256 _gameId) public {\n        emit AmountEthConfirm(\n            msg.sender,\n            gameList[_gameId].ethAmount,\n            _gameId);\n    }\n}\n",
  "sourcePath": "/mnt/storage/Magistrale/P2PB/ProgettoP2P/P2P_Project/contracts/BattleShipGame.sol",
  "compiler": {
    "name": "solc",
    "version": "0.8.19+commit.7dd6d404.Emscripten.clang"
  },
  "schemaVersion": "3.4.13",
  "updatedAt": "2023-06-23T15:11:16.117Z",
  "networkType": "ethereum",
  "devdoc": {
    "kind": "dev",
    "methods": {},
    "version": 1
  },
  "userdoc": {
    "kind": "user",
    "methods": {},
    "version": 1
  }
}