{
  "contractName": "BattleShipGame",
  "abi": [
    {
      "inputs": [],
      "stateMutability": "nonpayable",
      "type": "constructor"
    },
    {
      "anonymous": false,
      "inputs": [
        {
          "indexed": true,
          "internalType": "uint256",
          "name": "_gameId",
          "type": "uint256"
        },
        {
          "indexed": false,
          "internalType": "uint256",
          "name": "_boardSize",
          "type": "uint256"
        },
        {
          "indexed": false,
          "internalType": "uint256",
          "name": "_shipNum",
          "type": "uint256"
        }
      ],
      "name": "GameCreated",
      "type": "event"
    },
    {
      "inputs": [],
      "name": "gameId",
      "outputs": [
        {
          "internalType": "uint256",
          "name": "",
          "type": "uint256"
        }
      ],
      "stateMutability": "view",
      "type": "function",
      "constant": true
    },
    {
      "inputs": [
        {
          "internalType": "uint256",
          "name": "",
          "type": "uint256"
        }
      ],
      "name": "gameList",
      "outputs": [
        {
          "internalType": "address",
          "name": "creator",
          "type": "address"
        },
        {
          "internalType": "address",
          "name": "joiner",
          "type": "address"
        },
        {
          "internalType": "uint256",
          "name": "boardSize",
          "type": "uint256"
        },
        {
          "internalType": "uint256",
          "name": "shipNum",
          "type": "uint256"
        },
        {
          "internalType": "uint256",
          "name": "ethAmount",
          "type": "uint256"
        },
        {
          "internalType": "bool",
          "name": "openGame",
          "type": "bool"
        }
      ],
      "stateMutability": "view",
      "type": "function",
      "constant": true
    },
    {
      "inputs": [
        {
          "internalType": "uint256",
          "name": "_boardSize",
          "type": "uint256"
        },
        {
          "internalType": "uint256",
          "name": "_shipNum",
          "type": "uint256"
        }
      ],
      "name": "createGame",
      "outputs": [],
      "stateMutability": "nonpayable",
      "type": "function"
    }
  ],
  "bytecode": "0x6080604052600060015534801561001557600080fd5b50610542806100256000396000f3fe608060405234801561001057600080fd5b50600436106100415760003560e01c806360104cef14610046578063c6cfd08e14610062578063d7c81b5514610097575b600080fd5b610060600480360381019061005b9190610318565b6100b5565b005b61007c60048036038101906100779190610358565b61024e565b60405161008e969594939291906103f0565b60405180910390f35b61009f6102d7565b6040516100ac9190610451565b60405180910390f35b6000600160008154809291906100ca9061049b565b9190505590506040518060c001604052803373ffffffffffffffffffffffffffffffffffffffff168152602001600073ffffffffffffffffffffffffffffffffffffffff168152602001848152602001838152602001600081526020016001151581525060008083815260200190815260200160002060008201518160000160006101000a81548173ffffffffffffffffffffffffffffffffffffffff021916908373ffffffffffffffffffffffffffffffffffffffff16021790555060208201518160010160006101000a81548173ffffffffffffffffffffffffffffffffffffffff021916908373ffffffffffffffffffffffffffffffffffffffff16021790555060408201518160020155606082015181600301556080820151816004015560a08201518160050160006101000a81548160ff021916908315150217905550905050807fbd3f84a55fdc44f970adc6ccbaa93e78d7da5f3fc37c4b7da578d47c9ad2e46a84846040516102419291906104e3565b60405180910390a2505050565b60006020528060005260406000206000915090508060000160009054906101000a900473ffffffffffffffffffffffffffffffffffffffff16908060010160009054906101000a900473ffffffffffffffffffffffffffffffffffffffff16908060020154908060030154908060040154908060050160009054906101000a900460ff16905086565b60015481565b600080fd5b6000819050919050565b6102f5816102e2565b811461030057600080fd5b50565b600081359050610312816102ec565b92915050565b6000806040838503121561032f5761032e6102dd565b5b600061033d85828601610303565b925050602061034e85828601610303565b9150509250929050565b60006020828403121561036e5761036d6102dd565b5b600061037c84828501610303565b91505092915050565b600073ffffffffffffffffffffffffffffffffffffffff82169050919050565b60006103b082610385565b9050919050565b6103c0816103a5565b82525050565b6103cf816102e2565b82525050565b60008115159050919050565b6103ea816103d5565b82525050565b600060c08201905061040560008301896103b7565b61041260208301886103b7565b61041f60408301876103c6565b61042c60608301866103c6565b61043960808301856103c6565b61044660a08301846103e1565b979650505050505050565b600060208201905061046660008301846103c6565b92915050565b7f4e487b7100000000000000000000000000000000000000000000000000000000600052601160045260246000fd5b60006104a6826102e2565b91507fffffffffffffffffffffffffffffffffffffffffffffffffffffffffffffffff82036104d8576104d761046c565b5b600182019050919050565b60006040820190506104f860008301856103c6565b61050560208301846103c6565b939250505056fea2646970667358221220257912e6301be492f5289758582e4c66a10bf23dec5c234d6f01942f92cdb93064736f6c63430008130033",
  "immutableReferences": {},
  "source": "// SPDX-License-Identifier: MIT\npragma solidity >=0.4.22 <0.9.0;\n\ncontract BattleShipGame {\n    struct gameInfo {\n        address creator;\n        address joiner;\n        uint256 boardSize;\n        uint256 shipNum;\n        uint256 ethAmount;\n        bool openGame;\n    }\n\n    mapping(uint256 => gameInfo) public gameList; //map of game's ID\n\n    uint256 public gameId=0;\n\n    event GameCreated(\n        uint256 indexed _gameId,\n        uint256 _boardSize,\n        uint256 _shipNum\n    );\n\n\n    constructor () {}\n\n    function createGame(uint256 _boardSize, uint256 _shipNum) public {\n        uint256 newGameId = gameId++;\n\n        gameList[newGameId] = gameInfo(\n            msg.sender,\n            address(0),\n            _boardSize,\n            _shipNum,\n            0,\n            true\n        );\n\n        emit GameCreated(newGameId, _boardSize, _shipNum);\n    }\n}\n",
  "sourcePath": "/mnt/storage/Magistrale/P2PB/ProgettoP2P/P2P_Project/contracts/BattleShipGame.sol",
  "compiler": {
    "name": "solc",
    "version": "0.8.19+commit.7dd6d404.Emscripten.clang"
  },
  "schemaVersion": "3.4.13",
  "updatedAt": "2023-06-22T14:42:02.392Z",
  "networkType": "ethereum",
  "devdoc": {
    "kind": "dev",
    "methods": {},
    "version": 1
  },
  "userdoc": {
    "kind": "user",
    "methods": {},
    "version": 1
  }
}