{
  "contractName": "BattleShipGame",
  "abi": [
    {
      "inputs": [
        {
          "internalType": "uint256",
          "name": "",
          "type": "uint256"
        }
      ],
      "name": "gameList",
      "outputs": [
        {
          "internalType": "uint256",
          "name": "",
          "type": "uint256"
        }
      ],
      "stateMutability": "view",
      "type": "function"
    }
  ],
  "bytecode": "0x608060405234801561001057600080fd5b50610134806100206000396000f3fe6080604052348015600f57600080fd5b506004361060285760003560e01c8063c6cfd08e14602d575b600080fd5b60436004803603810190603f919060b0565b6057565b604051604e919060e5565b60405180910390f35b60008181548110606657600080fd5b906000526020600020016000915090505481565b600080fd5b6000819050919050565b609081607f565b8114609a57600080fd5b50565b60008135905060aa816089565b92915050565b60006020828403121560c35760c2607a565b5b600060cf84828501609d565b91505092915050565b60df81607f565b82525050565b600060208201905060f8600083018460d8565b9291505056fea264697066735822122038e93fdb953052ee22326bfb3ffc28b6d10a5966bc030e2a9dc7a85e98b52eaa64736f6c63430008130033",
  "immutableReferences": {},
  "source": "// SPDX-License-Identifier: MIT\npragma solidity >=0.4.22 <0.9.0;\n\ncontract BattleShipGame {\n  uint256[] public gameList; //array of game's ID\n  \n  \n}\n",
  "sourcePath": "/mnt/storage/Magistrale/P2PB/ProgettoP2P/P2P_Project/contracts/BattleShipGame.sol",
  "compiler": {
    "name": "solc",
    "version": "0.8.19+commit.7dd6d404.Emscripten.clang"
  },
  "schemaVersion": "3.4.13",
  "updatedAt": "2023-06-22T08:46:37.825Z",
  "devdoc": {
    "kind": "dev",
    "methods": {},
    "version": 1
  },
  "userdoc": {
    "kind": "user",
    "methods": {},
    "version": 1
  }
}