{
  "contractName": "BattleShipGame",
  "abi": [
    {
      "inputs": [],
      "stateMutability": "nonpayable",
      "type": "constructor"
    },
    {
      "anonymous": false,
      "inputs": [
        {
          "indexed": false,
          "internalType": "address",
          "name": "_sender",
          "type": "address"
        },
        {
          "indexed": false,
          "internalType": "uint256",
          "name": "_amount",
          "type": "uint256"
        },
        {
          "indexed": true,
          "internalType": "uint256",
          "name": "_gameId",
          "type": "uint256"
        }
      ],
      "name": "AmountEthConfirm",
      "type": "event"
    },
    {
      "anonymous": false,
      "inputs": [
        {
          "indexed": false,
          "internalType": "address",
          "name": "_sender",
          "type": "address"
        },
        {
          "indexed": false,
          "internalType": "uint256",
          "name": "_amount",
          "type": "uint256"
        },
        {
          "indexed": true,
          "internalType": "uint256",
          "name": "_gameId",
          "type": "uint256"
        }
      ],
      "name": "AmountEthOffer",
      "type": "event"
    },
    {
      "anonymous": false,
      "inputs": [
        {
          "indexed": true,
          "internalType": "uint256",
          "name": "_gameId",
          "type": "uint256"
        },
        {
          "indexed": false,
          "internalType": "uint256",
          "name": "_boardSize",
          "type": "uint256"
        },
        {
          "indexed": false,
          "internalType": "uint256",
          "name": "_shipNum",
          "type": "uint256"
        }
      ],
      "name": "GameCreated",
      "type": "event"
    },
    {
      "anonymous": false,
      "inputs": [
        {
          "indexed": true,
          "internalType": "uint256",
          "name": "_gameId",
          "type": "uint256"
        },
        {
          "indexed": false,
          "internalType": "address",
          "name": "_creator",
          "type": "address"
        },
        {
          "indexed": false,
          "internalType": "address",
          "name": "_joiner",
          "type": "address"
        },
        {
          "indexed": false,
          "internalType": "uint256",
          "name": "_boardSize",
          "type": "uint256"
        },
        {
          "indexed": false,
          "internalType": "uint256",
          "name": "_shipNum",
          "type": "uint256"
        }
      ],
      "name": "GameJoined",
      "type": "event"
    },
    {
      "inputs": [
        {
          "internalType": "uint256",
          "name": "",
          "type": "uint256"
        }
      ],
      "name": "avaibleGame",
      "outputs": [
        {
          "internalType": "uint256",
          "name": "",
          "type": "uint256"
        }
      ],
      "stateMutability": "view",
      "type": "function",
      "constant": true
    },
    {
      "inputs": [],
      "name": "gameId",
      "outputs": [
        {
          "internalType": "uint256",
          "name": "",
          "type": "uint256"
        }
      ],
      "stateMutability": "view",
      "type": "function",
      "constant": true
    },
    {
      "inputs": [
        {
          "internalType": "uint256",
          "name": "",
          "type": "uint256"
        }
      ],
      "name": "gameList",
      "outputs": [
        {
          "internalType": "address",
          "name": "creator",
          "type": "address"
        },
        {
          "internalType": "address",
          "name": "joiner",
          "type": "address"
        },
        {
          "internalType": "uint256",
          "name": "boardSize",
          "type": "uint256"
        },
        {
          "internalType": "uint256",
          "name": "shipNum",
          "type": "uint256"
        },
        {
          "internalType": "uint256",
          "name": "ethAmount",
          "type": "uint256"
        },
        {
          "internalType": "bool",
          "name": "openGame",
          "type": "bool"
        }
      ],
      "stateMutability": "view",
      "type": "function",
      "constant": true
    },
    {
      "inputs": [],
      "name": "randomGame",
      "outputs": [
        {
          "internalType": "uint256",
          "name": "randGameId",
          "type": "uint256"
        }
      ],
      "stateMutability": "nonpayable",
      "type": "function"
    },
    {
      "inputs": [
        {
          "internalType": "uint256",
          "name": "_boardSize",
          "type": "uint256"
        },
        {
          "internalType": "uint256",
          "name": "_shipNum",
          "type": "uint256"
        }
      ],
      "name": "createGame",
      "outputs": [],
      "stateMutability": "nonpayable",
      "type": "function"
    },
    {
      "inputs": [
        {
          "internalType": "uint256",
          "name": "_gameId",
          "type": "uint256"
        }
      ],
      "name": "joinGame",
      "outputs": [],
      "stateMutability": "nonpayable",
      "type": "function"
    },
    {
      "inputs": [
        {
          "internalType": "uint256",
          "name": "_gameId",
          "type": "uint256"
        },
        {
          "internalType": "uint256",
          "name": "_amount",
          "type": "uint256"
        }
      ],
      "name": "AmountEthCommit",
      "outputs": [],
      "stateMutability": "nonpayable",
      "type": "function"
    },
    {
      "inputs": [
        {
          "internalType": "uint256",
          "name": "_gameId",
          "type": "uint256"
        }
      ],
      "name": "AmountEthAccept",
      "outputs": [],
      "stateMutability": "nonpayable",
      "type": "function"
    }
  ],
  "bytecode": "0x6080604052600160025534801561001557600080fd5b5061099c806100256000396000f3fe608060405234801561001057600080fd5b50600436106100885760003560e01c8063c6cfd08e1161005b578063c6cfd08e14610111578063d7c81b5514610146578063d9ad3ef514610164578063efaa55a01461018257610088565b8063129bd5d51461008d57806360104cef146100a9578063893e796c146100c5578063a4933c81146100e1575b600080fd5b6100a760048036038101906100a291906106d5565b61019e565b005b6100c360048036038101906100be9190610702565b6101f0565b005b6100df60048036038101906100da9190610702565b6103b2565b005b6100fb60048036038101906100f691906106d5565b6103f0565b6040516101089190610751565b60405180910390f35b61012b600480360381019061012691906106d5565b610414565b60405161013d969594939291906107c8565b60405180910390f35b61014e61049d565b60405161015b9190610751565b60405180910390f35b61016c6104a3565b6040516101799190610751565b60405180910390f35b61019c600480360381019061019791906106d5565b610539565b005b807f5c75b29c09bdc8b11aca31f82f9303ca5e6780b9c273b8dd5110841e5fe733a233600080858152602001908152602001600020600401546040516101e5929190610829565b60405180910390a250565b60006002600081548092919061020590610881565b9190505590506040518060c001604052803373ffffffffffffffffffffffffffffffffffffffff168152602001600073ffffffffffffffffffffffffffffffffffffffff168152602001848152602001838152602001600081526020016001151581525060008083815260200190815260200160002060008201518160000160006101000a81548173ffffffffffffffffffffffffffffffffffffffff021916908373ffffffffffffffffffffffffffffffffffffffff16021790555060208201518160010160006101000a81548173ffffffffffffffffffffffffffffffffffffffff021916908373ffffffffffffffffffffffffffffffffffffffff16021790555060408201518160020155606082015181600301556080820151816004015560a08201518160050160006101000a81548160ff0219169083151502179055509050506001819080600181540180825580915050600190039060005260206000200160009091909190915055807fbd3f84a55fdc44f970adc6ccbaa93e78d7da5f3fc37c4b7da578d47c9ad2e46a84846040516103a59291906108c9565b60405180910390a2505050565b817fa25cc8f5c820a4017c3336fc73d771690fb894367b47d97cf22511e974c9ed7133836040516103e4929190610829565b60405180910390a25050565b6001818154811061040057600080fd5b906000526020600020016000915090505481565b60006020528060005260406000206000915090508060000160009054906101000a900473ffffffffffffffffffffffffffffffffffffffff16908060010160009054906101000a900473ffffffffffffffffffffffffffffffffffffffff16908060020154908060030154908060040154908060050160009054906101000a900460ff16905086565b60025481565b600080600180549050036104ba5760009050610536565b60005b60018054905081101561053057600181815481106104de576104dd6108f2565b5b906000526020600020015491506000821461051d57600060018281548110610509576105086108f2565b5b906000526020600020018190555050610536565b808061052890610881565b9150506104bd565b50600090505b90565b600180805490501061069757600080820361055d576105566104a3565b9050610561565b8190505b6000810361056f5750610697565b3360008083815260200190815260200160002060010160006101000a81548173ffffffffffffffffffffffffffffffffffffffff021916908373ffffffffffffffffffffffffffffffffffffffff160217905550817f3c7559df3c8541eee58c4a345861be9080036af00d9ec88f28a4779cf18358c060008084815260200190815260200160002060000160009054906101000a900473ffffffffffffffffffffffffffffffffffffffff1660008085815260200190815260200160002060010160009054906101000a900473ffffffffffffffffffffffffffffffffffffffff16600080868152602001908152602001600020600201546000808781526020019081526020016000206003015460405161068d9493929190610921565b60405180910390a2505b50565b600080fd5b6000819050919050565b6106b28161069f565b81146106bd57600080fd5b50565b6000813590506106cf816106a9565b92915050565b6000602082840312156106eb576106ea61069a565b5b60006106f9848285016106c0565b91505092915050565b600080604083850312156107195761071861069a565b5b6000610727858286016106c0565b9250506020610738858286016106c0565b9150509250929050565b61074b8161069f565b82525050565b60006020820190506107666000830184610742565b92915050565b600073ffffffffffffffffffffffffffffffffffffffff82169050919050565b60006107978261076c565b9050919050565b6107a78161078c565b82525050565b60008115159050919050565b6107c2816107ad565b82525050565b600060c0820190506107dd600083018961079e565b6107ea602083018861079e565b6107f76040830187610742565b6108046060830186610742565b6108116080830185610742565b61081e60a08301846107b9565b979650505050505050565b600060408201905061083e600083018561079e565b61084b6020830184610742565b9392505050565b7f4e487b7100000000000000000000000000000000000000000000000000000000600052601160045260246000fd5b600061088c8261069f565b91507fffffffffffffffffffffffffffffffffffffffffffffffffffffffffffffffff82036108be576108bd610852565b5b600182019050919050565b60006040820190506108de6000830185610742565b6108eb6020830184610742565b9392505050565b7f4e487b7100000000000000000000000000000000000000000000000000000000600052603260045260246000fd5b6000608082019050610936600083018761079e565b610943602083018661079e565b6109506040830185610742565b61095d6060830184610742565b9594505050505056fea26469706673582212200dee1bc765f17359b25215c144a1a2fb28d29a73c90f7c054ccf9b818f49f92064736f6c63430008130033",
  "immutableReferences": {},
  "source": "// SPDX-License-Identifier: MIT\npragma solidity >=0.4.22 <0.9.0;\n\ncontract BattleShipGame {\n    struct gameInfo {\n        address creator;\n        address joiner;\n        uint256 boardSize;\n        uint256 shipNum;\n        uint256 ethAmount;\n        bool openGame;\n    }\n\n    mapping(uint256 => gameInfo) public gameList; //map of game's ID\n    uint256[] public avaibleGame;\n\n    uint256 public gameId=1;\n\n    event AmountEthOffer(address _sender, uint256 _amount, uint256 indexed _gameId);\n\n    event AmountEthConfirm(address _sender, uint256 _amount, uint256 indexed _gameId);\n\n    event GameCreated(\n        uint256 indexed _gameId,\n        uint256 _boardSize,\n        uint256 _shipNum\n    );\n\n    event GameJoined(\n        uint256 indexed _gameId,\n        address _creator,\n        address _joiner,\n        uint256 _boardSize,\n        uint256 _shipNum\n    );\n\n\n    constructor () {}\n\n    function randomGame() public returns (uint256 randGameId) {\n        if(avaibleGame.length == 0){\n            return 0;\n        }\n\n        for(uint256 i=0; i<avaibleGame.length; i++){\n            randGameId = avaibleGame[i];\n            if(randGameId!=0){\n                avaibleGame[i] = 0;\n                return randGameId;\n            }\n        }\n\n        return 0;\n    }\n\n    function createGame(uint256 _boardSize, uint256 _shipNum) public {\n        uint256 newGameId = gameId++;\n\n        gameList[newGameId] = gameInfo(\n            msg.sender,\n            address(0),\n            _boardSize,\n            _shipNum,\n            0,\n            true\n        );\n        avaibleGame.push(newGameId);\n        emit GameCreated(newGameId, _boardSize, _shipNum);\n    }\n\n    function joinGame(uint256 _gameId) public {\n        if(avaibleGame.length < 1){\n            //TODO: handle the exception\n            return;\n        }\n        \n        uint256 chosenGameId;\n\n        if(_gameId == 0){ //random game choice\n            chosenGameId = randomGame();\n        }\n        else{ //specific game\n            chosenGameId = _gameId;\n        }\n\n        if(chosenGameId == 0){\n            return;\n        }\n\n        gameList[chosenGameId].joiner = msg.sender;\n        emit GameJoined(\n            _gameId,\n            gameList[chosenGameId].creator,\n            gameList[chosenGameId].joiner,\n            gameList[chosenGameId].boardSize,\n            gameList[chosenGameId].shipNum);\n    }\n\n\n    function AmountEthCommit(uint256 _gameId, uint256 _amount) public {\n        emit AmountEthOffer(\n            msg.sender,\n            _amount,\n            _gameId);\n    }\n\n    function AmountEthAccept(uint256 _gameId) public {\n        emit AmountEthConfirm(\n            msg.sender,\n            gameList[_gameId].ethAmount,\n            _gameId);\n    }\n}\n",
  "sourcePath": "/mnt/storage/Magistrale/P2PB/ProgettoP2P/P2P_Project/contracts/BattleShipGame.sol",
  "compiler": {
    "name": "solc",
    "version": "0.8.19+commit.7dd6d404.Emscripten.clang"
  },
  "schemaVersion": "3.4.13",
  "updatedAt": "2023-06-23T09:40:15.476Z",
  "networkType": "ethereum",
  "devdoc": {
    "kind": "dev",
    "methods": {},
    "version": 1
  },
  "userdoc": {
    "kind": "user",
    "methods": {},
    "version": 1
  }
}