{
  "contractName": "BattleShipGame",
  "abi": [
    {
      "inputs": [],
      "stateMutability": "nonpayable",
      "type": "constructor"
    },
    {
      "inputs": [
        {
          "internalType": "string",
          "name": "myError",
          "type": "string"
        }
      ],
      "name": "OutputError",
      "type": "error"
    },
    {
      "anonymous": false,
      "inputs": [
        {
          "indexed": false,
          "internalType": "address",
          "name": "_sender",
          "type": "address"
        },
        {
          "indexed": false,
          "internalType": "uint256",
          "name": "_amount",
          "type": "uint256"
        },
        {
          "indexed": true,
          "internalType": "uint256",
          "name": "_gameId",
          "type": "uint256"
        }
      ],
      "name": "AmountEthConfirm",
      "type": "event"
    },
    {
      "anonymous": false,
      "inputs": [
        {
          "indexed": false,
          "internalType": "address",
          "name": "_sender",
          "type": "address"
        },
        {
          "indexed": false,
          "internalType": "uint256",
          "name": "_amount",
          "type": "uint256"
        },
        {
          "indexed": true,
          "internalType": "uint256",
          "name": "_gameId",
          "type": "uint256"
        }
      ],
      "name": "AmountEthOffer",
      "type": "event"
    },
    {
      "anonymous": false,
      "inputs": [
        {
          "indexed": true,
          "internalType": "uint256",
          "name": "_gameId",
          "type": "uint256"
        }
      ],
      "name": "GameCreated",
      "type": "event"
    },
    {
      "anonymous": false,
      "inputs": [
        {
          "indexed": true,
          "internalType": "uint256",
          "name": "_gameId",
          "type": "uint256"
        },
        {
          "indexed": false,
          "internalType": "address",
          "name": "_creator",
          "type": "address"
        },
        {
          "indexed": false,
          "internalType": "address",
          "name": "_joiner",
          "type": "address"
        },
        {
          "indexed": false,
          "internalType": "uint256",
          "name": "_boardSize",
          "type": "uint256"
        },
        {
          "indexed": false,
          "internalType": "uint256",
          "name": "_shipNum",
          "type": "uint256"
        },
        {
          "indexed": false,
          "internalType": "uint256",
          "name": "_ethAmount",
          "type": "uint256"
        }
      ],
      "name": "GameJoined",
      "type": "event"
    },
    {
      "inputs": [
        {
          "internalType": "uint256",
          "name": "",
          "type": "uint256"
        }
      ],
      "name": "avaibleGame",
      "outputs": [
        {
          "internalType": "uint256",
          "name": "",
          "type": "uint256"
        }
      ],
      "stateMutability": "view",
      "type": "function",
      "constant": true
    },
    {
      "inputs": [],
      "name": "gameId",
      "outputs": [
        {
          "internalType": "uint256",
          "name": "",
          "type": "uint256"
        }
      ],
      "stateMutability": "view",
      "type": "function",
      "constant": true
    },
    {
      "inputs": [
        {
          "internalType": "uint256",
          "name": "",
          "type": "uint256"
        }
      ],
      "name": "gameList",
      "outputs": [
        {
          "internalType": "address",
          "name": "creator",
          "type": "address"
        },
        {
          "internalType": "address",
          "name": "joiner",
          "type": "address"
        },
        {
          "internalType": "uint256",
          "name": "boardSize",
          "type": "uint256"
        },
        {
          "internalType": "uint256",
          "name": "shipNum",
          "type": "uint256"
        },
        {
          "internalType": "uint256",
          "name": "ethAmount",
          "type": "uint256"
        },
        {
          "internalType": "bool",
          "name": "openGame",
          "type": "bool"
        }
      ],
      "stateMutability": "view",
      "type": "function",
      "constant": true
    },
    {
      "inputs": [],
      "name": "getId",
      "outputs": [
        {
          "internalType": "uint256",
          "name": "toReturn",
          "type": "uint256"
        }
      ],
      "stateMutability": "nonpayable",
      "type": "function"
    },
    {
      "inputs": [],
      "name": "randomGame",
      "outputs": [
        {
          "internalType": "uint256",
          "name": "randGameId",
          "type": "uint256"
        }
      ],
      "stateMutability": "nonpayable",
      "type": "function"
    },
    {
      "inputs": [
        {
          "internalType": "uint256",
          "name": "_boardSize",
          "type": "uint256"
        },
        {
          "internalType": "uint256",
          "name": "_shipNum",
          "type": "uint256"
        },
        {
          "internalType": "uint256",
          "name": "_ethAmount",
          "type": "uint256"
        }
      ],
      "name": "createGame",
      "outputs": [],
      "stateMutability": "nonpayable",
      "type": "function"
    },
    {
      "inputs": [
        {
          "internalType": "uint256",
          "name": "_gameId",
          "type": "uint256"
        }
      ],
      "name": "joinGame",
      "outputs": [],
      "stateMutability": "nonpayable",
      "type": "function"
    },
    {
      "inputs": [
        {
          "internalType": "uint256",
          "name": "_gameId",
          "type": "uint256"
        },
        {
          "internalType": "uint256",
          "name": "_amount",
          "type": "uint256"
        }
      ],
      "name": "AmountEthCommit",
      "outputs": [],
      "stateMutability": "nonpayable",
      "type": "function"
    },
    {
      "inputs": [
        {
          "internalType": "uint256",
          "name": "_gameId",
          "type": "uint256"
        }
      ],
      "name": "AmountEthAccept",
      "outputs": [],
      "stateMutability": "nonpayable",
      "type": "function"
    }
  ],
  "bytecode": "0x6080604052600160025534801561001557600080fd5b50610ac0806100256000396000f3fe608060405234801561001057600080fd5b50600436106100935760003560e01c8063c274152111610066578063c27415211461011e578063c6cfd08e1461013a578063d7c81b551461016f578063d9ad3ef51461018d578063efaa55a0146101ab57610093565b8063129bd5d5146100985780635d1ca631146100b4578063893e796c146100d2578063a4933c81146100ee575b600080fd5b6100b260048036038101906100ad9190610744565b6101c7565b005b6100bc610219565b6040516100c99190610780565b60405180910390f35b6100ec60048036038101906100e7919061079b565b610237565b005b61010860048036038101906101039190610744565b610275565b6040516101159190610780565b60405180910390f35b610138600480360381019061013391906107db565b610299565b005b610154600480360381019061014f9190610744565b61043f565b6040516101669695949392919061088a565b60405180910390f35b6101776104c8565b6040516101849190610780565b60405180910390f35b6101956104ce565b6040516101a29190610780565b60405180910390f35b6101c560048036038101906101c09190610744565b610564565b005b807f5c75b29c09bdc8b11aca31f82f9303ca5e6780b9c273b8dd5110841e5fe733a2336000808581526020019081526020016000206004015460405161020e9291906108eb565b60405180910390a250565b60006002600081548092919061022e90610943565b91905055905090565b817fa25cc8f5c820a4017c3336fc73d771690fb894367b47d97cf22511e974c9ed7133836040516102699291906108eb565b60405180910390a25050565b6001818154811061028557600080fd5b906000526020600020016000915090505481565b60006102a3610219565b90506040518060c001604052803373ffffffffffffffffffffffffffffffffffffffff168152602001600073ffffffffffffffffffffffffffffffffffffffff1681526020018581526020018481526020018381526020016001151581525060008083815260200190815260200160002060008201518160000160006101000a81548173ffffffffffffffffffffffffffffffffffffffff021916908373ffffffffffffffffffffffffffffffffffffffff16021790555060208201518160010160006101000a81548173ffffffffffffffffffffffffffffffffffffffff021916908373ffffffffffffffffffffffffffffffffffffffff16021790555060408201518160020155606082015181600301556080820151816004015560a08201518160050160006101000a81548160ff0219169083151502179055509050506001819080600181540180825580915050600190039060005260206000200160009091909190915055807fbd19c47e9925eb6f7be8bb1c13a841e0240aaeaf17f217e90022e9c8eb66877f60405160405180910390a250505050565b60006020528060005260406000206000915090508060000160009054906101000a900473ffffffffffffffffffffffffffffffffffffffff16908060010160009054906101000a900473ffffffffffffffffffffffffffffffffffffffff16908060020154908060030154908060040154908060050160009054906101000a900460ff16905086565b60025481565b600080600180549050036104e55760009050610561565b60005b60018054905081101561055b57600181815481106105095761050861098b565b5b9060005260206000200154915060008214610548576000600182815481106105345761053361098b565b5b906000526020600020018190555050610561565b808061055390610943565b9150506104e8565b50600090505b90565b6001808054905010156105ac576040517f9a9be8fa0000000000000000000000000000000000000000000000000000000081526004016105a390610a17565b60405180910390fd5b60008082036105c4576105bd6104ce565b90506105c8565b8190505b3360008083815260200190815260200160002060010160006101000a81548173ffffffffffffffffffffffffffffffffffffffff021916908373ffffffffffffffffffffffffffffffffffffffff160217905550817f66bacdfb07a49afa060b23ca1e16974d1919771fff2fd57717ab8857b0673b3460008084815260200190815260200160002060000160009054906101000a900473ffffffffffffffffffffffffffffffffffffffff1660008085815260200190815260200160002060010160009054906101000a900473ffffffffffffffffffffffffffffffffffffffff166000808681526020019081526020016000206002015460008087815260200190815260200160002060030154600080888152602001908152602001600020600401546040516106fd959493929190610a37565b60405180910390a25050565b600080fd5b6000819050919050565b6107218161070e565b811461072c57600080fd5b50565b60008135905061073e81610718565b92915050565b60006020828403121561075a57610759610709565b5b60006107688482850161072f565b91505092915050565b61077a8161070e565b82525050565b60006020820190506107956000830184610771565b92915050565b600080604083850312156107b2576107b1610709565b5b60006107c08582860161072f565b92505060206107d18582860161072f565b9150509250929050565b6000806000606084860312156107f4576107f3610709565b5b60006108028682870161072f565b93505060206108138682870161072f565b92505060406108248682870161072f565b9150509250925092565b600073ffffffffffffffffffffffffffffffffffffffff82169050919050565b60006108598261082e565b9050919050565b6108698161084e565b82525050565b60008115159050919050565b6108848161086f565b82525050565b600060c08201905061089f6000830189610860565b6108ac6020830188610860565b6108b96040830187610771565b6108c66060830186610771565b6108d36080830185610771565b6108e060a083018461087b565b979650505050505050565b60006040820190506109006000830185610860565b61090d6020830184610771565b9392505050565b7f4e487b7100000000000000000000000000000000000000000000000000000000600052601160045260246000fd5b600061094e8261070e565b91507fffffffffffffffffffffffffffffffffffffffffffffffffffffffffffffffff82036109805761097f610914565b5b600182019050919050565b7f4e487b7100000000000000000000000000000000000000000000000000000000600052603260045260246000fd5b600082825260208201905092915050565b7f4e6f206f70656e2067616d657300000000000000000000000000000000000000600082015250565b6000610a01600d836109ba565b9150610a0c826109cb565b602082019050919050565b60006020820190508181036000830152610a30816109f4565b9050919050565b600060a082019050610a4c6000830188610860565b610a596020830187610860565b610a666040830186610771565b610a736060830185610771565b610a806080830184610771565b969550505050505056fea26469706673582212204d9e01960f19d0dc7c070e03716883500a40b26256028f212f5e6b6595af39ec64736f6c63430008130033",
  "immutableReferences": {},
  "source": "// SPDX-License-Identifier: MIT\npragma solidity >=0.4.22 <0.9.0;\n\ncontract BattleShipGame {\n    struct gameInfo { // struct with all the information about a game\n        address creator;\n        address joiner;\n        uint256 boardSize;\n        uint256 shipNum;\n        uint256 ethAmount;\n        bool openGame;\n    }\n\n    mapping(uint256 => gameInfo) public gameList; // map of game's ID (gameId => information of that game)\n    uint256[] public avaibleGame; // array with all the gameId of the avaible game\n\n    uint256 public gameId=1; // value of the next gameId\n\n    // error event:\n    error OutputError(string myError);\n\n    // event:\n    event AmountEthOffer(address _sender, uint256 _amount, uint256 indexed _gameId);\n\n    event AmountEthConfirm(address _sender, uint256 _amount, uint256 indexed _gameId);\n\n    event GameCreated(uint256 indexed _gameId);\n\n    event GameJoined(\n        uint256 indexed _gameId,\n        address _creator,\n        address _joiner,\n        uint256 _boardSize,\n        uint256 _shipNum,\n        uint256 _ethAmount\n    );\n\n\n    constructor () {}\n\n    // utility functions:\n\n\n    // function to return the gameId\n    function getId() public returns (uint256 toReturn){\n        toReturn = gameId++;\n        return toReturn;\n    }\n\n    // function to get the gameId of an avaible game\n    function randomGame() public returns (uint256 randGameId) {\n        if(avaibleGame.length == 0){\n            return 0;\n        }\n\n        for(uint256 i=0; i<avaibleGame.length; i++){\n            randGameId = avaibleGame[i];\n            if(randGameId!=0){\n                avaibleGame[i] = 0; // TODO make a pop function tu extract the first element of the array\n                return randGameId;\n            }\n        }\n\n        return 0;\n    }\n\n    function createGame(uint256 _boardSize, uint256 _shipNum, uint256 _ethAmount) public { // create a new game\n        uint256 newGameId = getId();\n\n        gameList[newGameId] = gameInfo(\n            msg.sender,\n            address(0),\n            _boardSize,\n            _shipNum,\n            _ethAmount,\n            true\n        );\n        avaibleGame.push(newGameId);\n        emit GameCreated(newGameId);\n    }\n\n    function joinGame(uint256 _gameId) public { // join a new game\n        if(avaibleGame.length < 1){\n            revert OutputError({myError: \"No open games\"});\n        }\n        \n        uint256 chosenGameId;\n\n        if(_gameId == 0){ //random game choice\n            chosenGameId = randomGame();\n        }\n        else{ //specific game\n            chosenGameId = _gameId;\n        }\n\n        gameList[chosenGameId].joiner = msg.sender;\n        emit GameJoined(\n            _gameId,\n            gameList[chosenGameId].creator,\n            gameList[chosenGameId].joiner,\n            gameList[chosenGameId].boardSize,\n            gameList[chosenGameId].shipNum,\n            gameList[chosenGameId].ethAmount);\n    }\n\n\n    function AmountEthCommit(uint256 _gameId, uint256 _amount) public {\n        emit AmountEthOffer(\n            msg.sender,\n            _amount,\n            _gameId);\n    }\n\n    function AmountEthAccept(uint256 _gameId) public {\n        emit AmountEthConfirm(\n            msg.sender,\n            gameList[_gameId].ethAmount,\n            _gameId);\n    }\n}\n",
  "sourcePath": "/mnt/storage/Magistrale/P2PB/ProgettoP2P/P2P_Project/contracts/BattleShipGame.sol",
  "compiler": {
    "name": "solc",
    "version": "0.8.19+commit.7dd6d404.Emscripten.clang"
  },
  "schemaVersion": "3.4.13",
  "updatedAt": "2023-06-24T14:06:27.237Z",
  "networkType": "ethereum",
  "devdoc": {
    "kind": "dev",
    "methods": {},
    "version": 1
  },
  "userdoc": {
    "kind": "user",
    "methods": {},
    "version": 1
  }
}