{
  "contractName": "BattleShipGame",
  "abi": [
    {
      "inputs": [],
      "stateMutability": "nonpayable",
      "type": "constructor"
    },
    {
      "inputs": [
        {
          "internalType": "string",
          "name": "myError",
          "type": "string"
        }
      ],
      "name": "OutputError",
      "type": "error"
    },
    {
      "anonymous": false,
      "inputs": [
        {
          "indexed": false,
          "internalType": "address",
          "name": "_sender",
          "type": "address"
        },
        {
          "indexed": false,
          "internalType": "uint256",
          "name": "_amount",
          "type": "uint256"
        },
        {
          "indexed": true,
          "internalType": "uint256",
          "name": "_gameId",
          "type": "uint256"
        },
        {
          "indexed": false,
          "internalType": "bool",
          "name": "response",
          "type": "bool"
        }
      ],
      "name": "AmountEthResponse",
      "type": "event"
    },
    {
      "anonymous": false,
      "inputs": [
        {
          "indexed": true,
          "internalType": "uint256",
          "name": "_gameId",
          "type": "uint256"
        }
      ],
      "name": "GameCreated",
      "type": "event"
    },
    {
      "anonymous": false,
      "inputs": [
        {
          "indexed": true,
          "internalType": "uint256",
          "name": "_gameId",
          "type": "uint256"
        },
        {
          "indexed": false,
          "internalType": "address",
          "name": "_creator",
          "type": "address"
        },
        {
          "indexed": false,
          "internalType": "address",
          "name": "_joiner",
          "type": "address"
        },
        {
          "indexed": false,
          "internalType": "uint256",
          "name": "_boardSize",
          "type": "uint256"
        },
        {
          "indexed": false,
          "internalType": "uint256",
          "name": "_shipNum",
          "type": "uint256"
        },
        {
          "indexed": false,
          "internalType": "uint256",
          "name": "_ethAmount",
          "type": "uint256"
        }
      ],
      "name": "GameJoined",
      "type": "event"
    },
    {
      "anonymous": false,
      "inputs": [
        {
          "indexed": true,
          "internalType": "uint256",
          "name": "_gameId",
          "type": "uint256"
        },
        {
          "indexed": false,
          "internalType": "address",
          "name": "_address",
          "type": "address"
        },
        {
          "indexed": false,
          "internalType": "uint256",
          "name": "_row",
          "type": "uint256"
        },
        {
          "indexed": false,
          "internalType": "uint256",
          "name": "_col",
          "type": "uint256"
        },
        {
          "indexed": false,
          "internalType": "uint256",
          "name": "_result",
          "type": "uint256"
        }
      ],
      "name": "ShootResult",
      "type": "event"
    },
    {
      "anonymous": false,
      "inputs": [
        {
          "indexed": true,
          "internalType": "uint256",
          "name": "_gameId",
          "type": "uint256"
        },
        {
          "indexed": false,
          "internalType": "address",
          "name": "_address",
          "type": "address"
        },
        {
          "indexed": false,
          "internalType": "uint256",
          "name": "_row",
          "type": "uint256"
        },
        {
          "indexed": false,
          "internalType": "uint256",
          "name": "_col",
          "type": "uint256"
        }
      ],
      "name": "ShootShip",
      "type": "event"
    },
    {
      "anonymous": false,
      "inputs": [
        {
          "indexed": true,
          "internalType": "uint256",
          "name": "_gameId",
          "type": "uint256"
        }
      ],
      "name": "StartGame",
      "type": "event"
    },
    {
      "inputs": [
        {
          "internalType": "uint256",
          "name": "",
          "type": "uint256"
        }
      ],
      "name": "avaibleGame",
      "outputs": [
        {
          "internalType": "uint256",
          "name": "",
          "type": "uint256"
        }
      ],
      "stateMutability": "view",
      "type": "function",
      "constant": true
    },
    {
      "inputs": [],
      "name": "gameId",
      "outputs": [
        {
          "internalType": "uint256",
          "name": "",
          "type": "uint256"
        }
      ],
      "stateMutability": "view",
      "type": "function",
      "constant": true
    },
    {
      "inputs": [
        {
          "internalType": "uint256",
          "name": "",
          "type": "uint256"
        }
      ],
      "name": "gameList",
      "outputs": [
        {
          "internalType": "address",
          "name": "creator",
          "type": "address"
        },
        {
          "internalType": "address",
          "name": "joiner",
          "type": "address"
        },
        {
          "internalType": "uint256",
          "name": "boardSize",
          "type": "uint256"
        },
        {
          "internalType": "uint256",
          "name": "shipNum",
          "type": "uint256"
        },
        {
          "internalType": "uint256",
          "name": "ethAmount",
          "type": "uint256"
        },
        {
          "internalType": "uint256",
          "name": "merkleRoot",
          "type": "uint256"
        }
      ],
      "stateMutability": "view",
      "type": "function",
      "constant": true
    },
    {
      "inputs": [],
      "name": "getId",
      "outputs": [
        {
          "internalType": "uint256",
          "name": "toReturn",
          "type": "uint256"
        }
      ],
      "stateMutability": "nonpayable",
      "type": "function"
    },
    {
      "inputs": [
        {
          "internalType": "uint256",
          "name": "_gameId",
          "type": "uint256"
        }
      ],
      "name": "removeFromArray",
      "outputs": [
        {
          "internalType": "bool",
          "name": "",
          "type": "bool"
        }
      ],
      "stateMutability": "nonpayable",
      "type": "function"
    },
    {
      "inputs": [],
      "name": "randomGame",
      "outputs": [
        {
          "internalType": "uint256",
          "name": "randGameId",
          "type": "uint256"
        }
      ],
      "stateMutability": "nonpayable",
      "type": "function"
    },
    {
      "inputs": [
        {
          "internalType": "uint256",
          "name": "_boardSize",
          "type": "uint256"
        },
        {
          "internalType": "uint256",
          "name": "_shipNum",
          "type": "uint256"
        },
        {
          "internalType": "uint256",
          "name": "_ethAmount",
          "type": "uint256"
        }
      ],
      "name": "createGame",
      "outputs": [],
      "stateMutability": "nonpayable",
      "type": "function"
    },
    {
      "inputs": [
        {
          "internalType": "uint256",
          "name": "_gameId",
          "type": "uint256"
        }
      ],
      "name": "joinGame",
      "outputs": [],
      "stateMutability": "nonpayable",
      "type": "function"
    },
    {
      "inputs": [
        {
          "internalType": "uint256",
          "name": "_gameId",
          "type": "uint256"
        },
        {
          "internalType": "bool",
          "name": "_response",
          "type": "bool"
        }
      ],
      "name": "amountEthDecision",
      "outputs": [],
      "stateMutability": "nonpayable",
      "type": "function"
    },
    {
      "inputs": [
        {
          "internalType": "uint256",
          "name": "_gameId",
          "type": "uint256"
        },
        {
          "internalType": "uint256",
          "name": "_merkleRoot",
          "type": "uint256"
        }
      ],
      "name": "submitBoard",
      "outputs": [],
      "stateMutability": "nonpayable",
      "type": "function"
    },
    {
      "inputs": [
        {
          "internalType": "uint256",
          "name": "_gameId",
          "type": "uint256"
        },
        {
          "internalType": "uint256",
          "name": "_row",
          "type": "uint256"
        },
        {
          "internalType": "uint256",
          "name": "_col",
          "type": "uint256"
        }
      ],
      "name": "shoot",
      "outputs": [],
      "stateMutability": "nonpayable",
      "type": "function"
    },
    {
      "inputs": [
        {
          "internalType": "uint256",
          "name": "_gameId",
          "type": "uint256"
        },
        {
          "internalType": "uint256",
          "name": "_row",
          "type": "uint256"
        },
        {
          "internalType": "uint256",
          "name": "_col",
          "type": "uint256"
        },
        {
          "internalType": "uint256",
          "name": "_result",
          "type": "uint256"
        }
      ],
      "name": "shootResult",
      "outputs": [],
      "stateMutability": "nonpayable",
      "type": "function"
    }
  ],
  "bytecode": "0x6080604052600160025534801561001557600080fd5b50611733806100256000396000f3fe608060405234801561001057600080fd5b50600436106100b45760003560e01c8063c558b42c11610071578063c558b42c14610177578063c6cfd08e14610193578063d7c81b55146101c8578063d9ad3ef5146101e6578063eb56ea9014610204578063efaa55a014610234576100b4565b80630a79d3d1146100b95780635d1ca631146100d5578063685385f3146100f357806372e49ad31461010f578063a4933c811461012b578063c27415211461015b575b600080fd5b6100d360048036038101906100ce9190610ec6565b610250565b005b6100dd6103b8565b6040516100ea9190610f3c565b60405180910390f35b61010d60048036038101906101089190610f8f565b6103d6565b005b61012960048036038101906101249190610fcf565b6104af565b005b6101456004803603810190610140919061100f565b610651565b6040516101529190610f3c565b60405180910390f35b6101756004803603810190610170919061103c565b610675565b005b610191600480360381019061018c919061103c565b610803565b005b6101ad60048036038101906101a8919061100f565b610968565b6040516101bf969594939291906110d0565b60405180910390f35b6101d06109e4565b6040516101dd9190610f3c565b60405180910390f35b6101ee6109ea565b6040516101fb9190610f3c565b60405180910390f35b61021e6004803603810190610219919061100f565b610a3d565b60405161022b9190611140565b60405180910390f35b61024e6004803603810190610249919061100f565b610b71565b005b60008411610293576040517f9a9be8fa00000000000000000000000000000000000000000000000000000000815260040161028a906111b8565b60405180910390fd5b600080600086815260200190815260200160002060000160009054906101000a900473ffffffffffffffffffffffffffffffffffffffff1673ffffffffffffffffffffffffffffffffffffffff163373ffffffffffffffffffffffffffffffffffffffff160361033a5760008086815260200190815260200160002060010160009054906101000a900473ffffffffffffffffffffffffffffffffffffffff169050610373565b60008086815260200190815260200160002060000160009054906101000a900473ffffffffffffffffffffffffffffffffffffffff1690505b847ff497e56b4fa56357a2b88ddd91f8c5256dd2af7da875abac5678f5d17e616ce4828686866040516103a994939291906111d8565b60405180910390a25050505050565b6000600260008154809291906103cd9061124c565b91905055905090565b8061045a57600080600084815260200190815260200160002060010160006101000a81548173ffffffffffffffffffffffffffffffffffffffff021916908373ffffffffffffffffffffffffffffffffffffffff16021790555060018290806001815401808255809150506001900390600052602060002001600090919091909150555b817f55329a170c309fdb206036da4397784f0560d2264c68e25316be295379a9eae83360008086815260200190815260200160002060040154846040516104a393929190611294565b60405180910390a25050565b600082116104f2576040517f9a9be8fa0000000000000000000000000000000000000000000000000000000081526004016104e9906111b8565b60405180910390fd5b3373ffffffffffffffffffffffffffffffffffffffff1660008084815260200190815260200160002060000160009054906101000a900473ffffffffffffffffffffffffffffffffffffffff1673ffffffffffffffffffffffffffffffffffffffff1614806105c157503373ffffffffffffffffffffffffffffffffffffffff1660008084815260200190815260200160002060010160009054906101000a900473ffffffffffffffffffffffffffffffffffffffff1673ffffffffffffffffffffffffffffffffffffffff16145b156105e5578060008084815260200190815260200160002060050181905550610620565b6040517f9a9be8fa00000000000000000000000000000000000000000000000000000000815260040161061790611317565b60405180910390fd5b817f12333b322723ec26360eb708b341801ecca576387b55caa77d6e408107d2c70f60405160405180910390a25050565b6001818154811061066157600080fd5b906000526020600020016000915090505481565b600061067f6103b8565b90506040518060c001604052803373ffffffffffffffffffffffffffffffffffffffff168152602001600073ffffffffffffffffffffffffffffffffffffffff168152602001858152602001848152602001838152602001600081525060008083815260200190815260200160002060008201518160000160006101000a81548173ffffffffffffffffffffffffffffffffffffffff021916908373ffffffffffffffffffffffffffffffffffffffff16021790555060208201518160010160006101000a81548173ffffffffffffffffffffffffffffffffffffffff021916908373ffffffffffffffffffffffffffffffffffffffff16021790555060408201518160020155606082015181600301556080820151816004015560a082015181600501559050506001819080600181540180825580915050600190039060005260206000200160009091909190915055807fbd19c47e9925eb6f7be8bb1c13a841e0240aaeaf17f217e90022e9c8eb66877f60405160405180910390a250505050565b60008311610846576040517f9a9be8fa00000000000000000000000000000000000000000000000000000000815260040161083d906111b8565b60405180910390fd5b600080600085815260200190815260200160002060000160009054906101000a900473ffffffffffffffffffffffffffffffffffffffff1673ffffffffffffffffffffffffffffffffffffffff163373ffffffffffffffffffffffffffffffffffffffff16036108ed5760008085815260200190815260200160002060010160009054906101000a900473ffffffffffffffffffffffffffffffffffffffff169050610926565b60008085815260200190815260200160002060000160009054906101000a900473ffffffffffffffffffffffffffffffffffffffff1690505b837fa16c812880cd48fb28e27eb04ace25edead556e67c396ab7d2a93674adf55b4382858560405161095a93929190611337565b60405180910390a250505050565b60006020528060005260406000206000915090508060000160009054906101000a900473ffffffffffffffffffffffffffffffffffffffff16908060010160009054906101000a900473ffffffffffffffffffffffffffffffffffffffff16908060020154908060030154908060040154908060050154905086565b60025481565b60008060018054905003610a015760009050610a3a565b6001610a11600180549050610e4b565b81548110610a2257610a2161136e565b5b90600052602060002001549050610a3881610a3d565b505b90565b6000806000805b600180549050811015610a95578460018281548110610a6657610a6561136e565b5b906000526020600020015403610a825780925060019150610a95565b8080610a8d9061124c565b915050610a44565b50801580610aa857506001805490508210155b15610ab7578092505050610b6c565b60008290505b60018080549050610ace919061139d565b811015610b345760018082610ae391906113d1565b81548110610af457610af361136e565b5b906000526020600020015460018281548110610b1357610b1261136e565b5b90600052602060002001819055508080610b2c9061124c565b915050610abd565b506001808080549050610b47919061139d565b81548110610b5857610b5761136e565b5b906000526020600020016000905580925050505b919050565b600180805490501015610bb9576040517f9a9be8fa000000000000000000000000000000000000000000000000000000008152600401610bb090611451565b60405180910390fd5b6000808203610bd157610bca6109ea565b9050610c23565b8190506000610bdf82610a3d565b905080610c21576040517f9a9be8fa000000000000000000000000000000000000000000000000000000008152600401610c18906114bd565b60405180910390fd5b505b60008111610c66576040517f9a9be8fa000000000000000000000000000000000000000000000000000000008152600401610c5d90611529565b60405180910390fd5b600073ffffffffffffffffffffffffffffffffffffffff1660008083815260200190815260200160002060010160009054906101000a900473ffffffffffffffffffffffffffffffffffffffff1673ffffffffffffffffffffffffffffffffffffffff1614610d0a576040517f9a9be8fa000000000000000000000000000000000000000000000000000000008152600401610d0190611595565b60405180910390fd5b3360008083815260200190815260200160002060010160006101000a81548173ffffffffffffffffffffffffffffffffffffffff021916908373ffffffffffffffffffffffffffffffffffffffff160217905550807f66bacdfb07a49afa060b23ca1e16974d1919771fff2fd57717ab8857b0673b3460008084815260200190815260200160002060000160009054906101000a900473ffffffffffffffffffffffffffffffffffffffff1660008085815260200190815260200160002060010160009054906101000a900473ffffffffffffffffffffffffffffffffffffffff16600080868152602001908152602001600020600201546000808781526020019081526020016000206003015460008088815260200190815260200160002060040154604051610e3f9594939291906115b5565b60405180910390a25050565b6000814233604051602001610e61929190611671565b6040516020818303038152906040528051906020012060001c610e8491906116cc565b9050919050565b600080fd5b6000819050919050565b610ea381610e90565b8114610eae57600080fd5b50565b600081359050610ec081610e9a565b92915050565b60008060008060808587031215610ee057610edf610e8b565b5b6000610eee87828801610eb1565b9450506020610eff87828801610eb1565b9350506040610f1087828801610eb1565b9250506060610f2187828801610eb1565b91505092959194509250565b610f3681610e90565b82525050565b6000602082019050610f516000830184610f2d565b92915050565b60008115159050919050565b610f6c81610f57565b8114610f7757600080fd5b50565b600081359050610f8981610f63565b92915050565b60008060408385031215610fa657610fa5610e8b565b5b6000610fb485828601610eb1565b9250506020610fc585828601610f7a565b9150509250929050565b60008060408385031215610fe657610fe5610e8b565b5b6000610ff485828601610eb1565b925050602061100585828601610eb1565b9150509250929050565b60006020828403121561102557611024610e8b565b5b600061103384828501610eb1565b91505092915050565b60008060006060848603121561105557611054610e8b565b5b600061106386828701610eb1565b935050602061107486828701610eb1565b925050604061108586828701610eb1565b9150509250925092565b600073ffffffffffffffffffffffffffffffffffffffff82169050919050565b60006110ba8261108f565b9050919050565b6110ca816110af565b82525050565b600060c0820190506110e560008301896110c1565b6110f260208301886110c1565b6110ff6040830187610f2d565b61110c6060830186610f2d565b6111196080830185610f2d565b61112660a0830184610f2d565b979650505050505050565b61113a81610f57565b82525050565b60006020820190506111556000830184611131565b92915050565b600082825260208201905092915050565b7f47616d65206964206973206e6567617469766521000000000000000000000000600082015250565b60006111a260148361115b565b91506111ad8261116c565b602082019050919050565b600060208201905081810360008301526111d181611195565b9050919050565b60006080820190506111ed60008301876110c1565b6111fa6020830186610f2d565b6112076040830185610f2d565b6112146060830184610f2d565b95945050505050565b7f4e487b7100000000000000000000000000000000000000000000000000000000600052601160045260246000fd5b600061125782610e90565b91507fffffffffffffffffffffffffffffffffffffffffffffffffffffffffffffffff82036112895761128861121d565b5b600182019050919050565b60006060820190506112a960008301866110c1565b6112b66020830185610f2d565b6112c36040830184611131565b949350505050565b7f506c61796572206e6f7420696e20746861742067616d65210000000000000000600082015250565b600061130160188361115b565b915061130c826112cb565b602082019050919050565b60006020820190508181036000830152611330816112f4565b9050919050565b600060608201905061134c60008301866110c1565b6113596020830185610f2d565b6113666040830184610f2d565b949350505050565b7f4e487b7100000000000000000000000000000000000000000000000000000000600052603260045260246000fd5b60006113a882610e90565b91506113b383610e90565b92508282039050818111156113cb576113ca61121d565b5b92915050565b60006113dc82610e90565b91506113e783610e90565b92508282019050808211156113ff576113fe61121d565b5b92915050565b7f4e6f206f70656e2067616d657321000000000000000000000000000000000000600082015250565b600061143b600e8361115b565b915061144682611405565b602082019050919050565b6000602082019050818103600083015261146a8161142e565b9050919050565b7f546869732067616d6520646f6573206e6f742065786973742100000000000000600082015250565b60006114a760198361115b565b91506114b282611471565b602082019050919050565b600060208201905081810360008301526114d68161149a565b9050919050565b7f43686f73656e206964206e656761746976652100000000000000000000000000600082015250565b600061151360138361115b565b915061151e826114dd565b602082019050919050565b6000602082019050818103600083015261154281611506565b9050919050565b7f47616d6520616c72656164792074616b656e2100000000000000000000000000600082015250565b600061157f60138361115b565b915061158a82611549565b602082019050919050565b600060208201905081810360008301526115ae81611572565b9050919050565b600060a0820190506115ca60008301886110c1565b6115d760208301876110c1565b6115e46040830186610f2d565b6115f16060830185610f2d565b6115fe6080830184610f2d565b9695505050505050565b6000819050919050565b61162361161e82610e90565b611608565b82525050565b60008160601b9050919050565b600061164182611629565b9050919050565b600061165382611636565b9050919050565b61166b611666826110af565b611648565b82525050565b600061167d8285611612565b60208201915061168d828461165a565b6014820191508190509392505050565b7f4e487b7100000000000000000000000000000000000000000000000000000000600052601260045260246000fd5b60006116d782610e90565b91506116e283610e90565b9250826116f2576116f161169d565b5b82820690509291505056fea2646970667358221220d7e0e30aceb53b64ffa336803e08f415f7cb2bfccce1b3972312badccb9a556964736f6c63430008130033",
  "immutableReferences": {},
  "source": "// SPDX-License-Identifier: MIT\npragma solidity >=0.4.22 <0.9.0;\n\ncontract BattleShipGame {\n    struct gameInfo {\n        // struct with all the information about a game\n        address creator;\n        address joiner;\n        uint256 boardSize;\n        uint256 shipNum;\n        uint256 ethAmount;\n        uint256 merkleRoot;\n    }\n\n    mapping(uint256 => gameInfo) public gameList; // map of game's ID (gameId => information of that game)\n    uint256[] public avaibleGame; // array with all the gameId of the avaible game\n\n    uint256 public gameId = 1; // value of the next gameId\n\n    // error event:\n    error OutputError(string myError);\n\n    // event:\n    event GameCreated(\n        uint256 indexed _gameId\n    );\n\n    event GameJoined(\n        uint256 indexed _gameId,\n        address _creator,\n        address _joiner,\n        uint256 _boardSize,\n        uint256 _shipNum,\n        uint256 _ethAmount\n    );\n\n    event AmountEthResponse(\n        address _sender,\n        uint256 _amount,\n        uint256 indexed _gameId,\n        bool response\n    );\n\n    event StartGame(\n        uint256 indexed _gameId\n    );\n\n    event ShootShip(\n        uint256 indexed _gameId,\n        address _address,\n        uint256 _row,\n        uint256 _col\n    );\n\n    event ShootResult(\n        uint256 indexed _gameId,\n        address _address,\n        uint256 _row,\n        uint256 _col,\n        uint256 _result\n    );\n\n    constructor() {}\n\n    // function to return the gameId\n    function getId() public returns (uint256 toReturn) {\n        toReturn = gameId++;\n        return toReturn;\n    }\n\n    // function to remove an element of the array avaibleGame\n    function removeFromArray(uint256 _gameId) public returns (bool) {\n        uint256 index;\n        bool find = false;\n\n        // loop the avaible game until find the index of the chosen one\n        for (uint i = 0; i < avaibleGame.length ; i++){\n            if(avaibleGame[i] == _gameId){\n                index = i;\n                find = true;\n                break;\n            }\n        }\n\n        if (!find || index >= avaibleGame.length){\n            return find;\n        }\n\n        for (uint i = index; i<avaibleGame.length-1; i++){ // move manually all the element\n            avaibleGame[i] = avaibleGame[i+1];\n        }\n        delete avaibleGame[avaibleGame.length-1]; // remove the last element\n        return find;\n    }\n\n    function getRandomNumber(uint256 bound) private view returns (uint256) {\n        return uint256(keccak256(abi.encodePacked(block.timestamp, msg.sender))) % bound;\n    }\n\n    // function to get the gameId of an avaible game\n    function randomGame() public returns (uint256 randGameId) {\n        if (avaibleGame.length == 0) {\n            return 0;\n        }\n\n        randGameId = avaibleGame[getRandomNumber(avaibleGame.length)];\n        removeFromArray(randGameId);\n        return randGameId;\n    }\n\n    function createGame( // function to create a new game\n        uint256 _boardSize,\n        uint256 _shipNum,\n        uint256 _ethAmount\n    ) public {\n        // create a new game\n        uint256 newGameId = getId();\n\n        gameList[newGameId] = gameInfo(\n            msg.sender,\n            address(0),\n            _boardSize,\n            _shipNum,\n            _ethAmount,\n            0\n        );\n        avaibleGame.push(newGameId);\n        emit GameCreated(newGameId);\n    }\n\n    function joinGame(uint256 _gameId) public { // function to join a game\n        // check if there are avaible game\n        if (avaibleGame.length < 1) {\n            revert OutputError({myError: \"No open games!\"});\n        }\n\n        uint256 chosenGameId;\n\n        if (_gameId == 0) {\n            //random game choice\n            chosenGameId = randomGame();\n        } else {\n            //specific game\n            chosenGameId = _gameId;\n            bool find = removeFromArray(chosenGameId);\n\n            if(!find){\n                revert OutputError({myError: \"This game does not exist!\"});\n            }\n        }\n\n        if(chosenGameId <= 0){\n            revert OutputError({myError: \"Chosen id negative!\"});\n        }\n\n        if (gameList[chosenGameId].joiner != address(0)) {\n            revert OutputError({myError: \"Game already taken!\"});\n        }\n        gameList[chosenGameId].joiner = msg.sender;\n\n        emit GameJoined(\n            chosenGameId,\n            gameList[chosenGameId].creator,\n            gameList[chosenGameId].joiner,\n            gameList[chosenGameId].boardSize,\n            gameList[chosenGameId].shipNum,\n            gameList[chosenGameId].ethAmount\n        );\n    }\n\n    function amountEthDecision(uint256 _gameId, bool _response) public { // function to accept or refuse the eth amount\n        if (!_response) { // refuse response\n            gameList[_gameId].joiner = address(0);\n            avaibleGame.push(_gameId);\n        }\n\n        emit AmountEthResponse(\n            msg.sender,\n            gameList[_gameId].ethAmount,\n            _gameId,\n            _response\n        );\n    }\n\n    function submitBoard(uint256 _gameId, uint256 _merkleRoot) public { // function to submit the board\n        //TODO: check\n        if(_gameId <= 0){\n            revert OutputError({myError: \"Game id is negative!\"});\n        }\n\n        if(gameList[_gameId].creator == msg.sender || gameList[_gameId].joiner == msg.sender){\n            gameList[_gameId].merkleRoot = _merkleRoot; \n        }\n        else{\n            revert OutputError({myError: \"Player not in that game!\"});\n        }\n        \n        emit StartGame(\n            _gameId\n        );\n    }\n\n    function shoot(uint256 _gameId, uint256 _row, uint256 _col) public { // function to communicate the coordinates of the fired cell\n        if(_gameId <= 0){\n            revert OutputError({myError: \"Game id is negative!\"});\n        }\n\n        // take the opponent address for comunicate who was shot\n        address opponentAddress;\n        if(msg.sender == gameList[_gameId].creator){\n            opponentAddress = gameList[_gameId].joiner;\n        }\n        else{\n            opponentAddress = gameList[_gameId].creator;\n        }\n\n        emit ShootShip(\n            _gameId,\n            opponentAddress,\n            _row,\n            _col\n        );\n    }\n\n    function shootResult(uint256 _gameId, uint256 _row, uint256 _col, uint256 _result) public { // function to comunicate the result of the shot\n        if(_gameId <= 0){\n            revert OutputError({myError: \"Game id is negative!\"});\n        }\n        \n        // take the opponent address for comunicate who fired the shot\n        address opponentAddress;\n        if(msg.sender == gameList[_gameId].creator){\n            opponentAddress = gameList[_gameId].joiner;\n        }\n        else{\n            opponentAddress = gameList[_gameId].creator;\n        }\n\n        emit ShootResult(\n            _gameId,\n            opponentAddress,\n            _row,\n            _col,\n            _result\n        );\n    }\n}\n",
  "sourcePath": "/mnt/storage/Magistrale/P2PB/ProgettoP2P/P2P_Project/contracts/BattleShipGame.sol",
  "compiler": {
    "name": "solc",
    "version": "0.8.19+commit.7dd6d404.Emscripten.clang"
  },
  "schemaVersion": "3.4.13",
  "updatedAt": "2023-07-12T16:22:12.498Z",
  "networkType": "ethereum",
  "devdoc": {
    "kind": "dev",
    "methods": {},
    "version": 1
  },
  "userdoc": {
    "kind": "user",
    "methods": {},
    "version": 1
  }
}